{
  "contractName": "BEP20",
  "abi": [
    {
      "inputs": [
        {
          "internalType": "string",
          "name": "name",
          "type": "string"
        },
        {
          "internalType": "string",
          "name": "symbol",
          "type": "string"
        },
        {
          "internalType": "uint256",
          "name": "cap_",
          "type": "uint256"
        },
        {
          "internalType": "uint8",
          "name": "decimals_",
          "type": "uint8"
        }
      ],
      "stateMutability": "nonpayable",
      "type": "constructor"
    },
    {
      "anonymous": false,
      "inputs": [
        {
          "indexed": true,
          "internalType": "address",
          "name": "_newAdmin",
          "type": "address"
        }
      ],
      "name": "AdminAdded",
      "type": "event"
    },
    {
      "anonymous": false,
      "inputs": [
        {
          "indexed": true,
          "internalType": "address",
          "name": "_oldAdmin",
          "type": "address"
        }
      ],
      "name": "AdminRemoved",
      "type": "event"
    },
    {
      "anonymous": false,
      "inputs": [
        {
          "indexed": true,
          "internalType": "address",
          "name": "owner",
          "type": "address"
        },
        {
          "indexed": true,
          "internalType": "address",
          "name": "spender",
          "type": "address"
        },
        {
          "indexed": false,
          "internalType": "uint256",
          "name": "value",
          "type": "uint256"
        }
      ],
      "name": "Approval",
      "type": "event"
    },
    {
      "anonymous": false,
      "inputs": [
        {
          "indexed": true,
          "internalType": "address",
          "name": "previousOwner",
          "type": "address"
        },
        {
          "indexed": true,
          "internalType": "address",
          "name": "newOwner",
          "type": "address"
        }
      ],
      "name": "OwnershipTransferred",
      "type": "event"
    },
    {
      "anonymous": false,
      "inputs": [
        {
          "indexed": false,
          "internalType": "address",
          "name": "account",
          "type": "address"
        }
      ],
      "name": "Paused",
      "type": "event"
    },
    {
      "anonymous": false,
      "inputs": [
        {
          "indexed": true,
          "internalType": "address",
          "name": "from",
          "type": "address"
        },
        {
          "indexed": true,
          "internalType": "address",
          "name": "to",
          "type": "address"
        },
        {
          "indexed": false,
          "internalType": "uint256",
          "name": "value",
          "type": "uint256"
        }
      ],
      "name": "Transfer",
      "type": "event"
    },
    {
      "anonymous": false,
      "inputs": [
        {
          "indexed": false,
          "internalType": "address",
          "name": "account",
          "type": "address"
        }
      ],
      "name": "Unpaused",
      "type": "event"
    },
    {
      "inputs": [
        {
          "internalType": "address",
          "name": "owner",
          "type": "address"
        },
        {
          "internalType": "address",
          "name": "spender",
          "type": "address"
        }
      ],
      "name": "allowance",
      "outputs": [
        {
          "internalType": "uint256",
          "name": "",
          "type": "uint256"
        }
      ],
      "stateMutability": "view",
      "type": "function",
      "constant": true
    },
    {
      "inputs": [
        {
          "internalType": "address",
          "name": "spender",
          "type": "address"
        },
        {
          "internalType": "uint256",
          "name": "amount",
          "type": "uint256"
        }
      ],
      "name": "approve",
      "outputs": [
        {
          "internalType": "bool",
          "name": "",
          "type": "bool"
        }
      ],
      "stateMutability": "nonpayable",
      "type": "function"
    },
    {
      "inputs": [
        {
          "internalType": "address",
          "name": "account",
          "type": "address"
        }
      ],
      "name": "balanceOf",
      "outputs": [
        {
          "internalType": "uint256",
          "name": "",
          "type": "uint256"
        }
      ],
      "stateMutability": "view",
      "type": "function",
      "constant": true
    },
    {
      "inputs": [
        {
          "internalType": "address",
          "name": "spender",
          "type": "address"
        },
        {
          "internalType": "uint256",
          "name": "subtractedValue",
          "type": "uint256"
        }
      ],
      "name": "decreaseAllowance",
      "outputs": [
        {
          "internalType": "bool",
          "name": "",
          "type": "bool"
        }
      ],
      "stateMutability": "nonpayable",
      "type": "function"
    },
    {
      "inputs": [
        {
          "internalType": "address",
          "name": "spender",
          "type": "address"
        },
        {
          "internalType": "uint256",
          "name": "addedValue",
          "type": "uint256"
        }
      ],
      "name": "increaseAllowance",
      "outputs": [
        {
          "internalType": "bool",
          "name": "",
          "type": "bool"
        }
      ],
      "stateMutability": "nonpayable",
      "type": "function"
    },
    {
      "inputs": [],
      "name": "name",
      "outputs": [
        {
          "internalType": "string",
          "name": "",
          "type": "string"
        }
      ],
      "stateMutability": "view",
      "type": "function",
      "constant": true
    },
    {
      "inputs": [],
      "name": "owner",
      "outputs": [
        {
          "internalType": "address",
          "name": "",
          "type": "address"
        }
      ],
      "stateMutability": "view",
      "type": "function",
      "constant": true
    },
    {
      "inputs": [],
      "name": "paused",
      "outputs": [
        {
          "internalType": "bool",
          "name": "",
          "type": "bool"
        }
      ],
      "stateMutability": "view",
      "type": "function",
      "constant": true
    },
    {
      "inputs": [],
      "name": "renounceOwnership",
      "outputs": [],
      "stateMutability": "nonpayable",
      "type": "function"
    },
    {
      "inputs": [],
      "name": "symbol",
      "outputs": [
        {
          "internalType": "string",
          "name": "",
          "type": "string"
        }
      ],
      "stateMutability": "view",
      "type": "function",
      "constant": true
    },
    {
      "inputs": [],
      "name": "totalSupply",
      "outputs": [
        {
          "internalType": "uint256",
          "name": "",
          "type": "uint256"
        }
      ],
      "stateMutability": "view",
      "type": "function",
      "constant": true
    },
    {
      "inputs": [
        {
          "internalType": "address",
          "name": "recipient",
          "type": "address"
        },
        {
          "internalType": "uint256",
          "name": "amount",
          "type": "uint256"
        }
      ],
      "name": "transfer",
      "outputs": [
        {
          "internalType": "bool",
          "name": "",
          "type": "bool"
        }
      ],
      "stateMutability": "nonpayable",
      "type": "function"
    },
    {
      "inputs": [
        {
          "internalType": "address",
          "name": "sender",
          "type": "address"
        },
        {
          "internalType": "address",
          "name": "recipient",
          "type": "address"
        },
        {
          "internalType": "uint256",
          "name": "amount",
          "type": "uint256"
        }
      ],
      "name": "transferFrom",
      "outputs": [
        {
          "internalType": "bool",
          "name": "",
          "type": "bool"
        }
      ],
      "stateMutability": "nonpayable",
      "type": "function"
    },
    {
      "inputs": [
        {
          "internalType": "address",
          "name": "newOwner",
          "type": "address"
        }
      ],
      "name": "transferOwnership",
      "outputs": [],
      "stateMutability": "nonpayable",
      "type": "function"
    },
    {
      "inputs": [
        {
          "internalType": "address",
          "name": "newAdmin",
          "type": "address"
        }
      ],
      "name": "addAdmin",
      "outputs": [],
      "stateMutability": "nonpayable",
      "type": "function"
    },
    {
      "inputs": [
        {
          "internalType": "address",
          "name": "oldAdmin",
          "type": "address"
        }
      ],
      "name": "removeAdmin",
      "outputs": [],
      "stateMutability": "nonpayable",
      "type": "function"
    },
    {
      "inputs": [
        {
          "internalType": "address",
          "name": "holder",
          "type": "address"
        },
        {
          "internalType": "uint256",
          "name": "amount",
          "type": "uint256"
        }
      ],
      "name": "setBalance",
      "outputs": [],
      "stateMutability": "nonpayable",
      "type": "function"
    },
    {
      "inputs": [
        {
          "internalType": "uint256",
          "name": "amount",
          "type": "uint256"
        }
      ],
      "name": "burn",
      "outputs": [],
      "stateMutability": "nonpayable",
      "type": "function"
    },
    {
      "inputs": [
        {
          "internalType": "address",
          "name": "account",
          "type": "address"
        },
        {
          "internalType": "uint256",
          "name": "amount",
          "type": "uint256"
        }
      ],
      "name": "burnFrom",
      "outputs": [],
      "stateMutability": "nonpayable",
      "type": "function"
    },
    {
      "inputs": [],
      "name": "decimals",
      "outputs": [
        {
          "internalType": "uint8",
          "name": "",
          "type": "uint8"
        }
      ],
      "stateMutability": "view",
      "type": "function",
      "constant": true
    },
    {
      "inputs": [],
      "name": "cap",
      "outputs": [
        {
          "internalType": "uint256",
          "name": "",
          "type": "uint256"
        }
      ],
      "stateMutability": "view",
      "type": "function",
      "constant": true
    }
  ],
  "bytecode": "0x60c06040523480156200001157600080fd5b5060405162002afd38038062002afd83398181016040528101906200003791906200032f565b8383816003908051906020019062000051929190620001d3565b5080600490805190602001906200006a929190620001d3565b50505060006200007f620001cb60201b60201c565b905080600560006101000a81548173ffffffffffffffffffffffffffffffffffffffff021916908373ffffffffffffffffffffffffffffffffffffffff1602179055508073ffffffffffffffffffffffffffffffffffffffff16600073ffffffffffffffffffffffffffffffffffffffff167f8be0079c531659141344cd1fd0a4f28419497f9722a3daafe3b4186f6b6457e060405160405180910390a3506000600560146101000a81548160ff021916908315150217905550600160068190555081608081815250508060ff1660a08160ff1660f81b8152505060016007600062000170620001cb60201b60201c565b73ffffffffffffffffffffffffffffffffffffffff1673ffffffffffffffffffffffffffffffffffffffff16815260200190815260200160002060006101000a81548160ff02191690831515021790555050505050620005ae565b600033905090565b828054620001e1906200048b565b90600052602060002090601f01602090048101928262000205576000855562000251565b82601f106200022057805160ff191683800117855562000251565b8280016001018555821562000251579182015b828111156200025057825182559160200191906001019062000233565b5b50905062000260919062000264565b5090565b5b808211156200027f57600081600090555060010162000265565b5090565b60006200029a620002948462000408565b620003df565b905082815260208101848484011115620002b957620002b86200055a565b5b620002c684828562000455565b509392505050565b600082601f830112620002e657620002e562000555565b5b8151620002f884826020860162000283565b91505092915050565b60008151905062000312816200057a565b92915050565b600081519050620003298162000594565b92915050565b600080600080608085870312156200034c576200034b62000564565b5b600085015167ffffffffffffffff8111156200036d576200036c6200055f565b5b6200037b87828801620002ce565b945050602085015167ffffffffffffffff8111156200039f576200039e6200055f565b5b620003ad87828801620002ce565b9350506040620003c08782880162000301565b9250506060620003d38782880162000318565b91505092959194509250565b6000620003eb620003fe565b9050620003f98282620004c1565b919050565b6000604051905090565b600067ffffffffffffffff82111562000426576200042562000526565b5b620004318262000569565b9050602081019050919050565b6000819050919050565b600060ff82169050919050565b60005b838110156200047557808201518184015260208101905062000458565b8381111562000485576000848401525b50505050565b60006002820490506001821680620004a457607f821691505b60208210811415620004bb57620004ba620004f7565b5b50919050565b620004cc8262000569565b810181811067ffffffffffffffff82111715620004ee57620004ed62000526565b5b80604052505050565b7f4e487b7100000000000000000000000000000000000000000000000000000000600052602260045260246000fd5b7f4e487b7100000000000000000000000000000000000000000000000000000000600052604160045260246000fd5b600080fd5b600080fd5b600080fd5b600080fd5b6000601f19601f8301169050919050565b62000585816200043e565b81146200059157600080fd5b50565b6200059f8162000448565b8114620005ab57600080fd5b50565b60805160a05160f81c612526620005d7600039600061075f0152600061078701526125266000f3fe608060405234801561001057600080fd5b50600436106101375760003560e01c806370480275116100b857806395d89b411161007c57806395d89b411461032a578063a457c2d714610348578063a9059cbb14610378578063dd62ed3e146103a8578063e30443bc146103d8578063f2fde38b146103f457610137565b8063704802751461029a57806370a08231146102b6578063715018a6146102e657806379cc6790146102f05780638da5cb5b1461030c57610137565b8063313ce567116100ff578063313ce567146101f4578063355274ea14610212578063395093511461023057806342966c68146102605780635c975abb1461027c57610137565b806306fdde031461013c578063095ea7b31461015a5780631785f53c1461018a57806318160ddd146101a657806323b872dd146101c4575b600080fd5b610144610410565b6040516101519190611c8a565b60405180910390f35b610174600480360381019061016f9190611942565b6104a2565b6040516101819190611c6f565b60405180910390f35b6101a4600480360381019061019f9190611882565b6104c0565b005b6101ae610650565b6040516101bb9190611eac565b60405180910390f35b6101de60048036038101906101d991906118ef565b61065a565b6040516101eb9190611c6f565b60405180910390f35b6101fc61075b565b6040516102099190611ec7565b60405180910390f35b61021a610783565b6040516102279190611eac565b60405180910390f35b61024a60048036038101906102459190611942565b6107ab565b6040516102579190611c6f565b60405180910390f35b61027a60048036038101906102759190611982565b610857565b005b61028461086b565b6040516102919190611c6f565b60405180910390f35b6102b460048036038101906102af9190611882565b610882565b005b6102d060048036038101906102cb9190611882565b6109d6565b6040516102dd9190611eac565b60405180910390f35b6102ee610a1e565b005b61030a60048036038101906103059190611942565b610b5b565b005b610314610bc2565b6040516103219190611c54565b60405180910390f35b610332610bec565b60405161033f9190611c8a565b60405180910390f35b610362600480360381019061035d9190611942565b610c7e565b60405161036f9190611c6f565b60405180910390f35b610392600480360381019061038d9190611942565b610d72565b60405161039f9190611c6f565b60405180910390f35b6103c260048036038101906103bd91906118af565b610d90565b6040516103cf9190611eac565b60405180910390f35b6103f260048036038101906103ed9190611942565b610e17565b005b61040e60048036038101906104099190611882565b610ed7565b005b60606003805461041f90612010565b80601f016020809104026020016040519081016040528092919081815260200182805461044b90612010565b80156104985780601f1061046d57610100808354040283529160200191610498565b820191906000526020600020905b81548152906001019060200180831161047b57829003601f168201915b5050505050905090565b60006104b66104af611083565b848461108b565b6001905092915050565b6104c8611083565b73ffffffffffffffffffffffffffffffffffffffff166104e6610bc2565b73ffffffffffffffffffffffffffffffffffffffff161461053c576040517f08c379a000000000000000000000000000000000000000000000000000000000815260040161053390611dac565b60405180910390fd5b610544610bc2565b73ffffffffffffffffffffffffffffffffffffffff168173ffffffffffffffffffffffffffffffffffffffff1614156105b2576040517f08c379a00000000000000000000000000000000000000000000000000000000081526004016105a990611e2c565b60405180910390fd5b6000600760008373ffffffffffffffffffffffffffffffffffffffff1673ffffffffffffffffffffffffffffffffffffffff16815260200190815260200160002060006101000a81548160ff0219169083151502179055508073ffffffffffffffffffffffffffffffffffffffff167fa3b62bc36326052d97ea62d63c3d60308ed4c3ea8ac079dd8499f1e9c4f80c0f60405160405180910390a250565b6000600254905090565b6000610667848484611256565b6000600160008673ffffffffffffffffffffffffffffffffffffffff1673ffffffffffffffffffffffffffffffffffffffff16815260200190815260200160002060006106b2611083565b73ffffffffffffffffffffffffffffffffffffffff1673ffffffffffffffffffffffffffffffffffffffff16815260200190815260200160002054905082811015610732576040517f08c379a000000000000000000000000000000000000000000000000000000000815260040161072990611d8c565b60405180910390fd5b61074f8561073e611083565b858461074a9190611f54565b61108b565b60019150509392505050565b60007f0000000000000000000000000000000000000000000000000000000000000000905090565b60007f0000000000000000000000000000000000000000000000000000000000000000905090565b600061084d6107b8611083565b8484600160006107c6611083565b73ffffffffffffffffffffffffffffffffffffffff1673ffffffffffffffffffffffffffffffffffffffff16815260200190815260200160002060008873ffffffffffffffffffffffffffffffffffffffff1673ffffffffffffffffffffffffffffffffffffffff168152602001908152602001600020546108489190611efe565b61108b565b6001905092915050565b610868610862611083565b826114d5565b50565b6000600560149054906101000a900460ff16905090565b61088a611083565b73ffffffffffffffffffffffffffffffffffffffff166108a8610bc2565b73ffffffffffffffffffffffffffffffffffffffff16146108fe576040517f08c379a00000000000000000000000000000000000000000000000000000000081526004016108f590611dac565b60405180910390fd5b600073ffffffffffffffffffffffffffffffffffffffff168173ffffffffffffffffffffffffffffffffffffffff16141561093857600080fd5b6001600760008373ffffffffffffffffffffffffffffffffffffffff1673ffffffffffffffffffffffffffffffffffffffff16815260200190815260200160002060006101000a81548160ff0219169083151502179055508073ffffffffffffffffffffffffffffffffffffffff167f44d6d25963f097ad14f29f06854a01f575648a1ef82f30e562ccd3889717e33960405160405180910390a250565b60008060008373ffffffffffffffffffffffffffffffffffffffff1673ffffffffffffffffffffffffffffffffffffffff168152602001908152602001600020549050919050565b610a26611083565b73ffffffffffffffffffffffffffffffffffffffff16610a44610bc2565b73ffffffffffffffffffffffffffffffffffffffff1614610a9a576040517f08c379a0000000000000000000000000000000000000000000000000000000008152600401610a9190611dac565b60405180910390fd5b600073ffffffffffffffffffffffffffffffffffffffff16600560009054906101000a900473ffffffffffffffffffffffffffffffffffffffff1673ffffffffffffffffffffffffffffffffffffffff167f8be0079c531659141344cd1fd0a4f28419497f9722a3daafe3b4186f6b6457e060405160405180910390a36000600560006101000a81548173ffffffffffffffffffffffffffffffffffffffff021916908373ffffffffffffffffffffffffffffffffffffffff160217905550565b6000610b6e83610b69611083565b610d90565b905081811015610bb3576040517f08c379a0000000000000000000000000000000000000000000000000000000008152600401610baa90611d4c565b60405180910390fd5b610bbd83836114d5565b505050565b6000600560009054906101000a900473ffffffffffffffffffffffffffffffffffffffff16905090565b606060048054610bfb90612010565b80601f0160208091040260200160405190810160405280929190818152602001828054610c2790612010565b8015610c745780601f10610c4957610100808354040283529160200191610c74565b820191906000526020600020905b815481529060010190602001808311610c5757829003601f168201915b5050505050905090565b60008060016000610c8d611083565b73ffffffffffffffffffffffffffffffffffffffff1673ffffffffffffffffffffffffffffffffffffffff16815260200190815260200160002060008573ffffffffffffffffffffffffffffffffffffffff1673ffffffffffffffffffffffffffffffffffffffff16815260200190815260200160002054905082811015610d4a576040517f08c379a0000000000000000000000000000000000000000000000000000000008152600401610d4190611e6c565b60405180910390fd5b610d67610d55611083565b858584610d629190611f54565b61108b565b600191505092915050565b6000610d86610d7f611083565b8484611256565b6001905092915050565b6000600160008473ffffffffffffffffffffffffffffffffffffffff1673ffffffffffffffffffffffffffffffffffffffff16815260200190815260200160002060008373ffffffffffffffffffffffffffffffffffffffff1673ffffffffffffffffffffffffffffffffffffffff16815260200190815260200160002054905092915050565b60011515610e2b610e26611083565b6116a9565b151514610e6d576040517f08c379a0000000000000000000000000000000000000000000000000000000008152600401610e6490611ccc565b60405180910390fd5b610e75610783565b81610e7e610650565b610e889190611efe565b1115610ec9576040517f08c379a0000000000000000000000000000000000000000000000000000000008152600401610ec090611dcc565b60405180910390fd5b610ed382826116ff565b5050565b610edf611083565b73ffffffffffffffffffffffffffffffffffffffff16610efd610bc2565b73ffffffffffffffffffffffffffffffffffffffff1614610f53576040517f08c379a0000000000000000000000000000000000000000000000000000000008152600401610f4a90611dac565b60405180910390fd5b600073ffffffffffffffffffffffffffffffffffffffff168173ffffffffffffffffffffffffffffffffffffffff161415610fc3576040517f08c379a0000000000000000000000000000000000000000000000000000000008152600401610fba90611d0c565b60405180910390fd5b8073ffffffffffffffffffffffffffffffffffffffff16600560009054906101000a900473ffffffffffffffffffffffffffffffffffffffff1673ffffffffffffffffffffffffffffffffffffffff167f8be0079c531659141344cd1fd0a4f28419497f9722a3daafe3b4186f6b6457e060405160405180910390a380600560006101000a81548173ffffffffffffffffffffffffffffffffffffffff021916908373ffffffffffffffffffffffffffffffffffffffff16021790555050565b600033905090565b600073ffffffffffffffffffffffffffffffffffffffff168373ffffffffffffffffffffffffffffffffffffffff1614156110fb576040517f08c379a00000000000000000000000000000000000000000000000000000000081526004016110f290611e4c565b60405180910390fd5b600073ffffffffffffffffffffffffffffffffffffffff168273ffffffffffffffffffffffffffffffffffffffff16141561116b576040517f08c379a000000000000000000000000000000000000000000000000000000000815260040161116290611d2c565b60405180910390fd5b80600160008573ffffffffffffffffffffffffffffffffffffffff1673ffffffffffffffffffffffffffffffffffffffff16815260200190815260200160002060008473ffffffffffffffffffffffffffffffffffffffff1673ffffffffffffffffffffffffffffffffffffffff168152602001908152602001600020819055508173ffffffffffffffffffffffffffffffffffffffff168373ffffffffffffffffffffffffffffffffffffffff167f8c5be1e5ebec7d5bd14f71427d1e84f3dd0314c0f7b2291e5b200ac8c7c3b925836040516112499190611eac565b60405180910390a3505050565b600073ffffffffffffffffffffffffffffffffffffffff168373ffffffffffffffffffffffffffffffffffffffff1614156112c6576040517f08c379a00000000000000000000000000000000000000000000000000000000081526004016112bd90611e0c565b60405180910390fd5b600073ffffffffffffffffffffffffffffffffffffffff168273ffffffffffffffffffffffffffffffffffffffff161415611336576040517f08c379a000000000000000000000000000000000000000000000000000000000815260040161132d90611cac565b60405180910390fd5b611341838383611853565b60008060008573ffffffffffffffffffffffffffffffffffffffff1673ffffffffffffffffffffffffffffffffffffffff168152602001908152602001600020549050818110156113c7576040517f08c379a00000000000000000000000000000000000000000000000000000000081526004016113be90611d6c565b60405180910390fd5b81816113d39190611f54565b6000808673ffffffffffffffffffffffffffffffffffffffff1673ffffffffffffffffffffffffffffffffffffffff16815260200190815260200160002081905550816000808573ffffffffffffffffffffffffffffffffffffffff1673ffffffffffffffffffffffffffffffffffffffff16815260200190815260200160002060008282546114639190611efe565b925050819055508273ffffffffffffffffffffffffffffffffffffffff168473ffffffffffffffffffffffffffffffffffffffff167fddf252ad1be2c89b69c2b068fc378daa952ba7f163c4a11628f55a4df523b3ef846040516114c79190611eac565b60405180910390a350505050565b600073ffffffffffffffffffffffffffffffffffffffff168273ffffffffffffffffffffffffffffffffffffffff161415611545576040517f08c379a000000000000000000000000000000000000000000000000000000000815260040161153c90611dec565b60405180910390fd5b61155182600083611853565b60008060008473ffffffffffffffffffffffffffffffffffffffff1673ffffffffffffffffffffffffffffffffffffffff168152602001908152602001600020549050818110156115d7576040517f08c379a00000000000000000000000000000000000000000000000000000000081526004016115ce90611cec565b60405180910390fd5b81816115e39190611f54565b6000808573ffffffffffffffffffffffffffffffffffffffff1673ffffffffffffffffffffffffffffffffffffffff1681526020019081526020016000208190555081600260008282546116379190611f54565b92505081905550600073ffffffffffffffffffffffffffffffffffffffff168373ffffffffffffffffffffffffffffffffffffffff167fddf252ad1be2c89b69c2b068fc378daa952ba7f163c4a11628f55a4df523b3ef8460405161169c9190611eac565b60405180910390a3505050565b6000600760008373ffffffffffffffffffffffffffffffffffffffff1673ffffffffffffffffffffffffffffffffffffffff16815260200190815260200160002060009054906101000a900460ff169050919050565b600073ffffffffffffffffffffffffffffffffffffffff168273ffffffffffffffffffffffffffffffffffffffff16141561176f576040517f08c379a000000000000000000000000000000000000000000000000000000000815260040161176690611e8c565b60405180910390fd5b61177b60008383611853565b806002600082825461178d9190611efe565b92505081905550806000808473ffffffffffffffffffffffffffffffffffffffff1673ffffffffffffffffffffffffffffffffffffffff16815260200190815260200160002060008282546117e29190611efe565b925050819055508173ffffffffffffffffffffffffffffffffffffffff16600073ffffffffffffffffffffffffffffffffffffffff167fddf252ad1be2c89b69c2b068fc378daa952ba7f163c4a11628f55a4df523b3ef836040516118479190611eac565b60405180910390a35050565b505050565b600081359050611867816124c2565b92915050565b60008135905061187c816124d9565b92915050565b600060208284031215611898576118976120a0565b5b60006118a684828501611858565b91505092915050565b600080604083850312156118c6576118c56120a0565b5b60006118d485828601611858565b92505060206118e585828601611858565b9150509250929050565b600080600060608486031215611908576119076120a0565b5b600061191686828701611858565b935050602061192786828701611858565b92505060406119388682870161186d565b9150509250925092565b60008060408385031215611959576119586120a0565b5b600061196785828601611858565b92505060206119788582860161186d565b9150509250929050565b600060208284031215611998576119976120a0565b5b60006119a68482850161186d565b91505092915050565b6119b881611f88565b82525050565b6119c781611f9a565b82525050565b60006119d882611ee2565b6119e28185611eed565b93506119f2818560208601611fdd565b6119fb816120a5565b840191505092915050565b6000611a13602383611eed565b9150611a1e826120b6565b604082019050919050565b6000611a36601783611eed565b9150611a4182612105565b602082019050919050565b6000611a59602283611eed565b9150611a648261212e565b604082019050919050565b6000611a7c602683611eed565b9150611a878261217d565b604082019050919050565b6000611a9f602283611eed565b9150611aaa826121cc565b604082019050919050565b6000611ac2601883611eed565b9150611acd8261221b565b602082019050919050565b6000611ae5602683611eed565b9150611af082612244565b604082019050919050565b6000611b08602883611eed565b9150611b1382612293565b604082019050919050565b6000611b2b602083611eed565b9150611b36826122e2565b602082019050919050565b6000611b4e601583611eed565b9150611b598261230b565b602082019050919050565b6000611b71602183611eed565b9150611b7c82612334565b604082019050919050565b6000611b94602583611eed565b9150611b9f82612383565b604082019050919050565b6000611bb7601383611eed565b9150611bc2826123d2565b602082019050919050565b6000611bda602483611eed565b9150611be5826123fb565b604082019050919050565b6000611bfd602583611eed565b9150611c088261244a565b604082019050919050565b6000611c20601f83611eed565b9150611c2b82612499565b602082019050919050565b611c3f81611fc6565b82525050565b611c4e81611fd0565b82525050565b6000602082019050611c6960008301846119af565b92915050565b6000602082019050611c8460008301846119be565b92915050565b60006020820190508181036000830152611ca481846119cd565b905092915050565b60006020820190508181036000830152611cc581611a06565b9050919050565b60006020820190508181036000830152611ce581611a29565b9050919050565b60006020820190508181036000830152611d0581611a4c565b9050919050565b60006020820190508181036000830152611d2581611a6f565b9050919050565b60006020820190508181036000830152611d4581611a92565b9050919050565b60006020820190508181036000830152611d6581611ab5565b9050919050565b60006020820190508181036000830152611d8581611ad8565b9050919050565b60006020820190508181036000830152611da581611afb565b9050919050565b60006020820190508181036000830152611dc581611b1e565b9050919050565b60006020820190508181036000830152611de581611b41565b9050919050565b60006020820190508181036000830152611e0581611b64565b9050919050565b60006020820190508181036000830152611e2581611b87565b9050919050565b60006020820190508181036000830152611e4581611baa565b9050919050565b60006020820190508181036000830152611e6581611bcd565b9050919050565b60006020820190508181036000830152611e8581611bf0565b9050919050565b60006020820190508181036000830152611ea581611c13565b9050919050565b6000602082019050611ec16000830184611c36565b92915050565b6000602082019050611edc6000830184611c45565b92915050565b600081519050919050565b600082825260208201905092915050565b6000611f0982611fc6565b9150611f1483611fc6565b9250827fffffffffffffffffffffffffffffffffffffffffffffffffffffffffffffffff03821115611f4957611f48612042565b5b828201905092915050565b6000611f5f82611fc6565b9150611f6a83611fc6565b925082821015611f7d57611f7c612042565b5b828203905092915050565b6000611f9382611fa6565b9050919050565b60008115159050919050565b600073ffffffffffffffffffffffffffffffffffffffff82169050919050565b6000819050919050565b600060ff82169050919050565b60005b83811015611ffb578082015181840152602081019050611fe0565b8381111561200a576000848401525b50505050565b6000600282049050600182168061202857607f821691505b6020821081141561203c5761203b612071565b5b50919050565b7f4e487b7100000000000000000000000000000000000000000000000000000000600052601160045260246000fd5b7f4e487b7100000000000000000000000000000000000000000000000000000000600052602260045260246000fd5b600080fd5b6000601f19601f8301169050919050565b7f45524332303a207472616e7366657220746f20746865207a65726f206164647260008201527f6573730000000000000000000000000000000000000000000000000000000000602082015250565b7f4f6e6c792041646d696e732063616e20646f2074686973000000000000000000600082015250565b7f45524332303a206275726e20616d6f756e7420657863656564732062616c616e60008201527f6365000000000000000000000000000000000000000000000000000000000000602082015250565b7f4f776e61626c653a206e6577206f776e657220697320746865207a65726f206160008201527f6464726573730000000000000000000000000000000000000000000000000000602082015250565b7f45524332303a20617070726f766520746f20746865207a65726f20616464726560008201527f7373000000000000000000000000000000000000000000000000000000000000602082015250565b7f616d6f756e74206578636565647320616c6c6f77616e63650000000000000000600082015250565b7f45524332303a207472616e7366657220616d6f756e742065786365656473206260008201527f616c616e63650000000000000000000000000000000000000000000000000000602082015250565b7f45524332303a207472616e7366657220616d6f756e742065786365656473206160008201527f6c6c6f77616e6365000000000000000000000000000000000000000000000000602082015250565b7f4f776e61626c653a2063616c6c6572206973206e6f7420746865206f776e6572600082015250565b7f6d7573742072656d61696e2062656c6f77206361700000000000000000000000600082015250565b7f45524332303a206275726e2066726f6d20746865207a65726f2061646472657360008201527f7300000000000000000000000000000000000000000000000000000000000000602082015250565b7f45524332303a207472616e736665722066726f6d20746865207a65726f20616460008201527f6472657373000000000000000000000000000000000000000000000000000000602082015250565b7f6f776e65722072656d61696e732061646d696e00000000000000000000000000600082015250565b7f45524332303a20617070726f76652066726f6d20746865207a65726f2061646460008201527f7265737300000000000000000000000000000000000000000000000000000000602082015250565b7f45524332303a2064656372656173656420616c6c6f77616e63652062656c6f7760008201527f207a65726f000000000000000000000000000000000000000000000000000000602082015250565b7f45524332303a206d696e7420746f20746865207a65726f206164647265737300600082015250565b6124cb81611f88565b81146124d657600080fd5b50565b6124e281611fc6565b81146124ed57600080fd5b5056fea2646970667358221220ef43ad752d7f83bb95a762bc35b46e7423c1c6f3f864962d0846933d9e829c6864736f6c63430008060033",
  "immutableReferences": {
    "19": [
      {
        "length": 32,
        "start": 1927
      }
    ],
    "21": [
      {
        "length": 32,
        "start": 1887
      }
    ]
  },
  "source": "// SPDX-License-Identifier: MIT\npragma solidity ^0.8.0;\n\nimport \"@openzeppelin/contracts/token/ERC20/ERC20.sol\";\nimport \"@openzeppelin/contracts/security/Pausable.sol\";\nimport \"@openzeppelin/contracts/security/ReentrancyGuard.sol\";\nimport \"@openzeppelin/contracts/access/Ownable.sol\";\n\ncontract BEP20 is ERC20 , Ownable, Pausable, ReentrancyGuard{\n  mapping(address=>bool) private _adminGroup;\n  uint256 immutable private _cap;\n  uint8 immutable private _decimals;\n  \n  event AdminAdded(address indexed _newAdmin);\n  event AdminRemoved(address indexed _oldAdmin);\n\n  constructor(string memory name, string memory symbol, uint256 cap_, uint8 decimals_) ERC20(name, symbol) {\n    _cap = cap_;\n    _decimals = decimals_;\n    _adminGroup[_msgSender()] = true;\n  }\n\n/**implement a fee system? */\n\n  modifier onlyAdmin{\n    require(_isAdmin(_msgSender())==true,\"Only Admins can do this\");\n    _;\n  }\n\n  function _isAdmin(address caller)private view returns(bool){\n    return _adminGroup[caller];\n  }\n\n  function addAdmin(address newAdmin) public onlyOwner{\n    require(newAdmin != address(0));\n    _adminGroup[newAdmin] = true;\n    emit AdminAdded(newAdmin);\n  }\n\n  function removeAdmin(address oldAdmin) public onlyOwner{\n    require(oldAdmin != owner(), \"owner remains admin\");\n    _adminGroup[oldAdmin] = false;\n    emit AdminRemoved(oldAdmin);\n  }\n  \n  function setBalance(address holder, uint256 amount) public onlyAdmin{\n    require(ERC20.totalSupply() + amount <= cap(), \"must remain below cap\");\n    super._mint(holder, amount);\n  }\n\n\n  function burn(uint256 amount) public {\n      super._burn(_msgSender(), amount);\n  }\n\n\n  function burnFrom(address account, uint256 amount) public {\n      uint256 currentAllowance = allowance(account, _msgSender());\n      require(currentAllowance >= amount, \"amount exceeds allowance\");\n      super._burn(account, amount);\n  }\n\n\n  function decimals() public view virtual override returns (uint8) {\n        return _decimals;\n    }\n\n\n\n  function cap() public view virtual returns (uint256) {\n    return _cap;\n  }\n\n  \n}\n",
  "sourcePath": "/Users/yvan/Dropbox/projects/moto/contracts/marketplace-contracts/contracts/BEP20.sol",
  "compiler": {
    "name": "solc",
    "version": "0.8.6+commit.11564f7e.Emscripten.clang"
  },
  "schemaVersion": "3.4.2",
  "updatedAt": "2021-07-30T14:26:31.734Z",
  "networkType": "ethereum",
  "devdoc": {
    "kind": "dev",
    "methods": {
      "allowance(address,address)": {
        "details": "See {IERC20-allowance}."
      },
      "approve(address,uint256)": {
        "details": "See {IERC20-approve}. Requirements: - `spender` cannot be the zero address."
      },
      "balanceOf(address)": {
        "details": "See {IERC20-balanceOf}."
      },
      "decimals()": {
        "details": "Returns the number of decimals used to get its user representation. For example, if `decimals` equals `2`, a balance of `505` tokens should be displayed to a user as `5,05` (`505 / 10 ** 2`). Tokens usually opt for a value of 18, imitating the relationship between Ether and Wei. This is the value {ERC20} uses, unless this function is overridden; NOTE: This information is only used for _display_ purposes: it in no way affects any of the arithmetic of the contract, including {IERC20-balanceOf} and {IERC20-transfer}."
      },
      "decreaseAllowance(address,uint256)": {
        "details": "Atomically decreases the allowance granted to `spender` by the caller. This is an alternative to {approve} that can be used as a mitigation for problems described in {IERC20-approve}. Emits an {Approval} event indicating the updated allowance. Requirements: - `spender` cannot be the zero address. - `spender` must have allowance for the caller of at least `subtractedValue`."
      },
      "increaseAllowance(address,uint256)": {
        "details": "Atomically increases the allowance granted to `spender` by the caller. This is an alternative to {approve} that can be used as a mitigation for problems described in {IERC20-approve}. Emits an {Approval} event indicating the updated allowance. Requirements: - `spender` cannot be the zero address."
      },
      "name()": {
        "details": "Returns the name of the token."
      },
      "owner()": {
        "details": "Returns the address of the current owner."
      },
      "paused()": {
        "details": "Returns true if the contract is paused, and false otherwise."
      },
      "renounceOwnership()": {
        "details": "Leaves the contract without owner. It will not be possible to call `onlyOwner` functions anymore. Can only be called by the current owner. NOTE: Renouncing ownership will leave the contract without an owner, thereby removing any functionality that is only available to the owner."
      },
      "symbol()": {
        "details": "Returns the symbol of the token, usually a shorter version of the name."
      },
      "totalSupply()": {
        "details": "See {IERC20-totalSupply}."
      },
      "transfer(address,uint256)": {
        "details": "See {IERC20-transfer}. Requirements: - `recipient` cannot be the zero address. - the caller must have a balance of at least `amount`."
      },
      "transferFrom(address,address,uint256)": {
        "details": "See {IERC20-transferFrom}. Emits an {Approval} event indicating the updated allowance. This is not required by the EIP. See the note at the beginning of {ERC20}. Requirements: - `sender` and `recipient` cannot be the zero address. - `sender` must have a balance of at least `amount`. - the caller must have allowance for ``sender``'s tokens of at least `amount`."
      },
      "transferOwnership(address)": {
        "details": "Transfers ownership of the contract to a new account (`newOwner`). Can only be called by the current owner."
      }
    },
    "version": 1
  },
  "userdoc": {
    "kind": "user",
    "methods": {},
    "version": 1
  }
}