{
  "contractName": "BEPMotoNFT",
  "abi": [
    {
      "inputs": [
        {
          "internalType": "string",
          "name": "_name",
          "type": "string"
        },
        {
          "internalType": "string",
          "name": "_symbol",
          "type": "string"
        }
      ],
      "stateMutability": "nonpayable",
      "type": "constructor"
    },
    {
      "anonymous": false,
      "inputs": [
        {
          "indexed": true,
          "internalType": "address",
          "name": "newAdmin",
          "type": "address"
        }
      ],
      "name": "AdminAdded",
      "type": "event"
    },
    {
      "anonymous": false,
      "inputs": [
        {
          "indexed": true,
          "internalType": "address",
          "name": "oldAdmin",
          "type": "address"
        }
      ],
      "name": "AdminRemoved",
      "type": "event"
    },
    {
      "anonymous": false,
      "inputs": [
        {
          "indexed": true,
          "internalType": "address",
          "name": "owner",
          "type": "address"
        },
        {
          "indexed": true,
          "internalType": "address",
          "name": "approved",
          "type": "address"
        },
        {
          "indexed": true,
          "internalType": "uint256",
          "name": "tokenId",
          "type": "uint256"
        }
      ],
      "name": "Approval",
      "type": "event"
    },
    {
      "anonymous": false,
      "inputs": [
        {
          "indexed": true,
          "internalType": "address",
          "name": "owner",
          "type": "address"
        },
        {
          "indexed": true,
          "internalType": "address",
          "name": "operator",
          "type": "address"
        },
        {
          "indexed": false,
          "internalType": "bool",
          "name": "approved",
          "type": "bool"
        }
      ],
      "name": "ApprovalForAll",
      "type": "event"
    },
    {
      "anonymous": false,
      "inputs": [
        {
          "indexed": true,
          "internalType": "address",
          "name": "newMinter",
          "type": "address"
        }
      ],
      "name": "MinterAdded",
      "type": "event"
    },
    {
      "anonymous": false,
      "inputs": [
        {
          "indexed": true,
          "internalType": "address",
          "name": "oldMinter",
          "type": "address"
        }
      ],
      "name": "MinterRemoved",
      "type": "event"
    },
    {
      "anonymous": false,
      "inputs": [
        {
          "indexed": true,
          "internalType": "address",
          "name": "burner",
          "type": "address"
        },
        {
          "indexed": true,
          "internalType": "uint256",
          "name": "tokenID",
          "type": "uint256"
        }
      ],
      "name": "NFTBurned",
      "type": "event"
    },
    {
      "anonymous": false,
      "inputs": [
        {
          "indexed": true,
          "internalType": "address",
          "name": "owner",
          "type": "address"
        },
        {
          "indexed": true,
          "internalType": "uint256",
          "name": "tokenID",
          "type": "uint256"
        }
      ],
      "name": "NFTMinted",
      "type": "event"
    },
    {
      "anonymous": false,
      "inputs": [
        {
          "indexed": false,
          "internalType": "string",
          "name": "feeName",
          "type": "string"
        },
        {
          "indexed": true,
          "internalType": "uint256",
          "name": "feeAmount",
          "type": "uint256"
        },
        {
          "indexed": false,
          "internalType": "address",
          "name": "adjuster",
          "type": "address"
        }
      ],
      "name": "NewFeeSet",
      "type": "event"
    },
    {
      "anonymous": false,
      "inputs": [
        {
          "indexed": true,
          "internalType": "address",
          "name": "previousOwner",
          "type": "address"
        },
        {
          "indexed": true,
          "internalType": "address",
          "name": "newOwner",
          "type": "address"
        }
      ],
      "name": "OwnershipTransferred",
      "type": "event"
    },
    {
      "anonymous": false,
      "inputs": [
        {
          "indexed": true,
          "internalType": "address",
          "name": "from",
          "type": "address"
        },
        {
          "indexed": true,
          "internalType": "address",
          "name": "to",
          "type": "address"
        },
        {
          "indexed": true,
          "internalType": "uint256",
          "name": "tokenId",
          "type": "uint256"
        }
      ],
      "name": "Transfer",
      "type": "event"
    },
    {
      "inputs": [
        {
          "internalType": "address",
          "name": "newAdmin",
          "type": "address"
        }
      ],
      "name": "addAdmin",
      "outputs": [],
      "stateMutability": "nonpayable",
      "type": "function"
    },
    {
      "inputs": [
        {
          "internalType": "address",
          "name": "newMinter",
          "type": "address"
        }
      ],
      "name": "addMinter",
      "outputs": [],
      "stateMutability": "nonpayable",
      "type": "function"
    },
    {
      "inputs": [
        {
          "internalType": "address",
          "name": "to",
          "type": "address"
        },
        {
          "internalType": "uint256",
          "name": "tokenId",
          "type": "uint256"
        }
      ],
      "name": "approve",
      "outputs": [],
      "stateMutability": "nonpayable",
      "type": "function"
    },
    {
      "inputs": [
        {
          "internalType": "address",
          "name": "owner",
          "type": "address"
        }
      ],
      "name": "balanceOf",
      "outputs": [
        {
          "internalType": "uint256",
          "name": "",
          "type": "uint256"
        }
      ],
      "stateMutability": "view",
      "type": "function",
      "constant": true
    },
    {
      "inputs": [
        {
          "internalType": "uint256",
          "name": "tokenId",
          "type": "uint256"
        }
      ],
      "name": "getApproved",
      "outputs": [
        {
          "internalType": "address",
          "name": "",
          "type": "address"
        }
      ],
      "stateMutability": "view",
      "type": "function",
      "constant": true
    },
    {
      "inputs": [
        {
          "internalType": "address",
          "name": "owner",
          "type": "address"
        },
        {
          "internalType": "address",
          "name": "operator",
          "type": "address"
        }
      ],
      "name": "isApprovedForAll",
      "outputs": [
        {
          "internalType": "bool",
          "name": "",
          "type": "bool"
        }
      ],
      "stateMutability": "view",
      "type": "function",
      "constant": true
    },
    {
      "inputs": [],
      "name": "name",
      "outputs": [
        {
          "internalType": "string",
          "name": "",
          "type": "string"
        }
      ],
      "stateMutability": "view",
      "type": "function",
      "constant": true
    },
    {
      "inputs": [],
      "name": "owner",
      "outputs": [
        {
          "internalType": "address",
          "name": "",
          "type": "address"
        }
      ],
      "stateMutability": "view",
      "type": "function",
      "constant": true
    },
    {
      "inputs": [
        {
          "internalType": "uint256",
          "name": "tokenId",
          "type": "uint256"
        }
      ],
      "name": "ownerOf",
      "outputs": [
        {
          "internalType": "address",
          "name": "",
          "type": "address"
        }
      ],
      "stateMutability": "view",
      "type": "function",
      "constant": true
    },
    {
      "inputs": [
        {
          "internalType": "address",
          "name": "oldAdmin",
          "type": "address"
        }
      ],
      "name": "removeAdmin",
      "outputs": [],
      "stateMutability": "nonpayable",
      "type": "function"
    },
    {
      "inputs": [
        {
          "internalType": "address",
          "name": "oldMinter",
          "type": "address"
        }
      ],
      "name": "removeMinter",
      "outputs": [],
      "stateMutability": "nonpayable",
      "type": "function"
    },
    {
      "inputs": [],
      "name": "renounceOwnership",
      "outputs": [],
      "stateMutability": "nonpayable",
      "type": "function"
    },
    {
      "inputs": [
        {
          "internalType": "address",
          "name": "from",
          "type": "address"
        },
        {
          "internalType": "address",
          "name": "to",
          "type": "address"
        },
        {
          "internalType": "uint256",
          "name": "tokenId",
          "type": "uint256"
        }
      ],
      "name": "safeTransferFrom",
      "outputs": [],
      "stateMutability": "nonpayable",
      "type": "function"
    },
    {
      "inputs": [
        {
          "internalType": "address",
          "name": "from",
          "type": "address"
        },
        {
          "internalType": "address",
          "name": "to",
          "type": "address"
        },
        {
          "internalType": "uint256",
          "name": "tokenId",
          "type": "uint256"
        },
        {
          "internalType": "bytes",
          "name": "_data",
          "type": "bytes"
        }
      ],
      "name": "safeTransferFrom",
      "outputs": [],
      "stateMutability": "nonpayable",
      "type": "function"
    },
    {
      "inputs": [
        {
          "internalType": "address",
          "name": "operator",
          "type": "address"
        },
        {
          "internalType": "bool",
          "name": "approved",
          "type": "bool"
        }
      ],
      "name": "setApprovalForAll",
      "outputs": [],
      "stateMutability": "nonpayable",
      "type": "function"
    },
    {
      "inputs": [
        {
          "internalType": "bytes4",
          "name": "interfaceId",
          "type": "bytes4"
        }
      ],
      "name": "supportsInterface",
      "outputs": [
        {
          "internalType": "bool",
          "name": "",
          "type": "bool"
        }
      ],
      "stateMutability": "view",
      "type": "function",
      "constant": true
    },
    {
      "inputs": [],
      "name": "symbol",
      "outputs": [
        {
          "internalType": "string",
          "name": "",
          "type": "string"
        }
      ],
      "stateMutability": "view",
      "type": "function",
      "constant": true
    },
    {
      "inputs": [
        {
          "internalType": "uint256",
          "name": "tokenId",
          "type": "uint256"
        }
      ],
      "name": "tokenURI",
      "outputs": [
        {
          "internalType": "string",
          "name": "",
          "type": "string"
        }
      ],
      "stateMutability": "view",
      "type": "function",
      "constant": true
    },
    {
      "inputs": [
        {
          "internalType": "address",
          "name": "from",
          "type": "address"
        },
        {
          "internalType": "address",
          "name": "to",
          "type": "address"
        },
        {
          "internalType": "uint256",
          "name": "tokenId",
          "type": "uint256"
        }
      ],
      "name": "transferFrom",
      "outputs": [],
      "stateMutability": "nonpayable",
      "type": "function"
    },
    {
      "inputs": [
        {
          "internalType": "address",
          "name": "newOwner",
          "type": "address"
        }
      ],
      "name": "transferOwnership",
      "outputs": [],
      "stateMutability": "nonpayable",
      "type": "function"
    },
    {
      "inputs": [
        {
          "internalType": "string",
          "name": "name",
          "type": "string"
        },
        {
          "internalType": "uint256",
          "name": "chainId",
          "type": "uint256"
        },
        {
          "internalType": "address",
          "name": "beneficiary",
          "type": "address"
        },
        {
          "internalType": "bytes32",
          "name": "contentHash",
          "type": "bytes32"
        },
        {
          "internalType": "uint256",
          "name": "tokenId",
          "type": "uint256"
        }
      ],
      "name": "userMint",
      "outputs": [],
      "stateMutability": "payable",
      "type": "function",
      "payable": true
    },
    {
      "inputs": [
        {
          "internalType": "bytes32",
          "name": "hash",
          "type": "bytes32"
        }
      ],
      "name": "existsAsNFT",
      "outputs": [
        {
          "internalType": "bool",
          "name": "",
          "type": "bool"
        }
      ],
      "stateMutability": "view",
      "type": "function",
      "constant": true
    },
    {
      "inputs": [
        {
          "internalType": "uint256",
          "name": "_tokenId",
          "type": "uint256"
        }
      ],
      "name": "burn",
      "outputs": [],
      "stateMutability": "nonpayable",
      "type": "function"
    },
    {
      "inputs": [
        {
          "internalType": "uint256",
          "name": "tokenID",
          "type": "uint256"
        }
      ],
      "name": "nftFromTokenId",
      "outputs": [
        {
          "components": [
            {
              "internalType": "string",
              "name": "name",
              "type": "string"
            },
            {
              "internalType": "uint256",
              "name": "chainId",
              "type": "uint256"
            },
            {
              "internalType": "address",
              "name": "beneficiary",
              "type": "address"
            },
            {
              "internalType": "bytes32",
              "name": "contentHash",
              "type": "bytes32"
            },
            {
              "internalType": "uint256",
              "name": "tokenId",
              "type": "uint256"
            }
          ],
          "internalType": "struct BEPMotoNFT.NFT",
          "name": "",
          "type": "tuple"
        }
      ],
      "stateMutability": "view",
      "type": "function",
      "constant": true
    },
    {
      "inputs": [
        {
          "internalType": "string",
          "name": "handle",
          "type": "string"
        }
      ],
      "name": "nftFromHandle",
      "outputs": [
        {
          "components": [
            {
              "internalType": "string",
              "name": "name",
              "type": "string"
            },
            {
              "internalType": "uint256",
              "name": "chainId",
              "type": "uint256"
            },
            {
              "internalType": "address",
              "name": "beneficiary",
              "type": "address"
            },
            {
              "internalType": "bytes32",
              "name": "contentHash",
              "type": "bytes32"
            },
            {
              "internalType": "uint256",
              "name": "tokenId",
              "type": "uint256"
            }
          ],
          "internalType": "struct BEPMotoNFT.NFT",
          "name": "",
          "type": "tuple"
        }
      ],
      "stateMutability": "view",
      "type": "function",
      "constant": true
    },
    {
      "inputs": [
        {
          "internalType": "uint256",
          "name": "tokenId",
          "type": "uint256"
        },
        {
          "internalType": "string",
          "name": "newName",
          "type": "string"
        }
      ],
      "name": "changeName",
      "outputs": [],
      "stateMutability": "payable",
      "type": "function",
      "payable": true
    },
    {
      "inputs": [
        {
          "internalType": "uint256",
          "name": "tokenId",
          "type": "uint256"
        },
        {
          "internalType": "string",
          "name": "handle",
          "type": "string"
        }
      ],
      "name": "changeHandle",
      "outputs": [],
      "stateMutability": "payable",
      "type": "function",
      "payable": true
    },
    {
      "inputs": [
        {
          "internalType": "uint256",
          "name": "tokenId",
          "type": "uint256"
        }
      ],
      "name": "getHandle",
      "outputs": [
        {
          "internalType": "string",
          "name": "",
          "type": "string"
        }
      ],
      "stateMutability": "view",
      "type": "function",
      "constant": true
    },
    {
      "inputs": [],
      "name": "getCreationFee",
      "outputs": [
        {
          "internalType": "uint256",
          "name": "",
          "type": "uint256"
        }
      ],
      "stateMutability": "view",
      "type": "function",
      "constant": true
    },
    {
      "inputs": [],
      "name": "getNameFee",
      "outputs": [
        {
          "internalType": "uint256",
          "name": "",
          "type": "uint256"
        }
      ],
      "stateMutability": "view",
      "type": "function",
      "constant": true
    },
    {
      "inputs": [],
      "name": "getHandleFee",
      "outputs": [
        {
          "internalType": "uint256",
          "name": "",
          "type": "uint256"
        }
      ],
      "stateMutability": "view",
      "type": "function",
      "constant": true
    },
    {
      "inputs": [
        {
          "internalType": "string",
          "name": "name",
          "type": "string"
        },
        {
          "internalType": "uint256",
          "name": "chainId",
          "type": "uint256"
        },
        {
          "internalType": "address",
          "name": "beneficiary",
          "type": "address"
        },
        {
          "internalType": "bytes32",
          "name": "contentHash",
          "type": "bytes32"
        },
        {
          "internalType": "uint256",
          "name": "tokenId",
          "type": "uint256"
        }
      ],
      "name": "adminMint",
      "outputs": [],
      "stateMutability": "nonpayable",
      "type": "function"
    },
    {
      "inputs": [
        {
          "internalType": "uint256",
          "name": "_tokenId",
          "type": "uint256"
        },
        {
          "internalType": "string",
          "name": "_uri",
          "type": "string"
        }
      ],
      "name": "setTokenURI",
      "outputs": [],
      "stateMutability": "nonpayable",
      "type": "function"
    },
    {
      "inputs": [
        {
          "internalType": "uint256",
          "name": "fee_",
          "type": "uint256"
        }
      ],
      "name": "setCreationFee",
      "outputs": [],
      "stateMutability": "nonpayable",
      "type": "function"
    },
    {
      "inputs": [
        {
          "internalType": "uint256",
          "name": "fee_",
          "type": "uint256"
        }
      ],
      "name": "setNameFee",
      "outputs": [],
      "stateMutability": "nonpayable",
      "type": "function"
    },
    {
      "inputs": [
        {
          "internalType": "uint256",
          "name": "fee_",
          "type": "uint256"
        }
      ],
      "name": "setHandleFee",
      "outputs": [],
      "stateMutability": "nonpayable",
      "type": "function"
    },
    {
      "inputs": [
        {
          "internalType": "uint256",
          "name": "amount",
          "type": "uint256"
        }
      ],
      "name": "withdraw",
      "outputs": [],
      "stateMutability": "nonpayable",
      "type": "function"
    }
  ],
  "bytecode": "0x60806040526040518060400160405280600781526020017f7061792066656500000000000000000000000000000000000000000000000000815250601190805190602001906200005192919062000526565b503480156200005f57600080fd5b50604051620060eb380380620060eb833981810160405281019062000085919062000654565b818181600090805190602001906200009f92919062000526565b508060019080519060200190620000b892919062000526565b5050506000620000cd620001b460201b60201c565b905080600760006101000a81548173ffffffffffffffffffffffffffffffffffffffff021916908373ffffffffffffffffffffffffffffffffffffffff1602179055508073ffffffffffffffffffffffffffffffffffffffff16600073ffffffffffffffffffffffffffffffffffffffff167f8be0079c531659141344cd1fd0a4f28419497f9722a3daafe3b4186f6b6457e060405160405180910390a3506200018c62000180620001bc60201b60201c565b620001e660201b60201c565b620001ac620001a0620001bc60201b60201c565b6200038660201b60201c565b505062000952565b600033905090565b6000600760009054906101000a900473ffffffffffffffffffffffffffffffffffffffff16905090565b620001f6620001b460201b60201c565b73ffffffffffffffffffffffffffffffffffffffff166200021c620001bc60201b60201c565b73ffffffffffffffffffffffffffffffffffffffff161462000275576040517f08c379a00000000000000000000000000000000000000000000000000000000081526004016200026c9062000727565b60405180910390fd5b600073ffffffffffffffffffffffffffffffffffffffff168173ffffffffffffffffffffffffffffffffffffffff161415620002e8576040517f08c379a0000000000000000000000000000000000000000000000000000000008152600401620002df9062000749565b60405180910390fd5b6001600960008373ffffffffffffffffffffffffffffffffffffffff1673ffffffffffffffffffffffffffffffffffffffff16815260200190815260200160002060006101000a81548160ff0219169083151502179055508073ffffffffffffffffffffffffffffffffffffffff167f6ae172837ea30b801fbfcdd4108aa1d5bf8ff775444fd70256b44e6bf3dfc3f660405160405180910390a250565b62000396620001b460201b60201c565b73ffffffffffffffffffffffffffffffffffffffff16620003bc620001bc60201b60201c565b73ffffffffffffffffffffffffffffffffffffffff161462000415576040517f08c379a00000000000000000000000000000000000000000000000000000000081526004016200040c9062000727565b60405180910390fd5b600073ffffffffffffffffffffffffffffffffffffffff168173ffffffffffffffffffffffffffffffffffffffff16141562000488576040517f08c379a00000000000000000000000000000000000000000000000000000000081526004016200047f9062000749565b60405180910390fd5b6001600860008373ffffffffffffffffffffffffffffffffffffffff1673ffffffffffffffffffffffffffffffffffffffff16815260200190815260200160002060006101000a81548160ff0219169083151502179055508073ffffffffffffffffffffffffffffffffffffffff167f44d6d25963f097ad14f29f06854a01f575648a1ef82f30e562ccd3889717e33960405160405180910390a250565b828054620005349062000811565b90600052602060002090601f016020900481019282620005585760008555620005a4565b82601f106200057357805160ff1916838001178555620005a4565b82800160010185558215620005a4579182015b82811115620005a357825182559160200191906001019062000586565b5b509050620005b39190620005b7565b5090565b5b80821115620005d2576000816000905550600101620005b8565b5090565b6000620005ed620005e78462000794565b6200076b565b9050828152602081018484840111156200060c576200060b620008e0565b5b62000619848285620007db565b509392505050565b600082601f830112620006395762000638620008db565b5b81516200064b848260208601620005d6565b91505092915050565b600080604083850312156200066e576200066d620008ea565b5b600083015167ffffffffffffffff8111156200068f576200068e620008e5565b5b6200069d8582860162000621565b925050602083015167ffffffffffffffff811115620006c157620006c0620008e5565b5b620006cf8582860162000621565b9150509250929050565b6000620006e8602083620007ca565b9150620006f58262000900565b602082019050919050565b60006200070f600d83620007ca565b91506200071c8262000929565b602082019050919050565b600060208201905081810360008301526200074281620006d9565b9050919050565b60006020820190508181036000830152620007648162000700565b9050919050565b6000620007776200078a565b905062000785828262000847565b919050565b6000604051905090565b600067ffffffffffffffff821115620007b257620007b1620008ac565b5b620007bd82620008ef565b9050602081019050919050565b600082825260208201905092915050565b60005b83811015620007fb578082015181840152602081019050620007de565b838111156200080b576000848401525b50505050565b600060028204905060018216806200082a57607f821691505b602082108114156200084157620008406200087d565b5b50919050565b6200085282620008ef565b810181811067ffffffffffffffff82111715620008745762000873620008ac565b5b80604052505050565b7f4e487b7100000000000000000000000000000000000000000000000000000000600052602260045260246000fd5b7f4e487b7100000000000000000000000000000000000000000000000000000000600052604160045260246000fd5b600080fd5b600080fd5b600080fd5b600080fd5b6000601f19601f8301169050919050565b7f4f776e61626c653a2063616c6c6572206973206e6f7420746865206f776e6572600082015250565b7f61646472657373283029206e6f00000000000000000000000000000000000000600082015250565b61578980620009626000396000f3fe60806040526004361061021a5760003560e01c8063715018a611610123578063b88d4fde116100ab578063e4cef27f1161006f578063e4cef27f1461079e578063e55553bc146107c7578063e985e9c514610804578063ec81d19414610841578063f2fde38b1461087e5761021a565b8063b88d4fde146106b4578063c39cbef1146106dd578063c87b56dd146106f9578063cb0d992f14610736578063db07b68e146107735761021a565b806395d89b41116100f257806395d89b41146105e5578063983b2d56146106105780639f58c2a114610639578063a22cb46514610662578063b7d862251461068b5761021a565b8063715018a61461054f578063719e26bf146105665780637c2f4cfd146105915780638da5cb5b146105ba5761021a565b80633092afd5116101a65780636352211e116101755780636352211e1461047457806364fec9a0146104b157806365358e45146104cd57806370480275146104e957806370a08231146105125761021a565b80633092afd5146103bc57806342842e0e146103e557806342966c681461040e5780635371c3c6146104375761021a565b8063162094c4116101ed578063162094c4146102ed5780631785f53c1461031657806323b872dd1461033f5780632614195f146103685780632e1a7d4d146103935761021a565b806301ffc9a71461021f57806306fdde031461025c578063081812fc14610287578063095ea7b3146102c4575b600080fd5b34801561022b57600080fd5b5061024660048036038101906102419190613d6c565b6108a7565b604051610253919061468f565b60405180910390f35b34801561026857600080fd5b50610271610989565b60405161027e91906146aa565b60405180910390f35b34801561029357600080fd5b506102ae60048036038101906102a99190613ead565b610a1b565b6040516102bb9190614628565b60405180910390f35b3480156102d057600080fd5b506102eb60048036038101906102e69190613cff565b610aa0565b005b3480156102f957600080fd5b50610314600480360381019061030f9190613eda565b610bb8565b005b34801561032257600080fd5b5061033d60048036038101906103389190613b7c565b610ca5565b005b34801561034b57600080fd5b5061036660048036038101906103619190613be9565b610e35565b005b34801561037457600080fd5b5061037d610e95565b60405161038a9190614b3a565b60405180910390f35b34801561039f57600080fd5b506103ba60048036038101906103b59190613ead565b610e9f565b005b3480156103c857600080fd5b506103e360048036038101906103de9190613b7c565b610f72565b005b3480156103f157600080fd5b5061040c60048036038101906104079190613be9565b611102565b005b34801561041a57600080fd5b5061043560048036038101906104309190613ead565b611122565b005b34801561044357600080fd5b5061045e60048036038101906104599190613dc6565b6112a3565b60405161046b9190614b18565b60405180910390f35b34801561048057600080fd5b5061049b60048036038101906104969190613ead565b611461565b6040516104a89190614628565b60405180910390f35b6104cb60048036038101906104c69190613eda565b611513565b005b6104e760048036038101906104e29190613e13565b61156d565b005b3480156104f557600080fd5b50610510600480360381019061050b9190613b7c565b61164e565b005b34801561051e57600080fd5b5061053960048036038101906105349190613b7c565b6117d8565b6040516105469190614b3a565b60405180910390f35b34801561055b57600080fd5b50610564611890565b005b34801561057257600080fd5b5061057b6119cd565b6040516105889190614b3a565b60405180910390f35b34801561059d57600080fd5b506105b860048036038101906105b39190613ead565b6119d7565b005b3480156105c657600080fd5b506105cf611aba565b6040516105dc9190614628565b60405180910390f35b3480156105f157600080fd5b506105fa611ae4565b60405161060791906146aa565b60405180910390f35b34801561061c57600080fd5b5061063760048036038101906106329190613b7c565b611b76565b005b34801561064557600080fd5b50610660600480360381019061065b9190613ead565b611d00565b005b34801561066e57600080fd5b5061068960048036038101906106849190613cbf565b611de3565b005b34801561069757600080fd5b506106b260048036038101906106ad9190613ead565b611f64565b005b3480156106c057600080fd5b506106db60048036038101906106d69190613c3c565b612047565b005b6106f760048036038101906106f29190613eda565b6120a9565b005b34801561070557600080fd5b50610720600480360381019061071b9190613ead565b612130565b60405161072d91906146aa565b60405180910390f35b34801561074257600080fd5b5061075d60048036038101906107589190613d3f565b612282565b60405161076a919061468f565b60405180910390f35b34801561077f57600080fd5b506107886122ac565b6040516107959190614b3a565b60405180910390f35b3480156107aa57600080fd5b506107c560048036038101906107c09190613e13565b6122b6565b005b3480156107d357600080fd5b506107ee60048036038101906107e99190613ead565b6123e7565b6040516107fb9190614b18565b60405180910390f35b34801561081057600080fd5b5061082b60048036038101906108269190613ba9565b61251a565b604051610838919061468f565b60405180910390f35b34801561084d57600080fd5b5061086860048036038101906108639190613ead565b6125ae565b60405161087591906146aa565b60405180910390f35b34801561088a57600080fd5b506108a560048036038101906108a09190613b7c565b6126b6565b005b60007f80ac58cd000000000000000000000000000000000000000000000000000000007bffffffffffffffffffffffffffffffffffffffffffffffffffffffff1916827bffffffffffffffffffffffffffffffffffffffffffffffffffffffff1916148061097257507f5b5e139f000000000000000000000000000000000000000000000000000000007bffffffffffffffffffffffffffffffffffffffffffffffffffffffff1916827bffffffffffffffffffffffffffffffffffffffffffffffffffffffff1916145b80610982575061098182612862565b5b9050919050565b60606000805461099890614d8f565b80601f01602080910402602001604051908101604052809291908181526020018280546109c490614d8f565b8015610a115780601f106109e657610100808354040283529160200191610a11565b820191906000526020600020905b8154815290600101906020018083116109f457829003601f168201915b5050505050905090565b6000610a26826128cc565b610a65576040517f08c379a0000000000000000000000000000000000000000000000000000000008152600401610a5c9061493c565b60405180910390fd5b6004600083815260200190815260200160002060009054906101000a900473ffffffffffffffffffffffffffffffffffffffff169050919050565b6000610aab82611461565b90508073ffffffffffffffffffffffffffffffffffffffff168373ffffffffffffffffffffffffffffffffffffffff161415610b1c576040517f08c379a0000000000000000000000000000000000000000000000000000000008152600401610b1390614a1c565b60405180910390fd5b8073ffffffffffffffffffffffffffffffffffffffff16610b3b612938565b73ffffffffffffffffffffffffffffffffffffffff161480610b6a5750610b6981610b64612938565b61251a565b5b610ba9576040517f08c379a0000000000000000000000000000000000000000000000000000000008152600401610ba09061485c565b60405180910390fd5b610bb38383612940565b505050565b6001151560086000610bc8612938565b73ffffffffffffffffffffffffffffffffffffffff1673ffffffffffffffffffffffffffffffffffffffff16815260200190815260200160002060009054906101000a900460ff16151514610c52576040517f08c379a0000000000000000000000000000000000000000000000000000000008152600401610c4990614af8565b60405180910390fd5b610ca08383838080601f016020809104026020016040519081016040528093929190818152602001838380828437600081840152601f19601f820116905080830192505050505050506129f9565b505050565b610cad612938565b73ffffffffffffffffffffffffffffffffffffffff16610ccb611aba565b73ffffffffffffffffffffffffffffffffffffffff1614610d21576040517f08c379a0000000000000000000000000000000000000000000000000000000008152600401610d189061497c565b60405180910390fd5b610d29611aba565b73ffffffffffffffffffffffffffffffffffffffff168173ffffffffffffffffffffffffffffffffffffffff161415610d97576040517f08c379a0000000000000000000000000000000000000000000000000000000008152600401610d8e9061483c565b60405180910390fd5b6000600860008373ffffffffffffffffffffffffffffffffffffffff1673ffffffffffffffffffffffffffffffffffffffff16815260200190815260200160002060006101000a81548160ff0219169083151502179055508073ffffffffffffffffffffffffffffffffffffffff167fa3b62bc36326052d97ea62d63c3d60308ed4c3ea8ac079dd8499f1e9c4f80c0f60405160405180910390a250565b610e46610e40612938565b82612a6d565b610e85576040517f08c379a0000000000000000000000000000000000000000000000000000000008152600401610e7c90614ab8565b60405180910390fd5b610e90838383612b4b565b505050565b6000600f54905090565b610ea7612938565b73ffffffffffffffffffffffffffffffffffffffff16610ec5611aba565b73ffffffffffffffffffffffffffffffffffffffff1614610f1b576040517f08c379a0000000000000000000000000000000000000000000000000000000008152600401610f129061497c565b60405180910390fd5b6000610f25611aba565b90508073ffffffffffffffffffffffffffffffffffffffff166108fc839081150290604051600060405180830381858888f19350505050158015610f6d573d6000803e3d6000fd5b505050565b610f7a612938565b73ffffffffffffffffffffffffffffffffffffffff16610f98611aba565b73ffffffffffffffffffffffffffffffffffffffff1614610fee576040517f08c379a0000000000000000000000000000000000000000000000000000000008152600401610fe59061497c565b60405180910390fd5b610ff6611aba565b73ffffffffffffffffffffffffffffffffffffffff168173ffffffffffffffffffffffffffffffffffffffff161415611064576040517f08c379a000000000000000000000000000000000000000000000000000000000815260040161105b9061483c565b60405180910390fd5b6000600960008373ffffffffffffffffffffffffffffffffffffffff1673ffffffffffffffffffffffffffffffffffffffff16815260200190815260200160002060006101000a81548160ff0219169083151502179055508073ffffffffffffffffffffffffffffffffffffffff167fe94479a9f7e1952cc78f2d6baab678adc1b772d936c6583def489e524cb6669260405160405180910390a250565b61111d83838360405180602001604052806000815250612047565b505050565b61112a612938565b73ffffffffffffffffffffffffffffffffffffffff1661114982611461565b73ffffffffffffffffffffffffffffffffffffffff161461119f576040517f08c379a0000000000000000000000000000000000000000000000000000000008152600401611196906149fc565b60405180910390fd5b6111a881612da7565b6000600a600083815260200190815260200160002090506000600b60008360030154815260200190815260200160002060006101000a81548160ff021916908315150217905550600a6000838152602001908152602001600020600080820160006112139190613887565b60018201600090556002820160006101000a81549073ffffffffffffffffffffffffffffffffffffffff02191690556003820160009055600482016000905550508161125d612938565b73ffffffffffffffffffffffffffffffffffffffff167fd6a6bcd88cdc4656d5f4e14e7dfbc9bc3f2f9811f8d6b508f3bee7d999d4d41c60405160405180910390a35050565b6112ab6138c7565b6000600d84846040516112bf9291906145eb565b908152602001604051809103902054141561130f576040517f08c379a00000000000000000000000000000000000000000000000000000000081526004016113069061474e565b60405180910390fd5b6000600d84846040516113239291906145eb565b9081526020016040518091039020549050600a60008281526020019081526020016000206040518060a001604052908160008201805461136290614d8f565b80601f016020809104026020016040519081016040528092919081815260200182805461138e90614d8f565b80156113db5780601f106113b0576101008083540402835291602001916113db565b820191906000526020600020905b8154815290600101906020018083116113be57829003601f168201915b50505050508152602001600182015481526020016002820160009054906101000a900473ffffffffffffffffffffffffffffffffffffffff1673ffffffffffffffffffffffffffffffffffffffff1673ffffffffffffffffffffffffffffffffffffffff1681526020016003820154815260200160048201548152505091505092915050565b6000806002600084815260200190815260200160002060009054906101000a900473ffffffffffffffffffffffffffffffffffffffff169050600073ffffffffffffffffffffffffffffffffffffffff168173ffffffffffffffffffffffffffffffffffffffff16141561150a576040517f08c379a0000000000000000000000000000000000000000000000000000000008152600401611501906148bc565b60405180910390fd5b80915050919050565b60105434101560119061155c576040517f08c379a000000000000000000000000000000000000000000000000000000000815260040161155391906146cc565b60405180910390fd5b50611568838383612dfa565b505050565b600e543410156011906115b6576040517f08c379a00000000000000000000000000000000000000000000000000000000081526004016115ad91906146cc565b60405180910390fd5b5060006040518060a0016040528088888080601f016020809104026020016040519081016040528093929190818152602001838380828437600081840152601f19601f8201169050808301925050505050505081526020018681526020018573ffffffffffffffffffffffffffffffffffffffff16815260200184815260200183815250905061164581612f86565b50505050505050565b611656612938565b73ffffffffffffffffffffffffffffffffffffffff16611674611aba565b73ffffffffffffffffffffffffffffffffffffffff16146116ca576040517f08c379a00000000000000000000000000000000000000000000000000000000081526004016116c19061497c565b60405180910390fd5b600073ffffffffffffffffffffffffffffffffffffffff168173ffffffffffffffffffffffffffffffffffffffff16141561173a576040517f08c379a000000000000000000000000000000000000000000000000000000000815260040161173190614a98565b60405180910390fd5b6001600860008373ffffffffffffffffffffffffffffffffffffffff1673ffffffffffffffffffffffffffffffffffffffff16815260200190815260200160002060006101000a81548160ff0219169083151502179055508073ffffffffffffffffffffffffffffffffffffffff167f44d6d25963f097ad14f29f06854a01f575648a1ef82f30e562ccd3889717e33960405160405180910390a250565b60008073ffffffffffffffffffffffffffffffffffffffff168273ffffffffffffffffffffffffffffffffffffffff161415611849576040517f08c379a00000000000000000000000000000000000000000000000000000000081526004016118409061489c565b60405180910390fd5b600360008373ffffffffffffffffffffffffffffffffffffffff1673ffffffffffffffffffffffffffffffffffffffff168152602001908152602001600020549050919050565b611898612938565b73ffffffffffffffffffffffffffffffffffffffff166118b6611aba565b73ffffffffffffffffffffffffffffffffffffffff161461190c576040517f08c379a00000000000000000000000000000000000000000000000000000000081526004016119039061497c565b60405180910390fd5b600073ffffffffffffffffffffffffffffffffffffffff16600760009054906101000a900473ffffffffffffffffffffffffffffffffffffffff1673ffffffffffffffffffffffffffffffffffffffff167f8be0079c531659141344cd1fd0a4f28419497f9722a3daafe3b4186f6b6457e060405160405180910390a36000600760006101000a81548173ffffffffffffffffffffffffffffffffffffffff021916908373ffffffffffffffffffffffffffffffffffffffff160217905550565b6000601054905090565b60011515600860006119e7612938565b73ffffffffffffffffffffffffffffffffffffffff1673ffffffffffffffffffffffffffffffffffffffff16815260200190815260200160002060009054906101000a900460ff16151514611a71576040517f08c379a0000000000000000000000000000000000000000000000000000000008152600401611a6890614af8565b60405180910390fd5b80601081905550807ff4dd97233cb9c3b3f1bcd0bccb83bec53a4e567fda0939df7863869c50fa7498611aa2612938565b604051611aaf9190614a6a565b60405180910390a250565b6000600760009054906101000a900473ffffffffffffffffffffffffffffffffffffffff16905090565b606060018054611af390614d8f565b80601f0160208091040260200160405190810160405280929190818152602001828054611b1f90614d8f565b8015611b6c5780601f10611b4157610100808354040283529160200191611b6c565b820191906000526020600020905b815481529060010190602001808311611b4f57829003601f168201915b5050505050905090565b611b7e612938565b73ffffffffffffffffffffffffffffffffffffffff16611b9c611aba565b73ffffffffffffffffffffffffffffffffffffffff1614611bf2576040517f08c379a0000000000000000000000000000000000000000000000000000000008152600401611be99061497c565b60405180910390fd5b600073ffffffffffffffffffffffffffffffffffffffff168173ffffffffffffffffffffffffffffffffffffffff161415611c62576040517f08c379a0000000000000000000000000000000000000000000000000000000008152600401611c5990614a98565b60405180910390fd5b6001600960008373ffffffffffffffffffffffffffffffffffffffff1673ffffffffffffffffffffffffffffffffffffffff16815260200190815260200160002060006101000a81548160ff0219169083151502179055508073ffffffffffffffffffffffffffffffffffffffff167f6ae172837ea30b801fbfcdd4108aa1d5bf8ff775444fd70256b44e6bf3dfc3f660405160405180910390a250565b6001151560086000611d10612938565b73ffffffffffffffffffffffffffffffffffffffff1673ffffffffffffffffffffffffffffffffffffffff16815260200190815260200160002060009054906101000a900460ff16151514611d9a576040517f08c379a0000000000000000000000000000000000000000000000000000000008152600401611d9190614af8565b60405180910390fd5b80600f81905550807ff4dd97233cb9c3b3f1bcd0bccb83bec53a4e567fda0939df7863869c50fa7498611dcb612938565b604051611dd891906147ae565b60405180910390a250565b611deb612938565b73ffffffffffffffffffffffffffffffffffffffff168273ffffffffffffffffffffffffffffffffffffffff161415611e59576040517f08c379a0000000000000000000000000000000000000000000000000000000008152600401611e50906147fc565b60405180910390fd5b8060056000611e66612938565b73ffffffffffffffffffffffffffffffffffffffff1673ffffffffffffffffffffffffffffffffffffffff16815260200190815260200160002060008473ffffffffffffffffffffffffffffffffffffffff1673ffffffffffffffffffffffffffffffffffffffff16815260200190815260200160002060006101000a81548160ff0219169083151502179055508173ffffffffffffffffffffffffffffffffffffffff16611f13612938565b73ffffffffffffffffffffffffffffffffffffffff167f17307eab39ab6107e8899845ad3d59bd9653f200f220920489ca2b5937696c3183604051611f58919061468f565b60405180910390a35050565b6001151560086000611f74612938565b73ffffffffffffffffffffffffffffffffffffffff1673ffffffffffffffffffffffffffffffffffffffff16815260200190815260200160002060009054906101000a900460ff16151514611ffe576040517f08c379a0000000000000000000000000000000000000000000000000000000008152600401611ff590614af8565b60405180910390fd5b80600e81905550807ff4dd97233cb9c3b3f1bcd0bccb83bec53a4e567fda0939df7863869c50fa749861202f612938565b60405161203c9190614a3c565b60405180910390a250565b612058612052612938565b83612a6d565b612097576040517f08c379a000000000000000000000000000000000000000000000000000000000815260040161208e90614ab8565b60405180910390fd5b6120a3848484846130bd565b50505050565b600f543410156120b857600080fd5b6120c0612938565b73ffffffffffffffffffffffffffffffffffffffff166120df84611461565b73ffffffffffffffffffffffffffffffffffffffff16146120ff57600080fd5b6000600a60008581526020019081526020016000209050828282600001919061212992919061390f565b5050505050565b606061213b826128cc565b61217a576040517f08c379a00000000000000000000000000000000000000000000000000000000081526004016121719061491c565b60405180910390fd5b600060066000848152602001908152602001600020805461219a90614d8f565b80601f01602080910402602001604051908101604052809291908181526020018280546121c690614d8f565b80156122135780601f106121e857610100808354040283529160200191612213565b820191906000526020600020905b8154815290600101906020018083116121f657829003601f168201915b505050505090506000612224613119565b905060008151141561223a57819250505061227d565b60008251111561226f578082604051602001612257929190614604565b6040516020818303038152906040529250505061227d565b61227884613130565b925050505b919050565b6000600b600083815260200190815260200160002060009054906101000a900460ff169050919050565b6000600e54905090565b60011515600960006122c6612938565b73ffffffffffffffffffffffffffffffffffffffff1673ffffffffffffffffffffffffffffffffffffffff16815260200190815260200160002060009054906101000a900460ff16151514612350576040517f08c379a0000000000000000000000000000000000000000000000000000000008152600401612347906149dc565b60405180910390fd5b60006040518060a0016040528088888080601f016020809104026020016040519081016040528093929190818152602001838380828437600081840152601f19601f8201169050808301925050505050505081526020018681526020018573ffffffffffffffffffffffffffffffffffffffff1681526020018481526020018381525090506123de81612f86565b50505050505050565b6123ef6138c7565b600a60008381526020019081526020016000206040518060a001604052908160008201805461241d90614d8f565b80601f016020809104026020016040519081016040528092919081815260200182805461244990614d8f565b80156124965780601f1061246b57610100808354040283529160200191612496565b820191906000526020600020905b81548152906001019060200180831161247957829003601f168201915b50505050508152602001600182015481526020016002820160009054906101000a900473ffffffffffffffffffffffffffffffffffffffff1673ffffffffffffffffffffffffffffffffffffffff1673ffffffffffffffffffffffffffffffffffffffff168152602001600382015481526020016004820154815250509050919050565b6000600560008473ffffffffffffffffffffffffffffffffffffffff1673ffffffffffffffffffffffffffffffffffffffff16815260200190815260200160002060008373ffffffffffffffffffffffffffffffffffffffff1673ffffffffffffffffffffffffffffffffffffffff16815260200190815260200160002060009054906101000a900460ff16905092915050565b60606000600c600084815260200190815260200160002080546125d090614d8f565b90501415612613576040517f08c379a000000000000000000000000000000000000000000000000000000000815260040161260a9061474e565b60405180910390fd5b600c6000838152602001908152602001600020805461263190614d8f565b80601f016020809104026020016040519081016040528092919081815260200182805461265d90614d8f565b80156126aa5780601f1061267f576101008083540402835291602001916126aa565b820191906000526020600020905b81548152906001019060200180831161268d57829003601f168201915b50505050509050919050565b6126be612938565b73ffffffffffffffffffffffffffffffffffffffff166126dc611aba565b73ffffffffffffffffffffffffffffffffffffffff1614612732576040517f08c379a00000000000000000000000000000000000000000000000000000000081526004016127299061497c565b60405180910390fd5b600073ffffffffffffffffffffffffffffffffffffffff168173ffffffffffffffffffffffffffffffffffffffff1614156127a2576040517f08c379a00000000000000000000000000000000000000000000000000000000081526004016127999061476e565b60405180910390fd5b8073ffffffffffffffffffffffffffffffffffffffff16600760009054906101000a900473ffffffffffffffffffffffffffffffffffffffff1673ffffffffffffffffffffffffffffffffffffffff167f8be0079c531659141344cd1fd0a4f28419497f9722a3daafe3b4186f6b6457e060405160405180910390a380600760006101000a81548173ffffffffffffffffffffffffffffffffffffffff021916908373ffffffffffffffffffffffffffffffffffffffff16021790555050565b60007f01ffc9a7000000000000000000000000000000000000000000000000000000007bffffffffffffffffffffffffffffffffffffffffffffffffffffffff1916827bffffffffffffffffffffffffffffffffffffffffffffffffffffffff1916149050919050565b60008073ffffffffffffffffffffffffffffffffffffffff166002600084815260200190815260200160002060009054906101000a900473ffffffffffffffffffffffffffffffffffffffff1673ffffffffffffffffffffffffffffffffffffffff1614159050919050565b600033905090565b816004600083815260200190815260200160002060006101000a81548173ffffffffffffffffffffffffffffffffffffffff021916908373ffffffffffffffffffffffffffffffffffffffff160217905550808273ffffffffffffffffffffffffffffffffffffffff166129b383611461565b73ffffffffffffffffffffffffffffffffffffffff167f8c5be1e5ebec7d5bd14f71427d1e84f3dd0314c0f7b2291e5b200ac8c7c3b92560405160405180910390a45050565b612a02826128cc565b612a41576040517f08c379a0000000000000000000000000000000000000000000000000000000008152600401612a38906148dc565b60405180910390fd5b80600660008481526020019081526020016000209080519060200190612a68929190613995565b505050565b6000612a78826128cc565b612ab7576040517f08c379a0000000000000000000000000000000000000000000000000000000008152600401612aae9061481c565b60405180910390fd5b6000612ac283611461565b90508073ffffffffffffffffffffffffffffffffffffffff168473ffffffffffffffffffffffffffffffffffffffff161480612b3157508373ffffffffffffffffffffffffffffffffffffffff16612b1984610a1b565b73ffffffffffffffffffffffffffffffffffffffff16145b80612b425750612b41818561251a565b5b91505092915050565b8273ffffffffffffffffffffffffffffffffffffffff16612b6b82611461565b73ffffffffffffffffffffffffffffffffffffffff1614612bc1576040517f08c379a0000000000000000000000000000000000000000000000000000000008152600401612bb89061499c565b60405180910390fd5b600073ffffffffffffffffffffffffffffffffffffffff168273ffffffffffffffffffffffffffffffffffffffff161415612c31576040517f08c379a0000000000000000000000000000000000000000000000000000000008152600401612c28906147dc565b60405180910390fd5b612c3c8383836131d7565b612c47600082612940565b6001600360008573ffffffffffffffffffffffffffffffffffffffff1673ffffffffffffffffffffffffffffffffffffffff1681526020019081526020016000206000828254612c979190614c9b565b925050819055506001600360008473ffffffffffffffffffffffffffffffffffffffff1673ffffffffffffffffffffffffffffffffffffffff1681526020019081526020016000206000828254612cee9190614c14565b92505081905550816002600083815260200190815260200160002060006101000a81548173ffffffffffffffffffffffffffffffffffffffff021916908373ffffffffffffffffffffffffffffffffffffffff160217905550808273ffffffffffffffffffffffffffffffffffffffff168473ffffffffffffffffffffffffffffffffffffffff167fddf252ad1be2c89b69c2b068fc378daa952ba7f163c4a11628f55a4df523b3ef60405160405180910390a4505050565b612db0816131dc565b6000600660008381526020019081526020016000208054612dd090614d8f565b905014612df757600660008281526020019081526020016000206000612df69190613887565b5b50565b60001515612e07846128cc565b151514612e49576040517f08c379a0000000000000000000000000000000000000000000000000000000008152600401612e409061487c565b60405180910390fd5b612e51612938565b73ffffffffffffffffffffffffffffffffffffffff16612e7084611461565b73ffffffffffffffffffffffffffffffffffffffff1614612e9057600080fd5b60008282905011612ed6576040517f08c379a0000000000000000000000000000000000000000000000000000000008152600401612ecd9061470e565b60405180910390fd5b6000600d8383604051612eea9291906145eb565b90815260200160405180910390205414612f39576040517f08c379a0000000000000000000000000000000000000000000000000000000008152600401612f3090614ad8565b60405180910390fd5b82600d8383604051612f4c9291906145eb565b9081526020016040518091039020819055508181600c60008681526020019081526020016000209190612f8092919061390f565b50505050565b612f8f816132ed565b612fa1816040015182608001516133ae565b80600a6000836080015181526020019081526020016000206000820151816000019080519060200190612fd5929190613995565b506020820151816001015560408201518160020160006101000a81548173ffffffffffffffffffffffffffffffffffffffff021916908373ffffffffffffffffffffffffffffffffffffffff16021790555060608201518160030155608082015181600401559050506001600b60008360600151815260200190815260200160002060006101000a81548160ff0219169083151502179055508060800151816040015173ffffffffffffffffffffffffffffffffffffffff167f4cc0a9c4a99ddc700de1af2c9f916a7cbfdb71f14801ccff94061ad1ef8a804060405160405180910390a350565b6130c8848484612b4b565b6130d48484848461357c565b613113576040517f08c379a000000000000000000000000000000000000000000000000000000000815260040161310a9061472e565b60405180910390fd5b50505050565b606060405180602001604052806000815250905090565b606061313b826128cc565b61317a576040517f08c379a0000000000000000000000000000000000000000000000000000000008152600401613171906149bc565b60405180910390fd5b6000613184613119565b905060008151116131a457604051806020016040528060008152506131cf565b806131ae84613713565b6040516020016131bf929190614604565b6040516020818303038152906040525b915050919050565b505050565b60006131e782611461565b90506131f5816000846131d7565b613200600083612940565b6001600360008373ffffffffffffffffffffffffffffffffffffffff1673ffffffffffffffffffffffffffffffffffffffff16815260200190815260200160002060008282546132509190614c9b565b925050819055506002600083815260200190815260200160002060006101000a81549073ffffffffffffffffffffffffffffffffffffffff021916905581600073ffffffffffffffffffffffffffffffffffffffff168273ffffffffffffffffffffffffffffffffffffffff167fddf252ad1be2c89b69c2b068fc378daa952ba7f163c4a11628f55a4df523b3ef60405160405180910390a45050565b60001515600b60008360600151815260200190815260200160002060009054906101000a900460ff16151514613358576040517f08c379a000000000000000000000000000000000000000000000000000000000815260040161334f9061495c565b60405180910390fd5b6000151561336982608001516128cc565b1515146133ab576040517f08c379a00000000000000000000000000000000000000000000000000000000081526004016133a2906146ee565b60405180910390fd5b50565b600073ffffffffffffffffffffffffffffffffffffffff168273ffffffffffffffffffffffffffffffffffffffff16141561341e576040517f08c379a0000000000000000000000000000000000000000000000000000000008152600401613415906148fc565b60405180910390fd5b613427816128cc565b15613467576040517f08c379a000000000000000000000000000000000000000000000000000000000815260040161345e9061478e565b60405180910390fd5b613473600083836131d7565b6001600360008473ffffffffffffffffffffffffffffffffffffffff1673ffffffffffffffffffffffffffffffffffffffff16815260200190815260200160002060008282546134c39190614c14565b92505081905550816002600083815260200190815260200160002060006101000a81548173ffffffffffffffffffffffffffffffffffffffff021916908373ffffffffffffffffffffffffffffffffffffffff160217905550808273ffffffffffffffffffffffffffffffffffffffff16600073ffffffffffffffffffffffffffffffffffffffff167fddf252ad1be2c89b69c2b068fc378daa952ba7f163c4a11628f55a4df523b3ef60405160405180910390a45050565b600061359d8473ffffffffffffffffffffffffffffffffffffffff16613874565b15613706578373ffffffffffffffffffffffffffffffffffffffff1663150b7a026135c6612938565b8786866040518563ffffffff1660e01b81526004016135e89493929190614643565b602060405180830381600087803b15801561360257600080fd5b505af192505050801561363357506040513d601f19601f820116820180604052508101906136309190613d99565b60015b6136b6573d8060008114613663576040519150601f19603f3d011682016040523d82523d6000602084013e613668565b606091505b506000815114156136ae576040517f08c379a00000000000000000000000000000000000000000000000000000000081526004016136a59061472e565b60405180910390fd5b805181602001fd5b63150b7a0260e01b7bffffffffffffffffffffffffffffffffffffffffffffffffffffffff1916817bffffffffffffffffffffffffffffffffffffffffffffffffffffffff19161491505061370b565b600190505b949350505050565b6060600082141561375b576040518060400160405280600181526020017f3000000000000000000000000000000000000000000000000000000000000000815250905061386f565b600082905060005b6000821461378d57808061377690614df2565b915050600a826137869190614c6a565b9150613763565b60008167ffffffffffffffff8111156137a9576137a8614f28565b5b6040519080825280601f01601f1916602001820160405280156137db5781602001600182028036833780820191505090505b5090505b60008514613868576001826137f49190614c9b565b9150600a856138039190614e3b565b603061380f9190614c14565b60f81b81838151811061382557613824614ef9565b5b60200101907effffffffffffffffffffffffffffffffffffffffffffffffffffffffffffff1916908160001a905350600a856138619190614c6a565b94506137df565b8093505050505b919050565b600080823b905060008111915050919050565b50805461389390614d8f565b6000825580601f106138a557506138c4565b601f0160209004906000526020600020908101906138c39190613a1b565b5b50565b6040518060a001604052806060815260200160008152602001600073ffffffffffffffffffffffffffffffffffffffff16815260200160008019168152602001600081525090565b82805461391b90614d8f565b90600052602060002090601f01602090048101928261393d5760008555613984565b82601f1061395657803560ff1916838001178555613984565b82800160010185558215613984579182015b82811115613983578235825591602001919060010190613968565b5b5090506139919190613a1b565b5090565b8280546139a190614d8f565b90600052602060002090601f0160209004810192826139c35760008555613a0a565b82601f106139dc57805160ff1916838001178555613a0a565b82800160010185558215613a0a579182015b82811115613a095782518255916020019190600101906139ee565b5b509050613a179190613a1b565b5090565b5b80821115613a34576000816000905550600101613a1c565b5090565b6000613a4b613a4684614b7a565b614b55565b905082815260208101848484011115613a6757613a66614f66565b5b613a72848285614d4d565b509392505050565b600081359050613a89816156e0565b92915050565b600081359050613a9e816156f7565b92915050565b600081359050613ab38161570e565b92915050565b600081359050613ac881615725565b92915050565b600081519050613add81615725565b92915050565b600082601f830112613af857613af7614f5c565b5b8135613b08848260208601613a38565b91505092915050565b60008083601f840112613b2757613b26614f5c565b5b8235905067ffffffffffffffff811115613b4457613b43614f57565b5b602083019150836001820283011115613b6057613b5f614f61565b5b9250929050565b600081359050613b768161573c565b92915050565b600060208284031215613b9257613b91614f70565b5b6000613ba084828501613a7a565b91505092915050565b60008060408385031215613bc057613bbf614f70565b5b6000613bce85828601613a7a565b9250506020613bdf85828601613a7a565b9150509250929050565b600080600060608486031215613c0257613c01614f70565b5b6000613c1086828701613a7a565b9350506020613c2186828701613a7a565b9250506040613c3286828701613b67565b9150509250925092565b60008060008060808587031215613c5657613c55614f70565b5b6000613c6487828801613a7a565b9450506020613c7587828801613a7a565b9350506040613c8687828801613b67565b925050606085013567ffffffffffffffff811115613ca757613ca6614f6b565b5b613cb387828801613ae3565b91505092959194509250565b60008060408385031215613cd657613cd5614f70565b5b6000613ce485828601613a7a565b9250506020613cf585828601613a8f565b9150509250929050565b60008060408385031215613d1657613d15614f70565b5b6000613d2485828601613a7a565b9250506020613d3585828601613b67565b9150509250929050565b600060208284031215613d5557613d54614f70565b5b6000613d6384828501613aa4565b91505092915050565b600060208284031215613d8257613d81614f70565b5b6000613d9084828501613ab9565b91505092915050565b600060208284031215613daf57613dae614f70565b5b6000613dbd84828501613ace565b91505092915050565b60008060208385031215613ddd57613ddc614f70565b5b600083013567ffffffffffffffff811115613dfb57613dfa614f6b565b5b613e0785828601613b11565b92509250509250929050565b60008060008060008060a08789031215613e3057613e2f614f70565b5b600087013567ffffffffffffffff811115613e4e57613e4d614f6b565b5b613e5a89828a01613b11565b96509650506020613e6d89828a01613b67565b9450506040613e7e89828a01613a7a565b9350506060613e8f89828a01613aa4565b9250506080613ea089828a01613b67565b9150509295509295509295565b600060208284031215613ec357613ec2614f70565b5b6000613ed184828501613b67565b91505092915050565b600080600060408486031215613ef357613ef2614f70565b5b6000613f0186828701613b67565b935050602084013567ffffffffffffffff811115613f2257613f21614f6b565b5b613f2e86828701613b11565b92509250509250925092565b613f4381614ccf565b82525050565b613f5281614ccf565b82525050565b613f6181614ce1565b82525050565b613f7081614ced565b82525050565b6000613f8182614bc0565b613f8b8185614bd6565b9350613f9b818560208601614d5c565b613fa481614f75565b840191505092915050565b6000613fbb8385614c09565b9350613fc8838584614d4d565b82840190509392505050565b6000613fdf82614bcb565b613fe98185614be7565b9350613ff9818560208601614d5c565b61400281614f75565b840191505092915050565b600061401882614bcb565b6140228185614bf8565b9350614032818560208601614d5c565b61403b81614f75565b840191505092915050565b600061405182614bcb565b61405b8185614c09565b935061406b818560208601614d5c565b80840191505092915050565b6000815461408481614d8f565b61408e8186614bf8565b945060018216600081146140a957600181146140bb576140ee565b60ff19831686526020860193506140ee565b6140c485614bab565b60005b838110156140e6578154818901526001820191506020810190506140c7565b808801955050505b50505092915050565b6000614104600a83614bf8565b915061410f82614f86565b602082019050919050565b6000614127600b83614bf8565b915061413282614faf565b602082019050919050565b600061414a603283614bf8565b915061415582614fd8565b604082019050919050565b600061416d600983614bf8565b915061417882615027565b602082019050919050565b6000614190602683614bf8565b915061419b82615050565b604082019050919050565b60006141b3601c83614bf8565b91506141be8261509f565b602082019050919050565b60006141d6600783614bf8565b91506141e1826150c8565b602082019050919050565b60006141f9602483614bf8565b9150614204826150f1565b604082019050919050565b600061421c601983614bf8565b915061422782615140565b602082019050919050565b600061423f602c83614bf8565b915061424a82615169565b604082019050919050565b6000614262600b83614bf8565b915061426d826151b8565b602082019050919050565b6000614285603883614bf8565b9150614290826151e1565b604082019050919050565b60006142a8600883614bf8565b91506142b382615230565b602082019050919050565b60006142cb602a83614bf8565b91506142d682615259565b604082019050919050565b60006142ee602983614bf8565b91506142f9826152a8565b604082019050919050565b6000614311602e83614bf8565b915061431c826152f7565b604082019050919050565b6000614334602083614bf8565b915061433f82615346565b602082019050919050565b6000614357603183614bf8565b91506143628261536f565b604082019050919050565b600061437a602c83614bf8565b9150614385826153be565b604082019050919050565b600061439d600c83614bf8565b91506143a88261540d565b602082019050919050565b60006143c0602083614bf8565b91506143cb82615436565b602082019050919050565b60006143e3602983614bf8565b91506143ee8261545f565b604082019050919050565b6000614406602f83614bf8565b9150614411826154ae565b604082019050919050565b6000614429602883614bf8565b9150614434826154fd565b604082019050919050565b600061444c600a83614bf8565b91506144578261554c565b602082019050919050565b600061446f602183614bf8565b915061447a82615575565b604082019050919050565b6000614492600b83614bf8565b915061449d826155c4565b602082019050919050565b60006144b5600983614bf8565b91506144c0826155ed565b602082019050919050565b60006144d8600d83614bf8565b91506144e382615616565b602082019050919050565b60006144fb603183614bf8565b91506145068261563f565b604082019050919050565b600061451e600c83614bf8565b91506145298261568e565b602082019050919050565b6000614541600983614bf8565b915061454c826156b7565b602082019050919050565b600060a08301600083015184820360008601526145748282613fd4565b915050602083015161458960208601826145cd565b50604083015161459c6040860182613f3a565b5060608301516145af6060860182613f67565b5060808301516145c260808601826145cd565b508091505092915050565b6145d681614d43565b82525050565b6145e581614d43565b82525050565b60006145f8828486613faf565b91508190509392505050565b60006146108285614046565b915061461c8284614046565b91508190509392505050565b600060208201905061463d6000830184613f49565b92915050565b60006080820190506146586000830187613f49565b6146656020830186613f49565b61467260408301856145dc565b81810360608301526146848184613f76565b905095945050505050565b60006020820190506146a46000830184613f58565b92915050565b600060208201905081810360008301526146c4818461400d565b905092915050565b600060208201905081810360008301526146e68184614077565b905092915050565b60006020820190508181036000830152614707816140f7565b9050919050565b600060208201905081810360008301526147278161411a565b9050919050565b600060208201905081810360008301526147478161413d565b9050919050565b6000602082019050818103600083015261476781614160565b9050919050565b6000602082019050818103600083015261478781614183565b9050919050565b600060208201905081810360008301526147a7816141a6565b9050919050565b600060408201905081810360008301526147c7816141c9565b90506147d66020830184613f49565b92915050565b600060208201905081810360008301526147f5816141ec565b9050919050565b600060208201905081810360008301526148158161420f565b9050919050565b6000602082019050818103600083015261483581614232565b9050919050565b6000602082019050818103600083015261485581614255565b9050919050565b6000602082019050818103600083015261487581614278565b9050919050565b600060208201905081810360008301526148958161429b565b9050919050565b600060208201905081810360008301526148b5816142be565b9050919050565b600060208201905081810360008301526148d5816142e1565b9050919050565b600060208201905081810360008301526148f581614304565b9050919050565b6000602082019050818103600083015261491581614327565b9050919050565b600060208201905081810360008301526149358161434a565b9050919050565b600060208201905081810360008301526149558161436d565b9050919050565b6000602082019050818103600083015261497581614390565b9050919050565b60006020820190508181036000830152614995816143b3565b9050919050565b600060208201905081810360008301526149b5816143d6565b9050919050565b600060208201905081810360008301526149d5816143f9565b9050919050565b600060208201905081810360008301526149f58161441c565b9050919050565b60006020820190508181036000830152614a158161443f565b9050919050565b60006020820190508181036000830152614a3581614462565b9050919050565b60006040820190508181036000830152614a5581614485565b9050614a646020830184613f49565b92915050565b60006040820190508181036000830152614a83816144a8565b9050614a926020830184613f49565b92915050565b60006020820190508181036000830152614ab1816144cb565b9050919050565b60006020820190508181036000830152614ad1816144ee565b9050919050565b60006020820190508181036000830152614af181614511565b9050919050565b60006020820190508181036000830152614b1181614534565b9050919050565b60006020820190508181036000830152614b328184614557565b905092915050565b6000602082019050614b4f60008301846145dc565b92915050565b6000614b5f614b70565b9050614b6b8282614dc1565b919050565b6000604051905090565b600067ffffffffffffffff821115614b9557614b94614f28565b5b614b9e82614f75565b9050602081019050919050565b60008190508160005260206000209050919050565b600081519050919050565b600081519050919050565b600082825260208201905092915050565b600082825260208201905092915050565b600082825260208201905092915050565b600081905092915050565b6000614c1f82614d43565b9150614c2a83614d43565b9250827fffffffffffffffffffffffffffffffffffffffffffffffffffffffffffffffff03821115614c5f57614c5e614e6c565b5b828201905092915050565b6000614c7582614d43565b9150614c8083614d43565b925082614c9057614c8f614e9b565b5b828204905092915050565b6000614ca682614d43565b9150614cb183614d43565b925082821015614cc457614cc3614e6c565b5b828203905092915050565b6000614cda82614d23565b9050919050565b60008115159050919050565b6000819050919050565b60007fffffffff0000000000000000000000000000000000000000000000000000000082169050919050565b600073ffffffffffffffffffffffffffffffffffffffff82169050919050565b6000819050919050565b82818337600083830152505050565b60005b83811015614d7a578082015181840152602081019050614d5f565b83811115614d89576000848401525b50505050565b60006002820490506001821680614da757607f821691505b60208210811415614dbb57614dba614eca565b5b50919050565b614dca82614f75565b810181811067ffffffffffffffff82111715614de957614de8614f28565b5b80604052505050565b6000614dfd82614d43565b91507fffffffffffffffffffffffffffffffffffffffffffffffffffffffffffffffff821415614e3057614e2f614e6c565b5b600182019050919050565b6000614e4682614d43565b9150614e5183614d43565b925082614e6157614e60614e9b565b5b828206905092915050565b7f4e487b7100000000000000000000000000000000000000000000000000000000600052601160045260246000fd5b7f4e487b7100000000000000000000000000000000000000000000000000000000600052601260045260246000fd5b7f4e487b7100000000000000000000000000000000000000000000000000000000600052602260045260246000fd5b7f4e487b7100000000000000000000000000000000000000000000000000000000600052603260045260246000fd5b7f4e487b7100000000000000000000000000000000000000000000000000000000600052604160045260246000fd5b600080fd5b600080fd5b600080fd5b600080fd5b600080fd5b600080fd5b6000601f19601f8301169050919050565b7f6e66742065786973747300000000000000000000000000000000000000000000600082015250565b7f76616c756520656d707479000000000000000000000000000000000000000000600082015250565b7f4552433732313a207472616e7366657220746f206e6f6e20455243373231526560008201527f63656976657220696d706c656d656e7465720000000000000000000000000000602082015250565b7f6e6f2068616e646c650000000000000000000000000000000000000000000000600082015250565b7f4f776e61626c653a206e6577206f776e657220697320746865207a65726f206160008201527f6464726573730000000000000000000000000000000000000000000000000000602082015250565b7f4552433732313a20746f6b656e20616c7265616479206d696e74656400000000600082015250565b7f4e616d6546656500000000000000000000000000000000000000000000000000600082015250565b7f4552433732313a207472616e7366657220746f20746865207a65726f2061646460008201527f7265737300000000000000000000000000000000000000000000000000000000602082015250565b7f4552433732313a20617070726f766520746f2063616c6c657200000000000000600082015250565b7f4552433732313a206f70657261746f7220717565727920666f72206e6f6e657860008201527f697374656e7420746f6b656e0000000000000000000000000000000000000000602082015250565b7f6f776e6572207374617973000000000000000000000000000000000000000000600082015250565b7f4552433732313a20617070726f76652063616c6c6572206973206e6f74206f7760008201527f6e6572206e6f7220617070726f76656420666f7220616c6c0000000000000000602082015250565b7f6e6f20746f6b656e000000000000000000000000000000000000000000000000600082015250565b7f4552433732313a2062616c616e636520717565727920666f7220746865207a6560008201527f726f206164647265737300000000000000000000000000000000000000000000602082015250565b7f4552433732313a206f776e657220717565727920666f72206e6f6e657869737460008201527f656e7420746f6b656e0000000000000000000000000000000000000000000000602082015250565b7f45524337323155524953746f726167653a2055524920736574206f66206e6f6e60008201527f6578697374656e7420746f6b656e000000000000000000000000000000000000602082015250565b7f4552433732313a206d696e7420746f20746865207a65726f2061646472657373600082015250565b7f45524337323155524953746f726167653a2055524920717565727920666f722060008201527f6e6f6e6578697374656e7420746f6b656e000000000000000000000000000000602082015250565b7f4552433732313a20617070726f76656420717565727920666f72206e6f6e657860008201527f697374656e7420746f6b656e0000000000000000000000000000000000000000602082015250565b7f66696c6520686173206e66740000000000000000000000000000000000000000600082015250565b7f4f776e61626c653a2063616c6c6572206973206e6f7420746865206f776e6572600082015250565b7f4552433732313a207472616e73666572206f6620746f6b656e2074686174206960008201527f73206e6f74206f776e0000000000000000000000000000000000000000000000602082015250565b7f4552433732314d657461646174613a2055524920717565727920666f72206e6f60008201527f6e6578697374656e7420746f6b656e0000000000000000000000000000000000602082015250565b7f63616e206e6f74206d696e742062656361757365206e6f7420617070726f766560008201527f64206d696e746572000000000000000000000000000000000000000000000000602082015250565b7f6f6e6c79206f776e657200000000000000000000000000000000000000000000600082015250565b7f4552433732313a20617070726f76616c20746f2063757272656e74206f776e6560008201527f7200000000000000000000000000000000000000000000000000000000000000602082015250565b7f4372656174696f6e466565000000000000000000000000000000000000000000600082015250565b7f48616e646c654665650000000000000000000000000000000000000000000000600082015250565b7f61646472657373283029206e6f00000000000000000000000000000000000000600082015250565b7f4552433732313a207472616e736665722063616c6c6572206973206e6f74206f60008201527f776e6572206e6f7220617070726f766564000000000000000000000000000000602082015250565b7f68616e646c652074616b656e0000000000000000000000000000000000000000600082015250565b7f6e6f742061646d696e0000000000000000000000000000000000000000000000600082015250565b6156e981614ccf565b81146156f457600080fd5b50565b61570081614ce1565b811461570b57600080fd5b50565b61571781614ced565b811461572257600080fd5b50565b61572e81614cf7565b811461573957600080fd5b50565b61574581614d43565b811461575057600080fd5b5056fea2646970667358221220f17be36f424f71d2c5f40d4d2bbee82efa69fe246d9ac5e275aa09f809e4aeba64736f6c63430008060033",
  "immutableReferences": {},
  "source": "// SPDX-License-Identifier: MIT\npragma solidity^0.8.0;\n\nimport \"@openzeppelin/contracts/token/ERC721/ERC721.sol\";\nimport \"@openzeppelin/contracts/token/ERC721/extensions/ERC721URIStorage.sol\";\nimport \"./Adminable.sol\";\n\ncontract BEPMotoNFT is ERC721URIStorage, Adminable{\n\n  constructor(string memory _name, string memory _symbol) ERC721(_name, _symbol) {\n    addMinter(owner());\n    addAdmin(owner());\n  }\n\n  event NFTMinted(address indexed owner, uint256 indexed tokenID);\n  event NFTBurned(address indexed burner, uint256 indexed tokenID);\n\n  struct NFT{\n    string name;\n    uint256 chainId;\n    address beneficiary;\n    bytes32 contentHash;\n    uint256 tokenId;\n  }\n    \n  mapping(uint256 => NFT) private NFTmetaData;\n  mapping(bytes32 => bool) private existingHash;\n  mapping(uint256 => string) private idToHandle;\n  mapping(string => uint256) private handleToId;\n\n  //fees\n  uint256 private _creationFee;\n  uint256 private _nameFee;\n  uint256 private _handleFee;\n  string private _payFee = \"pay fee\";\n\n  //User Functions \n\n  function userMint(string calldata name, uint256 chainId, address beneficiary, \n  bytes32 contentHash, uint256 tokenId) \n  payable public{\n    require(msg.value >= _creationFee, _payFee);\n    NFT memory nft = NFT(name,chainId,beneficiary,contentHash,tokenId);\n    _createNFT(nft);\n  }\n\n\n  function _createNFT(NFT memory nft) private {\n    verifyUnique(nft);\n    super._mint(nft.beneficiary, nft.tokenId);\n    NFTmetaData[nft.tokenId] = nft;\n    existingHash[nft.contentHash] = true;\n    emit NFTMinted(nft.beneficiary, nft.tokenId);\n  }\n\n\n  function verifyUnique(NFT memory nft)internal view {\n    require(existingHash[nft.contentHash]==false,\"file has nft\");\n    require(_exists(nft.tokenId)==false,\"nft exists\");\n  }\n\n\n  function existsAsNFT(bytes32 hash) public view returns(bool){\n    return existingHash[hash];\n  }\n\n\n  function burn(uint256 _tokenId) public {\n    require(ownerOf(_tokenId)==_msgSender(),\"only owner\");\n    super._burn(_tokenId);\n    NFT storage nft = NFTmetaData[_tokenId];\n    existingHash[nft.contentHash]=false;\n    delete NFTmetaData[_tokenId];\n    emit NFTBurned(_msgSender(),_tokenId);\n  }\n\n\n  function nftFromTokenId(uint256 tokenID) public view returns(NFT memory){\n    return NFTmetaData[tokenID];\n  }\n\n\n  function nftFromHandle(string calldata handle) public view returns (NFT memory){\n    require(handleToId[handle]!=0, \"no handle\");\n    uint256 tokenId = handleToId[handle];\n    return NFTmetaData[tokenId];\n  }\n\n\n  function changeName(uint256 tokenId,string calldata newName) public payable{\n    require(msg.value >=_nameFee);\n    require(ownerOf(tokenId)==_msgSender());\n    NFT storage nft = NFTmetaData[tokenId];\n    nft.name = newName;\n  }\n\n\n  function changeHandle(uint256 tokenId, string calldata handle) public payable{\n    require(msg.value>=_handleFee, _payFee);\n    _changeHandle(tokenId, handle);\n  }\n\n\n  function _changeHandle(uint256 tokenId, string calldata handle) private{\n    require(_exists(tokenId)==false,\"no token\");\n    require(ownerOf(tokenId)==_msgSender());\n    require(bytes(handle).length>0,\"value empty\");\n    require(handleToId[handle]==0,\"handle taken\");\n    handleToId[handle] = tokenId;\n    idToHandle[tokenId] = handle;\n  }\n\n\n  function getHandle(uint256 tokenId) public view returns(string memory) {\n    require(bytes(idToHandle[tokenId]).length!=0,\"no handle\");\n    return idToHandle[tokenId];\n  }\n\n\n  function getCreationFee() public view returns(uint256){\n    return _creationFee;\n  }\n\n\n  function getNameFee() public view returns(uint256){\n    return _nameFee;\n  }\n\n\n  function  getHandleFee() public view returns(uint256){\n    return _handleFee;\n  } \n\n//Admin Functions\n\n  function adminMint(string calldata name, uint256 chainId, address beneficiary, \n  bytes32 contentHash, uint256 tokenId) public onlyMinters{\n    NFT memory nft = NFT(name,chainId, beneficiary, contentHash, tokenId);\n    _createNFT(nft);\n  }\n\n\n  function setTokenURI(uint256 _tokenId, string calldata _uri) public onlyAdmins{\n    super._setTokenURI(_tokenId, _uri);\n  }\n\n\n  function setCreationFee(uint256 fee_) public onlyAdmins{\n    _creationFee = fee_;\n    emit NewFeeSet(\"CreationFee\",fee_,_msgSender());\n  }\n\n\n  function setNameFee(uint256 fee_) public onlyAdmins{\n    _nameFee = fee_;\n    emit NewFeeSet(\"NameFee\",fee_,_msgSender());\n  }\n\n\n  function setHandleFee(uint256 fee_) public onlyAdmins{\n    _handleFee = fee_;\n    emit NewFeeSet(\"HandleFee\",fee_,_msgSender());\n  }\n\n\n  function withdraw(uint256 amount) external onlyOwner{\n    address payable payee = payable(owner());\n    payee.transfer(amount);\n  }\n  \n}\n",
  "sourcePath": "/Users/yvan/Dropbox/projects/moto/contracts/marketplace-contracts/contracts/BEPMotoNFT.sol",
  "compiler": {
    "name": "solc",
    "version": "0.8.6+commit.11564f7e.Emscripten.clang"
  },
  "schemaVersion": "3.3.4",
  "updatedAt": "2021-07-05T07:14:15.907Z",
  "networkType": "ethereum",
  "devdoc": {
    "kind": "dev",
    "methods": {
      "approve(address,uint256)": {
        "details": "See {IERC721-approve}."
      },
      "balanceOf(address)": {
        "details": "See {IERC721-balanceOf}."
      },
      "getApproved(uint256)": {
        "details": "See {IERC721-getApproved}."
      },
      "isApprovedForAll(address,address)": {
        "details": "See {IERC721-isApprovedForAll}."
      },
      "name()": {
        "details": "See {IERC721Metadata-name}."
      },
      "owner()": {
        "details": "Returns the address of the current owner."
      },
      "ownerOf(uint256)": {
        "details": "See {IERC721-ownerOf}."
      },
      "renounceOwnership()": {
        "details": "Leaves the contract without owner. It will not be possible to call `onlyOwner` functions anymore. Can only be called by the current owner. NOTE: Renouncing ownership will leave the contract without an owner, thereby removing any functionality that is only available to the owner."
      },
      "safeTransferFrom(address,address,uint256)": {
        "details": "See {IERC721-safeTransferFrom}."
      },
      "safeTransferFrom(address,address,uint256,bytes)": {
        "details": "See {IERC721-safeTransferFrom}."
      },
      "setApprovalForAll(address,bool)": {
        "details": "See {IERC721-setApprovalForAll}."
      },
      "supportsInterface(bytes4)": {
        "details": "See {IERC165-supportsInterface}."
      },
      "symbol()": {
        "details": "See {IERC721Metadata-symbol}."
      },
      "tokenURI(uint256)": {
        "details": "See {IERC721Metadata-tokenURI}."
      },
      "transferFrom(address,address,uint256)": {
        "details": "See {IERC721-transferFrom}."
      },
      "transferOwnership(address)": {
        "details": "Transfers ownership of the contract to a new account (`newOwner`). Can only be called by the current owner."
      }
    },
    "version": 1
  },
  "userdoc": {
    "kind": "user",
    "methods": {
      "addMinter(address)": {
        "notice": "Administrative Functions"
      }
    },
    "version": 1
  }
}