{
  "contractName": "BEPMotoNFT",
  "abi": [
    {
      "inputs": [
        {
          "internalType": "string",
          "name": "_name",
          "type": "string"
        },
        {
          "internalType": "string",
          "name": "_symbol",
          "type": "string"
        }
      ],
      "stateMutability": "nonpayable",
      "type": "constructor"
    },
    {
      "anonymous": false,
      "inputs": [
        {
          "indexed": true,
          "internalType": "address",
          "name": "newAdmin",
          "type": "address"
        }
      ],
      "name": "AdminAdded",
      "type": "event"
    },
    {
      "anonymous": false,
      "inputs": [
        {
          "indexed": true,
          "internalType": "address",
          "name": "oldAdmin",
          "type": "address"
        }
      ],
      "name": "AdminRemoved",
      "type": "event"
    },
    {
      "anonymous": false,
      "inputs": [
        {
          "indexed": true,
          "internalType": "address",
          "name": "owner",
          "type": "address"
        },
        {
          "indexed": true,
          "internalType": "address",
          "name": "approved",
          "type": "address"
        },
        {
          "indexed": true,
          "internalType": "uint256",
          "name": "tokenId",
          "type": "uint256"
        }
      ],
      "name": "Approval",
      "type": "event"
    },
    {
      "anonymous": false,
      "inputs": [
        {
          "indexed": true,
          "internalType": "address",
          "name": "owner",
          "type": "address"
        },
        {
          "indexed": true,
          "internalType": "address",
          "name": "operator",
          "type": "address"
        },
        {
          "indexed": false,
          "internalType": "bool",
          "name": "approved",
          "type": "bool"
        }
      ],
      "name": "ApprovalForAll",
      "type": "event"
    },
    {
      "anonymous": false,
      "inputs": [
        {
          "indexed": true,
          "internalType": "address",
          "name": "newMinter",
          "type": "address"
        }
      ],
      "name": "MinterAdded",
      "type": "event"
    },
    {
      "anonymous": false,
      "inputs": [
        {
          "indexed": true,
          "internalType": "address",
          "name": "oldMinter",
          "type": "address"
        }
      ],
      "name": "MinterRemoved",
      "type": "event"
    },
    {
      "anonymous": false,
      "inputs": [
        {
          "indexed": true,
          "internalType": "address",
          "name": "burner",
          "type": "address"
        },
        {
          "indexed": true,
          "internalType": "uint256",
          "name": "tokenID",
          "type": "uint256"
        }
      ],
      "name": "NFTBurned",
      "type": "event"
    },
    {
      "anonymous": false,
      "inputs": [
        {
          "indexed": true,
          "internalType": "address",
          "name": "owner",
          "type": "address"
        },
        {
          "indexed": true,
          "internalType": "uint256",
          "name": "tokenID",
          "type": "uint256"
        }
      ],
      "name": "NFTMinted",
      "type": "event"
    },
    {
      "anonymous": false,
      "inputs": [
        {
          "indexed": false,
          "internalType": "string",
          "name": "feeName",
          "type": "string"
        },
        {
          "indexed": true,
          "internalType": "uint256",
          "name": "feeAmount",
          "type": "uint256"
        },
        {
          "indexed": false,
          "internalType": "address",
          "name": "adjuster",
          "type": "address"
        }
      ],
      "name": "NewFeeSet",
      "type": "event"
    },
    {
      "anonymous": false,
      "inputs": [
        {
          "indexed": true,
          "internalType": "address",
          "name": "previousOwner",
          "type": "address"
        },
        {
          "indexed": true,
          "internalType": "address",
          "name": "newOwner",
          "type": "address"
        }
      ],
      "name": "OwnershipTransferred",
      "type": "event"
    },
    {
      "anonymous": false,
      "inputs": [
        {
          "indexed": true,
          "internalType": "address",
          "name": "from",
          "type": "address"
        },
        {
          "indexed": true,
          "internalType": "address",
          "name": "to",
          "type": "address"
        },
        {
          "indexed": true,
          "internalType": "uint256",
          "name": "tokenId",
          "type": "uint256"
        }
      ],
      "name": "Transfer",
      "type": "event"
    },
    {
      "inputs": [
        {
          "internalType": "address",
          "name": "newAdmin",
          "type": "address"
        }
      ],
      "name": "addAdmin",
      "outputs": [],
      "stateMutability": "nonpayable",
      "type": "function"
    },
    {
      "inputs": [
        {
          "internalType": "address",
          "name": "newMinter",
          "type": "address"
        }
      ],
      "name": "addMinter",
      "outputs": [],
      "stateMutability": "nonpayable",
      "type": "function"
    },
    {
      "inputs": [
        {
          "internalType": "address",
          "name": "to",
          "type": "address"
        },
        {
          "internalType": "uint256",
          "name": "tokenId",
          "type": "uint256"
        }
      ],
      "name": "approve",
      "outputs": [],
      "stateMutability": "nonpayable",
      "type": "function"
    },
    {
      "inputs": [
        {
          "internalType": "address",
          "name": "owner",
          "type": "address"
        }
      ],
      "name": "balanceOf",
      "outputs": [
        {
          "internalType": "uint256",
          "name": "",
          "type": "uint256"
        }
      ],
      "stateMutability": "view",
      "type": "function",
      "constant": true
    },
    {
      "inputs": [
        {
          "internalType": "uint256",
          "name": "tokenId",
          "type": "uint256"
        }
      ],
      "name": "getApproved",
      "outputs": [
        {
          "internalType": "address",
          "name": "",
          "type": "address"
        }
      ],
      "stateMutability": "view",
      "type": "function",
      "constant": true
    },
    {
      "inputs": [
        {
          "internalType": "address",
          "name": "owner",
          "type": "address"
        },
        {
          "internalType": "address",
          "name": "operator",
          "type": "address"
        }
      ],
      "name": "isApprovedForAll",
      "outputs": [
        {
          "internalType": "bool",
          "name": "",
          "type": "bool"
        }
      ],
      "stateMutability": "view",
      "type": "function",
      "constant": true
    },
    {
      "inputs": [],
      "name": "name",
      "outputs": [
        {
          "internalType": "string",
          "name": "",
          "type": "string"
        }
      ],
      "stateMutability": "view",
      "type": "function",
      "constant": true
    },
    {
      "inputs": [],
      "name": "owner",
      "outputs": [
        {
          "internalType": "address",
          "name": "",
          "type": "address"
        }
      ],
      "stateMutability": "view",
      "type": "function",
      "constant": true
    },
    {
      "inputs": [
        {
          "internalType": "uint256",
          "name": "tokenId",
          "type": "uint256"
        }
      ],
      "name": "ownerOf",
      "outputs": [
        {
          "internalType": "address",
          "name": "",
          "type": "address"
        }
      ],
      "stateMutability": "view",
      "type": "function",
      "constant": true
    },
    {
      "inputs": [
        {
          "internalType": "address",
          "name": "oldAdmin",
          "type": "address"
        }
      ],
      "name": "removeAdmin",
      "outputs": [],
      "stateMutability": "nonpayable",
      "type": "function"
    },
    {
      "inputs": [
        {
          "internalType": "address",
          "name": "oldMinter",
          "type": "address"
        }
      ],
      "name": "removeMinter",
      "outputs": [],
      "stateMutability": "nonpayable",
      "type": "function"
    },
    {
      "inputs": [],
      "name": "renounceOwnership",
      "outputs": [],
      "stateMutability": "nonpayable",
      "type": "function"
    },
    {
      "inputs": [
        {
          "internalType": "address",
          "name": "from",
          "type": "address"
        },
        {
          "internalType": "address",
          "name": "to",
          "type": "address"
        },
        {
          "internalType": "uint256",
          "name": "tokenId",
          "type": "uint256"
        }
      ],
      "name": "safeTransferFrom",
      "outputs": [],
      "stateMutability": "nonpayable",
      "type": "function"
    },
    {
      "inputs": [
        {
          "internalType": "address",
          "name": "from",
          "type": "address"
        },
        {
          "internalType": "address",
          "name": "to",
          "type": "address"
        },
        {
          "internalType": "uint256",
          "name": "tokenId",
          "type": "uint256"
        },
        {
          "internalType": "bytes",
          "name": "_data",
          "type": "bytes"
        }
      ],
      "name": "safeTransferFrom",
      "outputs": [],
      "stateMutability": "nonpayable",
      "type": "function"
    },
    {
      "inputs": [
        {
          "internalType": "address",
          "name": "operator",
          "type": "address"
        },
        {
          "internalType": "bool",
          "name": "approved",
          "type": "bool"
        }
      ],
      "name": "setApprovalForAll",
      "outputs": [],
      "stateMutability": "nonpayable",
      "type": "function"
    },
    {
      "inputs": [
        {
          "internalType": "bytes4",
          "name": "interfaceId",
          "type": "bytes4"
        }
      ],
      "name": "supportsInterface",
      "outputs": [
        {
          "internalType": "bool",
          "name": "",
          "type": "bool"
        }
      ],
      "stateMutability": "view",
      "type": "function",
      "constant": true
    },
    {
      "inputs": [],
      "name": "symbol",
      "outputs": [
        {
          "internalType": "string",
          "name": "",
          "type": "string"
        }
      ],
      "stateMutability": "view",
      "type": "function",
      "constant": true
    },
    {
      "inputs": [
        {
          "internalType": "uint256",
          "name": "tokenId",
          "type": "uint256"
        }
      ],
      "name": "tokenURI",
      "outputs": [
        {
          "internalType": "string",
          "name": "",
          "type": "string"
        }
      ],
      "stateMutability": "view",
      "type": "function",
      "constant": true
    },
    {
      "inputs": [
        {
          "internalType": "address",
          "name": "from",
          "type": "address"
        },
        {
          "internalType": "address",
          "name": "to",
          "type": "address"
        },
        {
          "internalType": "uint256",
          "name": "tokenId",
          "type": "uint256"
        }
      ],
      "name": "transferFrom",
      "outputs": [],
      "stateMutability": "nonpayable",
      "type": "function"
    },
    {
      "inputs": [
        {
          "internalType": "address",
          "name": "newOwner",
          "type": "address"
        }
      ],
      "name": "transferOwnership",
      "outputs": [],
      "stateMutability": "nonpayable",
      "type": "function"
    },
    {
      "inputs": [
        {
          "internalType": "string",
          "name": "name",
          "type": "string"
        },
        {
          "internalType": "uint256",
          "name": "network",
          "type": "uint256"
        },
        {
          "internalType": "address",
          "name": "beneficiary",
          "type": "address"
        },
        {
          "internalType": "bytes32",
          "name": "contentHash",
          "type": "bytes32"
        },
        {
          "internalType": "uint256",
          "name": "tokenId",
          "type": "uint256"
        }
      ],
      "name": "userMint",
      "outputs": [],
      "stateMutability": "payable",
      "type": "function",
      "payable": true
    },
    {
      "inputs": [
        {
          "internalType": "uint256",
          "name": "tokenId",
          "type": "uint256"
        },
        {
          "internalType": "bytes32",
          "name": "fingerprint",
          "type": "bytes32"
        }
      ],
      "name": "verifyFingerprint",
      "outputs": [
        {
          "internalType": "bool",
          "name": "",
          "type": "bool"
        }
      ],
      "stateMutability": "view",
      "type": "function",
      "constant": true
    },
    {
      "inputs": [
        {
          "internalType": "bytes32",
          "name": "hash",
          "type": "bytes32"
        }
      ],
      "name": "existsAsNFT",
      "outputs": [
        {
          "internalType": "bool",
          "name": "",
          "type": "bool"
        }
      ],
      "stateMutability": "view",
      "type": "function",
      "constant": true
    },
    {
      "inputs": [
        {
          "internalType": "uint256",
          "name": "_tokenId",
          "type": "uint256"
        }
      ],
      "name": "burn",
      "outputs": [],
      "stateMutability": "nonpayable",
      "type": "function"
    },
    {
      "inputs": [
        {
          "internalType": "uint256",
          "name": "tokenID",
          "type": "uint256"
        }
      ],
      "name": "nftFromTokenId",
      "outputs": [
        {
          "components": [
            {
              "internalType": "string",
              "name": "name",
              "type": "string"
            },
            {
              "internalType": "uint256",
              "name": "network",
              "type": "uint256"
            },
            {
              "internalType": "address",
              "name": "beneficiary",
              "type": "address"
            },
            {
              "internalType": "bytes32",
              "name": "contentHash",
              "type": "bytes32"
            },
            {
              "internalType": "uint256",
              "name": "tokenId",
              "type": "uint256"
            }
          ],
          "internalType": "struct BEPMotoNFT.NFT",
          "name": "",
          "type": "tuple"
        }
      ],
      "stateMutability": "view",
      "type": "function",
      "constant": true
    },
    {
      "inputs": [
        {
          "internalType": "string",
          "name": "handle",
          "type": "string"
        }
      ],
      "name": "nftFromHandle",
      "outputs": [
        {
          "components": [
            {
              "internalType": "string",
              "name": "name",
              "type": "string"
            },
            {
              "internalType": "uint256",
              "name": "network",
              "type": "uint256"
            },
            {
              "internalType": "address",
              "name": "beneficiary",
              "type": "address"
            },
            {
              "internalType": "bytes32",
              "name": "contentHash",
              "type": "bytes32"
            },
            {
              "internalType": "uint256",
              "name": "tokenId",
              "type": "uint256"
            }
          ],
          "internalType": "struct BEPMotoNFT.NFT",
          "name": "",
          "type": "tuple"
        }
      ],
      "stateMutability": "view",
      "type": "function",
      "constant": true
    },
    {
      "inputs": [
        {
          "internalType": "uint256",
          "name": "tokenId",
          "type": "uint256"
        },
        {
          "internalType": "string",
          "name": "newName",
          "type": "string"
        }
      ],
      "name": "changeName",
      "outputs": [],
      "stateMutability": "payable",
      "type": "function",
      "payable": true
    },
    {
      "inputs": [
        {
          "internalType": "uint256",
          "name": "tokenId",
          "type": "uint256"
        },
        {
          "internalType": "string",
          "name": "handle",
          "type": "string"
        }
      ],
      "name": "changeHandle",
      "outputs": [],
      "stateMutability": "payable",
      "type": "function",
      "payable": true
    },
    {
      "inputs": [
        {
          "internalType": "uint256",
          "name": "tokenId",
          "type": "uint256"
        }
      ],
      "name": "getHandle",
      "outputs": [
        {
          "internalType": "string",
          "name": "",
          "type": "string"
        }
      ],
      "stateMutability": "view",
      "type": "function",
      "constant": true
    },
    {
      "inputs": [],
      "name": "getCreationFee",
      "outputs": [
        {
          "internalType": "uint256",
          "name": "",
          "type": "uint256"
        }
      ],
      "stateMutability": "view",
      "type": "function",
      "constant": true
    },
    {
      "inputs": [],
      "name": "getNameFee",
      "outputs": [
        {
          "internalType": "uint256",
          "name": "",
          "type": "uint256"
        }
      ],
      "stateMutability": "view",
      "type": "function",
      "constant": true
    },
    {
      "inputs": [],
      "name": "getHandleFee",
      "outputs": [
        {
          "internalType": "uint256",
          "name": "",
          "type": "uint256"
        }
      ],
      "stateMutability": "view",
      "type": "function",
      "constant": true
    },
    {
      "inputs": [
        {
          "internalType": "string",
          "name": "name",
          "type": "string"
        },
        {
          "internalType": "uint256",
          "name": "network",
          "type": "uint256"
        },
        {
          "internalType": "address",
          "name": "beneficiary",
          "type": "address"
        },
        {
          "internalType": "bytes32",
          "name": "contentHash",
          "type": "bytes32"
        },
        {
          "internalType": "uint256",
          "name": "tokenId",
          "type": "uint256"
        }
      ],
      "name": "adminMint",
      "outputs": [],
      "stateMutability": "nonpayable",
      "type": "function"
    },
    {
      "inputs": [
        {
          "internalType": "uint256",
          "name": "_tokenId",
          "type": "uint256"
        },
        {
          "internalType": "string",
          "name": "_uri",
          "type": "string"
        }
      ],
      "name": "setTokenURI",
      "outputs": [],
      "stateMutability": "nonpayable",
      "type": "function"
    },
    {
      "inputs": [
        {
          "internalType": "uint256",
          "name": "fee_",
          "type": "uint256"
        }
      ],
      "name": "setCreationFee",
      "outputs": [],
      "stateMutability": "nonpayable",
      "type": "function"
    },
    {
      "inputs": [
        {
          "internalType": "uint256",
          "name": "fee_",
          "type": "uint256"
        }
      ],
      "name": "setNameFee",
      "outputs": [],
      "stateMutability": "nonpayable",
      "type": "function"
    },
    {
      "inputs": [
        {
          "internalType": "uint256",
          "name": "fee_",
          "type": "uint256"
        }
      ],
      "name": "setHandleFee",
      "outputs": [],
      "stateMutability": "nonpayable",
      "type": "function"
    },
    {
      "inputs": [
        {
          "internalType": "uint256",
          "name": "amount",
          "type": "uint256"
        }
      ],
      "name": "withdraw",
      "outputs": [],
      "stateMutability": "nonpayable",
      "type": "function"
    },
    {
      "inputs": [],
      "name": "totalSupply",
      "outputs": [
        {
          "internalType": "uint256",
          "name": "",
          "type": "uint256"
        }
      ],
      "stateMutability": "view",
      "type": "function",
      "constant": true
    }
  ],
  "bytecode": "0x60806040526040518060400160405280600781526020017f706179206665650000000000000000000000000000000000000000000000000081525060119080519060200190620000519291906200052b565b5060006012553480156200006457600080fd5b50604051620062443803806200624483398181016040528101906200008a919062000659565b81818160009080519060200190620000a49291906200052b565b508060019080519060200190620000bd9291906200052b565b5050506000620000d2620001b960201b60201c565b905080600760006101000a81548173ffffffffffffffffffffffffffffffffffffffff021916908373ffffffffffffffffffffffffffffffffffffffff1602179055508073ffffffffffffffffffffffffffffffffffffffff16600073ffffffffffffffffffffffffffffffffffffffff167f8be0079c531659141344cd1fd0a4f28419497f9722a3daafe3b4186f6b6457e060405160405180910390a3506200019162000185620001c160201b60201c565b620001eb60201b60201c565b620001b1620001a5620001c160201b60201c565b6200038b60201b60201c565b505062000957565b600033905090565b6000600760009054906101000a900473ffffffffffffffffffffffffffffffffffffffff16905090565b620001fb620001b960201b60201c565b73ffffffffffffffffffffffffffffffffffffffff1662000221620001c160201b60201c565b73ffffffffffffffffffffffffffffffffffffffff16146200027a576040517f08c379a000000000000000000000000000000000000000000000000000000000815260040162000271906200072c565b60405180910390fd5b600073ffffffffffffffffffffffffffffffffffffffff168173ffffffffffffffffffffffffffffffffffffffff161415620002ed576040517f08c379a0000000000000000000000000000000000000000000000000000000008152600401620002e4906200074e565b60405180910390fd5b6001600960008373ffffffffffffffffffffffffffffffffffffffff1673ffffffffffffffffffffffffffffffffffffffff16815260200190815260200160002060006101000a81548160ff0219169083151502179055508073ffffffffffffffffffffffffffffffffffffffff167f6ae172837ea30b801fbfcdd4108aa1d5bf8ff775444fd70256b44e6bf3dfc3f660405160405180910390a250565b6200039b620001b960201b60201c565b73ffffffffffffffffffffffffffffffffffffffff16620003c1620001c160201b60201c565b73ffffffffffffffffffffffffffffffffffffffff16146200041a576040517f08c379a000000000000000000000000000000000000000000000000000000000815260040162000411906200072c565b60405180910390fd5b600073ffffffffffffffffffffffffffffffffffffffff168173ffffffffffffffffffffffffffffffffffffffff1614156200048d576040517f08c379a000000000000000000000000000000000000000000000000000000000815260040162000484906200074e565b60405180910390fd5b6001600860008373ffffffffffffffffffffffffffffffffffffffff1673ffffffffffffffffffffffffffffffffffffffff16815260200190815260200160002060006101000a81548160ff0219169083151502179055508073ffffffffffffffffffffffffffffffffffffffff167f44d6d25963f097ad14f29f06854a01f575648a1ef82f30e562ccd3889717e33960405160405180910390a250565b828054620005399062000816565b90600052602060002090601f0160209004810192826200055d5760008555620005a9565b82601f106200057857805160ff1916838001178555620005a9565b82800160010185558215620005a9579182015b82811115620005a85782518255916020019190600101906200058b565b5b509050620005b89190620005bc565b5090565b5b80821115620005d7576000816000905550600101620005bd565b5090565b6000620005f2620005ec8462000799565b62000770565b905082815260208101848484011115620006115762000610620008e5565b5b6200061e848285620007e0565b509392505050565b600082601f8301126200063e576200063d620008e0565b5b815162000650848260208601620005db565b91505092915050565b60008060408385031215620006735762000672620008ef565b5b600083015167ffffffffffffffff811115620006945762000693620008ea565b5b620006a28582860162000626565b925050602083015167ffffffffffffffff811115620006c657620006c5620008ea565b5b620006d48582860162000626565b9150509250929050565b6000620006ed602083620007cf565b9150620006fa8262000905565b602082019050919050565b600062000714600d83620007cf565b915062000721826200092e565b602082019050919050565b600060208201905081810360008301526200074781620006de565b9050919050565b60006020820190508181036000830152620007698162000705565b9050919050565b60006200077c6200078f565b90506200078a82826200084c565b919050565b6000604051905090565b600067ffffffffffffffff821115620007b757620007b6620008b1565b5b620007c282620008f4565b9050602081019050919050565b600082825260208201905092915050565b60005b8381101562000800578082015181840152602081019050620007e3565b8381111562000810576000848401525b50505050565b600060028204905060018216806200082f57607f821691505b6020821081141562000846576200084562000882565b5b50919050565b6200085782620008f4565b810181811067ffffffffffffffff82111715620008795762000878620008b1565b5b80604052505050565b7f4e487b7100000000000000000000000000000000000000000000000000000000600052602260045260246000fd5b7f4e487b7100000000000000000000000000000000000000000000000000000000600052604160045260246000fd5b600080fd5b600080fd5b600080fd5b600080fd5b6000601f19601f8301169050919050565b7f4f776e61626c653a2063616c6c6572206973206e6f7420746865206f776e6572600082015250565b7f61646472657373283029206e6f00000000000000000000000000000000000000600082015250565b6158dd80620009676000396000f3fe6080604052600436106102305760003560e01c8063715018a61161012e578063b88d4fde116100ab578063e4cef27f1161006f578063e4cef27f1461081c578063e55553bc14610845578063e985e9c514610882578063ec81d194146108bf578063f2fde38b146108fc57610230565b8063b88d4fde14610732578063c39cbef11461075b578063c87b56dd14610777578063cb0d992f146107b4578063db07b68e146107f157610230565b806395d89b41116100f257806395d89b4114610663578063983b2d561461068e5780639f58c2a1146106b7578063a22cb465146106e0578063b7d862251461070957610230565b8063715018a614610590578063719e26bf146105a75780637c2f4cfd146105d25780638cb5b56b146105fb5780638da5cb5b1461063857610230565b80632e1a7d4d116101bc5780636352211e116101805780636352211e146104b557806364fec9a0146104f257806365358e451461050e578063704802751461052a57806370a082311461055357610230565b80632e1a7d4d146103d45780633092afd5146103fd57806342842e0e1461042657806342966c681461044f5780635371c3c61461047857610230565b8063162094c411610203578063162094c4146103035780631785f53c1461032c57806318160ddd1461035557806323b872dd146103805780632614195f146103a957610230565b806301ffc9a71461023557806306fdde0314610272578063081812fc1461029d578063095ea7b3146102da575b600080fd5b34801561024157600080fd5b5061025c60048036038101906102579190613e56565b610925565b60405161026991906147b9565b60405180910390f35b34801561027e57600080fd5b50610287610a07565b60405161029491906147d4565b60405180910390f35b3480156102a957600080fd5b506102c460048036038101906102bf9190613f97565b610a99565b6040516102d19190614752565b60405180910390f35b3480156102e657600080fd5b5061030160048036038101906102fc9190613de9565b610b1e565b005b34801561030f57600080fd5b5061032a60048036038101906103259190614004565b610c36565b005b34801561033857600080fd5b50610353600480360381019061034e9190613c66565b610d23565b005b34801561036157600080fd5b5061036a610eb3565b6040516103779190614c64565b60405180910390f35b34801561038c57600080fd5b506103a760048036038101906103a29190613cd3565b610ebd565b005b3480156103b557600080fd5b506103be610f1d565b6040516103cb9190614c64565b60405180910390f35b3480156103e057600080fd5b506103fb60048036038101906103f69190613f97565b610f27565b005b34801561040957600080fd5b50610424600480360381019061041f9190613c66565b610ffa565b005b34801561043257600080fd5b5061044d60048036038101906104489190613cd3565b61118a565b005b34801561045b57600080fd5b5061047660048036038101906104719190613f97565b6111aa565b005b34801561048457600080fd5b5061049f600480360381019061049a9190613eb0565b611348565b6040516104ac9190614c42565b60405180910390f35b3480156104c157600080fd5b506104dc60048036038101906104d79190613f97565b611506565b6040516104e99190614752565b60405180910390f35b61050c60048036038101906105079190614004565b6115b8565b005b61052860048036038101906105239190613efd565b611612565b005b34801561053657600080fd5b50610551600480360381019061054c9190613c66565b6116f3565b005b34801561055f57600080fd5b5061057a60048036038101906105759190613c66565b61187d565b6040516105879190614c64565b60405180910390f35b34801561059c57600080fd5b506105a5611935565b005b3480156105b357600080fd5b506105bc611a72565b6040516105c99190614c64565b60405180910390f35b3480156105de57600080fd5b506105f960048036038101906105f49190613f97565b611a7c565b005b34801561060757600080fd5b50610622600480360381019061061d9190613fc4565b611b5f565b60405161062f91906147b9565b60405180910390f35b34801561064457600080fd5b5061064d611b87565b60405161065a9190614752565b60405180910390f35b34801561066f57600080fd5b50610678611bb1565b60405161068591906147d4565b60405180910390f35b34801561069a57600080fd5b506106b560048036038101906106b09190613c66565b611c43565b005b3480156106c357600080fd5b506106de60048036038101906106d99190613f97565b611dcd565b005b3480156106ec57600080fd5b5061070760048036038101906107029190613da9565b611eb0565b005b34801561071557600080fd5b50610730600480360381019061072b9190613f97565b612031565b005b34801561073e57600080fd5b5061075960048036038101906107549190613d26565b612114565b005b61077560048036038101906107709190614004565b612176565b005b34801561078357600080fd5b5061079e60048036038101906107999190613f97565b6121fd565b6040516107ab91906147d4565b60405180910390f35b3480156107c057600080fd5b506107db60048036038101906107d69190613e29565b61234f565b6040516107e891906147b9565b60405180910390f35b3480156107fd57600080fd5b50610806612379565b6040516108139190614c64565b60405180910390f35b34801561082857600080fd5b50610843600480360381019061083e9190613efd565b612383565b005b34801561085157600080fd5b5061086c60048036038101906108679190613f97565b6124b4565b6040516108799190614c42565b60405180910390f35b34801561088e57600080fd5b506108a960048036038101906108a49190613c93565b6125e7565b6040516108b691906147b9565b60405180910390f35b3480156108cb57600080fd5b506108e660048036038101906108e19190613f97565b61267b565b6040516108f391906147d4565b60405180910390f35b34801561090857600080fd5b50610923600480360381019061091e9190613c66565b612783565b005b60007f80ac58cd000000000000000000000000000000000000000000000000000000007bffffffffffffffffffffffffffffffffffffffffffffffffffffffff1916827bffffffffffffffffffffffffffffffffffffffffffffffffffffffff191614806109f057507f5b5e139f000000000000000000000000000000000000000000000000000000007bffffffffffffffffffffffffffffffffffffffffffffffffffffffff1916827bffffffffffffffffffffffffffffffffffffffffffffffffffffffff1916145b80610a0057506109ff8261292f565b5b9050919050565b606060008054610a1690614ee3565b80601f0160208091040260200160405190810160405280929190818152602001828054610a4290614ee3565b8015610a8f5780601f10610a6457610100808354040283529160200191610a8f565b820191906000526020600020905b815481529060010190602001808311610a7257829003601f168201915b5050505050905090565b6000610aa482612999565b610ae3576040517f08c379a0000000000000000000000000000000000000000000000000000000008152600401610ada90614a66565b60405180910390fd5b6004600083815260200190815260200160002060009054906101000a900473ffffffffffffffffffffffffffffffffffffffff169050919050565b6000610b2982611506565b90508073ffffffffffffffffffffffffffffffffffffffff168373ffffffffffffffffffffffffffffffffffffffff161415610b9a576040517f08c379a0000000000000000000000000000000000000000000000000000000008152600401610b9190614b46565b60405180910390fd5b8073ffffffffffffffffffffffffffffffffffffffff16610bb9612a05565b73ffffffffffffffffffffffffffffffffffffffff161480610be85750610be781610be2612a05565b6125e7565b5b610c27576040517f08c379a0000000000000000000000000000000000000000000000000000000008152600401610c1e90614986565b60405180910390fd5b610c318383612a0d565b505050565b6001151560086000610c46612a05565b73ffffffffffffffffffffffffffffffffffffffff1673ffffffffffffffffffffffffffffffffffffffff16815260200190815260200160002060009054906101000a900460ff16151514610cd0576040517f08c379a0000000000000000000000000000000000000000000000000000000008152600401610cc790614c22565b60405180910390fd5b610d1e8383838080601f016020809104026020016040519081016040528093929190818152602001838380828437600081840152601f19601f82011690508083019250505050505050612ac6565b505050565b610d2b612a05565b73ffffffffffffffffffffffffffffffffffffffff16610d49611b87565b73ffffffffffffffffffffffffffffffffffffffff1614610d9f576040517f08c379a0000000000000000000000000000000000000000000000000000000008152600401610d9690614aa6565b60405180910390fd5b610da7611b87565b73ffffffffffffffffffffffffffffffffffffffff168173ffffffffffffffffffffffffffffffffffffffff161415610e15576040517f08c379a0000000000000000000000000000000000000000000000000000000008152600401610e0c90614966565b60405180910390fd5b6000600860008373ffffffffffffffffffffffffffffffffffffffff1673ffffffffffffffffffffffffffffffffffffffff16815260200190815260200160002060006101000a81548160ff0219169083151502179055508073ffffffffffffffffffffffffffffffffffffffff167fa3b62bc36326052d97ea62d63c3d60308ed4c3ea8ac079dd8499f1e9c4f80c0f60405160405180910390a250565b6000601254905090565b610ece610ec8612a05565b82612b3a565b610f0d576040517f08c379a0000000000000000000000000000000000000000000000000000000008152600401610f0490614be2565b60405180910390fd5b610f18838383612c18565b505050565b6000600f54905090565b610f2f612a05565b73ffffffffffffffffffffffffffffffffffffffff16610f4d611b87565b73ffffffffffffffffffffffffffffffffffffffff1614610fa3576040517f08c379a0000000000000000000000000000000000000000000000000000000008152600401610f9a90614aa6565b60405180910390fd5b6000610fad611b87565b90508073ffffffffffffffffffffffffffffffffffffffff166108fc839081150290604051600060405180830381858888f19350505050158015610ff5573d6000803e3d6000fd5b505050565b611002612a05565b73ffffffffffffffffffffffffffffffffffffffff16611020611b87565b73ffffffffffffffffffffffffffffffffffffffff1614611076576040517f08c379a000000000000000000000000000000000000000000000000000000000815260040161106d90614aa6565b60405180910390fd5b61107e611b87565b73ffffffffffffffffffffffffffffffffffffffff168173ffffffffffffffffffffffffffffffffffffffff1614156110ec576040517f08c379a00000000000000000000000000000000000000000000000000000000081526004016110e390614966565b60405180910390fd5b6000600960008373ffffffffffffffffffffffffffffffffffffffff1673ffffffffffffffffffffffffffffffffffffffff16815260200190815260200160002060006101000a81548160ff0219169083151502179055508073ffffffffffffffffffffffffffffffffffffffff167fe94479a9f7e1952cc78f2d6baab678adc1b772d936c6583def489e524cb6669260405160405180910390a250565b6111a583838360405180602001604052806000815250612114565b505050565b6111b2612a05565b73ffffffffffffffffffffffffffffffffffffffff166111d182611506565b73ffffffffffffffffffffffffffffffffffffffff1614611227576040517f08c379a000000000000000000000000000000000000000000000000000000000815260040161121e90614b26565b60405180910390fd5b61123081612e74565b6000600a600083815260200190815260200160002090506000600b60008360030154815260200190815260200160002060006101000a81548160ff021916908315150217905550600a60008381526020019081526020016000206000808201600061129b9190613971565b60018201600090556002820160006101000a81549073ffffffffffffffffffffffffffffffffffffffff0219169055600382016000905560048201600090555050601260008154809291906112ef90614eb9565b9190505560128190555081611302612a05565b73ffffffffffffffffffffffffffffffffffffffff167fd6a6bcd88cdc4656d5f4e14e7dfbc9bc3f2f9811f8d6b508f3bee7d999d4d41c60405160405180910390a35050565b6113506139b1565b6000600d8484604051611364929190614715565b90815260200160405180910390205414156113b4576040517f08c379a00000000000000000000000000000000000000000000000000000000081526004016113ab90614878565b60405180910390fd5b6000600d84846040516113c8929190614715565b9081526020016040518091039020549050600a60008281526020019081526020016000206040518060a001604052908160008201805461140790614ee3565b80601f016020809104026020016040519081016040528092919081815260200182805461143390614ee3565b80156114805780601f1061145557610100808354040283529160200191611480565b820191906000526020600020905b81548152906001019060200180831161146357829003601f168201915b50505050508152602001600182015481526020016002820160009054906101000a900473ffffffffffffffffffffffffffffffffffffffff1673ffffffffffffffffffffffffffffffffffffffff1673ffffffffffffffffffffffffffffffffffffffff1681526020016003820154815260200160048201548152505091505092915050565b6000806002600084815260200190815260200160002060009054906101000a900473ffffffffffffffffffffffffffffffffffffffff169050600073ffffffffffffffffffffffffffffffffffffffff168173ffffffffffffffffffffffffffffffffffffffff1614156115af576040517f08c379a00000000000000000000000000000000000000000000000000000000081526004016115a6906149e6565b60405180910390fd5b80915050919050565b601054341015601190611601576040517f08c379a00000000000000000000000000000000000000000000000000000000081526004016115f891906147f6565b60405180910390fd5b5061160d838383612ec7565b505050565b600e5434101560119061165b576040517f08c379a000000000000000000000000000000000000000000000000000000000815260040161165291906147f6565b60405180910390fd5b5060006040518060a0016040528088888080601f016020809104026020016040519081016040528093929190818152602001838380828437600081840152601f19601f8201169050808301925050505050505081526020018681526020018573ffffffffffffffffffffffffffffffffffffffff1681526020018481526020018381525090506116ea81613053565b50505050505050565b6116fb612a05565b73ffffffffffffffffffffffffffffffffffffffff16611719611b87565b73ffffffffffffffffffffffffffffffffffffffff161461176f576040517f08c379a000000000000000000000000000000000000000000000000000000000815260040161176690614aa6565b60405180910390fd5b600073ffffffffffffffffffffffffffffffffffffffff168173ffffffffffffffffffffffffffffffffffffffff1614156117df576040517f08c379a00000000000000000000000000000000000000000000000000000000081526004016117d690614bc2565b60405180910390fd5b6001600860008373ffffffffffffffffffffffffffffffffffffffff1673ffffffffffffffffffffffffffffffffffffffff16815260200190815260200160002060006101000a81548160ff0219169083151502179055508073ffffffffffffffffffffffffffffffffffffffff167f44d6d25963f097ad14f29f06854a01f575648a1ef82f30e562ccd3889717e33960405160405180910390a250565b60008073ffffffffffffffffffffffffffffffffffffffff168273ffffffffffffffffffffffffffffffffffffffff1614156118ee576040517f08c379a00000000000000000000000000000000000000000000000000000000081526004016118e5906149c6565b60405180910390fd5b600360008373ffffffffffffffffffffffffffffffffffffffff1673ffffffffffffffffffffffffffffffffffffffff168152602001908152602001600020549050919050565b61193d612a05565b73ffffffffffffffffffffffffffffffffffffffff1661195b611b87565b73ffffffffffffffffffffffffffffffffffffffff16146119b1576040517f08c379a00000000000000000000000000000000000000000000000000000000081526004016119a890614aa6565b60405180910390fd5b600073ffffffffffffffffffffffffffffffffffffffff16600760009054906101000a900473ffffffffffffffffffffffffffffffffffffffff1673ffffffffffffffffffffffffffffffffffffffff167f8be0079c531659141344cd1fd0a4f28419497f9722a3daafe3b4186f6b6457e060405160405180910390a36000600760006101000a81548173ffffffffffffffffffffffffffffffffffffffff021916908373ffffffffffffffffffffffffffffffffffffffff160217905550565b6000601054905090565b6001151560086000611a8c612a05565b73ffffffffffffffffffffffffffffffffffffffff1673ffffffffffffffffffffffffffffffffffffffff16815260200190815260200160002060009054906101000a900460ff16151514611b16576040517f08c379a0000000000000000000000000000000000000000000000000000000008152600401611b0d90614c22565b60405180910390fd5b80601081905550807ff4dd97233cb9c3b3f1bcd0bccb83bec53a4e567fda0939df7863869c50fa7498611b47612a05565b604051611b549190614b94565b60405180910390a250565b600080600a600085815260200190815260200160002090508281600301541491505092915050565b6000600760009054906101000a900473ffffffffffffffffffffffffffffffffffffffff16905090565b606060018054611bc090614ee3565b80601f0160208091040260200160405190810160405280929190818152602001828054611bec90614ee3565b8015611c395780601f10611c0e57610100808354040283529160200191611c39565b820191906000526020600020905b815481529060010190602001808311611c1c57829003601f168201915b5050505050905090565b611c4b612a05565b73ffffffffffffffffffffffffffffffffffffffff16611c69611b87565b73ffffffffffffffffffffffffffffffffffffffff1614611cbf576040517f08c379a0000000000000000000000000000000000000000000000000000000008152600401611cb690614aa6565b60405180910390fd5b600073ffffffffffffffffffffffffffffffffffffffff168173ffffffffffffffffffffffffffffffffffffffff161415611d2f576040517f08c379a0000000000000000000000000000000000000000000000000000000008152600401611d2690614bc2565b60405180910390fd5b6001600960008373ffffffffffffffffffffffffffffffffffffffff1673ffffffffffffffffffffffffffffffffffffffff16815260200190815260200160002060006101000a81548160ff0219169083151502179055508073ffffffffffffffffffffffffffffffffffffffff167f6ae172837ea30b801fbfcdd4108aa1d5bf8ff775444fd70256b44e6bf3dfc3f660405160405180910390a250565b6001151560086000611ddd612a05565b73ffffffffffffffffffffffffffffffffffffffff1673ffffffffffffffffffffffffffffffffffffffff16815260200190815260200160002060009054906101000a900460ff16151514611e67576040517f08c379a0000000000000000000000000000000000000000000000000000000008152600401611e5e90614c22565b60405180910390fd5b80600f81905550807ff4dd97233cb9c3b3f1bcd0bccb83bec53a4e567fda0939df7863869c50fa7498611e98612a05565b604051611ea591906148d8565b60405180910390a250565b611eb8612a05565b73ffffffffffffffffffffffffffffffffffffffff168273ffffffffffffffffffffffffffffffffffffffff161415611f26576040517f08c379a0000000000000000000000000000000000000000000000000000000008152600401611f1d90614926565b60405180910390fd5b8060056000611f33612a05565b73ffffffffffffffffffffffffffffffffffffffff1673ffffffffffffffffffffffffffffffffffffffff16815260200190815260200160002060008473ffffffffffffffffffffffffffffffffffffffff1673ffffffffffffffffffffffffffffffffffffffff16815260200190815260200160002060006101000a81548160ff0219169083151502179055508173ffffffffffffffffffffffffffffffffffffffff16611fe0612a05565b73ffffffffffffffffffffffffffffffffffffffff167f17307eab39ab6107e8899845ad3d59bd9653f200f220920489ca2b5937696c318360405161202591906147b9565b60405180910390a35050565b6001151560086000612041612a05565b73ffffffffffffffffffffffffffffffffffffffff1673ffffffffffffffffffffffffffffffffffffffff16815260200190815260200160002060009054906101000a900460ff161515146120cb576040517f08c379a00000000000000000000000000000000000000000000000000000000081526004016120c290614c22565b60405180910390fd5b80600e81905550807ff4dd97233cb9c3b3f1bcd0bccb83bec53a4e567fda0939df7863869c50fa74986120fc612a05565b6040516121099190614b66565b60405180910390a250565b61212561211f612a05565b83612b3a565b612164576040517f08c379a000000000000000000000000000000000000000000000000000000000815260040161215b90614be2565b60405180910390fd5b612170848484846131a7565b50505050565b600f5434101561218557600080fd5b61218d612a05565b73ffffffffffffffffffffffffffffffffffffffff166121ac84611506565b73ffffffffffffffffffffffffffffffffffffffff16146121cc57600080fd5b6000600a6000858152602001908152602001600020905082828260000191906121f69291906139f9565b5050505050565b606061220882612999565b612247576040517f08c379a000000000000000000000000000000000000000000000000000000000815260040161223e90614a46565b60405180910390fd5b600060066000848152602001908152602001600020805461226790614ee3565b80601f016020809104026020016040519081016040528092919081815260200182805461229390614ee3565b80156122e05780601f106122b5576101008083540402835291602001916122e0565b820191906000526020600020905b8154815290600101906020018083116122c357829003601f168201915b5050505050905060006122f1613203565b905060008151141561230757819250505061234a565b60008251111561233c57808260405160200161232492919061472e565b6040516020818303038152906040529250505061234a565b6123458461321a565b925050505b919050565b6000600b600083815260200190815260200160002060009054906101000a900460ff169050919050565b6000600e54905090565b6001151560096000612393612a05565b73ffffffffffffffffffffffffffffffffffffffff1673ffffffffffffffffffffffffffffffffffffffff16815260200190815260200160002060009054906101000a900460ff1615151461241d576040517f08c379a000000000000000000000000000000000000000000000000000000000815260040161241490614b06565b60405180910390fd5b60006040518060a0016040528088888080601f016020809104026020016040519081016040528093929190818152602001838380828437600081840152601f19601f8201169050808301925050505050505081526020018681526020018573ffffffffffffffffffffffffffffffffffffffff1681526020018481526020018381525090506124ab81613053565b50505050505050565b6124bc6139b1565b600a60008381526020019081526020016000206040518060a00160405290816000820180546124ea90614ee3565b80601f016020809104026020016040519081016040528092919081815260200182805461251690614ee3565b80156125635780601f1061253857610100808354040283529160200191612563565b820191906000526020600020905b81548152906001019060200180831161254657829003601f168201915b50505050508152602001600182015481526020016002820160009054906101000a900473ffffffffffffffffffffffffffffffffffffffff1673ffffffffffffffffffffffffffffffffffffffff1673ffffffffffffffffffffffffffffffffffffffff168152602001600382015481526020016004820154815250509050919050565b6000600560008473ffffffffffffffffffffffffffffffffffffffff1673ffffffffffffffffffffffffffffffffffffffff16815260200190815260200160002060008373ffffffffffffffffffffffffffffffffffffffff1673ffffffffffffffffffffffffffffffffffffffff16815260200190815260200160002060009054906101000a900460ff16905092915050565b60606000600c6000848152602001908152602001600020805461269d90614ee3565b905014156126e0576040517f08c379a00000000000000000000000000000000000000000000000000000000081526004016126d790614878565b60405180910390fd5b600c600083815260200190815260200160002080546126fe90614ee3565b80601f016020809104026020016040519081016040528092919081815260200182805461272a90614ee3565b80156127775780601f1061274c57610100808354040283529160200191612777565b820191906000526020600020905b81548152906001019060200180831161275a57829003601f168201915b50505050509050919050565b61278b612a05565b73ffffffffffffffffffffffffffffffffffffffff166127a9611b87565b73ffffffffffffffffffffffffffffffffffffffff16146127ff576040517f08c379a00000000000000000000000000000000000000000000000000000000081526004016127f690614aa6565b60405180910390fd5b600073ffffffffffffffffffffffffffffffffffffffff168173ffffffffffffffffffffffffffffffffffffffff16141561286f576040517f08c379a000000000000000000000000000000000000000000000000000000000815260040161286690614898565b60405180910390fd5b8073ffffffffffffffffffffffffffffffffffffffff16600760009054906101000a900473ffffffffffffffffffffffffffffffffffffffff1673ffffffffffffffffffffffffffffffffffffffff167f8be0079c531659141344cd1fd0a4f28419497f9722a3daafe3b4186f6b6457e060405160405180910390a380600760006101000a81548173ffffffffffffffffffffffffffffffffffffffff021916908373ffffffffffffffffffffffffffffffffffffffff16021790555050565b60007f01ffc9a7000000000000000000000000000000000000000000000000000000007bffffffffffffffffffffffffffffffffffffffffffffffffffffffff1916827bffffffffffffffffffffffffffffffffffffffffffffffffffffffff1916149050919050565b60008073ffffffffffffffffffffffffffffffffffffffff166002600084815260200190815260200160002060009054906101000a900473ffffffffffffffffffffffffffffffffffffffff1673ffffffffffffffffffffffffffffffffffffffff1614159050919050565b600033905090565b816004600083815260200190815260200160002060006101000a81548173ffffffffffffffffffffffffffffffffffffffff021916908373ffffffffffffffffffffffffffffffffffffffff160217905550808273ffffffffffffffffffffffffffffffffffffffff16612a8083611506565b73ffffffffffffffffffffffffffffffffffffffff167f8c5be1e5ebec7d5bd14f71427d1e84f3dd0314c0f7b2291e5b200ac8c7c3b92560405160405180910390a45050565b612acf82612999565b612b0e576040517f08c379a0000000000000000000000000000000000000000000000000000000008152600401612b0590614a06565b60405180910390fd5b80600660008481526020019081526020016000209080519060200190612b35929190613a7f565b505050565b6000612b4582612999565b612b84576040517f08c379a0000000000000000000000000000000000000000000000000000000008152600401612b7b90614946565b60405180910390fd5b6000612b8f83611506565b90508073ffffffffffffffffffffffffffffffffffffffff168473ffffffffffffffffffffffffffffffffffffffff161480612bfe57508373ffffffffffffffffffffffffffffffffffffffff16612be684610a99565b73ffffffffffffffffffffffffffffffffffffffff16145b80612c0f5750612c0e81856125e7565b5b91505092915050565b8273ffffffffffffffffffffffffffffffffffffffff16612c3882611506565b73ffffffffffffffffffffffffffffffffffffffff1614612c8e576040517f08c379a0000000000000000000000000000000000000000000000000000000008152600401612c8590614ac6565b60405180910390fd5b600073ffffffffffffffffffffffffffffffffffffffff168273ffffffffffffffffffffffffffffffffffffffff161415612cfe576040517f08c379a0000000000000000000000000000000000000000000000000000000008152600401612cf590614906565b60405180910390fd5b612d098383836132c1565b612d14600082612a0d565b6001600360008573ffffffffffffffffffffffffffffffffffffffff1673ffffffffffffffffffffffffffffffffffffffff1681526020019081526020016000206000828254612d649190614dc5565b925050819055506001600360008473ffffffffffffffffffffffffffffffffffffffff1673ffffffffffffffffffffffffffffffffffffffff1681526020019081526020016000206000828254612dbb9190614d3e565b92505081905550816002600083815260200190815260200160002060006101000a81548173ffffffffffffffffffffffffffffffffffffffff021916908373ffffffffffffffffffffffffffffffffffffffff160217905550808273ffffffffffffffffffffffffffffffffffffffff168473ffffffffffffffffffffffffffffffffffffffff167fddf252ad1be2c89b69c2b068fc378daa952ba7f163c4a11628f55a4df523b3ef60405160405180910390a4505050565b612e7d816132c6565b6000600660008381526020019081526020016000208054612e9d90614ee3565b905014612ec457600660008281526020019081526020016000206000612ec39190613971565b5b50565b60001515612ed484612999565b151514612f16576040517f08c379a0000000000000000000000000000000000000000000000000000000008152600401612f0d906149a6565b60405180910390fd5b612f1e612a05565b73ffffffffffffffffffffffffffffffffffffffff16612f3d84611506565b73ffffffffffffffffffffffffffffffffffffffff1614612f5d57600080fd5b60008282905011612fa3576040517f08c379a0000000000000000000000000000000000000000000000000000000008152600401612f9a90614838565b60405180910390fd5b6000600d8383604051612fb7929190614715565b90815260200160405180910390205414613006576040517f08c379a0000000000000000000000000000000000000000000000000000000008152600401612ffd90614c02565b60405180910390fd5b82600d8383604051613019929190614715565b9081526020016040518091039020819055508181600c6000868152602001908152602001600020919061304d9291906139f9565b50505050565b61305c816133d7565b61306e81604001518260800151613498565b80600a60008360800151815260200190815260200160002060008201518160000190805190602001906130a2929190613a7f565b506020820151816001015560408201518160020160006101000a81548173ffffffffffffffffffffffffffffffffffffffff021916908373ffffffffffffffffffffffffffffffffffffffff16021790555060608201518160030155608082015181600401559050506001600b60008360600151815260200190815260200160002060006101000a81548160ff0219169083151502179055506012600081548092919061314e90614f46565b919050556012819055508060800151816040015173ffffffffffffffffffffffffffffffffffffffff167f4cc0a9c4a99ddc700de1af2c9f916a7cbfdb71f14801ccff94061ad1ef8a804060405160405180910390a350565b6131b2848484612c18565b6131be84848484613666565b6131fd576040517f08c379a00000000000000000000000000000000000000000000000000000000081526004016131f490614858565b60405180910390fd5b50505050565b606060405180602001604052806000815250905090565b606061322582612999565b613264576040517f08c379a000000000000000000000000000000000000000000000000000000000815260040161325b90614ae6565b60405180910390fd5b600061326e613203565b9050600081511161328e57604051806020016040528060008152506132b9565b80613298846137fd565b6040516020016132a992919061472e565b6040516020818303038152906040525b915050919050565b505050565b60006132d182611506565b90506132df816000846132c1565b6132ea600083612a0d565b6001600360008373ffffffffffffffffffffffffffffffffffffffff1673ffffffffffffffffffffffffffffffffffffffff168152602001908152602001600020600082825461333a9190614dc5565b925050819055506002600083815260200190815260200160002060006101000a81549073ffffffffffffffffffffffffffffffffffffffff021916905581600073ffffffffffffffffffffffffffffffffffffffff168273ffffffffffffffffffffffffffffffffffffffff167fddf252ad1be2c89b69c2b068fc378daa952ba7f163c4a11628f55a4df523b3ef60405160405180910390a45050565b60001515600b60008360600151815260200190815260200160002060009054906101000a900460ff16151514613442576040517f08c379a000000000000000000000000000000000000000000000000000000000815260040161343990614a86565b60405180910390fd5b600015156134538260800151612999565b151514613495576040517f08c379a000000000000000000000000000000000000000000000000000000000815260040161348c90614818565b60405180910390fd5b50565b600073ffffffffffffffffffffffffffffffffffffffff168273ffffffffffffffffffffffffffffffffffffffff161415613508576040517f08c379a00000000000000000000000000000000000000000000000000000000081526004016134ff90614a26565b60405180910390fd5b61351181612999565b15613551576040517f08c379a0000000000000000000000000000000000000000000000000000000008152600401613548906148b8565b60405180910390fd5b61355d600083836132c1565b6001600360008473ffffffffffffffffffffffffffffffffffffffff1673ffffffffffffffffffffffffffffffffffffffff16815260200190815260200160002060008282546135ad9190614d3e565b92505081905550816002600083815260200190815260200160002060006101000a81548173ffffffffffffffffffffffffffffffffffffffff021916908373ffffffffffffffffffffffffffffffffffffffff160217905550808273ffffffffffffffffffffffffffffffffffffffff16600073ffffffffffffffffffffffffffffffffffffffff167fddf252ad1be2c89b69c2b068fc378daa952ba7f163c4a11628f55a4df523b3ef60405160405180910390a45050565b60006136878473ffffffffffffffffffffffffffffffffffffffff1661395e565b156137f0578373ffffffffffffffffffffffffffffffffffffffff1663150b7a026136b0612a05565b8786866040518563ffffffff1660e01b81526004016136d2949392919061476d565b602060405180830381600087803b1580156136ec57600080fd5b505af192505050801561371d57506040513d601f19601f8201168201806040525081019061371a9190613e83565b60015b6137a0573d806000811461374d576040519150601f19603f3d011682016040523d82523d6000602084013e613752565b606091505b50600081511415613798576040517f08c379a000000000000000000000000000000000000000000000000000000000815260040161378f90614858565b60405180910390fd5b805181602001fd5b63150b7a0260e01b7bffffffffffffffffffffffffffffffffffffffffffffffffffffffff1916817bffffffffffffffffffffffffffffffffffffffffffffffffffffffff1916149150506137f5565b600190505b949350505050565b60606000821415613845576040518060400160405280600181526020017f30000000000000000000000000000000000000000000000000000000000000008152509050613959565b600082905060005b6000821461387757808061386090614f46565b915050600a826138709190614d94565b915061384d565b60008167ffffffffffffffff8111156138935761389261507c565b5b6040519080825280601f01601f1916602001820160405280156138c55781602001600182028036833780820191505090505b5090505b60008514613952576001826138de9190614dc5565b9150600a856138ed9190614f8f565b60306138f99190614d3e565b60f81b81838151811061390f5761390e61504d565b5b60200101907effffffffffffffffffffffffffffffffffffffffffffffffffffffffffffff1916908160001a905350600a8561394b9190614d94565b94506138c9565b8093505050505b919050565b600080823b905060008111915050919050565b50805461397d90614ee3565b6000825580601f1061398f57506139ae565b601f0160209004906000526020600020908101906139ad9190613b05565b5b50565b6040518060a001604052806060815260200160008152602001600073ffffffffffffffffffffffffffffffffffffffff16815260200160008019168152602001600081525090565b828054613a0590614ee3565b90600052602060002090601f016020900481019282613a275760008555613a6e565b82601f10613a4057803560ff1916838001178555613a6e565b82800160010185558215613a6e579182015b82811115613a6d578235825591602001919060010190613a52565b5b509050613a7b9190613b05565b5090565b828054613a8b90614ee3565b90600052602060002090601f016020900481019282613aad5760008555613af4565b82601f10613ac657805160ff1916838001178555613af4565b82800160010185558215613af4579182015b82811115613af3578251825591602001919060010190613ad8565b5b509050613b019190613b05565b5090565b5b80821115613b1e576000816000905550600101613b06565b5090565b6000613b35613b3084614ca4565b614c7f565b905082815260208101848484011115613b5157613b506150ba565b5b613b5c848285614e77565b509392505050565b600081359050613b7381615834565b92915050565b600081359050613b888161584b565b92915050565b600081359050613b9d81615862565b92915050565b600081359050613bb281615879565b92915050565b600081519050613bc781615879565b92915050565b600082601f830112613be257613be16150b0565b5b8135613bf2848260208601613b22565b91505092915050565b60008083601f840112613c1157613c106150b0565b5b8235905067ffffffffffffffff811115613c2e57613c2d6150ab565b5b602083019150836001820283011115613c4a57613c496150b5565b5b9250929050565b600081359050613c6081615890565b92915050565b600060208284031215613c7c57613c7b6150c4565b5b6000613c8a84828501613b64565b91505092915050565b60008060408385031215613caa57613ca96150c4565b5b6000613cb885828601613b64565b9250506020613cc985828601613b64565b9150509250929050565b600080600060608486031215613cec57613ceb6150c4565b5b6000613cfa86828701613b64565b9350506020613d0b86828701613b64565b9250506040613d1c86828701613c51565b9150509250925092565b60008060008060808587031215613d4057613d3f6150c4565b5b6000613d4e87828801613b64565b9450506020613d5f87828801613b64565b9350506040613d7087828801613c51565b925050606085013567ffffffffffffffff811115613d9157613d906150bf565b5b613d9d87828801613bcd565b91505092959194509250565b60008060408385031215613dc057613dbf6150c4565b5b6000613dce85828601613b64565b9250506020613ddf85828601613b79565b9150509250929050565b60008060408385031215613e0057613dff6150c4565b5b6000613e0e85828601613b64565b9250506020613e1f85828601613c51565b9150509250929050565b600060208284031215613e3f57613e3e6150c4565b5b6000613e4d84828501613b8e565b91505092915050565b600060208284031215613e6c57613e6b6150c4565b5b6000613e7a84828501613ba3565b91505092915050565b600060208284031215613e9957613e986150c4565b5b6000613ea784828501613bb8565b91505092915050565b60008060208385031215613ec757613ec66150c4565b5b600083013567ffffffffffffffff811115613ee557613ee46150bf565b5b613ef185828601613bfb565b92509250509250929050565b60008060008060008060a08789031215613f1a57613f196150c4565b5b600087013567ffffffffffffffff811115613f3857613f376150bf565b5b613f4489828a01613bfb565b96509650506020613f5789828a01613c51565b9450506040613f6889828a01613b64565b9350506060613f7989828a01613b8e565b9250506080613f8a89828a01613c51565b9150509295509295509295565b600060208284031215613fad57613fac6150c4565b5b6000613fbb84828501613c51565b91505092915050565b60008060408385031215613fdb57613fda6150c4565b5b6000613fe985828601613c51565b9250506020613ffa85828601613b8e565b9150509250929050565b60008060006040848603121561401d5761401c6150c4565b5b600061402b86828701613c51565b935050602084013567ffffffffffffffff81111561404c5761404b6150bf565b5b61405886828701613bfb565b92509250509250925092565b61406d81614df9565b82525050565b61407c81614df9565b82525050565b61408b81614e0b565b82525050565b61409a81614e17565b82525050565b60006140ab82614cea565b6140b58185614d00565b93506140c5818560208601614e86565b6140ce816150c9565b840191505092915050565b60006140e58385614d33565b93506140f2838584614e77565b82840190509392505050565b600061410982614cf5565b6141138185614d11565b9350614123818560208601614e86565b61412c816150c9565b840191505092915050565b600061414282614cf5565b61414c8185614d22565b935061415c818560208601614e86565b614165816150c9565b840191505092915050565b600061417b82614cf5565b6141858185614d33565b9350614195818560208601614e86565b80840191505092915050565b600081546141ae81614ee3565b6141b88186614d22565b945060018216600081146141d357600181146141e557614218565b60ff1983168652602086019350614218565b6141ee85614cd5565b60005b83811015614210578154818901526001820191506020810190506141f1565b808801955050505b50505092915050565b600061422e600a83614d22565b9150614239826150da565b602082019050919050565b6000614251600b83614d22565b915061425c82615103565b602082019050919050565b6000614274603283614d22565b915061427f8261512c565b604082019050919050565b6000614297600983614d22565b91506142a28261517b565b602082019050919050565b60006142ba602683614d22565b91506142c5826151a4565b604082019050919050565b60006142dd601c83614d22565b91506142e8826151f3565b602082019050919050565b6000614300600783614d22565b915061430b8261521c565b602082019050919050565b6000614323602483614d22565b915061432e82615245565b604082019050919050565b6000614346601983614d22565b915061435182615294565b602082019050919050565b6000614369602c83614d22565b9150614374826152bd565b604082019050919050565b600061438c600b83614d22565b91506143978261530c565b602082019050919050565b60006143af603883614d22565b91506143ba82615335565b604082019050919050565b60006143d2600883614d22565b91506143dd82615384565b602082019050919050565b60006143f5602a83614d22565b9150614400826153ad565b604082019050919050565b6000614418602983614d22565b9150614423826153fc565b604082019050919050565b600061443b602e83614d22565b91506144468261544b565b604082019050919050565b600061445e602083614d22565b91506144698261549a565b602082019050919050565b6000614481603183614d22565b915061448c826154c3565b604082019050919050565b60006144a4602c83614d22565b91506144af82615512565b604082019050919050565b60006144c7600c83614d22565b91506144d282615561565b602082019050919050565b60006144ea602083614d22565b91506144f58261558a565b602082019050919050565b600061450d602983614d22565b9150614518826155b3565b604082019050919050565b6000614530602f83614d22565b915061453b82615602565b604082019050919050565b6000614553602883614d22565b915061455e82615651565b604082019050919050565b6000614576600a83614d22565b9150614581826156a0565b602082019050919050565b6000614599602183614d22565b91506145a4826156c9565b604082019050919050565b60006145bc600b83614d22565b91506145c782615718565b602082019050919050565b60006145df600983614d22565b91506145ea82615741565b602082019050919050565b6000614602600d83614d22565b915061460d8261576a565b602082019050919050565b6000614625603183614d22565b915061463082615793565b604082019050919050565b6000614648600c83614d22565b9150614653826157e2565b602082019050919050565b600061466b600983614d22565b91506146768261580b565b602082019050919050565b600060a083016000830151848203600086015261469e82826140fe565b91505060208301516146b360208601826146f7565b5060408301516146c66040860182614064565b5060608301516146d96060860182614091565b5060808301516146ec60808601826146f7565b508091505092915050565b61470081614e6d565b82525050565b61470f81614e6d565b82525050565b60006147228284866140d9565b91508190509392505050565b600061473a8285614170565b91506147468284614170565b91508190509392505050565b60006020820190506147676000830184614073565b92915050565b60006080820190506147826000830187614073565b61478f6020830186614073565b61479c6040830185614706565b81810360608301526147ae81846140a0565b905095945050505050565b60006020820190506147ce6000830184614082565b92915050565b600060208201905081810360008301526147ee8184614137565b905092915050565b6000602082019050818103600083015261481081846141a1565b905092915050565b6000602082019050818103600083015261483181614221565b9050919050565b6000602082019050818103600083015261485181614244565b9050919050565b6000602082019050818103600083015261487181614267565b9050919050565b600060208201905081810360008301526148918161428a565b9050919050565b600060208201905081810360008301526148b1816142ad565b9050919050565b600060208201905081810360008301526148d1816142d0565b9050919050565b600060408201905081810360008301526148f1816142f3565b90506149006020830184614073565b92915050565b6000602082019050818103600083015261491f81614316565b9050919050565b6000602082019050818103600083015261493f81614339565b9050919050565b6000602082019050818103600083015261495f8161435c565b9050919050565b6000602082019050818103600083015261497f8161437f565b9050919050565b6000602082019050818103600083015261499f816143a2565b9050919050565b600060208201905081810360008301526149bf816143c5565b9050919050565b600060208201905081810360008301526149df816143e8565b9050919050565b600060208201905081810360008301526149ff8161440b565b9050919050565b60006020820190508181036000830152614a1f8161442e565b9050919050565b60006020820190508181036000830152614a3f81614451565b9050919050565b60006020820190508181036000830152614a5f81614474565b9050919050565b60006020820190508181036000830152614a7f81614497565b9050919050565b60006020820190508181036000830152614a9f816144ba565b9050919050565b60006020820190508181036000830152614abf816144dd565b9050919050565b60006020820190508181036000830152614adf81614500565b9050919050565b60006020820190508181036000830152614aff81614523565b9050919050565b60006020820190508181036000830152614b1f81614546565b9050919050565b60006020820190508181036000830152614b3f81614569565b9050919050565b60006020820190508181036000830152614b5f8161458c565b9050919050565b60006040820190508181036000830152614b7f816145af565b9050614b8e6020830184614073565b92915050565b60006040820190508181036000830152614bad816145d2565b9050614bbc6020830184614073565b92915050565b60006020820190508181036000830152614bdb816145f5565b9050919050565b60006020820190508181036000830152614bfb81614618565b9050919050565b60006020820190508181036000830152614c1b8161463b565b9050919050565b60006020820190508181036000830152614c3b8161465e565b9050919050565b60006020820190508181036000830152614c5c8184614681565b905092915050565b6000602082019050614c796000830184614706565b92915050565b6000614c89614c9a565b9050614c958282614f15565b919050565b6000604051905090565b600067ffffffffffffffff821115614cbf57614cbe61507c565b5b614cc8826150c9565b9050602081019050919050565b60008190508160005260206000209050919050565b600081519050919050565b600081519050919050565b600082825260208201905092915050565b600082825260208201905092915050565b600082825260208201905092915050565b600081905092915050565b6000614d4982614e6d565b9150614d5483614e6d565b9250827fffffffffffffffffffffffffffffffffffffffffffffffffffffffffffffffff03821115614d8957614d88614fc0565b5b828201905092915050565b6000614d9f82614e6d565b9150614daa83614e6d565b925082614dba57614db9614fef565b5b828204905092915050565b6000614dd082614e6d565b9150614ddb83614e6d565b925082821015614dee57614ded614fc0565b5b828203905092915050565b6000614e0482614e4d565b9050919050565b60008115159050919050565b6000819050919050565b60007fffffffff0000000000000000000000000000000000000000000000000000000082169050919050565b600073ffffffffffffffffffffffffffffffffffffffff82169050919050565b6000819050919050565b82818337600083830152505050565b60005b83811015614ea4578082015181840152602081019050614e89565b83811115614eb3576000848401525b50505050565b6000614ec482614e6d565b91506000821415614ed857614ed7614fc0565b5b600182039050919050565b60006002820490506001821680614efb57607f821691505b60208210811415614f0f57614f0e61501e565b5b50919050565b614f1e826150c9565b810181811067ffffffffffffffff82111715614f3d57614f3c61507c565b5b80604052505050565b6000614f5182614e6d565b91507fffffffffffffffffffffffffffffffffffffffffffffffffffffffffffffffff821415614f8457614f83614fc0565b5b600182019050919050565b6000614f9a82614e6d565b9150614fa583614e6d565b925082614fb557614fb4614fef565b5b828206905092915050565b7f4e487b7100000000000000000000000000000000000000000000000000000000600052601160045260246000fd5b7f4e487b7100000000000000000000000000000000000000000000000000000000600052601260045260246000fd5b7f4e487b7100000000000000000000000000000000000000000000000000000000600052602260045260246000fd5b7f4e487b7100000000000000000000000000000000000000000000000000000000600052603260045260246000fd5b7f4e487b7100000000000000000000000000000000000000000000000000000000600052604160045260246000fd5b600080fd5b600080fd5b600080fd5b600080fd5b600080fd5b600080fd5b6000601f19601f8301169050919050565b7f6e66742065786973747300000000000000000000000000000000000000000000600082015250565b7f76616c756520656d707479000000000000000000000000000000000000000000600082015250565b7f4552433732313a207472616e7366657220746f206e6f6e20455243373231526560008201527f63656976657220696d706c656d656e7465720000000000000000000000000000602082015250565b7f6e6f2068616e646c650000000000000000000000000000000000000000000000600082015250565b7f4f776e61626c653a206e6577206f776e657220697320746865207a65726f206160008201527f6464726573730000000000000000000000000000000000000000000000000000602082015250565b7f4552433732313a20746f6b656e20616c7265616479206d696e74656400000000600082015250565b7f4e616d6546656500000000000000000000000000000000000000000000000000600082015250565b7f4552433732313a207472616e7366657220746f20746865207a65726f2061646460008201527f7265737300000000000000000000000000000000000000000000000000000000602082015250565b7f4552433732313a20617070726f766520746f2063616c6c657200000000000000600082015250565b7f4552433732313a206f70657261746f7220717565727920666f72206e6f6e657860008201527f697374656e7420746f6b656e0000000000000000000000000000000000000000602082015250565b7f6f776e6572207374617973000000000000000000000000000000000000000000600082015250565b7f4552433732313a20617070726f76652063616c6c6572206973206e6f74206f7760008201527f6e6572206e6f7220617070726f76656420666f7220616c6c0000000000000000602082015250565b7f6e6f20746f6b656e000000000000000000000000000000000000000000000000600082015250565b7f4552433732313a2062616c616e636520717565727920666f7220746865207a6560008201527f726f206164647265737300000000000000000000000000000000000000000000602082015250565b7f4552433732313a206f776e657220717565727920666f72206e6f6e657869737460008201527f656e7420746f6b656e0000000000000000000000000000000000000000000000602082015250565b7f45524337323155524953746f726167653a2055524920736574206f66206e6f6e60008201527f6578697374656e7420746f6b656e000000000000000000000000000000000000602082015250565b7f4552433732313a206d696e7420746f20746865207a65726f2061646472657373600082015250565b7f45524337323155524953746f726167653a2055524920717565727920666f722060008201527f6e6f6e6578697374656e7420746f6b656e000000000000000000000000000000602082015250565b7f4552433732313a20617070726f76656420717565727920666f72206e6f6e657860008201527f697374656e7420746f6b656e0000000000000000000000000000000000000000602082015250565b7f66696c6520686173206e66740000000000000000000000000000000000000000600082015250565b7f4f776e61626c653a2063616c6c6572206973206e6f7420746865206f776e6572600082015250565b7f4552433732313a207472616e73666572206f6620746f6b656e2074686174206960008201527f73206e6f74206f776e0000000000000000000000000000000000000000000000602082015250565b7f4552433732314d657461646174613a2055524920717565727920666f72206e6f60008201527f6e6578697374656e7420746f6b656e0000000000000000000000000000000000602082015250565b7f63616e206e6f74206d696e742062656361757365206e6f7420617070726f766560008201527f64206d696e746572000000000000000000000000000000000000000000000000602082015250565b7f6f6e6c79206f776e657200000000000000000000000000000000000000000000600082015250565b7f4552433732313a20617070726f76616c20746f2063757272656e74206f776e6560008201527f7200000000000000000000000000000000000000000000000000000000000000602082015250565b7f4372656174696f6e466565000000000000000000000000000000000000000000600082015250565b7f48616e646c654665650000000000000000000000000000000000000000000000600082015250565b7f61646472657373283029206e6f00000000000000000000000000000000000000600082015250565b7f4552433732313a207472616e736665722063616c6c6572206973206e6f74206f60008201527f776e6572206e6f7220617070726f766564000000000000000000000000000000602082015250565b7f68616e646c652074616b656e0000000000000000000000000000000000000000600082015250565b7f6e6f742061646d696e0000000000000000000000000000000000000000000000600082015250565b61583d81614df9565b811461584857600080fd5b50565b61585481614e0b565b811461585f57600080fd5b50565b61586b81614e17565b811461587657600080fd5b50565b61588281614e21565b811461588d57600080fd5b50565b61589981614e6d565b81146158a457600080fd5b5056fea2646970667358221220a8e6194747e299697e7fa04f3bd232c38c4fd80d34da09d32f2e813533a4b86d64736f6c63430008060033",
  "immutableReferences": {},
  "source": "// SPDX-License-Identifier: MIT\npragma solidity^0.8.0;\n\nimport \"@openzeppelin/contracts/token/ERC721/ERC721.sol\";\nimport \"@openzeppelin/contracts/token/ERC721/extensions/ERC721URIStorage.sol\";\nimport \"./Adminable.sol\";\n\ncontract BEPMotoNFT is ERC721URIStorage, Adminable{\n\n  constructor(string memory _name, string memory _symbol) ERC721(_name, _symbol) {\n    addMinter(owner());\n    addAdmin(owner());\n  }\n\n  event NFTMinted(address indexed owner, uint256 indexed tokenID);\n  event NFTBurned(address indexed burner, uint256 indexed tokenID);\n\n  struct NFT{\n    string name;\n    uint256 network;\n    address beneficiary;\n    bytes32 contentHash;\n    uint256 tokenId;\n  }\n    \n  mapping(uint256 => NFT) private NFTmetaData;\n  mapping(bytes32 => bool) private existingHash;\n  mapping(uint256 => string) private idToHandle;\n  mapping(string => uint256) private handleToId;\n\n  //fees\n  uint256 private _creationFee;\n  uint256 private _nameFee;\n  uint256 private _handleFee;\n  string private _payFee = \"pay fee\";\n  uint256 private _totalSupply = 0;\n  \n  //User Functions \n\n  function userMint(string calldata name, uint256 network, address beneficiary, \n  bytes32 contentHash, uint256 tokenId) \n  payable public{\n    require(msg.value >= _creationFee, _payFee);\n    NFT memory nft = NFT(name,network,beneficiary,contentHash,tokenId);\n    _createNFT(nft);\n  }\n\n\n  function _createNFT(NFT memory nft) private {\n    verifyUnique(nft);\n    super._mint(nft.beneficiary, nft.tokenId);\n    NFTmetaData[nft.tokenId] = nft;\n    existingHash[nft.contentHash] = true;\n    _totalSupply = _totalSupply++;\n    emit NFTMinted(nft.beneficiary, nft.tokenId);\n  }\n\n\n  function verifyUnique(NFT memory nft)internal view {\n    require(existingHash[nft.contentHash]==false,\"file has nft\");\n    require(_exists(nft.tokenId)==false,\"nft exists\");\n  }\n\n\n  function verifyFingerprint(uint256 tokenId, bytes32 fingerprint) public view returns(bool){\n    NFT storage nft = NFTmetaData[tokenId];\n    return nft.contentHash == fingerprint;\n  }\n\n\n  function existsAsNFT(bytes32 hash) public view returns(bool){\n    return existingHash[hash];\n  }\n\n\n  function burn(uint256 _tokenId) public {\n    require(ownerOf(_tokenId)==_msgSender(),\"only owner\");\n    super._burn(_tokenId);\n    NFT storage nft = NFTmetaData[_tokenId];\n    existingHash[nft.contentHash]=false;\n    delete NFTmetaData[_tokenId];\n    _totalSupply = _totalSupply--;\n    emit NFTBurned(_msgSender(),_tokenId);\n  }\n\n\n  function nftFromTokenId(uint256 tokenID) public view returns(NFT memory){\n    return NFTmetaData[tokenID];\n  }\n\n\n  function nftFromHandle(string calldata handle) public view returns (NFT memory){\n    require(handleToId[handle]!=0, \"no handle\");\n    uint256 tokenId = handleToId[handle];\n    return NFTmetaData[tokenId];\n  }\n\n\n  function changeName(uint256 tokenId,string calldata newName) public payable{\n    require(msg.value >=_nameFee);\n    require(ownerOf(tokenId)==_msgSender());\n    NFT storage nft = NFTmetaData[tokenId];\n    nft.name = newName;\n  }\n\n\n  function changeHandle(uint256 tokenId, string calldata handle) public payable{\n    require(msg.value>=_handleFee, _payFee);\n    _changeHandle(tokenId, handle);\n  }\n\n\n  function _changeHandle(uint256 tokenId, string calldata handle) private{\n    require(_exists(tokenId)==false,\"no token\");\n    require(ownerOf(tokenId)==_msgSender());\n    require(bytes(handle).length>0,\"value empty\");\n    require(handleToId[handle]==0,\"handle taken\");\n    handleToId[handle] = tokenId;\n    idToHandle[tokenId] = handle;\n  }\n\n\n  function getHandle(uint256 tokenId) public view returns(string memory) {\n    require(bytes(idToHandle[tokenId]).length!=0,\"no handle\");\n    return idToHandle[tokenId];\n  }\n\n\n  function getCreationFee() public view returns(uint256){\n    return _creationFee;\n  }\n\n\n  function getNameFee() public view returns(uint256){\n    return _nameFee;\n  }\n\n\n  function  getHandleFee() public view returns(uint256){\n    return _handleFee;\n  } \n\n  \n//Admin Functions\n\n  function adminMint(string calldata name, uint256 network, address beneficiary, \n  bytes32 contentHash, uint256 tokenId) public onlyMinters{\n    NFT memory nft = NFT(name,network, beneficiary, contentHash, tokenId);\n    _createNFT(nft);\n  }\n\n\n  function setTokenURI(uint256 _tokenId, string calldata _uri) public onlyAdmins{\n    super._setTokenURI(_tokenId, _uri);\n  }\n\n\n  function setCreationFee(uint256 fee_) public onlyAdmins{\n    _creationFee = fee_;\n    emit NewFeeSet(\"CreationFee\",fee_,_msgSender());\n  }\n\n\n  function setNameFee(uint256 fee_) public onlyAdmins{\n    _nameFee = fee_;\n    emit NewFeeSet(\"NameFee\",fee_,_msgSender());\n  }\n\n\n  function setHandleFee(uint256 fee_) public onlyAdmins{\n    _handleFee = fee_;\n    emit NewFeeSet(\"HandleFee\",fee_,_msgSender());\n  }\n\n\n  function withdraw(uint256 amount) external onlyOwner{\n    address payable payee = payable(owner());\n    payee.transfer(amount);\n  }\n  \n  function totalSupply() public view returns (uint256){\n    return _totalSupply;\n  }\n}\n",
  "sourcePath": "/Users/yvan/Dropbox/projects/moto/contracts/marketplace-contracts/contracts/BEPMotoNFT.sol",
  "compiler": {
    "name": "solc",
    "version": "0.8.6+commit.11564f7e.Emscripten.clang"
  },
  "schemaVersion": "3.4.1",
  "updatedAt": "2021-07-23T07:58:39.974Z",
  "networkType": "ethereum",
  "devdoc": {
    "kind": "dev",
    "methods": {
      "approve(address,uint256)": {
        "details": "See {IERC721-approve}."
      },
      "balanceOf(address)": {
        "details": "See {IERC721-balanceOf}."
      },
      "getApproved(uint256)": {
        "details": "See {IERC721-getApproved}."
      },
      "isApprovedForAll(address,address)": {
        "details": "See {IERC721-isApprovedForAll}."
      },
      "name()": {
        "details": "See {IERC721Metadata-name}."
      },
      "owner()": {
        "details": "Returns the address of the current owner."
      },
      "ownerOf(uint256)": {
        "details": "See {IERC721-ownerOf}."
      },
      "renounceOwnership()": {
        "details": "Leaves the contract without owner. It will not be possible to call `onlyOwner` functions anymore. Can only be called by the current owner. NOTE: Renouncing ownership will leave the contract without an owner, thereby removing any functionality that is only available to the owner."
      },
      "safeTransferFrom(address,address,uint256)": {
        "details": "See {IERC721-safeTransferFrom}."
      },
      "safeTransferFrom(address,address,uint256,bytes)": {
        "details": "See {IERC721-safeTransferFrom}."
      },
      "setApprovalForAll(address,bool)": {
        "details": "See {IERC721-setApprovalForAll}."
      },
      "supportsInterface(bytes4)": {
        "details": "See {IERC165-supportsInterface}."
      },
      "symbol()": {
        "details": "See {IERC721Metadata-symbol}."
      },
      "tokenURI(uint256)": {
        "details": "See {IERC721Metadata-tokenURI}."
      },
      "transferFrom(address,address,uint256)": {
        "details": "See {IERC721-transferFrom}."
      },
      "transferOwnership(address)": {
        "details": "Transfers ownership of the contract to a new account (`newOwner`). Can only be called by the current owner."
      }
    },
    "version": 1
  },
  "userdoc": {
    "kind": "user",
    "methods": {
      "addMinter(address)": {
        "notice": "Administrative Functions"
      }
    },
    "version": 1
  }
}