{
  "contractName": "Marketplace",
  "abi": [
    {
      "inputs": [
        {
          "internalType": "address",
          "name": "_acceptedToken",
          "type": "address"
        },
        {
          "internalType": "uint256",
          "name": "_ownerCutPerMillion",
          "type": "uint256"
        },
        {
          "internalType": "address",
          "name": "_owner",
          "type": "address"
        }
      ],
      "stateMutability": "nonpayable",
      "type": "constructor"
    },
    {
      "anonymous": false,
      "inputs": [
        {
          "indexed": false,
          "internalType": "uint256",
          "name": "ownerCutPerMillion",
          "type": "uint256"
        }
      ],
      "name": "ChangedOwnerCutPerMillion",
      "type": "event"
    },
    {
      "anonymous": false,
      "inputs": [
        {
          "indexed": false,
          "internalType": "uint256",
          "name": "publicationFee",
          "type": "uint256"
        }
      ],
      "name": "ChangedPublicationFee",
      "type": "event"
    },
    {
      "anonymous": false,
      "inputs": [
        {
          "indexed": false,
          "internalType": "address",
          "name": "userAddress",
          "type": "address"
        },
        {
          "indexed": false,
          "internalType": "address",
          "name": "relayerAddress",
          "type": "address"
        },
        {
          "indexed": false,
          "internalType": "bytes",
          "name": "functionSignature",
          "type": "bytes"
        }
      ],
      "name": "MetaTransactionExecuted",
      "type": "event"
    },
    {
      "anonymous": false,
      "inputs": [
        {
          "indexed": false,
          "internalType": "bytes32",
          "name": "id",
          "type": "bytes32"
        },
        {
          "indexed": true,
          "internalType": "uint256",
          "name": "assetId",
          "type": "uint256"
        },
        {
          "indexed": true,
          "internalType": "address",
          "name": "seller",
          "type": "address"
        },
        {
          "indexed": false,
          "internalType": "address",
          "name": "nftAddress",
          "type": "address"
        }
      ],
      "name": "OrderCancelled",
      "type": "event"
    },
    {
      "anonymous": false,
      "inputs": [
        {
          "indexed": false,
          "internalType": "bytes32",
          "name": "id",
          "type": "bytes32"
        },
        {
          "indexed": true,
          "internalType": "uint256",
          "name": "assetId",
          "type": "uint256"
        },
        {
          "indexed": true,
          "internalType": "address",
          "name": "seller",
          "type": "address"
        },
        {
          "indexed": false,
          "internalType": "address",
          "name": "nftAddress",
          "type": "address"
        },
        {
          "indexed": false,
          "internalType": "uint256",
          "name": "priceInWei",
          "type": "uint256"
        },
        {
          "indexed": false,
          "internalType": "uint256",
          "name": "expiresAt",
          "type": "uint256"
        }
      ],
      "name": "OrderCreated",
      "type": "event"
    },
    {
      "anonymous": false,
      "inputs": [
        {
          "indexed": false,
          "internalType": "bytes32",
          "name": "id",
          "type": "bytes32"
        },
        {
          "indexed": true,
          "internalType": "uint256",
          "name": "assetId",
          "type": "uint256"
        },
        {
          "indexed": true,
          "internalType": "address",
          "name": "seller",
          "type": "address"
        },
        {
          "indexed": false,
          "internalType": "address",
          "name": "nftAddress",
          "type": "address"
        },
        {
          "indexed": false,
          "internalType": "uint256",
          "name": "totalPrice",
          "type": "uint256"
        },
        {
          "indexed": true,
          "internalType": "address",
          "name": "buyer",
          "type": "address"
        }
      ],
      "name": "OrderSuccessful",
      "type": "event"
    },
    {
      "anonymous": false,
      "inputs": [
        {
          "indexed": true,
          "internalType": "address",
          "name": "previousOwner",
          "type": "address"
        },
        {
          "indexed": true,
          "internalType": "address",
          "name": "newOwner",
          "type": "address"
        }
      ],
      "name": "OwnershipTransferred",
      "type": "event"
    },
    {
      "anonymous": false,
      "inputs": [
        {
          "indexed": false,
          "internalType": "address",
          "name": "account",
          "type": "address"
        }
      ],
      "name": "Paused",
      "type": "event"
    },
    {
      "anonymous": false,
      "inputs": [
        {
          "indexed": false,
          "internalType": "bytes32",
          "name": "id",
          "type": "bytes32"
        },
        {
          "indexed": false,
          "internalType": "address",
          "name": "nftAddress",
          "type": "address"
        },
        {
          "indexed": true,
          "internalType": "uint256",
          "name": "assetId",
          "type": "uint256"
        },
        {
          "indexed": true,
          "internalType": "address",
          "name": "changer",
          "type": "address"
        },
        {
          "indexed": false,
          "internalType": "uint256",
          "name": "price",
          "type": "uint256"
        }
      ],
      "name": "PriceChanged",
      "type": "event"
    },
    {
      "anonymous": false,
      "inputs": [
        {
          "indexed": false,
          "internalType": "address",
          "name": "account",
          "type": "address"
        }
      ],
      "name": "Unpaused",
      "type": "event"
    },
    {
      "inputs": [],
      "name": "DOMAIN_SEPERATOR",
      "outputs": [
        {
          "internalType": "bytes32",
          "name": "",
          "type": "bytes32"
        }
      ],
      "stateMutability": "view",
      "type": "function",
      "constant": true
    },
    {
      "inputs": [],
      "name": "ERC721_Interface",
      "outputs": [
        {
          "internalType": "bytes4",
          "name": "",
          "type": "bytes4"
        }
      ],
      "stateMutability": "view",
      "type": "function",
      "constant": true
    },
    {
      "inputs": [],
      "name": "InterfaceId_ValidateFingerprint",
      "outputs": [
        {
          "internalType": "bytes4",
          "name": "",
          "type": "bytes4"
        }
      ],
      "stateMutability": "view",
      "type": "function",
      "constant": true
    },
    {
      "inputs": [],
      "name": "acceptedToken",
      "outputs": [
        {
          "internalType": "contract ERC20Interface",
          "name": "",
          "type": "address"
        }
      ],
      "stateMutability": "view",
      "type": "function",
      "constant": true
    },
    {
      "inputs": [
        {
          "internalType": "address",
          "name": "userAddress",
          "type": "address"
        },
        {
          "internalType": "bytes",
          "name": "functionSignature",
          "type": "bytes"
        },
        {
          "internalType": "bytes32",
          "name": "sigR",
          "type": "bytes32"
        },
        {
          "internalType": "bytes32",
          "name": "sigS",
          "type": "bytes32"
        },
        {
          "internalType": "uint8",
          "name": "sigV",
          "type": "uint8"
        }
      ],
      "name": "executeMetaTransaction",
      "outputs": [
        {
          "internalType": "bytes",
          "name": "",
          "type": "bytes"
        }
      ],
      "stateMutability": "payable",
      "type": "function",
      "payable": true
    },
    {
      "inputs": [],
      "name": "getnetwork",
      "outputs": [
        {
          "internalType": "uint256",
          "name": "",
          "type": "uint256"
        }
      ],
      "stateMutability": "view",
      "type": "function",
      "constant": true
    },
    {
      "inputs": [
        {
          "internalType": "address",
          "name": "user",
          "type": "address"
        }
      ],
      "name": "getNonce",
      "outputs": [
        {
          "internalType": "uint256",
          "name": "nonce",
          "type": "uint256"
        }
      ],
      "stateMutability": "view",
      "type": "function",
      "constant": true
    },
    {
      "inputs": [
        {
          "internalType": "address",
          "name": "",
          "type": "address"
        },
        {
          "internalType": "uint256",
          "name": "",
          "type": "uint256"
        }
      ],
      "name": "orderByAssetId",
      "outputs": [
        {
          "internalType": "bytes32",
          "name": "id",
          "type": "bytes32"
        },
        {
          "internalType": "address",
          "name": "seller",
          "type": "address"
        },
        {
          "internalType": "address",
          "name": "nftAddress",
          "type": "address"
        },
        {
          "internalType": "uint256",
          "name": "price",
          "type": "uint256"
        },
        {
          "internalType": "uint256",
          "name": "expiresAt",
          "type": "uint256"
        }
      ],
      "stateMutability": "view",
      "type": "function",
      "constant": true
    },
    {
      "inputs": [],
      "name": "owner",
      "outputs": [
        {
          "internalType": "address",
          "name": "",
          "type": "address"
        }
      ],
      "stateMutability": "view",
      "type": "function",
      "constant": true
    },
    {
      "inputs": [],
      "name": "ownerCutPerMillion",
      "outputs": [
        {
          "internalType": "uint256",
          "name": "",
          "type": "uint256"
        }
      ],
      "stateMutability": "view",
      "type": "function",
      "constant": true
    },
    {
      "inputs": [],
      "name": "paused",
      "outputs": [
        {
          "internalType": "bool",
          "name": "",
          "type": "bool"
        }
      ],
      "stateMutability": "view",
      "type": "function",
      "constant": true
    },
    {
      "inputs": [],
      "name": "publicationFeeInWei",
      "outputs": [
        {
          "internalType": "uint256",
          "name": "",
          "type": "uint256"
        }
      ],
      "stateMutability": "view",
      "type": "function",
      "constant": true
    },
    {
      "inputs": [],
      "name": "renounceOwnership",
      "outputs": [],
      "stateMutability": "nonpayable",
      "type": "function"
    },
    {
      "inputs": [
        {
          "internalType": "address",
          "name": "newOwner",
          "type": "address"
        }
      ],
      "name": "transferOwnership",
      "outputs": [],
      "stateMutability": "nonpayable",
      "type": "function"
    },
    {
      "inputs": [
        {
          "internalType": "uint256",
          "name": "_publicationFee",
          "type": "uint256"
        }
      ],
      "name": "setPublicationFee",
      "outputs": [],
      "stateMutability": "nonpayable",
      "type": "function"
    },
    {
      "inputs": [],
      "name": "getPublicationFee",
      "outputs": [
        {
          "internalType": "uint256",
          "name": "",
          "type": "uint256"
        }
      ],
      "stateMutability": "view",
      "type": "function",
      "constant": true
    },
    {
      "inputs": [],
      "name": "getMarketFee",
      "outputs": [
        {
          "internalType": "uint256",
          "name": "",
          "type": "uint256"
        }
      ],
      "stateMutability": "view",
      "type": "function",
      "constant": true
    },
    {
      "inputs": [
        {
          "internalType": "uint256",
          "name": "_ownerCutPerMillion",
          "type": "uint256"
        }
      ],
      "name": "setOwnerCutPerMillion",
      "outputs": [],
      "stateMutability": "nonpayable",
      "type": "function"
    },
    {
      "inputs": [
        {
          "internalType": "address",
          "name": "nftAddress",
          "type": "address"
        },
        {
          "internalType": "uint256",
          "name": "assetId",
          "type": "uint256"
        },
        {
          "internalType": "uint256",
          "name": "priceInWei",
          "type": "uint256"
        },
        {
          "internalType": "uint256",
          "name": "expiresAt",
          "type": "uint256"
        }
      ],
      "name": "createOrder",
      "outputs": [],
      "stateMutability": "nonpayable",
      "type": "function"
    },
    {
      "inputs": [
        {
          "internalType": "address",
          "name": "nftAddress",
          "type": "address"
        },
        {
          "internalType": "uint256",
          "name": "assetId",
          "type": "uint256"
        }
      ],
      "name": "cancelOrder",
      "outputs": [],
      "stateMutability": "nonpayable",
      "type": "function"
    },
    {
      "inputs": [
        {
          "internalType": "address",
          "name": "nftAddress",
          "type": "address"
        },
        {
          "internalType": "uint256",
          "name": "assetId",
          "type": "uint256"
        },
        {
          "internalType": "uint256",
          "name": "price",
          "type": "uint256"
        },
        {
          "internalType": "bytes",
          "name": "fingerprint",
          "type": "bytes"
        }
      ],
      "name": "safeExecuteOrder",
      "outputs": [],
      "stateMutability": "nonpayable",
      "type": "function"
    },
    {
      "inputs": [
        {
          "internalType": "address",
          "name": "nftAddress",
          "type": "address"
        },
        {
          "internalType": "uint256",
          "name": "assetId",
          "type": "uint256"
        },
        {
          "internalType": "uint256",
          "name": "price",
          "type": "uint256"
        }
      ],
      "name": "executeOrder",
      "outputs": [],
      "stateMutability": "nonpayable",
      "type": "function"
    },
    {
      "inputs": [
        {
          "internalType": "address",
          "name": "nftAddress",
          "type": "address"
        },
        {
          "internalType": "uint256",
          "name": "assetId",
          "type": "uint256"
        },
        {
          "internalType": "uint256",
          "name": "price",
          "type": "uint256"
        }
      ],
      "name": "changePrice",
      "outputs": [
        {
          "components": [
            {
              "internalType": "bytes32",
              "name": "id",
              "type": "bytes32"
            },
            {
              "internalType": "address",
              "name": "seller",
              "type": "address"
            },
            {
              "internalType": "address",
              "name": "nftAddress",
              "type": "address"
            },
            {
              "internalType": "uint256",
              "name": "price",
              "type": "uint256"
            },
            {
              "internalType": "uint256",
              "name": "expiresAt",
              "type": "uint256"
            }
          ],
          "internalType": "struct MarketplaceStorage.Order",
          "name": "",
          "type": "tuple"
        }
      ],
      "stateMutability": "nonpayable",
      "type": "function"
    }
  ],
  "bytecode": "0x60806040523480156200001157600080fd5b5060405162004f4438038062004f4483398181016040528101906200003791906200069c565b600062000049620002ca60201b60201c565b9050806000806101000a81548173ffffffffffffffffffffffffffffffffffffffff021916908373ffffffffffffffffffffffffffffffffffffffff1602179055508073ffffffffffffffffffffffffffffffffffffffff16600073ffffffffffffffffffffffffffffffffffffffff167f8be0079c531659141344cd1fd0a4f28419497f9722a3daafe3b4186f6b6457e060405160405180910390a35060008060146101000a81548160ff0219169083151502179055506200017d6040518060400160405280601881526020017f4d6f746f204e6574776f726b204d61726b6574706c61636500000000000000008152506040518060400160405280600181526020017f3100000000000000000000000000000000000000000000000000000000000000815250620002d260201b60201c565b6200018e826200034a60201b60201c565b600073ffffffffffffffffffffffffffffffffffffffff168173ffffffffffffffffffffffffffffffffffffffff16141562000201576040517f08c379a0000000000000000000000000000000000000000000000000000000008152600401620001f8906200084b565b60405180910390fd5b62000212816200046660201b60201c565b6200023e8373ffffffffffffffffffffffffffffffffffffffff166200062560201b620013f51760201c565b62000280576040517f08c379a000000000000000000000000000000000000000000000000000000000815260040162000277906200086d565b60405180910390fd5b82600160006101000a81548173ffffffffffffffffffffffffffffffffffffffff021916908373ffffffffffffffffffffffffffffffffffffffff16021790555050505062000ae3565b600033905090565b60405180608001604052806052815260200162004ef260529139805190602001208280519060200120828051906020012030620003146200063860201b60201c565b6040516020016200032a959493929190620007ee565b604051602081830303815290604052805190602001206005819055505050565b6200035a620002ca60201b60201c565b73ffffffffffffffffffffffffffffffffffffffff16620003806200064560201b60201c565b73ffffffffffffffffffffffffffffffffffffffff1614620003d9576040517f08c379a0000000000000000000000000000000000000000000000000000000008152600401620003d090620008d3565b60405180910390fd5b620f4240811062000421576040517f08c379a00000000000000000000000000000000000000000000000000000000081526004016200041890620008b1565b60405180910390fd5b806003819055507ffa406a120a9e7f2b332bfb7a43d3bf1c3f079262202907a6b69c94b2821a02c66003546040516200045b9190620008f5565b60405180910390a150565b62000476620002ca60201b60201c565b73ffffffffffffffffffffffffffffffffffffffff166200049c6200064560201b60201c565b73ffffffffffffffffffffffffffffffffffffffff1614620004f5576040517f08c379a0000000000000000000000000000000000000000000000000000000008152600401620004ec90620008d3565b60405180910390fd5b600073ffffffffffffffffffffffffffffffffffffffff168173ffffffffffffffffffffffffffffffffffffffff16141562000568576040517f08c379a00000000000000000000000000000000000000000000000000000000081526004016200055f906200088f565b60405180910390fd5b8073ffffffffffffffffffffffffffffffffffffffff1660008054906101000a900473ffffffffffffffffffffffffffffffffffffffff1673ffffffffffffffffffffffffffffffffffffffff167f8be0079c531659141344cd1fd0a4f28419497f9722a3daafe3b4186f6b6457e060405160405180910390a3806000806101000a81548173ffffffffffffffffffffffffffffffffffffffff021916908373ffffffffffffffffffffffffffffffffffffffff16021790555050565b600080823b905060008111915050919050565b6000804690508091505090565b60008060009054906101000a900473ffffffffffffffffffffffffffffffffffffffff16905090565b6000815190506200067f8162000aaf565b92915050565b600081519050620006968162000ac9565b92915050565b600080600060608486031215620006b857620006b76200096b565b5b6000620006c8868287016200066e565b9350506020620006db8682870162000685565b9250506040620006ee868287016200066e565b9150509250925092565b620007038162000923565b82525050565b620007148162000937565b82525050565b600062000729600d8362000912565b9150620007368262000970565b602082019050919050565b60006200075060368362000912565b91506200075d8262000999565b604082019050919050565b60006200077760268362000912565b91506200078482620009e8565b604082019050919050565b60006200079e602d8362000912565b9150620007ab8262000a37565b604082019050919050565b6000620007c560208362000912565b9150620007d28262000a86565b602082019050919050565b620007e88162000961565b82525050565b600060a08201905062000805600083018862000709565b62000814602083018762000709565b62000823604083018662000709565b620008326060830185620006f8565b620008416080830184620007dd565b9695505050505050565b6000602082019050818103600083015262000866816200071a565b9050919050565b60006020820190508181036000830152620008888162000741565b9050919050565b60006020820190508181036000830152620008aa8162000768565b9050919050565b60006020820190508181036000830152620008cc816200078f565b9050919050565b60006020820190508181036000830152620008ee81620007b6565b9050919050565b60006020820190506200090c6000830184620007dd565b92915050565b600082825260208201905092915050565b6000620009308262000941565b9050919050565b6000819050919050565b600073ffffffffffffffffffffffffffffffffffffffff82169050919050565b6000819050919050565b600080fd5b7f496e76616c6964206f776e657200000000000000000000000000000000000000600082015250565b7f54686520616363657074656420746f6b656e2061646472657373206d7573742060008201527f62652061206465706c6f79656420636f6e747261637400000000000000000000602082015250565b7f4f776e61626c653a206e6577206f776e657220697320746865207a65726f206160008201527f6464726573730000000000000000000000000000000000000000000000000000602082015250565b7f546865206f776e6572206375742073686f756c64206265206265747765656e2060008201527f3020616e64203939392c39393900000000000000000000000000000000000000602082015250565b7f4f776e61626c653a2063616c6c6572206973206e6f7420746865206f776e6572600082015250565b62000aba8162000923565b811462000ac657600080fd5b50565b62000ad48162000961565b811462000ae057600080fd5b50565b6143ff8062000af36000396000f3fe6080604052600436106101405760003560e01c80636f652e1a116100b6578063a01f79d41161006f578063a01f79d41461042d578063ae4f119814610458578063ae7b033314610483578063af8996f1146104ac578063e61f3851146104d5578063f2fde38b1461051657610140565b80636f652e1a14610331578063715018a61461035a578063741cbae4146103715780638945462a146103ae5780638da5cb5b146103d95780639b214f771461040457610140565b80633408e470116101085780633408e4701461023157806337f82f371461025c578063451c3d80146102875780635c975abb146102b25780635e123add146102dd5780636a2061371461030857610140565b80630c53c51c146101455780630df632101461017557806319dad16d146101a05780632b4c32be146101c95780632d0335ab146101f4575b600080fd5b61015f600480360381019061015a9190612b50565b61053f565b60405161016c9190613603565b60405180910390f35b34801561018157600080fd5b5061018a6107aa565b604051610197919061344b565b60405180910390f35b3480156101ac57600080fd5b506101c760048036038101906101c29190612d91565b6107b0565b005b3480156101d557600080fd5b506101de6108b4565b6040516101eb91906135e8565b60405180910390f35b34801561020057600080fd5b5061021b60048036038101906102169190612af6565b6108bf565b604051610228919061393b565b60405180910390f35b34801561023d57600080fd5b50610246610908565b604051610253919061393b565b60405180910390f35b34801561026857600080fd5b50610271610915565b60405161027e91906135e8565b60405180910390f35b34801561029357600080fd5b5061029c610939565b6040516102a99190613625565b60405180910390f35b3480156102be57600080fd5b506102c761095f565b6040516102d49190613430565b60405180910390f35b3480156102e957600080fd5b506102f2610975565b6040516102ff919061393b565b60405180910390f35b34801561031457600080fd5b5061032f600480360381019061032a9190612be7565b61097f565b005b34801561033d57600080fd5b5061035860048036038101906103539190612cfd565b6109d6565b005b34801561036657600080fd5b5061036f610a30565b005b34801561037d57600080fd5b5061039860048036038101906103939190612c27565b610b6a565b6040516103a59190613920565b60405180910390f35b3480156103ba57600080fd5b506103c3611007565b6040516103d0919061393b565b60405180910390f35b3480156103e557600080fd5b506103ee611011565b6040516103fb9190613377565b60405180910390f35b34801561041057600080fd5b5061042b60048036038101906104269190612c7a565b61103a565b005b34801561043957600080fd5b50610442611095565b60405161044f919061393b565b60405180910390f35b34801561046457600080fd5b5061046d61109b565b60405161047a919061393b565b60405180910390f35b34801561048f57600080fd5b506104aa60048036038101906104a59190612c27565b6110a1565b005b3480156104b857600080fd5b506104d360048036038101906104ce9190612d91565b61110a565b005b3480156104e157600080fd5b506104fc60048036038101906104f79190612be7565b6111c9565b60405161050d95949392919061348f565b60405180910390f35b34801561052257600080fd5b5061053d60048036038101906105389190612af6565b61124c565b005b606060006040518060600160405280600660008a73ffffffffffffffffffffffffffffffffffffffff1673ffffffffffffffffffffffffffffffffffffffff1681526020019081526020016000205481526020018873ffffffffffffffffffffffffffffffffffffffff1681526020018781525090506105c28782878787611408565b610601576040517f08c379a00000000000000000000000000000000000000000000000000000000081526004016105f890613720565b60405180910390fd5b6001600660008973ffffffffffffffffffffffffffffffffffffffff1673ffffffffffffffffffffffffffffffffffffffff1681526020019081526020016000205461064d9190613a1f565b600660008973ffffffffffffffffffffffffffffffffffffffff1673ffffffffffffffffffffffffffffffffffffffff168152602001908152602001600020819055507f5845892132946850460bff5a0083f71031bc5bf9aadcd40f1de79423eac9b10b8733886040516106c3939291906133bb565b60405180910390a16000803073ffffffffffffffffffffffffffffffffffffffff16888a6040516020016106f89291906132ca565b60405160208183030381529060405260405161071491906132b3565b6000604051808303816000865af19150503d8060008114610751576040519150601f19603f3d011682016040523d82523d6000602084013e610756565b606091505b50915091508161079b576040517f08c379a0000000000000000000000000000000000000000000000000000000008152600401610792906137e0565b60405180910390fd5b80935050505095945050505050565b60055481565b6107b8611511565b73ffffffffffffffffffffffffffffffffffffffff166107d6611011565b73ffffffffffffffffffffffffffffffffffffffff161461082c576040517f08c379a000000000000000000000000000000000000000000000000000000000815260040161082390613800565b60405180910390fd5b620f42408110610871576040517f08c379a0000000000000000000000000000000000000000000000000000000008152600401610868906137c0565b60405180910390fd5b806003819055507ffa406a120a9e7f2b332bfb7a43d3bf1c3f079262202907a6b69c94b2821a02c66003546040516108a9919061393b565b60405180910390a150565b6380ac58cd60e01b81565b6000600660008373ffffffffffffffffffffffffffffffffffffffff1673ffffffffffffffffffffffffffffffffffffffff168152602001908152602001600020549050919050565b6000804690508091505090565b7f8cb5b56b0b357b005adf5059f554ed4289f3f4f430f156b4eee18609bb91c36881565b600160009054906101000a900473ffffffffffffffffffffffffffffffffffffffff1681565b60008060149054906101000a900460ff16905090565b6000600354905090565b61098761095f565b156109c7576040517f08c379a00000000000000000000000000000000000000000000000000000000081526004016109be90613760565b60405180910390fd5b6109d18282611519565b505050565b6109de61095f565b15610a1e576040517f08c379a0000000000000000000000000000000000000000000000000000000008152600401610a1590613760565b60405180910390fd5b610a2a84848484611882565b50505050565b610a38611511565b73ffffffffffffffffffffffffffffffffffffffff16610a56611011565b73ffffffffffffffffffffffffffffffffffffffff1614610aac576040517f08c379a0000000000000000000000000000000000000000000000000000000008152600401610aa390613800565b60405180910390fd5b600073ffffffffffffffffffffffffffffffffffffffff1660008054906101000a900473ffffffffffffffffffffffffffffffffffffffff1673ffffffffffffffffffffffffffffffffffffffff167f8be0079c531659141344cd1fd0a4f28419497f9722a3daafe3b4186f6b6457e060405160405180910390a360008060006101000a81548173ffffffffffffffffffffffffffffffffffffffff021916908373ffffffffffffffffffffffffffffffffffffffff160217905550565b610b726129aa565b6000610b7c611511565b90506000600260008773ffffffffffffffffffffffffffffffffffffffff1673ffffffffffffffffffffffffffffffffffffffff168152602001908152602001600020600086815260200190815260200160002090506000816004015490506000801b82600001541415610c25576040517f08c379a0000000000000000000000000000000000000000000000000000000008152600401610c1c90613820565b60405180910390fd5b8273ffffffffffffffffffffffffffffffffffffffff168260010160009054906101000a900473ffffffffffffffffffffffffffffffffffffffff1673ffffffffffffffffffffffffffffffffffffffff161480610cb55750610c86611011565b73ffffffffffffffffffffffffffffffffffffffff168373ffffffffffffffffffffffffffffffffffffffff16145b610cf4576040517f08c379a0000000000000000000000000000000000000000000000000000000008152600401610ceb906136c0565b60405180910390fd5b60008511610d37576040517f08c379a0000000000000000000000000000000000000000000000000000000008152600401610d2e906138e0565b60405180910390fd5b603c42610d449190613a1f565b8111610d85576040517f08c379a0000000000000000000000000000000000000000000000000000000008152600401610d7c906136a0565b60405180910390fd5b84826003018190555081600260008973ffffffffffffffffffffffffffffffffffffffff1673ffffffffffffffffffffffffffffffffffffffff1681526020019081526020016000206000888152602001908152602001600020600082015481600001556001820160009054906101000a900473ffffffffffffffffffffffffffffffffffffffff168160010160006101000a81548173ffffffffffffffffffffffffffffffffffffffff021916908373ffffffffffffffffffffffffffffffffffffffff1602179055506002820160009054906101000a900473ffffffffffffffffffffffffffffffffffffffff168160020160006101000a81548173ffffffffffffffffffffffffffffffffffffffff021916908373ffffffffffffffffffffffffffffffffffffffff16021790555060038201548160030155600482015481600401559050508273ffffffffffffffffffffffffffffffffffffffff16867f039cf9e04b574dbd0795b8dd3c4194a563c89dbc711671b3008d88eb21de2b6a84600001548a89604051610f1d939291906134e2565b60405180910390a3816040518060a0016040529081600082015481526020016001820160009054906101000a900473ffffffffffffffffffffffffffffffffffffffff1673ffffffffffffffffffffffffffffffffffffffff1673ffffffffffffffffffffffffffffffffffffffff1681526020016002820160009054906101000a900473ffffffffffffffffffffffffffffffffffffffff1673ffffffffffffffffffffffffffffffffffffffff1673ffffffffffffffffffffffffffffffffffffffff1681526020016003820154815260200160048201548152505093505050509392505050565b6000600454905090565b60008060009054906101000a900473ffffffffffffffffffffffffffffffffffffffff16905090565b61104261095f565b15611082576040517f08c379a000000000000000000000000000000000000000000000000000000000815260040161107990613760565b60405180910390fd5b61108e84848484611e97565b5050505050565b60035481565b60045481565b6110a961095f565b156110e9576040517f08c379a00000000000000000000000000000000000000000000000000000000081526004016110e090613760565b60405180910390fd5b61110483838360405180602001604052806000815250611e97565b50505050565b611112611511565b73ffffffffffffffffffffffffffffffffffffffff16611130611011565b73ffffffffffffffffffffffffffffffffffffffff1614611186576040517f08c379a000000000000000000000000000000000000000000000000000000000815260040161117d90613800565b60405180910390fd5b806004819055507fe7fa8737293f41b5dfa0d5c3e552860a06275bed7015581b083c7be7003308ba6004546040516111be919061393b565b60405180910390a150565b6002602052816000526040600020602052806000526040600020600091509150508060000154908060010160009054906101000a900473ffffffffffffffffffffffffffffffffffffffff16908060020160009054906101000a900473ffffffffffffffffffffffffffffffffffffffff16908060030154908060040154905085565b611254611511565b73ffffffffffffffffffffffffffffffffffffffff16611272611011565b73ffffffffffffffffffffffffffffffffffffffff16146112c8576040517f08c379a00000000000000000000000000000000000000000000000000000000081526004016112bf90613800565b60405180910390fd5b600073ffffffffffffffffffffffffffffffffffffffff168173ffffffffffffffffffffffffffffffffffffffff161415611338576040517f08c379a000000000000000000000000000000000000000000000000000000000815260040161132f90613680565b60405180910390fd5b8073ffffffffffffffffffffffffffffffffffffffff1660008054906101000a900473ffffffffffffffffffffffffffffffffffffffff1673ffffffffffffffffffffffffffffffffffffffff167f8be0079c531659141344cd1fd0a4f28419497f9722a3daafe3b4186f6b6457e060405160405180910390a3806000806101000a81548173ffffffffffffffffffffffffffffffffffffffff021916908373ffffffffffffffffffffffffffffffffffffffff16021790555050565b600080823b905060008111915050919050565b60008073ffffffffffffffffffffffffffffffffffffffff168673ffffffffffffffffffffffffffffffffffffffff161415611479576040517f08c379a000000000000000000000000000000000000000000000000000000000815260040161147090613880565b60405180910390fd5b600161148c611487876127d8565b612840565b838686604051600081526020016040526040516114ac94939291906135a3565b6020604051602081039080840390855afa1580156114ce573d6000803e3d6000fd5b5050506020604051035173ffffffffffffffffffffffffffffffffffffffff168673ffffffffffffffffffffffffffffffffffffffff1614905095945050505050565b600033905090565b6115216129aa565b600061152b611511565b90506000600260008673ffffffffffffffffffffffffffffffffffffffff1673ffffffffffffffffffffffffffffffffffffffff16815260200190815260200160002060008581526020019081526020016000206040518060a0016040529081600082015481526020016001820160009054906101000a900473ffffffffffffffffffffffffffffffffffffffff1673ffffffffffffffffffffffffffffffffffffffff1673ffffffffffffffffffffffffffffffffffffffff1681526020016002820160009054906101000a900473ffffffffffffffffffffffffffffffffffffffff1673ffffffffffffffffffffffffffffffffffffffff1673ffffffffffffffffffffffffffffffffffffffff1681526020016003820154815260200160048201548152505090506000801b816000015114156116a0576040517f08c379a000000000000000000000000000000000000000000000000000000000815260040161169790613820565b60405180910390fd5b8173ffffffffffffffffffffffffffffffffffffffff16816020015173ffffffffffffffffffffffffffffffffffffffff16148061171057506116e1611011565b73ffffffffffffffffffffffffffffffffffffffff168273ffffffffffffffffffffffffffffffffffffffff16145b61174f576040517f08c379a0000000000000000000000000000000000000000000000000000000008152600401611746906136c0565b60405180910390fd5b600081600001519050600082602001519050600083604001519050600260008973ffffffffffffffffffffffffffffffffffffffff1673ffffffffffffffffffffffffffffffffffffffff16815260200190815260200160002060008881526020019081526020016000206000808201600090556001820160006101000a81549073ffffffffffffffffffffffffffffffffffffffff02191690556002820160006101000a81549073ffffffffffffffffffffffffffffffffffffffff02191690556003820160009055600482016000905550508173ffffffffffffffffffffffffffffffffffffffff16877f0325426328de5b91ae4ad8462ad4076de4bcaf4551e81556185cacde5a425c6b858460405161186c929190613466565b60405180910390a3839550505050505092915050565b61188b84612874565b6000611895611511565b9050600085905060008173ffffffffffffffffffffffffffffffffffffffff16636352211e876040518263ffffffff1660e01b81526004016118d7919061393b565b60206040518083038186803b1580156118ef57600080fd5b505afa158015611903573d6000803e3d6000fd5b505050506040513d601f19601f820116820180604052508101906119279190612b23565b90508073ffffffffffffffffffffffffffffffffffffffff168373ffffffffffffffffffffffffffffffffffffffff1614611997576040517f08c379a000000000000000000000000000000000000000000000000000000000815260040161198e90613740565b60405180910390fd5b3073ffffffffffffffffffffffffffffffffffffffff168273ffffffffffffffffffffffffffffffffffffffff1663081812fc886040518263ffffffff1660e01b81526004016119e7919061393b565b60206040518083038186803b1580156119ff57600080fd5b505afa158015611a13573d6000803e3d6000fd5b505050506040513d601f19601f82011682018060405250810190611a379190612b23565b73ffffffffffffffffffffffffffffffffffffffff161480611ae057508173ffffffffffffffffffffffffffffffffffffffff1663e985e9c582306040518363ffffffff1660e01b8152600401611a8f929190613392565b60206040518083038186803b158015611aa757600080fd5b505afa158015611abb573d6000803e3d6000fd5b505050506040513d601f19601f82011682018060405250810190611adf9190612d64565b5b611b1f576040517f08c379a0000000000000000000000000000000000000000000000000000000008152600401611b1690613780565b60405180910390fd5b60008511611b62576040517f08c379a0000000000000000000000000000000000000000000000000000000008152600401611b59906138e0565b60405180910390fd5b603c42611b6f9190613a1f565b8411611bb0576040517f08c379a0000000000000000000000000000000000000000000000000000000008152600401611ba7906136a0565b60405180910390fd5b60004282888a604051602001611bc99493929190613329565b6040516020818303038152906040528051906020012090506040518060a001604052808281526020018373ffffffffffffffffffffffffffffffffffffffff1681526020018973ffffffffffffffffffffffffffffffffffffffff16815260200187815260200186815250600260008a73ffffffffffffffffffffffffffffffffffffffff1673ffffffffffffffffffffffffffffffffffffffff16815260200190815260200160002060008981526020019081526020016000206000820151816000015560208201518160010160006101000a81548173ffffffffffffffffffffffffffffffffffffffff021916908373ffffffffffffffffffffffffffffffffffffffff16021790555060408201518160020160006101000a81548173ffffffffffffffffffffffffffffffffffffffff021916908373ffffffffffffffffffffffffffffffffffffffff160217905550606082015181600301556080820151816004015590505060006004541115611e3857600160009054906101000a900473ffffffffffffffffffffffffffffffffffffffff1673ffffffffffffffffffffffffffffffffffffffff166323b872dd85611d85611011565b6004546040518463ffffffff1660e01b8152600401611da6939291906133f9565b602060405180830381600087803b158015611dc057600080fd5b505af1158015611dd4573d6000803e3d6000fd5b505050506040513d601f19601f82011682018060405250810190611df89190612d64565b611e37576040517f08c379a0000000000000000000000000000000000000000000000000000000008152600401611e2e906136e0565b60405180910390fd5b5b8173ffffffffffffffffffffffffffffffffffffffff16877f84c66c3f7ba4b390e20e8e8233e2a516f3ce34a72749e4f12bd010dfba238039838b8a8a604051611e859493929190613519565b60405180910390a35050505050505050565b611e9f6129aa565b611ea885612874565b6000611eb2611511565b905060008690508073ffffffffffffffffffffffffffffffffffffffff166301ffc9a77f8cb5b56b0b357b005adf5059f554ed4289f3f4f430f156b4eee18609bb91c3686040518263ffffffff1660e01b8152600401611f1291906135e8565b60206040518083038186803b158015611f2a57600080fd5b505afa158015611f3e573d6000803e3d6000fd5b505050506040513d601f19601f82011682018060405250810190611f629190612d64565b15612032578073ffffffffffffffffffffffffffffffffffffffff16638f9f4b6387866040518363ffffffff1660e01b8152600401611fa2929190613956565b60206040518083038186803b158015611fba57600080fd5b505afa158015611fce573d6000803e3d6000fd5b505050506040513d601f19601f82011682018060405250810190611ff29190612d64565b612031576040517f08c379a0000000000000000000000000000000000000000000000000000000008152600401612028906137a0565b60405180910390fd5b5b6000600260008973ffffffffffffffffffffffffffffffffffffffff1673ffffffffffffffffffffffffffffffffffffffff16815260200190815260200160002060008881526020019081526020016000206040518060a0016040529081600082015481526020016001820160009054906101000a900473ffffffffffffffffffffffffffffffffffffffff1673ffffffffffffffffffffffffffffffffffffffff1673ffffffffffffffffffffffffffffffffffffffff1681526020016002820160009054906101000a900473ffffffffffffffffffffffffffffffffffffffff1673ffffffffffffffffffffffffffffffffffffffff1673ffffffffffffffffffffffffffffffffffffffff1681526020016003820154815260200160048201548152505090506000801b816000015114156121a5576040517f08c379a000000000000000000000000000000000000000000000000000000000815260040161219c90613820565b60405180910390fd5b600081602001519050600073ffffffffffffffffffffffffffffffffffffffff168173ffffffffffffffffffffffffffffffffffffffff16141561221e576040517f08c379a000000000000000000000000000000000000000000000000000000000815260040161221590613660565b60405180910390fd5b8373ffffffffffffffffffffffffffffffffffffffff168173ffffffffffffffffffffffffffffffffffffffff16141561228d576040517f08c379a0000000000000000000000000000000000000000000000000000000008152600401612284906136c0565b60405180910390fd5b868260600151146122d3576040517f08c379a00000000000000000000000000000000000000000000000000000000081526004016122ca906138c0565b60405180910390fd5b81608001514210612319576040517f08c379a000000000000000000000000000000000000000000000000000000000815260040161231090613860565b60405180910390fd5b8273ffffffffffffffffffffffffffffffffffffffff16636352211e896040518263ffffffff1660e01b8152600401612352919061393b565b60206040518083038186803b15801561236a57600080fd5b505afa15801561237e573d6000803e3d6000fd5b505050506040513d601f19601f820116820180604052508101906123a29190612b23565b73ffffffffffffffffffffffffffffffffffffffff168173ffffffffffffffffffffffffffffffffffffffff161461240f576040517f08c379a000000000000000000000000000000000000000000000000000000000815260040161240690613900565b60405180910390fd5b60008083600001519050600260008c73ffffffffffffffffffffffffffffffffffffffff1673ffffffffffffffffffffffffffffffffffffffff16815260200190815260200160002060008b81526020019081526020016000206000808201600090556001820160006101000a81549073ffffffffffffffffffffffffffffffffffffffff02191690556002820160006101000a81549073ffffffffffffffffffffffffffffffffffffffff0219169055600382016000905560048201600090555050600060035411156125f357620f42406003548a6124ef9190613aa6565b6124f99190613a75565b9150600160009054906101000a900473ffffffffffffffffffffffffffffffffffffffff1673ffffffffffffffffffffffffffffffffffffffff166323b872dd87612542611011565b856040518463ffffffff1660e01b8152600401612561939291906133f9565b602060405180830381600087803b15801561257b57600080fd5b505af115801561258f573d6000803e3d6000fd5b505050506040513d601f19601f820116820180604052508101906125b39190612d64565b6125f2576040517f08c379a00000000000000000000000000000000000000000000000000000000081526004016125e990613640565b60405180910390fd5b5b600160009054906101000a900473ffffffffffffffffffffffffffffffffffffffff1673ffffffffffffffffffffffffffffffffffffffff166323b872dd8785858d61263f9190613b00565b6040518463ffffffff1660e01b815260040161265d939291906133f9565b602060405180830381600087803b15801561267757600080fd5b505af115801561268b573d6000803e3d6000fd5b505050506040513d601f19601f820116820180604052508101906126af9190612d64565b6126ee576040517f08c379a00000000000000000000000000000000000000000000000000000000081526004016126e5906138a0565b60405180910390fd5b8473ffffffffffffffffffffffffffffffffffffffff166342842e0e84888d6040518463ffffffff1660e01b815260040161272b939291906133f9565b600060405180830381600087803b15801561274557600080fd5b505af1158015612759573d6000803e3d6000fd5b505050508573ffffffffffffffffffffffffffffffffffffffff168373ffffffffffffffffffffffffffffffffffffffff168b7f695ec315e8a642a74d450a4505eeea53df699b47a7378c7d752e97d5b16eb9bb848f8e6040516127bf939291906134e2565b60405180910390a4839650505050505050949350505050565b6000604051806080016040528060438152602001614387604391398051906020012082600001518360200151846040015180519060200120604051602001612823949392919061355e565b604051602081830303815290604052805190602001209050919050565b6000600554826040516020016128579291906132f2565b604051602081830303815290604052805190602001209050919050565b6128938173ffffffffffffffffffffffffffffffffffffffff166113f5565b6128d2576040517f08c379a00000000000000000000000000000000000000000000000000000000081526004016128c990613840565b60405180910390fd5b60008190508073ffffffffffffffffffffffffffffffffffffffff166301ffc9a76380ac58cd60e01b6040518263ffffffff1660e01b815260040161291791906135e8565b60206040518083038186803b15801561292f57600080fd5b505afa158015612943573d6000803e3d6000fd5b505050506040513d601f19601f820116820180604052508101906129679190612d64565b6129a6576040517f08c379a000000000000000000000000000000000000000000000000000000000815260040161299d90613700565b60405180910390fd5b5050565b6040518060a0016040528060008019168152602001600073ffffffffffffffffffffffffffffffffffffffff168152602001600073ffffffffffffffffffffffffffffffffffffffff16815260200160008152602001600081525090565b6000612a1b612a16846139ab565b613986565b905082815260208101848484011115612a3757612a36613d20565b5b612a42848285613be3565b509392505050565b600081359050612a5981614313565b92915050565b600081519050612a6e81614313565b92915050565b600081519050612a838161432a565b92915050565b600081359050612a9881614341565b92915050565b600082601f830112612ab357612ab2613d1b565b5b8135612ac3848260208601612a08565b91505092915050565b600081359050612adb81614358565b92915050565b600081359050612af08161436f565b92915050565b600060208284031215612b0c57612b0b613d2a565b5b6000612b1a84828501612a4a565b91505092915050565b600060208284031215612b3957612b38613d2a565b5b6000612b4784828501612a5f565b91505092915050565b600080600080600060a08688031215612b6c57612b6b613d2a565b5b6000612b7a88828901612a4a565b955050602086013567ffffffffffffffff811115612b9b57612b9a613d25565b5b612ba788828901612a9e565b9450506040612bb888828901612a89565b9350506060612bc988828901612a89565b9250506080612bda88828901612ae1565b9150509295509295909350565b60008060408385031215612bfe57612bfd613d2a565b5b6000612c0c85828601612a4a565b9250506020612c1d85828601612acc565b9150509250929050565b600080600060608486031215612c4057612c3f613d2a565b5b6000612c4e86828701612a4a565b9350506020612c5f86828701612acc565b9250506040612c7086828701612acc565b9150509250925092565b60008060008060808587031215612c9457612c93613d2a565b5b6000612ca287828801612a4a565b9450506020612cb387828801612acc565b9350506040612cc487828801612acc565b925050606085013567ffffffffffffffff811115612ce557612ce4613d25565b5b612cf187828801612a9e565b91505092959194509250565b60008060008060808587031215612d1757612d16613d2a565b5b6000612d2587828801612a4a565b9450506020612d3687828801612acc565b9350506040612d4787828801612acc565b9250506060612d5887828801612acc565b91505092959194509250565b600060208284031215612d7a57612d79613d2a565b5b6000612d8884828501612a74565b91505092915050565b600060208284031215612da757612da6613d2a565b5b6000612db584828501612acc565b91505092915050565b612dc781613b34565b82525050565b612dd681613b34565b82525050565b612ded612de882613b34565b613c56565b82525050565b612dfc81613b46565b82525050565b612e0b81613b52565b82525050565b612e1a81613b52565b82525050565b612e31612e2c82613b52565b613c68565b82525050565b612e4081613b5c565b82525050565b6000612e51826139dc565b612e5b81856139e7565b9350612e6b818560208601613bf2565b612e7481613d2f565b840191505092915050565b6000612e8a826139dc565b612e9481856139f8565b9350612ea4818560208601613bf2565b80840191505092915050565b612eb981613bbf565b82525050565b6000612ecc603383613a03565b9150612ed782613d4d565b604082019050919050565b6000612eef600f83613a03565b9150612efa82613d9c565b602082019050919050565b6000612f12602683613a03565b9150612f1d82613dc5565b604082019050919050565b6000612f35603683613a03565b9150612f4082613e14565b604082019050919050565b6000612f58601183613a03565b9150612f6382613e63565b602082019050919050565b6000612f7b603f83613a03565b9150612f8682613e8c565b604082019050919050565b6000612f9e600283613a14565b9150612fa982613edb565b600282019050919050565b6000612fc1603583613a03565b9150612fcc82613f04565b604082019050919050565b6000612fe4603d83613a03565b9150612fef82613f53565b604082019050919050565b6000613007602083613a03565b915061301282613fa2565b602082019050919050565b600061302a601083613a03565b915061303582613fcb565b602082019050919050565b600061304d603283613a03565b915061305882613ff4565b604082019050919050565b6000613070602283613a03565b915061307b82614043565b604082019050919050565b6000613093602d83613a03565b915061309e82614092565b604082019050919050565b60006130b6602783613a03565b91506130c1826140e1565b604082019050919050565b60006130d9602083613a03565b91506130e482614130565b602082019050919050565b60006130fc601383613a03565b915061310782614159565b602082019050919050565b600061311f602483613a03565b915061312a82614182565b604082019050919050565b6000613142601183613a03565b915061314d826141d1565b602082019050919050565b6000613165601a83613a03565b9150613170826141fa565b602082019050919050565b6000613188603083613a03565b915061319382614223565b604082019050919050565b60006131ab601883613a03565b91506131b682614272565b602082019050919050565b60006131ce601d83613a03565b91506131d98261429b565b602082019050919050565b60006131f1602183613a03565b91506131fc826142c4565b604082019050919050565b60a08201600082015161321d6000850182612e02565b5060208201516132306020850182612dbe565b5060408201516132436040850182612dbe565b506060820151613256606085018261326f565b506080820151613269608085018261326f565b50505050565b61327881613ba8565b82525050565b61328781613ba8565b82525050565b61329e61329982613ba8565b613c84565b82525050565b6132ad81613bb2565b82525050565b60006132bf8284612e7f565b915081905092915050565b60006132d68285612e7f565b91506132e28284612ddc565b6014820191508190509392505050565b60006132fd82612f91565b91506133098285612e20565b6020820191506133198284612e20565b6020820191508190509392505050565b6000613335828761328d565b6020820191506133458286612ddc565b601482019150613355828561328d565b6020820191506133658284612ddc565b60148201915081905095945050505050565b600060208201905061338c6000830184612dcd565b92915050565b60006040820190506133a76000830185612dcd565b6133b46020830184612dcd565b9392505050565b60006060820190506133d06000830186612dcd565b6133dd6020830185612dcd565b81810360408301526133ef8184612e46565b9050949350505050565b600060608201905061340e6000830186612dcd565b61341b6020830185612dcd565b613428604083018461327e565b949350505050565b60006020820190506134456000830184612df3565b92915050565b60006020820190506134606000830184612e11565b92915050565b600060408201905061347b6000830185612e11565b6134886020830184612dcd565b9392505050565b600060a0820190506134a46000830188612e11565b6134b16020830187612dcd565b6134be6040830186612dcd565b6134cb606083018561327e565b6134d8608083018461327e565b9695505050505050565b60006060820190506134f76000830186612e11565b6135046020830185612dcd565b613511604083018461327e565b949350505050565b600060808201905061352e6000830187612e11565b61353b6020830186612dcd565b613548604083018561327e565b613555606083018461327e565b95945050505050565b60006080820190506135736000830187612e11565b613580602083018661327e565b61358d6040830185612dcd565b61359a6060830184612e11565b95945050505050565b60006080820190506135b86000830187612e11565b6135c560208301866132a4565b6135d26040830185612e11565b6135df6060830184612e11565b95945050505050565b60006020820190506135fd6000830184612e37565b92915050565b6000602082019050818103600083015261361d8184612e46565b905092915050565b600060208201905061363a6000830184612eb0565b92915050565b6000602082019050818103600083015261365981612ebf565b9050919050565b6000602082019050818103600083015261367981612ee2565b9050919050565b6000602082019050818103600083015261369981612f05565b9050919050565b600060208201905081810360008301526136b981612f28565b9050919050565b600060208201905081810360008301526136d981612f4b565b9050919050565b600060208201905081810360008301526136f981612f6e565b9050919050565b6000602082019050818103600083015261371981612fb4565b9050919050565b6000602082019050818103600083015261373981612fd7565b9050919050565b6000602082019050818103600083015261375981612ffa565b9050919050565b600060208201905081810360008301526137798161301d565b9050919050565b6000602082019050818103600083015261379981613040565b9050919050565b600060208201905081810360008301526137b981613063565b9050919050565b600060208201905081810360008301526137d981613086565b9050919050565b600060208201905081810360008301526137f9816130a9565b9050919050565b60006020820190508181036000830152613819816130cc565b9050919050565b60006020820190508181036000830152613839816130ef565b9050919050565b6000602082019050818103600083015261385981613112565b9050919050565b6000602082019050818103600083015261387981613135565b9050919050565b6000602082019050818103600083015261389981613158565b9050919050565b600060208201905081810360008301526138b98161317b565b9050919050565b600060208201905081810360008301526138d98161319e565b9050919050565b600060208201905081810360008301526138f9816131c1565b9050919050565b60006020820190508181036000830152613919816131e4565b9050919050565b600060a0820190506139356000830184613207565b92915050565b6000602082019050613950600083018461327e565b92915050565b600060408201905061396b600083018561327e565b818103602083015261397d8184612e46565b90509392505050565b60006139906139a1565b905061399c8282613c25565b919050565b6000604051905090565b600067ffffffffffffffff8211156139c6576139c5613cec565b5b6139cf82613d2f565b9050602081019050919050565b600081519050919050565b600082825260208201905092915050565b600081905092915050565b600082825260208201905092915050565b600081905092915050565b6000613a2a82613ba8565b9150613a3583613ba8565b9250827fffffffffffffffffffffffffffffffffffffffffffffffffffffffffffffffff03821115613a6a57613a69613c8e565b5b828201905092915050565b6000613a8082613ba8565b9150613a8b83613ba8565b925082613a9b57613a9a613cbd565b5b828204905092915050565b6000613ab182613ba8565b9150613abc83613ba8565b9250817fffffffffffffffffffffffffffffffffffffffffffffffffffffffffffffffff0483118215151615613af557613af4613c8e565b5b828202905092915050565b6000613b0b82613ba8565b9150613b1683613ba8565b925082821015613b2957613b28613c8e565b5b828203905092915050565b6000613b3f82613b88565b9050919050565b60008115159050919050565b6000819050919050565b60007fffffffff0000000000000000000000000000000000000000000000000000000082169050919050565b600073ffffffffffffffffffffffffffffffffffffffff82169050919050565b6000819050919050565b600060ff82169050919050565b6000613bca82613bd1565b9050919050565b6000613bdc82613b88565b9050919050565b82818337600083830152505050565b60005b83811015613c10578082015181840152602081019050613bf5565b83811115613c1f576000848401525b50505050565b613c2e82613d2f565b810181811067ffffffffffffffff82111715613c4d57613c4c613cec565b5b80604052505050565b6000613c6182613c72565b9050919050565b6000819050919050565b6000613c7d82613d40565b9050919050565b6000819050919050565b7f4e487b7100000000000000000000000000000000000000000000000000000000600052601160045260246000fd5b7f4e487b7100000000000000000000000000000000000000000000000000000000600052601260045260246000fd5b7f4e487b7100000000000000000000000000000000000000000000000000000000600052604160045260246000fd5b600080fd5b600080fd5b600080fd5b600080fd5b6000601f19601f8301169050919050565b60008160601b9050919050565b7f5472616e73666572696e67207468652063757420746f20746865204d61726b6560008201527f74706c616365206f776e6572206661696c656400000000000000000000000000602082015250565b7f496e76616c696420616464726573730000000000000000000000000000000000600082015250565b7f4f776e61626c653a206e6577206f776e657220697320746865207a65726f206160008201527f6464726573730000000000000000000000000000000000000000000000000000602082015250565b7f5075626c69636174696f6e2073686f756c64206265206d6f7265207468616e2060008201527f31206d696e75746520696e207468652066757475726500000000000000000000602082015250565b7f556e617574686f72697a65642075736572000000000000000000000000000000600082015250565b7f5472616e73666572696e6720746865207075626c69636174696f6e206665652060008201527f746f20746865204d61726b6574706c616365206f776e6572206661696c656400602082015250565b7f1901000000000000000000000000000000000000000000000000000000000000600082015250565b7f546865204e465420636f6e74726163742068617320616e20696e76616c69642060008201527f45524337323120696d706c656d656e746174696f6e0000000000000000000000602082015250565b7f4e4d5423657865637574654d6574615472616e73616374696f6e3a205349474e60008201527f45525f414e445f5349474e41545552455f444f5f4e4f545f4d41544348000000602082015250565b7f4f6e6c7920746865206f776e65722063616e20637265617465206f7264657273600082015250565b7f5061757361626c653a2070617573656400000000000000000000000000000000600082015250565b7f54686520636f6e7472616374206973206e6f7420617574686f72697a6564207460008201527f6f206d616e616765207468652061737365740000000000000000000000000000602082015250565b7f5468652061737365742066696e6765727072696e74206973206e6f742076616c60008201527f6964000000000000000000000000000000000000000000000000000000000000602082015250565b7f546865206f776e6572206375742073686f756c64206265206265747765656e2060008201527f3020616e64203939392c39393900000000000000000000000000000000000000602082015250565b7f4e4d5423657865637574654d6574615472616e73616374696f6e3a2043414c4c60008201527f5f4641494c454400000000000000000000000000000000000000000000000000602082015250565b7f4f776e61626c653a2063616c6c6572206973206e6f7420746865206f776e6572600082015250565b7f4173736574206e6f74207075626c697368656400000000000000000000000000600082015250565b7f546865204e465420416464726573732073686f756c64206265206120636f6e7460008201527f7261637400000000000000000000000000000000000000000000000000000000602082015250565b7f546865206f726465722065787069726564000000000000000000000000000000600082015250565b7f4e4d54237665726966793a20494e56414c49445f5349474e4552000000000000600082015250565b7f5472616e73666572696e67207468652073616c6520616d6f756e7420746f207460008201527f68652073656c6c6572206661696c656400000000000000000000000000000000602082015250565b7f546865207072696365206973206e6f7420636f72726563740000000000000000600082015250565b7f50726963652073686f756c6420626520626967676572207468616e2030000000600082015250565b7f5468652073656c6c6572206973206e6f206c6f6e67657220746865206f776e6560008201527f7200000000000000000000000000000000000000000000000000000000000000602082015250565b61431c81613b34565b811461432757600080fd5b50565b61433381613b46565b811461433e57600080fd5b50565b61434a81613b52565b811461435557600080fd5b50565b61436181613ba8565b811461436c57600080fd5b50565b61437881613bb2565b811461438357600080fd5b5056fe4d6574615472616e73616374696f6e2875696e74323536206e6f6e63652c616464726573732066726f6d2c62797465732066756e6374696f6e5369676e617475726529a26469706673582212207d4cdafd612780a6c97e0b789ad03633a34b43a61410329f250ad8b9e01832e864736f6c63430008060033454950373132446f6d61696e28737472696e67206e616d652c737472696e672076657273696f6e2c6164647265737320766572696679696e67436f6e74726163742c75696e7432353620636861696e494429",
  "immutableReferences": {},
  "source": "pragma solidity ^0.8.0;\n\nimport \"@openzeppelin/contracts/utils/Address.sol\";\n\nimport \"./MarketplaceStorage.sol\";\nimport \"./Ownable.sol\";\nimport \"./Pausable.sol\";\nimport \"./ContextMixin.sol\";\nimport \"./NativeMetaTransaction.sol\";\n\n\ncontract Marketplace is Ownable, Pausable, MarketplaceStorage, NativeMetaTransaction {\n  using Address for address;\n\n  /**\n    * @dev Initialize this contract. Acts as a constructor\n    * @param _acceptedToken - Address of the ERC20 accepted for this marketplace\n    * @param _ownerCutPerMillion - owner cut per million\n\n    */\n  constructor (address _acceptedToken,uint256 _ownerCutPerMillion,address _owner)\n  {\n    // EIP712 init\n    _initializeEIP712('Moto Network Marketplace', '1');\n\n    // Fee init\n    setOwnerCutPerMillion(_ownerCutPerMillion);\n\n    require(_owner != address(0), \"Invalid owner\");\n    transferOwnership(_owner);\n\n    require(_acceptedToken.isContract(), \"The accepted token address must be a deployed contract\");\n    acceptedToken = ERC20Interface(_acceptedToken);\n  }\n\n  /**\n    * @dev Sets the publication fee that's charged to users to publish items\n    * @param _publicationFee - Fee amount in wei this contract charges to publish an item\n    */\n  function setPublicationFee(uint256 _publicationFee) external onlyOwner {\n    publicationFeeInWei = _publicationFee;\n    emit ChangedPublicationFee(publicationFeeInWei);\n  }\n\n  function getPublicationFee() public view returns (uint256) {\n    return publicationFeeInWei;\n  }\n\n  function getMarketFee() public view returns (uint256){\n    return ownerCutPerMillion;\n  }\n\n  /**\n    * @dev Sets the share cut for the owner of the contract that's\n    *  charged to the seller on a successful sale\n    * @param _ownerCutPerMillion - Share amount, from 0 to 999,999\n    */\n  function setOwnerCutPerMillion(uint256 _ownerCutPerMillion) public onlyOwner {\n    require(_ownerCutPerMillion < 1000000, \"The owner cut should be between 0 and 999,999\");\n\n    ownerCutPerMillion = _ownerCutPerMillion;\n    emit ChangedOwnerCutPerMillion(ownerCutPerMillion);\n  }\n\n  /**\n    * @dev Creates a new order\n    * @param nftAddress - Non fungible registry address\n    * @param assetId - ID of the published NFT\n    * @param priceInWei - Price in Wei for the supported coin\n    * @param expiresAt - Duration of the order (in hours)\n    */\n  function createOrder(address nftAddress, uint256 assetId,uint256 priceInWei,\n    uint256 expiresAt) public whenNotPaused{\n    _createOrder(nftAddress,assetId,priceInWei,expiresAt );\n  }\n\n  /**\n    * @dev Cancel an already published order\n    *  can only be canceled by seller or the contract owner\n    * @param nftAddress - Address of the NFT registry\n    * @param assetId - ID of the published NFT\n    */\n  function cancelOrder(address nftAddress, uint256 assetId) public whenNotPaused {\n    _cancelOrder(nftAddress, assetId);\n  }\n\n  /**\n    * @dev Executes the sale for a published NFT and checks for the asset fingerprint\n    * @param nftAddress - Address of the NFT registry\n    * @param assetId - ID of the published NFT\n    * @param price - Order price\n    * @param fingerprint - Verification info for the asset\n    */\n  function safeExecuteOrder(\n    address nftAddress,\n    uint256 assetId,\n    uint256 price,\n    bytes memory fingerprint\n  )\n   public\n   whenNotPaused\n  {\n    _executeOrder(\n      nftAddress,\n      assetId,\n      price,\n      fingerprint\n    );\n  }\n\n  /**\n    * @dev Executes the sale for a published NFT\n    * @param nftAddress - Address of the NFT registry\n    * @param assetId - ID of the published NFT\n    * @param price - Order price\n    */\n  function executeOrder(\n    address nftAddress,\n    uint256 assetId,\n    uint256 price\n  )\n   public\n   whenNotPaused\n  {\n    _executeOrder(\n      nftAddress,\n      assetId,\n      price,\n      \"\"\n    );\n  }\n\n  /**\n    * @dev Creates a new order\n    * @param nftAddress - Non fungible registry address\n    * @param assetId - ID of the published NFT\n    * @param priceInWei - Price in Wei for the supported coin\n    * @param expiresAt - Duration of the order (in hours)\n    */\n  function _createOrder(address nftAddress,uint256 assetId,\n  uint256 priceInWei,uint256 expiresAt)internal{\n    _requireERC721(nftAddress);\n\n    address sender = _msgSender();\n\n    ERC721Interface nftRegistry = ERC721Interface(nftAddress);\n    address assetOwner = nftRegistry.ownerOf(assetId);\n\n    require(sender == assetOwner, \"Only the owner can create orders\");\n    require(nftRegistry.getApproved(assetId) == address(this) || nftRegistry.isApprovedForAll(assetOwner, address(this)),\n      \"The contract is not authorized to manage the asset\"\n    );\n    require(priceInWei > 0, \"Price should be bigger than 0\");\n    require(expiresAt > block.timestamp + 1 minutes, \"Publication should be more than 1 minute in the future\");\n\n    bytes32 orderId = keccak256(\n      abi.encodePacked(\n        block.timestamp,\n        assetOwner,\n        assetId,\n        nftAddress\n      )\n    );\n\n    orderByAssetId[nftAddress][assetId] = Order({\n      id: orderId,\n      seller: assetOwner,\n      nftAddress: nftAddress,\n      price: priceInWei,\n      expiresAt: expiresAt\n    });\n\n    // Check if there's a publication fee and\n    // transfer the amount to marketplace owner\n    if (publicationFeeInWei > 0) {\n      require(\n        acceptedToken.transferFrom(sender, owner(), publicationFeeInWei),\n        \"Transfering the publication fee to the Marketplace owner failed\"\n      );\n    }\n\n    emit OrderCreated(\n      orderId,\n      assetId,\n      assetOwner,\n      nftAddress,\n      priceInWei,\n      expiresAt\n    );\n  }\n\n  /**\n    * @dev Cancel an already published order\n    *  can only be canceled by seller or the contract owner\n    * @param nftAddress - Address of the NFT registry\n    * @param assetId - ID of the published NFT\n    */\n  function _cancelOrder(address nftAddress, uint256 assetId) internal returns (Order memory) {\n    address sender = _msgSender();\n    Order memory order = orderByAssetId[nftAddress][assetId];\n\n    require(order.id != 0, \"Asset not published\");\n    require(order.seller == sender || sender == owner(), \"Unauthorized user\");\n\n    bytes32 orderId = order.id;\n    address orderSeller = order.seller;\n    address orderNftAddress = order.nftAddress;\n    delete orderByAssetId[nftAddress][assetId];\n\n    emit OrderCancelled(\n      orderId,\n      assetId,\n      orderSeller,\n      orderNftAddress\n    );\n\n    return order;\n  }\n\n  function changePrice(address nftAddress, uint256 assetId, uint256 price) \n  public returns(Order memory){\n\n    address sender = _msgSender();\n    Order storage order = orderByAssetId[nftAddress][assetId];\n    uint256 expiresAt = order.expiresAt;\n    require(order.id != 0, \"Asset not published\");\n    require(order.seller == sender || sender == owner(), \"Unauthorized user\");\n    require(price > 0, \"Price should be bigger than 0\");\n    require(expiresAt > block.timestamp + 1 minutes, \"Publication should be more than 1 minute in the future\");\n\n    order.price = price;\n    orderByAssetId[nftAddress][assetId] = order;\n    emit PriceChanged(order.id,nftAddress,assetId, sender, price);\n    return order;\n  }\n  /**\n    * @dev Executes the sale for a published NFT\n    * @param nftAddress - Address of the NFT registry\n    * @param assetId - ID of the published NFT\n    * @param price - Order price\n    * @param fingerprint - Verification info for the asset\n    */\n  function _executeOrder(\n    address nftAddress,\n    uint256 assetId,\n    uint256 price,\n    bytes memory fingerprint\n  )\n   internal returns (Order memory)\n  {\n    _requireERC721(nftAddress);\n\n    address sender = _msgSender();\n\n    ERC721Verifiable nftRegistry = ERC721Verifiable(nftAddress);\n\n    if (nftRegistry.supportsInterface(InterfaceId_ValidateFingerprint)) {\n      require(\n        nftRegistry.verifyFingerprint(assetId, fingerprint),\n        \"The asset fingerprint is not valid\"\n      );\n    }\n    Order memory order = orderByAssetId[nftAddress][assetId];\n\n    require(order.id != 0, \"Asset not published\");\n\n    address seller = order.seller;\n\n    require(seller != address(0), \"Invalid address\");\n    require(seller != sender, \"Unauthorized user\");\n    require(order.price == price, \"The price is not correct\");\n    require(block.timestamp < order.expiresAt, \"The order expired\");\n    require(seller == nftRegistry.ownerOf(assetId), \"The seller is no longer the owner\");\n\n    uint saleShareAmount = 0;\n\n    bytes32 orderId = order.id;\n    delete orderByAssetId[nftAddress][assetId];\n\n    if (ownerCutPerMillion > 0) {\n      // Calculate sale share\n      saleShareAmount = (price * ownerCutPerMillion)/(1000000);\n\n      // Transfer share amount for marketplace Owner\n      require(\n        acceptedToken.transferFrom(sender, owner(), saleShareAmount),\n        \"Transfering the cut to the Marketplace owner failed\"\n      );\n    }\n\n    // Transfer sale amount to seller\n    require(\n      acceptedToken.transferFrom(sender, seller, price-saleShareAmount),\n      \"Transfering the sale amount to the seller failed\"\n    );\n\n    // Transfer asset owner\n    nftRegistry.safeTransferFrom(\n      seller,\n      sender,\n      assetId\n    );\n\n    emit OrderSuccessful(\n      orderId,\n      assetId,\n      seller,\n      nftAddress,\n      price,\n      sender\n    );\n\n    return order;\n  }\n\n  function _requireERC721(address nftAddress) internal view {\n    require(nftAddress.isContract(), \"The NFT Address should be a contract\");\n\n    ERC721Interface nftRegistry = ERC721Interface(nftAddress);\n    require(\n      nftRegistry.supportsInterface(ERC721_Interface),\n      \"The NFT contract has an invalid ERC721 implementation\"\n    );\n  }\n}\n",
  "sourcePath": "/Users/yvan/Dropbox/projects/moto/contracts/marketplace-contracts/contracts/Marketplace.sol",
  "compiler": {
    "name": "solc",
    "version": "0.8.6+commit.11564f7e.Emscripten.clang"
  },
  "schemaVersion": "3.4.2",
  "updatedAt": "2021-07-30T14:04:55.826Z",
  "networkType": "ethereum",
  "devdoc": {
    "kind": "dev",
    "methods": {
      "cancelOrder(address,uint256)": {
        "details": "Cancel an already published order  can only be canceled by seller or the contract owner",
        "params": {
          "assetId": "- ID of the published NFT",
          "nftAddress": "- Address of the NFT registry"
        }
      },
      "constructor": {
        "details": "Initialize this contract. Acts as a constructor",
        "params": {
          "_acceptedToken": "- Address of the ERC20 accepted for this marketplace",
          "_ownerCutPerMillion": "- owner cut per million"
        }
      },
      "createOrder(address,uint256,uint256,uint256)": {
        "details": "Creates a new order",
        "params": {
          "assetId": "- ID of the published NFT",
          "expiresAt": "- Duration of the order (in hours)",
          "nftAddress": "- Non fungible registry address",
          "priceInWei": "- Price in Wei for the supported coin"
        }
      },
      "executeOrder(address,uint256,uint256)": {
        "details": "Executes the sale for a published NFT",
        "params": {
          "assetId": "- ID of the published NFT",
          "nftAddress": "- Address of the NFT registry",
          "price": "- Order price"
        }
      },
      "owner()": {
        "details": "Returns the address of the current owner."
      },
      "paused()": {
        "details": "Returns true if the contract is paused, and false otherwise."
      },
      "renounceOwnership()": {
        "details": "Leaves the contract without owner. It will not be possible to call `onlyOwner` functions anymore. Can only be called by the current owner. NOTE: Renouncing ownership will leave the contract without an owner, thereby removing any functionality that is only available to the owner."
      },
      "safeExecuteOrder(address,uint256,uint256,bytes)": {
        "details": "Executes the sale for a published NFT and checks for the asset fingerprint",
        "params": {
          "assetId": "- ID of the published NFT",
          "fingerprint": "- Verification info for the asset",
          "nftAddress": "- Address of the NFT registry",
          "price": "- Order price"
        }
      },
      "setOwnerCutPerMillion(uint256)": {
        "details": "Sets the share cut for the owner of the contract that's  charged to the seller on a successful sale",
        "params": {
          "_ownerCutPerMillion": "- Share amount, from 0 to 999,999"
        }
      },
      "setPublicationFee(uint256)": {
        "details": "Sets the publication fee that's charged to users to publish items",
        "params": {
          "_publicationFee": "- Fee amount in wei this contract charges to publish an item"
        }
      },
      "transferOwnership(address)": {
        "details": "Transfers ownership of the contract to a new account (`newOwner`). Can only be called by the current owner."
      }
    },
    "version": 1
  },
  "userdoc": {
    "kind": "user",
    "methods": {},
    "version": 1
  }
}