{
  "contractName": "Marketplace",
  "abi": [
    {
      "inputs": [
        {
          "internalType": "address",
          "name": "_acceptedToken",
          "type": "address"
        },
        {
          "internalType": "uint256",
          "name": "_ownerCutPerMillion",
          "type": "uint256"
        },
        {
          "internalType": "address",
          "name": "_owner",
          "type": "address"
        }
      ],
      "stateMutability": "nonpayable",
      "type": "constructor"
    },
    {
      "anonymous": false,
      "inputs": [
        {
          "indexed": false,
          "internalType": "uint256",
          "name": "ownerCutPerMillion",
          "type": "uint256"
        }
      ],
      "name": "ChangedOwnerCutPerMillion",
      "type": "event"
    },
    {
      "anonymous": false,
      "inputs": [
        {
          "indexed": false,
          "internalType": "uint256",
          "name": "publicationFee",
          "type": "uint256"
        }
      ],
      "name": "ChangedPublicationFee",
      "type": "event"
    },
    {
      "anonymous": false,
      "inputs": [
        {
          "indexed": false,
          "internalType": "address",
          "name": "userAddress",
          "type": "address"
        },
        {
          "indexed": false,
          "internalType": "address",
          "name": "relayerAddress",
          "type": "address"
        },
        {
          "indexed": false,
          "internalType": "bytes",
          "name": "functionSignature",
          "type": "bytes"
        }
      ],
      "name": "MetaTransactionExecuted",
      "type": "event"
    },
    {
      "anonymous": false,
      "inputs": [
        {
          "indexed": false,
          "internalType": "bytes32",
          "name": "id",
          "type": "bytes32"
        },
        {
          "indexed": true,
          "internalType": "uint256",
          "name": "assetId",
          "type": "uint256"
        },
        {
          "indexed": true,
          "internalType": "address",
          "name": "seller",
          "type": "address"
        },
        {
          "indexed": false,
          "internalType": "address",
          "name": "nftAddress",
          "type": "address"
        }
      ],
      "name": "OrderCancelled",
      "type": "event"
    },
    {
      "anonymous": false,
      "inputs": [
        {
          "indexed": false,
          "internalType": "bytes32",
          "name": "id",
          "type": "bytes32"
        },
        {
          "indexed": true,
          "internalType": "uint256",
          "name": "assetId",
          "type": "uint256"
        },
        {
          "indexed": true,
          "internalType": "address",
          "name": "seller",
          "type": "address"
        },
        {
          "indexed": false,
          "internalType": "address",
          "name": "nftAddress",
          "type": "address"
        },
        {
          "indexed": false,
          "internalType": "uint256",
          "name": "priceInWei",
          "type": "uint256"
        },
        {
          "indexed": false,
          "internalType": "uint256",
          "name": "expiresAt",
          "type": "uint256"
        }
      ],
      "name": "OrderCreated",
      "type": "event"
    },
    {
      "anonymous": false,
      "inputs": [
        {
          "indexed": false,
          "internalType": "bytes32",
          "name": "id",
          "type": "bytes32"
        },
        {
          "indexed": true,
          "internalType": "uint256",
          "name": "assetId",
          "type": "uint256"
        },
        {
          "indexed": true,
          "internalType": "address",
          "name": "seller",
          "type": "address"
        },
        {
          "indexed": false,
          "internalType": "address",
          "name": "nftAddress",
          "type": "address"
        },
        {
          "indexed": false,
          "internalType": "uint256",
          "name": "totalPrice",
          "type": "uint256"
        },
        {
          "indexed": true,
          "internalType": "address",
          "name": "buyer",
          "type": "address"
        }
      ],
      "name": "OrderSuccessful",
      "type": "event"
    },
    {
      "anonymous": false,
      "inputs": [
        {
          "indexed": true,
          "internalType": "address",
          "name": "previousOwner",
          "type": "address"
        },
        {
          "indexed": true,
          "internalType": "address",
          "name": "newOwner",
          "type": "address"
        }
      ],
      "name": "OwnershipTransferred",
      "type": "event"
    },
    {
      "anonymous": false,
      "inputs": [
        {
          "indexed": false,
          "internalType": "address",
          "name": "account",
          "type": "address"
        }
      ],
      "name": "Paused",
      "type": "event"
    },
    {
      "anonymous": false,
      "inputs": [
        {
          "indexed": false,
          "internalType": "address",
          "name": "account",
          "type": "address"
        }
      ],
      "name": "Unpaused",
      "type": "event"
    },
    {
      "inputs": [],
      "name": "DOMAIN_SEPERATOR",
      "outputs": [
        {
          "internalType": "bytes32",
          "name": "",
          "type": "bytes32"
        }
      ],
      "stateMutability": "view",
      "type": "function",
      "constant": true
    },
    {
      "inputs": [],
      "name": "ERC721_Interface",
      "outputs": [
        {
          "internalType": "bytes4",
          "name": "",
          "type": "bytes4"
        }
      ],
      "stateMutability": "view",
      "type": "function",
      "constant": true
    },
    {
      "inputs": [],
      "name": "InterfaceId_ValidateFingerprint",
      "outputs": [
        {
          "internalType": "bytes4",
          "name": "",
          "type": "bytes4"
        }
      ],
      "stateMutability": "view",
      "type": "function",
      "constant": true
    },
    {
      "inputs": [],
      "name": "acceptedToken",
      "outputs": [
        {
          "internalType": "contract ERC20Interface",
          "name": "",
          "type": "address"
        }
      ],
      "stateMutability": "view",
      "type": "function",
      "constant": true
    },
    {
      "inputs": [
        {
          "internalType": "address",
          "name": "userAddress",
          "type": "address"
        },
        {
          "internalType": "bytes",
          "name": "functionSignature",
          "type": "bytes"
        },
        {
          "internalType": "bytes32",
          "name": "sigR",
          "type": "bytes32"
        },
        {
          "internalType": "bytes32",
          "name": "sigS",
          "type": "bytes32"
        },
        {
          "internalType": "uint8",
          "name": "sigV",
          "type": "uint8"
        }
      ],
      "name": "executeMetaTransaction",
      "outputs": [
        {
          "internalType": "bytes",
          "name": "",
          "type": "bytes"
        }
      ],
      "stateMutability": "payable",
      "type": "function",
      "payable": true
    },
    {
      "inputs": [],
      "name": "getChainId",
      "outputs": [
        {
          "internalType": "uint256",
          "name": "",
          "type": "uint256"
        }
      ],
      "stateMutability": "view",
      "type": "function",
      "constant": true
    },
    {
      "inputs": [
        {
          "internalType": "address",
          "name": "user",
          "type": "address"
        }
      ],
      "name": "getNonce",
      "outputs": [
        {
          "internalType": "uint256",
          "name": "nonce",
          "type": "uint256"
        }
      ],
      "stateMutability": "view",
      "type": "function",
      "constant": true
    },
    {
      "inputs": [
        {
          "internalType": "address",
          "name": "",
          "type": "address"
        },
        {
          "internalType": "uint256",
          "name": "",
          "type": "uint256"
        }
      ],
      "name": "orderByAssetId",
      "outputs": [
        {
          "internalType": "bytes32",
          "name": "id",
          "type": "bytes32"
        },
        {
          "internalType": "address",
          "name": "seller",
          "type": "address"
        },
        {
          "internalType": "address",
          "name": "nftAddress",
          "type": "address"
        },
        {
          "internalType": "uint256",
          "name": "price",
          "type": "uint256"
        },
        {
          "internalType": "uint256",
          "name": "expiresAt",
          "type": "uint256"
        }
      ],
      "stateMutability": "view",
      "type": "function",
      "constant": true
    },
    {
      "inputs": [],
      "name": "owner",
      "outputs": [
        {
          "internalType": "address",
          "name": "",
          "type": "address"
        }
      ],
      "stateMutability": "view",
      "type": "function",
      "constant": true
    },
    {
      "inputs": [],
      "name": "ownerCutPerMillion",
      "outputs": [
        {
          "internalType": "uint256",
          "name": "",
          "type": "uint256"
        }
      ],
      "stateMutability": "view",
      "type": "function",
      "constant": true
    },
    {
      "inputs": [],
      "name": "paused",
      "outputs": [
        {
          "internalType": "bool",
          "name": "",
          "type": "bool"
        }
      ],
      "stateMutability": "view",
      "type": "function",
      "constant": true
    },
    {
      "inputs": [],
      "name": "publicationFeeInWei",
      "outputs": [
        {
          "internalType": "uint256",
          "name": "",
          "type": "uint256"
        }
      ],
      "stateMutability": "view",
      "type": "function",
      "constant": true
    },
    {
      "inputs": [],
      "name": "renounceOwnership",
      "outputs": [],
      "stateMutability": "nonpayable",
      "type": "function"
    },
    {
      "inputs": [
        {
          "internalType": "address",
          "name": "newOwner",
          "type": "address"
        }
      ],
      "name": "transferOwnership",
      "outputs": [],
      "stateMutability": "nonpayable",
      "type": "function"
    },
    {
      "inputs": [
        {
          "internalType": "uint256",
          "name": "_publicationFee",
          "type": "uint256"
        }
      ],
      "name": "setPublicationFee",
      "outputs": [],
      "stateMutability": "nonpayable",
      "type": "function"
    },
    {
      "inputs": [
        {
          "internalType": "uint256",
          "name": "_ownerCutPerMillion",
          "type": "uint256"
        }
      ],
      "name": "setOwnerCutPerMillion",
      "outputs": [],
      "stateMutability": "nonpayable",
      "type": "function"
    },
    {
      "inputs": [
        {
          "internalType": "address",
          "name": "nftAddress",
          "type": "address"
        },
        {
          "internalType": "uint256",
          "name": "assetId",
          "type": "uint256"
        },
        {
          "internalType": "uint256",
          "name": "priceInWei",
          "type": "uint256"
        },
        {
          "internalType": "uint256",
          "name": "expiresAt",
          "type": "uint256"
        }
      ],
      "name": "createOrder",
      "outputs": [],
      "stateMutability": "nonpayable",
      "type": "function"
    },
    {
      "inputs": [
        {
          "internalType": "address",
          "name": "nftAddress",
          "type": "address"
        },
        {
          "internalType": "uint256",
          "name": "assetId",
          "type": "uint256"
        }
      ],
      "name": "cancelOrder",
      "outputs": [],
      "stateMutability": "nonpayable",
      "type": "function"
    },
    {
      "inputs": [
        {
          "internalType": "address",
          "name": "nftAddress",
          "type": "address"
        },
        {
          "internalType": "uint256",
          "name": "assetId",
          "type": "uint256"
        },
        {
          "internalType": "uint256",
          "name": "price",
          "type": "uint256"
        },
        {
          "internalType": "bytes",
          "name": "fingerprint",
          "type": "bytes"
        }
      ],
      "name": "safeExecuteOrder",
      "outputs": [],
      "stateMutability": "nonpayable",
      "type": "function"
    },
    {
      "inputs": [
        {
          "internalType": "address",
          "name": "nftAddress",
          "type": "address"
        },
        {
          "internalType": "uint256",
          "name": "assetId",
          "type": "uint256"
        },
        {
          "internalType": "uint256",
          "name": "price",
          "type": "uint256"
        }
      ],
      "name": "executeOrder",
      "outputs": [],
      "stateMutability": "nonpayable",
      "type": "function"
    }
  ],
  "bytecode": "0x60806040523480156200001157600080fd5b50604051620049423803806200494283398181016040528101906200003791906200069c565b600062000049620002ca60201b60201c565b9050806000806101000a81548173ffffffffffffffffffffffffffffffffffffffff021916908373ffffffffffffffffffffffffffffffffffffffff1602179055508073ffffffffffffffffffffffffffffffffffffffff16600073ffffffffffffffffffffffffffffffffffffffff167f8be0079c531659141344cd1fd0a4f28419497f9722a3daafe3b4186f6b6457e060405160405180910390a35060008060146101000a81548160ff0219169083151502179055506200017d6040518060400160405280601881526020017f4d6f746f204e6574776f726b204d61726b6574706c61636500000000000000008152506040518060400160405280600181526020017f3100000000000000000000000000000000000000000000000000000000000000815250620002d260201b60201c565b6200018e826200034a60201b60201c565b600073ffffffffffffffffffffffffffffffffffffffff168173ffffffffffffffffffffffffffffffffffffffff16141562000201576040517f08c379a0000000000000000000000000000000000000000000000000000000008152600401620001f8906200084b565b60405180910390fd5b62000212816200046660201b60201c565b6200023e8373ffffffffffffffffffffffffffffffffffffffff166200062560201b62000e901760201c565b62000280576040517f08c379a000000000000000000000000000000000000000000000000000000000815260040162000277906200086d565b60405180910390fd5b82600160006101000a81548173ffffffffffffffffffffffffffffffffffffffff021916908373ffffffffffffffffffffffffffffffffffffffff16021790555050505062000ae3565b600033905090565b604051806080016040528060528152602001620048f060529139805190602001208280519060200120828051906020012030620003146200063860201b60201c565b6040516020016200032a959493929190620007ee565b604051602081830303815290604052805190602001206005819055505050565b6200035a620002ca60201b60201c565b73ffffffffffffffffffffffffffffffffffffffff16620003806200064560201b60201c565b73ffffffffffffffffffffffffffffffffffffffff1614620003d9576040517f08c379a0000000000000000000000000000000000000000000000000000000008152600401620003d090620008d3565b60405180910390fd5b620f4240811062000421576040517f08c379a00000000000000000000000000000000000000000000000000000000081526004016200041890620008b1565b60405180910390fd5b806003819055507ffa406a120a9e7f2b332bfb7a43d3bf1c3f079262202907a6b69c94b2821a02c66003546040516200045b9190620008f5565b60405180910390a150565b62000476620002ca60201b60201c565b73ffffffffffffffffffffffffffffffffffffffff166200049c6200064560201b60201c565b73ffffffffffffffffffffffffffffffffffffffff1614620004f5576040517f08c379a0000000000000000000000000000000000000000000000000000000008152600401620004ec90620008d3565b60405180910390fd5b600073ffffffffffffffffffffffffffffffffffffffff168173ffffffffffffffffffffffffffffffffffffffff16141562000568576040517f08c379a00000000000000000000000000000000000000000000000000000000081526004016200055f906200088f565b60405180910390fd5b8073ffffffffffffffffffffffffffffffffffffffff1660008054906101000a900473ffffffffffffffffffffffffffffffffffffffff1673ffffffffffffffffffffffffffffffffffffffff167f8be0079c531659141344cd1fd0a4f28419497f9722a3daafe3b4186f6b6457e060405160405180910390a3806000806101000a81548173ffffffffffffffffffffffffffffffffffffffff021916908373ffffffffffffffffffffffffffffffffffffffff16021790555050565b600080823b905060008111915050919050565b6000804690508091505090565b60008060009054906101000a900473ffffffffffffffffffffffffffffffffffffffff16905090565b6000815190506200067f8162000aaf565b92915050565b600081519050620006968162000ac9565b92915050565b600080600060608486031215620006b857620006b76200096b565b5b6000620006c8868287016200066e565b9350506020620006db8682870162000685565b9250506040620006ee868287016200066e565b9150509250925092565b620007038162000923565b82525050565b620007148162000937565b82525050565b600062000729600d8362000912565b9150620007368262000970565b602082019050919050565b60006200075060368362000912565b91506200075d8262000999565b604082019050919050565b60006200077760268362000912565b91506200078482620009e8565b604082019050919050565b60006200079e602d8362000912565b9150620007ab8262000a37565b604082019050919050565b6000620007c560208362000912565b9150620007d28262000a86565b602082019050919050565b620007e88162000961565b82525050565b600060a08201905062000805600083018862000709565b62000814602083018762000709565b62000823604083018662000709565b620008326060830185620006f8565b620008416080830184620007dd565b9695505050505050565b6000602082019050818103600083015262000866816200071a565b9050919050565b60006020820190508181036000830152620008888162000741565b9050919050565b60006020820190508181036000830152620008aa8162000768565b9050919050565b60006020820190508181036000830152620008cc816200078f565b9050919050565b60006020820190508181036000830152620008ee81620007b6565b9050919050565b60006020820190506200090c6000830184620007dd565b92915050565b600082825260208201905092915050565b6000620009308262000941565b9050919050565b6000819050919050565b600073ffffffffffffffffffffffffffffffffffffffff82169050919050565b6000819050919050565b600080fd5b7f496e76616c6964206f776e657200000000000000000000000000000000000000600082015250565b7f54686520616363657074656420746f6b656e2061646472657373206d7573742060008201527f62652061206465706c6f79656420636f6e747261637400000000000000000000602082015250565b7f4f776e61626c653a206e6577206f776e657220697320746865207a65726f206160008201527f6464726573730000000000000000000000000000000000000000000000000000602082015250565b7f546865206f776e6572206375742073686f756c64206265206265747765656e2060008201527f3020616e64203939392c39393900000000000000000000000000000000000000602082015250565b7f4f776e61626c653a2063616c6c6572206973206e6f7420746865206f776e6572600082015250565b62000aba8162000923565b811462000ac657600080fd5b50565b62000ad48162000961565b811462000ae057600080fd5b50565b613dfd8062000af36000396000f3fe60806040526004361061011f5760003560e01c80636f652e1a116100a0578063ae4f119811610064578063ae4f1198146103a4578063ae7b0333146103cf578063af8996f1146103f8578063e61f385114610421578063f2fde38b146104625761011f565b80636f652e1a146102e5578063715018a61461030e5780638da5cb5b146103255780639b214f7714610350578063a01f79d4146103795761011f565b80633408e470116100e75780633408e4701461021057806337f82f371461023b578063451c3d80146102665780635c975abb146102915780636a206137146102bc5761011f565b80630c53c51c146101245780630df632101461015457806319dad16d1461017f5780632b4c32be146101a85780632d0335ab146101d3575b600080fd5b61013e600480360381019061013991906125ed565b61048b565b60405161014b919061301c565b60405180910390f35b34801561016057600080fd5b506101696106f6565b6040516101769190612e64565b60405180910390f35b34801561018b57600080fd5b506101a660048036038101906101a1919061282e565b6106fc565b005b3480156101b457600080fd5b506101bd610800565b6040516101ca9190613001565b60405180910390f35b3480156101df57600080fd5b506101fa60048036038101906101f59190612593565b61080b565b6040516102079190613339565b60405180910390f35b34801561021c57600080fd5b50610225610854565b6040516102329190613339565b60405180910390f35b34801561024757600080fd5b50610250610861565b60405161025d9190613001565b60405180910390f35b34801561027257600080fd5b5061027b610885565b604051610288919061303e565b60405180910390f35b34801561029d57600080fd5b506102a66108ab565b6040516102b39190612e49565b60405180910390f35b3480156102c857600080fd5b506102e360048036038101906102de9190612684565b6108c1565b005b3480156102f157600080fd5b5061030c6004803603810190610307919061279a565b610918565b005b34801561031a57600080fd5b50610323610972565b005b34801561033157600080fd5b5061033a610aac565b6040516103479190612d90565b60405180910390f35b34801561035c57600080fd5b5061037760048036038101906103729190612717565b610ad5565b005b34801561038557600080fd5b5061038e610b30565b60405161039b9190613339565b60405180910390f35b3480156103b057600080fd5b506103b9610b36565b6040516103c69190613339565b60405180910390f35b3480156103db57600080fd5b506103f660048036038101906103f191906126c4565b610b3c565b005b34801561040457600080fd5b5061041f600480360381019061041a919061282e565b610ba5565b005b34801561042d57600080fd5b5061044860048036038101906104439190612684565b610c64565b604051610459959493929190612ea8565b60405180910390f35b34801561046e57600080fd5b5061048960048036038101906104849190612593565b610ce7565b005b606060006040518060600160405280600660008a73ffffffffffffffffffffffffffffffffffffffff1673ffffffffffffffffffffffffffffffffffffffff1681526020019081526020016000205481526020018873ffffffffffffffffffffffffffffffffffffffff16815260200187815250905061050e8782878787610ea3565b61054d576040517f08c379a000000000000000000000000000000000000000000000000000000000815260040161054490613139565b60405180910390fd5b6001600660008973ffffffffffffffffffffffffffffffffffffffff1673ffffffffffffffffffffffffffffffffffffffff16815260200190815260200160002054610599919061341d565b600660008973ffffffffffffffffffffffffffffffffffffffff1673ffffffffffffffffffffffffffffffffffffffff168152602001908152602001600020819055507f5845892132946850460bff5a0083f71031bc5bf9aadcd40f1de79423eac9b10b87338860405161060f93929190612dd4565b60405180910390a16000803073ffffffffffffffffffffffffffffffffffffffff16888a604051602001610644929190612cd2565b6040516020818303038152906040526040516106609190612cbb565b6000604051808303816000865af19150503d806000811461069d576040519150601f19603f3d011682016040523d82523d6000602084013e6106a2565b606091505b5091509150816106e7576040517f08c379a00000000000000000000000000000000000000000000000000000000081526004016106de906131f9565b60405180910390fd5b80935050505095945050505050565b60055481565b610704610fac565b73ffffffffffffffffffffffffffffffffffffffff16610722610aac565b73ffffffffffffffffffffffffffffffffffffffff1614610778576040517f08c379a000000000000000000000000000000000000000000000000000000000815260040161076f90613219565b60405180910390fd5b620f424081106107bd576040517f08c379a00000000000000000000000000000000000000000000000000000000081526004016107b4906131d9565b60405180910390fd5b806003819055507ffa406a120a9e7f2b332bfb7a43d3bf1c3f079262202907a6b69c94b2821a02c66003546040516107f59190613339565b60405180910390a150565b6380ac58cd60e01b81565b6000600660008373ffffffffffffffffffffffffffffffffffffffff1673ffffffffffffffffffffffffffffffffffffffff168152602001908152602001600020549050919050565b6000804690508091505090565b7f8cb5b56b0b357b005adf5059f554ed4289f3f4f430f156b4eee18609bb91c36881565b600160009054906101000a900473ffffffffffffffffffffffffffffffffffffffff1681565b60008060149054906101000a900460ff16905090565b6108c96108ab565b15610909576040517f08c379a000000000000000000000000000000000000000000000000000000000815260040161090090613179565b60405180910390fd5b6109138282610fb4565b505050565b6109206108ab565b15610960576040517f08c379a000000000000000000000000000000000000000000000000000000000815260040161095790613179565b60405180910390fd5b61096c8484848461131d565b50505050565b61097a610fac565b73ffffffffffffffffffffffffffffffffffffffff16610998610aac565b73ffffffffffffffffffffffffffffffffffffffff16146109ee576040517f08c379a00000000000000000000000000000000000000000000000000000000081526004016109e590613219565b60405180910390fd5b600073ffffffffffffffffffffffffffffffffffffffff1660008054906101000a900473ffffffffffffffffffffffffffffffffffffffff1673ffffffffffffffffffffffffffffffffffffffff167f8be0079c531659141344cd1fd0a4f28419497f9722a3daafe3b4186f6b6457e060405160405180910390a360008060006101000a81548173ffffffffffffffffffffffffffffffffffffffff021916908373ffffffffffffffffffffffffffffffffffffffff160217905550565b60008060009054906101000a900473ffffffffffffffffffffffffffffffffffffffff16905090565b610add6108ab565b15610b1d576040517f08c379a0000000000000000000000000000000000000000000000000000000008152600401610b1490613179565b60405180910390fd5b610b2984848484611934565b5050505050565b60035481565b60045481565b610b446108ab565b15610b84576040517f08c379a0000000000000000000000000000000000000000000000000000000008152600401610b7b90613179565b60405180910390fd5b610b9f83838360405180602001604052806000815250611934565b50505050565b610bad610fac565b73ffffffffffffffffffffffffffffffffffffffff16610bcb610aac565b73ffffffffffffffffffffffffffffffffffffffff1614610c21576040517f08c379a0000000000000000000000000000000000000000000000000000000008152600401610c1890613219565b60405180910390fd5b806004819055507fe7fa8737293f41b5dfa0d5c3e552860a06275bed7015581b083c7be7003308ba600454604051610c599190613339565b60405180910390a150565b6002602052816000526040600020602052806000526040600020600091509150508060000154908060010160009054906101000a900473ffffffffffffffffffffffffffffffffffffffff16908060020160009054906101000a900473ffffffffffffffffffffffffffffffffffffffff16908060030154908060040154905085565b610cef610fac565b73ffffffffffffffffffffffffffffffffffffffff16610d0d610aac565b73ffffffffffffffffffffffffffffffffffffffff1614610d63576040517f08c379a0000000000000000000000000000000000000000000000000000000008152600401610d5a90613219565b60405180910390fd5b600073ffffffffffffffffffffffffffffffffffffffff168173ffffffffffffffffffffffffffffffffffffffff161415610dd3576040517f08c379a0000000000000000000000000000000000000000000000000000000008152600401610dca90613099565b60405180910390fd5b8073ffffffffffffffffffffffffffffffffffffffff1660008054906101000a900473ffffffffffffffffffffffffffffffffffffffff1673ffffffffffffffffffffffffffffffffffffffff167f8be0079c531659141344cd1fd0a4f28419497f9722a3daafe3b4186f6b6457e060405160405180910390a3806000806101000a81548173ffffffffffffffffffffffffffffffffffffffff021916908373ffffffffffffffffffffffffffffffffffffffff16021790555050565b600080823b905060008111915050919050565b60008073ffffffffffffffffffffffffffffffffffffffff168673ffffffffffffffffffffffffffffffffffffffff161415610f14576040517f08c379a0000000000000000000000000000000000000000000000000000000008152600401610f0b90613299565b60405180910390fd5b6001610f27610f2287612275565b6122dd565b83868660405160008152602001604052604051610f479493929190612fbc565b6020604051602081039080840390855afa158015610f69573d6000803e3d6000fd5b5050506020604051035173ffffffffffffffffffffffffffffffffffffffff168673ffffffffffffffffffffffffffffffffffffffff1614905095945050505050565b600033905090565b610fbc612447565b6000610fc6610fac565b90506000600260008673ffffffffffffffffffffffffffffffffffffffff1673ffffffffffffffffffffffffffffffffffffffff16815260200190815260200160002060008581526020019081526020016000206040518060a0016040529081600082015481526020016001820160009054906101000a900473ffffffffffffffffffffffffffffffffffffffff1673ffffffffffffffffffffffffffffffffffffffff1673ffffffffffffffffffffffffffffffffffffffff1681526020016002820160009054906101000a900473ffffffffffffffffffffffffffffffffffffffff1673ffffffffffffffffffffffffffffffffffffffff1673ffffffffffffffffffffffffffffffffffffffff1681526020016003820154815260200160048201548152505090506000801b8160000151141561113b576040517f08c379a000000000000000000000000000000000000000000000000000000000815260040161113290613239565b60405180910390fd5b8173ffffffffffffffffffffffffffffffffffffffff16816020015173ffffffffffffffffffffffffffffffffffffffff1614806111ab575061117c610aac565b73ffffffffffffffffffffffffffffffffffffffff168273ffffffffffffffffffffffffffffffffffffffff16145b6111ea576040517f08c379a00000000000000000000000000000000000000000000000000000000081526004016111e1906130d9565b60405180910390fd5b600081600001519050600082602001519050600083604001519050600260008973ffffffffffffffffffffffffffffffffffffffff1673ffffffffffffffffffffffffffffffffffffffff16815260200190815260200160002060008881526020019081526020016000206000808201600090556001820160006101000a81549073ffffffffffffffffffffffffffffffffffffffff02191690556002820160006101000a81549073ffffffffffffffffffffffffffffffffffffffff02191690556003820160009055600482016000905550508173ffffffffffffffffffffffffffffffffffffffff16877f0325426328de5b91ae4ad8462ad4076de4bcaf4551e81556185cacde5a425c6b8584604051611307929190612e7f565b60405180910390a3839550505050505092915050565b61132684612311565b6000611330610fac565b9050600085905060008173ffffffffffffffffffffffffffffffffffffffff16636352211e876040518263ffffffff1660e01b81526004016113729190613339565b60206040518083038186803b15801561138a57600080fd5b505afa15801561139e573d6000803e3d6000fd5b505050506040513d601f19601f820116820180604052508101906113c291906125c0565b90508073ffffffffffffffffffffffffffffffffffffffff168373ffffffffffffffffffffffffffffffffffffffff1614611432576040517f08c379a000000000000000000000000000000000000000000000000000000000815260040161142990613159565b60405180910390fd5b3073ffffffffffffffffffffffffffffffffffffffff168273ffffffffffffffffffffffffffffffffffffffff1663081812fc886040518263ffffffff1660e01b81526004016114829190613339565b60206040518083038186803b15801561149a57600080fd5b505afa1580156114ae573d6000803e3d6000fd5b505050506040513d601f19601f820116820180604052508101906114d291906125c0565b73ffffffffffffffffffffffffffffffffffffffff16148061157b57508173ffffffffffffffffffffffffffffffffffffffff1663e985e9c582306040518363ffffffff1660e01b815260040161152a929190612dab565b60206040518083038186803b15801561154257600080fd5b505afa158015611556573d6000803e3d6000fd5b505050506040513d601f19601f8201168201806040525081019061157a9190612801565b5b6115ba576040517f08c379a00000000000000000000000000000000000000000000000000000000081526004016115b190613199565b60405180910390fd5b600085116115fd576040517f08c379a00000000000000000000000000000000000000000000000000000000081526004016115f4906132f9565b60405180910390fd5b603c4261160a919061341d565b841161164b576040517f08c379a0000000000000000000000000000000000000000000000000000000008152600401611642906130b9565b60405180910390fd5b60004282888a89604051602001611666959493929190612d31565b6040516020818303038152906040528051906020012090506040518060a001604052808281526020018373ffffffffffffffffffffffffffffffffffffffff1681526020018973ffffffffffffffffffffffffffffffffffffffff16815260200187815260200186815250600260008a73ffffffffffffffffffffffffffffffffffffffff1673ffffffffffffffffffffffffffffffffffffffff16815260200190815260200160002060008981526020019081526020016000206000820151816000015560208201518160010160006101000a81548173ffffffffffffffffffffffffffffffffffffffff021916908373ffffffffffffffffffffffffffffffffffffffff16021790555060408201518160020160006101000a81548173ffffffffffffffffffffffffffffffffffffffff021916908373ffffffffffffffffffffffffffffffffffffffff1602179055506060820151816003015560808201518160040155905050600060045411156118d557600160009054906101000a900473ffffffffffffffffffffffffffffffffffffffff1673ffffffffffffffffffffffffffffffffffffffff166323b872dd85611822610aac565b6004546040518463ffffffff1660e01b815260040161184393929190612e12565b602060405180830381600087803b15801561185d57600080fd5b505af1158015611871573d6000803e3d6000fd5b505050506040513d601f19601f820116820180604052508101906118959190612801565b6118d4576040517f08c379a00000000000000000000000000000000000000000000000000000000081526004016118cb906130f9565b60405180910390fd5b5b8173ffffffffffffffffffffffffffffffffffffffff16877f84c66c3f7ba4b390e20e8e8233e2a516f3ce34a72749e4f12bd010dfba238039838b8a8a6040516119229493929190612f32565b60405180910390a35050505050505050565b61193c612447565b61194585612311565b600061194f610fac565b905060008690508073ffffffffffffffffffffffffffffffffffffffff166301ffc9a77f8cb5b56b0b357b005adf5059f554ed4289f3f4f430f156b4eee18609bb91c3686040518263ffffffff1660e01b81526004016119af9190613001565b60206040518083038186803b1580156119c757600080fd5b505afa1580156119db573d6000803e3d6000fd5b505050506040513d601f19601f820116820180604052508101906119ff9190612801565b15611acf578073ffffffffffffffffffffffffffffffffffffffff16638f9f4b6387866040518363ffffffff1660e01b8152600401611a3f929190613354565b60206040518083038186803b158015611a5757600080fd5b505afa158015611a6b573d6000803e3d6000fd5b505050506040513d601f19601f82011682018060405250810190611a8f9190612801565b611ace576040517f08c379a0000000000000000000000000000000000000000000000000000000008152600401611ac5906131b9565b60405180910390fd5b5b6000600260008973ffffffffffffffffffffffffffffffffffffffff1673ffffffffffffffffffffffffffffffffffffffff16815260200190815260200160002060008881526020019081526020016000206040518060a0016040529081600082015481526020016001820160009054906101000a900473ffffffffffffffffffffffffffffffffffffffff1673ffffffffffffffffffffffffffffffffffffffff1673ffffffffffffffffffffffffffffffffffffffff1681526020016002820160009054906101000a900473ffffffffffffffffffffffffffffffffffffffff1673ffffffffffffffffffffffffffffffffffffffff1673ffffffffffffffffffffffffffffffffffffffff1681526020016003820154815260200160048201548152505090506000801b81600001511415611c42576040517f08c379a0000000000000000000000000000000000000000000000000000000008152600401611c3990613239565b60405180910390fd5b600081602001519050600073ffffffffffffffffffffffffffffffffffffffff168173ffffffffffffffffffffffffffffffffffffffff161415611cbb576040517f08c379a0000000000000000000000000000000000000000000000000000000008152600401611cb290613079565b60405180910390fd5b8373ffffffffffffffffffffffffffffffffffffffff168173ffffffffffffffffffffffffffffffffffffffff161415611d2a576040517f08c379a0000000000000000000000000000000000000000000000000000000008152600401611d21906130d9565b60405180910390fd5b86826060015114611d70576040517f08c379a0000000000000000000000000000000000000000000000000000000008152600401611d67906132d9565b60405180910390fd5b81608001514210611db6576040517f08c379a0000000000000000000000000000000000000000000000000000000008152600401611dad90613279565b60405180910390fd5b8273ffffffffffffffffffffffffffffffffffffffff16636352211e896040518263ffffffff1660e01b8152600401611def9190613339565b60206040518083038186803b158015611e0757600080fd5b505afa158015611e1b573d6000803e3d6000fd5b505050506040513d601f19601f82011682018060405250810190611e3f91906125c0565b73ffffffffffffffffffffffffffffffffffffffff168173ffffffffffffffffffffffffffffffffffffffff1614611eac576040517f08c379a0000000000000000000000000000000000000000000000000000000008152600401611ea390613319565b60405180910390fd5b60008083600001519050600260008c73ffffffffffffffffffffffffffffffffffffffff1673ffffffffffffffffffffffffffffffffffffffff16815260200190815260200160002060008b81526020019081526020016000206000808201600090556001820160006101000a81549073ffffffffffffffffffffffffffffffffffffffff02191690556002820160006101000a81549073ffffffffffffffffffffffffffffffffffffffff02191690556003820160009055600482016000905550506000600354111561209057620f42406003548a611f8c91906134a4565b611f969190613473565b9150600160009054906101000a900473ffffffffffffffffffffffffffffffffffffffff1673ffffffffffffffffffffffffffffffffffffffff166323b872dd87611fdf610aac565b856040518463ffffffff1660e01b8152600401611ffe93929190612e12565b602060405180830381600087803b15801561201857600080fd5b505af115801561202c573d6000803e3d6000fd5b505050506040513d601f19601f820116820180604052508101906120509190612801565b61208f576040517f08c379a000000000000000000000000000000000000000000000000000000000815260040161208690613059565b60405180910390fd5b5b600160009054906101000a900473ffffffffffffffffffffffffffffffffffffffff1673ffffffffffffffffffffffffffffffffffffffff166323b872dd8785858d6120dc91906134fe565b6040518463ffffffff1660e01b81526004016120fa93929190612e12565b602060405180830381600087803b15801561211457600080fd5b505af1158015612128573d6000803e3d6000fd5b505050506040513d601f19601f8201168201806040525081019061214c9190612801565b61218b576040517f08c379a0000000000000000000000000000000000000000000000000000000008152600401612182906132b9565b60405180910390fd5b8473ffffffffffffffffffffffffffffffffffffffff166342842e0e84888d6040518463ffffffff1660e01b81526004016121c893929190612e12565b600060405180830381600087803b1580156121e257600080fd5b505af11580156121f6573d6000803e3d6000fd5b505050508573ffffffffffffffffffffffffffffffffffffffff168373ffffffffffffffffffffffffffffffffffffffff168b7f695ec315e8a642a74d450a4505eeea53df699b47a7378c7d752e97d5b16eb9bb848f8e60405161225c93929190612efb565b60405180910390a4839650505050505050949350505050565b6000604051806080016040528060438152602001613d856043913980519060200120826000015183602001518460400151805190602001206040516020016122c09493929190612f77565b604051602081830303815290604052805190602001209050919050565b6000600554826040516020016122f4929190612cfa565b604051602081830303815290604052805190602001209050919050565b6123308173ffffffffffffffffffffffffffffffffffffffff16610e90565b61236f576040517f08c379a000000000000000000000000000000000000000000000000000000000815260040161236690613259565b60405180910390fd5b60008190508073ffffffffffffffffffffffffffffffffffffffff166301ffc9a76380ac58cd60e01b6040518263ffffffff1660e01b81526004016123b49190613001565b60206040518083038186803b1580156123cc57600080fd5b505afa1580156123e0573d6000803e3d6000fd5b505050506040513d601f19601f820116820180604052508101906124049190612801565b612443576040517f08c379a000000000000000000000000000000000000000000000000000000000815260040161243a90613119565b60405180910390fd5b5050565b6040518060a0016040528060008019168152602001600073ffffffffffffffffffffffffffffffffffffffff168152602001600073ffffffffffffffffffffffffffffffffffffffff16815260200160008152602001600081525090565b60006124b86124b3846133a9565b613384565b9050828152602081018484840111156124d4576124d361371e565b5b6124df8482856135e1565b509392505050565b6000813590506124f681613d11565b92915050565b60008151905061250b81613d11565b92915050565b60008151905061252081613d28565b92915050565b60008135905061253581613d3f565b92915050565b600082601f8301126125505761254f613719565b5b81356125608482602086016124a5565b91505092915050565b60008135905061257881613d56565b92915050565b60008135905061258d81613d6d565b92915050565b6000602082840312156125a9576125a8613728565b5b60006125b7848285016124e7565b91505092915050565b6000602082840312156125d6576125d5613728565b5b60006125e4848285016124fc565b91505092915050565b600080600080600060a0868803121561260957612608613728565b5b6000612617888289016124e7565b955050602086013567ffffffffffffffff81111561263857612637613723565b5b6126448882890161253b565b945050604061265588828901612526565b935050606061266688828901612526565b92505060806126778882890161257e565b9150509295509295909350565b6000806040838503121561269b5761269a613728565b5b60006126a9858286016124e7565b92505060206126ba85828601612569565b9150509250929050565b6000806000606084860312156126dd576126dc613728565b5b60006126eb868287016124e7565b93505060206126fc86828701612569565b925050604061270d86828701612569565b9150509250925092565b6000806000806080858703121561273157612730613728565b5b600061273f878288016124e7565b945050602061275087828801612569565b935050604061276187828801612569565b925050606085013567ffffffffffffffff81111561278257612781613723565b5b61278e8782880161253b565b91505092959194509250565b600080600080608085870312156127b4576127b3613728565b5b60006127c2878288016124e7565b94505060206127d387828801612569565b93505060406127e487828801612569565b92505060606127f587828801612569565b91505092959194509250565b60006020828403121561281757612816613728565b5b600061282584828501612511565b91505092915050565b60006020828403121561284457612843613728565b5b600061285284828501612569565b91505092915050565b61286481613532565b82525050565b61287b61287682613532565b613654565b82525050565b61288a81613544565b82525050565b61289981613550565b82525050565b6128b06128ab82613550565b613666565b82525050565b6128bf8161355a565b82525050565b60006128d0826133da565b6128da81856133e5565b93506128ea8185602086016135f0565b6128f38161372d565b840191505092915050565b6000612909826133da565b61291381856133f6565b93506129238185602086016135f0565b80840191505092915050565b612938816135bd565b82525050565b600061294b603383613401565b91506129568261374b565b604082019050919050565b600061296e600f83613401565b91506129798261379a565b602082019050919050565b6000612991602683613401565b915061299c826137c3565b604082019050919050565b60006129b4603683613401565b91506129bf82613812565b604082019050919050565b60006129d7601183613401565b91506129e282613861565b602082019050919050565b60006129fa603f83613401565b9150612a058261388a565b604082019050919050565b6000612a1d600283613412565b9150612a28826138d9565b600282019050919050565b6000612a40603583613401565b9150612a4b82613902565b604082019050919050565b6000612a63603d83613401565b9150612a6e82613951565b604082019050919050565b6000612a86602083613401565b9150612a91826139a0565b602082019050919050565b6000612aa9601083613401565b9150612ab4826139c9565b602082019050919050565b6000612acc603283613401565b9150612ad7826139f2565b604082019050919050565b6000612aef602283613401565b9150612afa82613a41565b604082019050919050565b6000612b12602d83613401565b9150612b1d82613a90565b604082019050919050565b6000612b35602783613401565b9150612b4082613adf565b604082019050919050565b6000612b58602083613401565b9150612b6382613b2e565b602082019050919050565b6000612b7b601383613401565b9150612b8682613b57565b602082019050919050565b6000612b9e602483613401565b9150612ba982613b80565b604082019050919050565b6000612bc1601183613401565b9150612bcc82613bcf565b602082019050919050565b6000612be4601a83613401565b9150612bef82613bf8565b602082019050919050565b6000612c07603083613401565b9150612c1282613c21565b604082019050919050565b6000612c2a601883613401565b9150612c3582613c70565b602082019050919050565b6000612c4d601d83613401565b9150612c5882613c99565b602082019050919050565b6000612c70602183613401565b9150612c7b82613cc2565b604082019050919050565b612c8f816135a6565b82525050565b612ca6612ca1826135a6565b613682565b82525050565b612cb5816135b0565b82525050565b6000612cc782846128fe565b915081905092915050565b6000612cde82856128fe565b9150612cea828461286a565b6014820191508190509392505050565b6000612d0582612a10565b9150612d11828561289f565b602082019150612d21828461289f565b6020820191508190509392505050565b6000612d3d8288612c95565b602082019150612d4d828761286a565b601482019150612d5d8286612c95565b602082019150612d6d828561286a565b601482019150612d7d8284612c95565b6020820191508190509695505050505050565b6000602082019050612da5600083018461285b565b92915050565b6000604082019050612dc0600083018561285b565b612dcd602083018461285b565b9392505050565b6000606082019050612de9600083018661285b565b612df6602083018561285b565b8181036040830152612e0881846128c5565b9050949350505050565b6000606082019050612e27600083018661285b565b612e34602083018561285b565b612e416040830184612c86565b949350505050565b6000602082019050612e5e6000830184612881565b92915050565b6000602082019050612e796000830184612890565b92915050565b6000604082019050612e946000830185612890565b612ea1602083018461285b565b9392505050565b600060a082019050612ebd6000830188612890565b612eca602083018761285b565b612ed7604083018661285b565b612ee46060830185612c86565b612ef16080830184612c86565b9695505050505050565b6000606082019050612f106000830186612890565b612f1d602083018561285b565b612f2a6040830184612c86565b949350505050565b6000608082019050612f476000830187612890565b612f54602083018661285b565b612f616040830185612c86565b612f6e6060830184612c86565b95945050505050565b6000608082019050612f8c6000830187612890565b612f996020830186612c86565b612fa6604083018561285b565b612fb36060830184612890565b95945050505050565b6000608082019050612fd16000830187612890565b612fde6020830186612cac565b612feb6040830185612890565b612ff86060830184612890565b95945050505050565b600060208201905061301660008301846128b6565b92915050565b6000602082019050818103600083015261303681846128c5565b905092915050565b6000602082019050613053600083018461292f565b92915050565b600060208201905081810360008301526130728161293e565b9050919050565b6000602082019050818103600083015261309281612961565b9050919050565b600060208201905081810360008301526130b281612984565b9050919050565b600060208201905081810360008301526130d2816129a7565b9050919050565b600060208201905081810360008301526130f2816129ca565b9050919050565b60006020820190508181036000830152613112816129ed565b9050919050565b6000602082019050818103600083015261313281612a33565b9050919050565b6000602082019050818103600083015261315281612a56565b9050919050565b6000602082019050818103600083015261317281612a79565b9050919050565b6000602082019050818103600083015261319281612a9c565b9050919050565b600060208201905081810360008301526131b281612abf565b9050919050565b600060208201905081810360008301526131d281612ae2565b9050919050565b600060208201905081810360008301526131f281612b05565b9050919050565b6000602082019050818103600083015261321281612b28565b9050919050565b6000602082019050818103600083015261323281612b4b565b9050919050565b6000602082019050818103600083015261325281612b6e565b9050919050565b6000602082019050818103600083015261327281612b91565b9050919050565b6000602082019050818103600083015261329281612bb4565b9050919050565b600060208201905081810360008301526132b281612bd7565b9050919050565b600060208201905081810360008301526132d281612bfa565b9050919050565b600060208201905081810360008301526132f281612c1d565b9050919050565b6000602082019050818103600083015261331281612c40565b9050919050565b6000602082019050818103600083015261333281612c63565b9050919050565b600060208201905061334e6000830184612c86565b92915050565b60006040820190506133696000830185612c86565b818103602083015261337b81846128c5565b90509392505050565b600061338e61339f565b905061339a8282613623565b919050565b6000604051905090565b600067ffffffffffffffff8211156133c4576133c36136ea565b5b6133cd8261372d565b9050602081019050919050565b600081519050919050565b600082825260208201905092915050565b600081905092915050565b600082825260208201905092915050565b600081905092915050565b6000613428826135a6565b9150613433836135a6565b9250827fffffffffffffffffffffffffffffffffffffffffffffffffffffffffffffffff038211156134685761346761368c565b5b828201905092915050565b600061347e826135a6565b9150613489836135a6565b925082613499576134986136bb565b5b828204905092915050565b60006134af826135a6565b91506134ba836135a6565b9250817fffffffffffffffffffffffffffffffffffffffffffffffffffffffffffffffff04831182151516156134f3576134f261368c565b5b828202905092915050565b6000613509826135a6565b9150613514836135a6565b9250828210156135275761352661368c565b5b828203905092915050565b600061353d82613586565b9050919050565b60008115159050919050565b6000819050919050565b60007fffffffff0000000000000000000000000000000000000000000000000000000082169050919050565b600073ffffffffffffffffffffffffffffffffffffffff82169050919050565b6000819050919050565b600060ff82169050919050565b60006135c8826135cf565b9050919050565b60006135da82613586565b9050919050565b82818337600083830152505050565b60005b8381101561360e5780820151818401526020810190506135f3565b8381111561361d576000848401525b50505050565b61362c8261372d565b810181811067ffffffffffffffff8211171561364b5761364a6136ea565b5b80604052505050565b600061365f82613670565b9050919050565b6000819050919050565b600061367b8261373e565b9050919050565b6000819050919050565b7f4e487b7100000000000000000000000000000000000000000000000000000000600052601160045260246000fd5b7f4e487b7100000000000000000000000000000000000000000000000000000000600052601260045260246000fd5b7f4e487b7100000000000000000000000000000000000000000000000000000000600052604160045260246000fd5b600080fd5b600080fd5b600080fd5b600080fd5b6000601f19601f8301169050919050565b60008160601b9050919050565b7f5472616e73666572696e67207468652063757420746f20746865204d61726b6560008201527f74706c616365206f776e6572206661696c656400000000000000000000000000602082015250565b7f496e76616c696420616464726573730000000000000000000000000000000000600082015250565b7f4f776e61626c653a206e6577206f776e657220697320746865207a65726f206160008201527f6464726573730000000000000000000000000000000000000000000000000000602082015250565b7f5075626c69636174696f6e2073686f756c64206265206d6f7265207468616e2060008201527f31206d696e75746520696e207468652066757475726500000000000000000000602082015250565b7f556e617574686f72697a65642075736572000000000000000000000000000000600082015250565b7f5472616e73666572696e6720746865207075626c69636174696f6e206665652060008201527f746f20746865204d61726b6574706c616365206f776e6572206661696c656400602082015250565b7f1901000000000000000000000000000000000000000000000000000000000000600082015250565b7f546865204e465420636f6e74726163742068617320616e20696e76616c69642060008201527f45524337323120696d706c656d656e746174696f6e0000000000000000000000602082015250565b7f4e4d5423657865637574654d6574615472616e73616374696f6e3a205349474e60008201527f45525f414e445f5349474e41545552455f444f5f4e4f545f4d41544348000000602082015250565b7f4f6e6c7920746865206f776e65722063616e20637265617465206f7264657273600082015250565b7f5061757361626c653a2070617573656400000000000000000000000000000000600082015250565b7f54686520636f6e7472616374206973206e6f7420617574686f72697a6564207460008201527f6f206d616e616765207468652061737365740000000000000000000000000000602082015250565b7f5468652061737365742066696e6765727072696e74206973206e6f742076616c60008201527f6964000000000000000000000000000000000000000000000000000000000000602082015250565b7f546865206f776e6572206375742073686f756c64206265206265747765656e2060008201527f3020616e64203939392c39393900000000000000000000000000000000000000602082015250565b7f4e4d5423657865637574654d6574615472616e73616374696f6e3a2043414c4c60008201527f5f4641494c454400000000000000000000000000000000000000000000000000602082015250565b7f4f776e61626c653a2063616c6c6572206973206e6f7420746865206f776e6572600082015250565b7f4173736574206e6f74207075626c697368656400000000000000000000000000600082015250565b7f546865204e465420416464726573732073686f756c64206265206120636f6e7460008201527f7261637400000000000000000000000000000000000000000000000000000000602082015250565b7f546865206f726465722065787069726564000000000000000000000000000000600082015250565b7f4e4d54237665726966793a20494e56414c49445f5349474e4552000000000000600082015250565b7f5472616e73666572696e67207468652073616c6520616d6f756e7420746f207460008201527f68652073656c6c6572206661696c656400000000000000000000000000000000602082015250565b7f546865207072696365206973206e6f7420636f72726563740000000000000000600082015250565b7f50726963652073686f756c6420626520626967676572207468616e2030000000600082015250565b7f5468652073656c6c6572206973206e6f206c6f6e67657220746865206f776e6560008201527f7200000000000000000000000000000000000000000000000000000000000000602082015250565b613d1a81613532565b8114613d2557600080fd5b50565b613d3181613544565b8114613d3c57600080fd5b50565b613d4881613550565b8114613d5357600080fd5b50565b613d5f816135a6565b8114613d6a57600080fd5b50565b613d76816135b0565b8114613d8157600080fd5b5056fe4d6574615472616e73616374696f6e2875696e74323536206e6f6e63652c616464726573732066726f6d2c62797465732066756e6374696f6e5369676e617475726529a26469706673582212201413f9148ab81160d0bdd549bcd7fc68cac728635f39889ae9c9e1436ab3483a64736f6c63430008060033454950373132446f6d61696e28737472696e67206e616d652c737472696e672076657273696f6e2c6164647265737320766572696679696e67436f6e74726163742c75696e7432353620636861696e494429",
  "immutableReferences": {},
  "source": "pragma solidity ^0.8.0;\n\nimport \"@openzeppelin/contracts/utils/Address.sol\";\n\nimport \"./MarketplaceStorage.sol\";\nimport \"./Ownable.sol\";\nimport \"./Pausable.sol\";\nimport \"./ContextMixin.sol\";\nimport \"./NativeMetaTransaction.sol\";\n\n\ncontract Marketplace is Ownable, Pausable, MarketplaceStorage, NativeMetaTransaction {\n  using Address for address;\n\n  /**\n    * @dev Initialize this contract. Acts as a constructor\n    * @param _acceptedToken - Address of the ERC20 accepted for this marketplace\n    * @param _ownerCutPerMillion - owner cut per million\n\n    */\n  constructor (address _acceptedToken,uint256 _ownerCutPerMillion,address _owner)\n    public{\n    // EIP712 init\n    _initializeEIP712('Moto Network Marketplace', '1');\n\n    // Fee init\n    setOwnerCutPerMillion(_ownerCutPerMillion);\n\n    require(_owner != address(0), \"Invalid owner\");\n    transferOwnership(_owner);\n\n    require(_acceptedToken.isContract(), \"The accepted token address must be a deployed contract\");\n    acceptedToken = ERC20Interface(_acceptedToken);\n  }\n\n  /**\n    * @dev Sets the publication fee that's charged to users to publish items\n    * @param _publicationFee - Fee amount in wei this contract charges to publish an item\n    */\n  function setPublicationFee(uint256 _publicationFee) external onlyOwner {\n    publicationFeeInWei = _publicationFee;\n    emit ChangedPublicationFee(publicationFeeInWei);\n  }\n\n  /**\n    * @dev Sets the share cut for the owner of the contract that's\n    *  charged to the seller on a successful sale\n    * @param _ownerCutPerMillion - Share amount, from 0 to 999,999\n    */\n  function setOwnerCutPerMillion(uint256 _ownerCutPerMillion) public onlyOwner {\n    require(_ownerCutPerMillion < 1000000, \"The owner cut should be between 0 and 999,999\");\n\n    ownerCutPerMillion = _ownerCutPerMillion;\n    emit ChangedOwnerCutPerMillion(ownerCutPerMillion);\n  }\n\n  /**\n    * @dev Creates a new order\n    * @param nftAddress - Non fungible registry address\n    * @param assetId - ID of the published NFT\n    * @param priceInWei - Price in Wei for the supported coin\n    * @param expiresAt - Duration of the order (in hours)\n    */\n  function createOrder(address nftAddress, uint256 assetId,uint256 priceInWei,\n    uint256 expiresAt) public whenNotPaused{\n    _createOrder(nftAddress,assetId,priceInWei,expiresAt );\n  }\n\n  /**\n    * @dev Cancel an already published order\n    *  can only be canceled by seller or the contract owner\n    * @param nftAddress - Address of the NFT registry\n    * @param assetId - ID of the published NFT\n    */\n  function cancelOrder(address nftAddress, uint256 assetId) public whenNotPaused {\n    _cancelOrder(nftAddress, assetId);\n  }\n\n  /**\n    * @dev Executes the sale for a published NFT and checks for the asset fingerprint\n    * @param nftAddress - Address of the NFT registry\n    * @param assetId - ID of the published NFT\n    * @param price - Order price\n    * @param fingerprint - Verification info for the asset\n    */\n  function safeExecuteOrder(\n    address nftAddress,\n    uint256 assetId,\n    uint256 price,\n    bytes memory fingerprint\n  )\n   public\n   whenNotPaused\n  {\n    _executeOrder(\n      nftAddress,\n      assetId,\n      price,\n      fingerprint\n    );\n  }\n\n  /**\n    * @dev Executes the sale for a published NFT\n    * @param nftAddress - Address of the NFT registry\n    * @param assetId - ID of the published NFT\n    * @param price - Order price\n    */\n  function executeOrder(\n    address nftAddress,\n    uint256 assetId,\n    uint256 price\n  )\n   public\n   whenNotPaused\n  {\n    _executeOrder(\n      nftAddress,\n      assetId,\n      price,\n      \"\"\n    );\n  }\n\n  /**\n    * @dev Creates a new order\n    * @param nftAddress - Non fungible registry address\n    * @param assetId - ID of the published NFT\n    * @param priceInWei - Price in Wei for the supported coin\n    * @param expiresAt - Duration of the order (in hours)\n    */\n  function _createOrder(address nftAddress,uint256 assetId,\n  uint256 priceInWei,uint256 expiresAt)internal{\n    _requireERC721(nftAddress);\n\n    address sender = _msgSender();\n\n    ERC721Interface nftRegistry = ERC721Interface(nftAddress);\n    address assetOwner = nftRegistry.ownerOf(assetId);\n\n    require(sender == assetOwner, \"Only the owner can create orders\");\n    require(nftRegistry.getApproved(assetId) == address(this) || nftRegistry.isApprovedForAll(assetOwner, address(this)),\n      \"The contract is not authorized to manage the asset\"\n    );\n    require(priceInWei > 0, \"Price should be bigger than 0\");\n    require(expiresAt > block.timestamp + 1 minutes, \"Publication should be more than 1 minute in the future\");\n\n    bytes32 orderId = keccak256(\n      abi.encodePacked(\n        block.timestamp,\n        assetOwner,\n        assetId,\n        nftAddress,\n        priceInWei\n      )\n    );\n\n    orderByAssetId[nftAddress][assetId] = Order({\n      id: orderId,\n      seller: assetOwner,\n      nftAddress: nftAddress,\n      price: priceInWei,\n      expiresAt: expiresAt\n    });\n\n    // Check if there's a publication fee and\n    // transfer the amount to marketplace owner\n    if (publicationFeeInWei > 0) {\n      require(\n        acceptedToken.transferFrom(sender, owner(), publicationFeeInWei),\n        \"Transfering the publication fee to the Marketplace owner failed\"\n      );\n    }\n\n    emit OrderCreated(\n      orderId,\n      assetId,\n      assetOwner,\n      nftAddress,\n      priceInWei,\n      expiresAt\n    );\n  }\n\n  /**\n    * @dev Cancel an already published order\n    *  can only be canceled by seller or the contract owner\n    * @param nftAddress - Address of the NFT registry\n    * @param assetId - ID of the published NFT\n    */\n  function _cancelOrder(address nftAddress, uint256 assetId) internal returns (Order memory) {\n    address sender = _msgSender();\n    Order memory order = orderByAssetId[nftAddress][assetId];\n\n    require(order.id != 0, \"Asset not published\");\n    require(order.seller == sender || sender == owner(), \"Unauthorized user\");\n\n    bytes32 orderId = order.id;\n    address orderSeller = order.seller;\n    address orderNftAddress = order.nftAddress;\n    delete orderByAssetId[nftAddress][assetId];\n\n    emit OrderCancelled(\n      orderId,\n      assetId,\n      orderSeller,\n      orderNftAddress\n    );\n\n    return order;\n  }\n\n  /**\n    * @dev Executes the sale for a published NFT\n    * @param nftAddress - Address of the NFT registry\n    * @param assetId - ID of the published NFT\n    * @param price - Order price\n    * @param fingerprint - Verification info for the asset\n    */\n  function _executeOrder(\n    address nftAddress,\n    uint256 assetId,\n    uint256 price,\n    bytes memory fingerprint\n  )\n   internal returns (Order memory)\n  {\n    _requireERC721(nftAddress);\n\n    address sender = _msgSender();\n\n    ERC721Verifiable nftRegistry = ERC721Verifiable(nftAddress);\n\n    if (nftRegistry.supportsInterface(InterfaceId_ValidateFingerprint)) {\n      require(\n        nftRegistry.verifyFingerprint(assetId, fingerprint),\n        \"The asset fingerprint is not valid\"\n      );\n    }\n    Order memory order = orderByAssetId[nftAddress][assetId];\n\n    require(order.id != 0, \"Asset not published\");\n\n    address seller = order.seller;\n\n    require(seller != address(0), \"Invalid address\");\n    require(seller != sender, \"Unauthorized user\");\n    require(order.price == price, \"The price is not correct\");\n    require(block.timestamp < order.expiresAt, \"The order expired\");\n    require(seller == nftRegistry.ownerOf(assetId), \"The seller is no longer the owner\");\n\n    uint saleShareAmount = 0;\n\n    bytes32 orderId = order.id;\n    delete orderByAssetId[nftAddress][assetId];\n\n    if (ownerCutPerMillion > 0) {\n      // Calculate sale share\n      saleShareAmount = (price * ownerCutPerMillion)/(1000000);\n\n      // Transfer share amount for marketplace Owner\n      require(\n        acceptedToken.transferFrom(sender, owner(), saleShareAmount),\n        \"Transfering the cut to the Marketplace owner failed\"\n      );\n    }\n\n    // Transfer sale amount to seller\n    require(\n      acceptedToken.transferFrom(sender, seller, price-saleShareAmount),\n      \"Transfering the sale amount to the seller failed\"\n    );\n\n    // Transfer asset owner\n    nftRegistry.safeTransferFrom(\n      seller,\n      sender,\n      assetId\n    );\n\n    emit OrderSuccessful(\n      orderId,\n      assetId,\n      seller,\n      nftAddress,\n      price,\n      sender\n    );\n\n    return order;\n  }\n\n  function _requireERC721(address nftAddress) internal view {\n    require(nftAddress.isContract(), \"The NFT Address should be a contract\");\n\n    ERC721Interface nftRegistry = ERC721Interface(nftAddress);\n    require(\n      nftRegistry.supportsInterface(ERC721_Interface),\n      \"The NFT contract has an invalid ERC721 implementation\"\n    );\n  }\n}\n",
  "sourcePath": "/Users/yvan/Dropbox/projects/moto/contracts/marketplace-contracts/contracts/Marketplace.sol",
  "compiler": {
    "name": "solc",
    "version": "0.8.6+commit.11564f7e.Emscripten.clang"
  },
  "schemaVersion": "3.4.1",
  "updatedAt": "2021-07-23T08:05:25.305Z",
  "networkType": "ethereum",
  "devdoc": {
    "kind": "dev",
    "methods": {
      "cancelOrder(address,uint256)": {
        "details": "Cancel an already published order  can only be canceled by seller or the contract owner",
        "params": {
          "assetId": "- ID of the published NFT",
          "nftAddress": "- Address of the NFT registry"
        }
      },
      "constructor": {
        "details": "Initialize this contract. Acts as a constructor",
        "params": {
          "_acceptedToken": "- Address of the ERC20 accepted for this marketplace",
          "_ownerCutPerMillion": "- owner cut per million"
        }
      },
      "createOrder(address,uint256,uint256,uint256)": {
        "details": "Creates a new order",
        "params": {
          "assetId": "- ID of the published NFT",
          "expiresAt": "- Duration of the order (in hours)",
          "nftAddress": "- Non fungible registry address",
          "priceInWei": "- Price in Wei for the supported coin"
        }
      },
      "executeOrder(address,uint256,uint256)": {
        "details": "Executes the sale for a published NFT",
        "params": {
          "assetId": "- ID of the published NFT",
          "nftAddress": "- Address of the NFT registry",
          "price": "- Order price"
        }
      },
      "owner()": {
        "details": "Returns the address of the current owner."
      },
      "paused()": {
        "details": "Returns true if the contract is paused, and false otherwise."
      },
      "renounceOwnership()": {
        "details": "Leaves the contract without owner. It will not be possible to call `onlyOwner` functions anymore. Can only be called by the current owner. NOTE: Renouncing ownership will leave the contract without an owner, thereby removing any functionality that is only available to the owner."
      },
      "safeExecuteOrder(address,uint256,uint256,bytes)": {
        "details": "Executes the sale for a published NFT and checks for the asset fingerprint",
        "params": {
          "assetId": "- ID of the published NFT",
          "fingerprint": "- Verification info for the asset",
          "nftAddress": "- Address of the NFT registry",
          "price": "- Order price"
        }
      },
      "setOwnerCutPerMillion(uint256)": {
        "details": "Sets the share cut for the owner of the contract that's  charged to the seller on a successful sale",
        "params": {
          "_ownerCutPerMillion": "- Share amount, from 0 to 999,999"
        }
      },
      "setPublicationFee(uint256)": {
        "details": "Sets the publication fee that's charged to users to publish items",
        "params": {
          "_publicationFee": "- Fee amount in wei this contract charges to publish an item"
        }
      },
      "transferOwnership(address)": {
        "details": "Transfers ownership of the contract to a new account (`newOwner`). Can only be called by the current owner."
      }
    },
    "version": 1
  },
  "userdoc": {
    "kind": "user",
    "methods": {},
    "version": 1
  }
}