{
  "contractName": "Subscriptions",
  "abi": [
    {
      "inputs": [
        {
          "internalType": "address",
          "name": "acceptedToken_",
          "type": "address"
        }
      ],
      "stateMutability": "nonpayable",
      "type": "constructor"
    },
    {
      "anonymous": false,
      "inputs": [
        {
          "indexed": true,
          "internalType": "address",
          "name": "previousOwner",
          "type": "address"
        },
        {
          "indexed": true,
          "internalType": "address",
          "name": "newOwner",
          "type": "address"
        }
      ],
      "name": "OwnershipTransferred",
      "type": "event"
    },
    {
      "inputs": [],
      "name": "DOMAIN_SEPERATOR",
      "outputs": [
        {
          "internalType": "bytes32",
          "name": "",
          "type": "bytes32"
        }
      ],
      "stateMutability": "view",
      "type": "function",
      "constant": true
    },
    {
      "inputs": [],
      "name": "getChainId",
      "outputs": [
        {
          "internalType": "uint256",
          "name": "",
          "type": "uint256"
        }
      ],
      "stateMutability": "view",
      "type": "function",
      "constant": true
    },
    {
      "inputs": [],
      "name": "owner",
      "outputs": [
        {
          "internalType": "address",
          "name": "",
          "type": "address"
        }
      ],
      "stateMutability": "view",
      "type": "function",
      "constant": true
    },
    {
      "inputs": [],
      "name": "renounceOwnership",
      "outputs": [],
      "stateMutability": "nonpayable",
      "type": "function"
    },
    {
      "inputs": [
        {
          "internalType": "address",
          "name": "newOwner",
          "type": "address"
        }
      ],
      "name": "transferOwnership",
      "outputs": [],
      "stateMutability": "nonpayable",
      "type": "function"
    },
    {
      "inputs": [
        {
          "internalType": "uint256",
          "name": "price",
          "type": "uint256"
        }
      ],
      "name": "createTier",
      "outputs": [
        {
          "internalType": "bytes32",
          "name": "",
          "type": "bytes32"
        }
      ],
      "stateMutability": "nonpayable",
      "type": "function"
    },
    {
      "inputs": [
        {
          "internalType": "bytes32",
          "name": "tierId",
          "type": "bytes32"
        },
        {
          "internalType": "uint256",
          "name": "price",
          "type": "uint256"
        }
      ],
      "name": "changePrice",
      "outputs": [
        {
          "internalType": "bytes32",
          "name": "",
          "type": "bytes32"
        }
      ],
      "stateMutability": "nonpayable",
      "type": "function"
    },
    {
      "inputs": [
        {
          "internalType": "bytes32",
          "name": "tierId",
          "type": "bytes32"
        }
      ],
      "name": "cancelTier",
      "outputs": [],
      "stateMutability": "nonpayable",
      "type": "function"
    },
    {
      "inputs": [
        {
          "internalType": "bytes32",
          "name": "tierId",
          "type": "bytes32"
        },
        {
          "internalType": "uint256",
          "name": "amount",
          "type": "uint256"
        }
      ],
      "name": "subscribe",
      "outputs": [],
      "stateMutability": "nonpayable",
      "type": "function"
    },
    {
      "inputs": [
        {
          "internalType": "bytes32",
          "name": "subscriptionId",
          "type": "bytes32"
        }
      ],
      "name": "getSubscription",
      "outputs": [
        {
          "components": [
            {
              "components": [
                {
                  "internalType": "bool",
                  "name": "valid",
                  "type": "bool"
                },
                {
                  "internalType": "bytes32",
                  "name": "tierId",
                  "type": "bytes32"
                },
                {
                  "internalType": "address",
                  "name": "creator",
                  "type": "address"
                },
                {
                  "internalType": "uint256",
                  "name": "price",
                  "type": "uint256"
                },
                {
                  "internalType": "uint256",
                  "name": "motoCommission",
                  "type": "uint256"
                }
              ],
              "internalType": "struct Subscriptions.Tier",
              "name": "tier",
              "type": "tuple"
            },
            {
              "internalType": "uint256",
              "name": "expirationDate",
              "type": "uint256"
            }
          ],
          "internalType": "struct Subscriptions.Subscription",
          "name": "",
          "type": "tuple"
        }
      ],
      "stateMutability": "view",
      "type": "function",
      "constant": true
    },
    {
      "inputs": [
        {
          "internalType": "bytes32",
          "name": "tierId",
          "type": "bytes32"
        }
      ],
      "name": "getTier",
      "outputs": [
        {
          "components": [
            {
              "internalType": "bool",
              "name": "valid",
              "type": "bool"
            },
            {
              "internalType": "bytes32",
              "name": "tierId",
              "type": "bytes32"
            },
            {
              "internalType": "address",
              "name": "creator",
              "type": "address"
            },
            {
              "internalType": "uint256",
              "name": "price",
              "type": "uint256"
            },
            {
              "internalType": "uint256",
              "name": "motoCommission",
              "type": "uint256"
            }
          ],
          "internalType": "struct Subscriptions.Tier",
          "name": "",
          "type": "tuple"
        }
      ],
      "stateMutability": "view",
      "type": "function",
      "constant": true
    },
    {
      "inputs": [
        {
          "internalType": "uint256",
          "name": "amount",
          "type": "uint256"
        }
      ],
      "name": "changeCommission",
      "outputs": [],
      "stateMutability": "nonpayable",
      "type": "function"
    }
  ],
  "bytecode": "0x60a060405260026004553480156200001657600080fd5b5060405162001d2438038062001d2483398181016040528101906200003c9190620002cb565b60006200004e6200021460201b60201c565b9050806000806101000a81548173ffffffffffffffffffffffffffffffffffffffff021916908373ffffffffffffffffffffffffffffffffffffffff1602179055508073ffffffffffffffffffffffffffffffffffffffff16600073ffffffffffffffffffffffffffffffffffffffff167f8be0079c531659141344cd1fd0a4f28419497f9722a3daafe3b4186f6b6457e060405160405180910390a350620001188173ffffffffffffffffffffffffffffffffffffffff166200021c60201b62000d9d1760201c565b6200015a576040517f08c379a00000000000000000000000000000000000000000000000000000000081526004016200015190620003b4565b60405180910390fd5b620001d66040518060400160405280601181526020017f4d6f746f537562736372697074696f6e730000000000000000000000000000008152506040518060400160405280600181526020017f31000000000000000000000000000000000000000000000000000000000000008152506200022f60201b60201c565b8073ffffffffffffffffffffffffffffffffffffffff1660808173ffffffffffffffffffffffffffffffffffffffff1660601b815250505062000477565b600033905090565b600080823b905060008111915050919050565b60405180608001604052806052815260200162001cd26052913980519060200120828051906020012082805190602001203062000271620002a760201b60201c565b6040516020016200028795949392919062000357565b604051602081830303815290604052805190602001206001819055505050565b6000804690508091505090565b600081519050620002c5816200045d565b92915050565b600060208284031215620002e457620002e36200042f565b5b6000620002f484828501620002b4565b91505092915050565b6200030881620003e7565b82525050565b6200031981620003fb565b82525050565b60006200032e600f83620003d6565b91506200033b8262000434565b602082019050919050565b620003518162000425565b82525050565b600060a0820190506200036e60008301886200030e565b6200037d60208301876200030e565b6200038c60408301866200030e565b6200039b6060830185620002fd565b620003aa608083018462000346565b9695505050505050565b60006020820190508181036000830152620003cf816200031f565b9050919050565b600082825260208201905092915050565b6000620003f48262000405565b9050919050565b6000819050919050565b600073ffffffffffffffffffffffffffffffffffffffff82169050919050565b6000819050919050565b600080fd5b7f6e6f742076616c696420546f6b656e0000000000000000000000000000000000600082015250565b6200046881620003e7565b81146200047457600080fd5b50565b60805160601c6118356200049d60003960008181610542015261061d01526118356000f3fe608060405234801561001057600080fd5b50600436106100b45760003560e01c8063c0a0100b11610071578063c0a0100b14610169578063dabd2eb214610185578063dc9d1a9e146101b5578063df922f3a146101e5578063f2fde38b14610201578063fa5124601461021d576100b4565b80630778f0ac146100b95780630df63210146100d55780631f32768e146100f35780633408e47014610123578063715018a6146101415780638da5cb5b1461014b575b600080fd5b6100d360048036038101906100ce919061109e565b61024d565b005b6100dd6106e5565b6040516100ea91906113d7565b60405180910390f35b61010d60048036038101906101089190611071565b6106eb565b60405161011a9190611472565b60405180910390f35b61012b6107c5565b60405161013891906114a8565b60405180910390f35b6101496107d2565b005b61015361090c565b6040516101609190611385565b60405180910390f35b610183600480360381019061017e9190611071565b610935565b005b61019f600480360381019061019a919061109e565b6109e2565b6040516101ac91906113d7565b60405180910390f35b6101cf60048036038101906101ca9190611071565b610ad8565b6040516101dc919061148d565b60405180910390f35b6101ff60048036038101906101fa91906110de565b610b94565b005b61021b60048036038101906102169190611017565b610be2565b005b610237600480360381019061023291906110de565b610d8b565b60405161024491906113d7565b60405180910390f35b6000600260008481526020019081526020016000209050600073ffffffffffffffffffffffffffffffffffffffff168160020160009054906101000a900473ffffffffffffffffffffffffffffffffffffffff1673ffffffffffffffffffffffffffffffffffffffff1614156102c257600080fd5b80600301548210156102d357600080fd5b60006064826004015460646102e891906114d4565b6102f2919061152a565b905060008184610302919061152a565b90506000818561031291906115b5565b90506000846003015483610326919061152a565b9050600062278d0082610339919061155b565b4261034491906114d4565b905060008660020160009054906101000a900473ffffffffffffffffffffffffffffffffffffffff16610375610db0565b60405160200161038692919061132d565b60405160208183030381529060405280519060200120905060006103a9826106eb565b905042816020015111156103d5578281602001516103c791906114d4565b816020018181525050610540565b6040518060400160405280896040518060a00160405290816000820160009054906101000a900460ff16151515158152602001600182015481526020016002820160009054906101000a900473ffffffffffffffffffffffffffffffffffffffff1673ffffffffffffffffffffffffffffffffffffffff1673ffffffffffffffffffffffffffffffffffffffff168152602001600382015481526020016004820154815250508152602001844261048c91906114d4565b8152506003600084815260200190815260200160002060008201518160000160008201518160000160006101000a81548160ff0219169083151502179055506020820151816001015560408201518160020160006101000a81548173ffffffffffffffffffffffffffffffffffffffff021916908373ffffffffffffffffffffffffffffffffffffffff16021790555060608201518160030155608082015181600401555050602082015181600501559050505b7f000000000000000000000000000000000000000000000000000000000000000073ffffffffffffffffffffffffffffffffffffffff166323b872dd610584610db0565b8a60020160009054906101000a900473ffffffffffffffffffffffffffffffffffffffff16896040518463ffffffff1660e01b81526004016105c8939291906113a0565b602060405180830381600087803b1580156105e257600080fd5b505af11580156105f6573d6000803e3d6000fd5b505050506040513d601f19601f8201168201806040525081019061061a9190611044565b507f000000000000000000000000000000000000000000000000000000000000000073ffffffffffffffffffffffffffffffffffffffff166323b872dd61065f610db0565b61066761090c565b886040518463ffffffff1660e01b8152600401610686939291906113a0565b602060405180830381600087803b1580156106a057600080fd5b505af11580156106b4573d6000803e3d6000fd5b505050506040513d601f19601f820116820180604052508101906106d89190611044565b5050505050505050505050565b60015481565b6106f3610f59565b60036000838152602001908152602001600020604051806040016040529081600082016040518060a00160405290816000820160009054906101000a900460ff16151515158152602001600182015481526020016002820160009054906101000a900473ffffffffffffffffffffffffffffffffffffffff1673ffffffffffffffffffffffffffffffffffffffff1673ffffffffffffffffffffffffffffffffffffffff1681526020016003820154815260200160048201548152505081526020016005820154815250509050919050565b6000804690508091505090565b6107da610db0565b73ffffffffffffffffffffffffffffffffffffffff166107f861090c565b73ffffffffffffffffffffffffffffffffffffffff161461084e576040517f08c379a000000000000000000000000000000000000000000000000000000000815260040161084590611432565b60405180910390fd5b600073ffffffffffffffffffffffffffffffffffffffff1660008054906101000a900473ffffffffffffffffffffffffffffffffffffffff1673ffffffffffffffffffffffffffffffffffffffff167f8be0079c531659141344cd1fd0a4f28419497f9722a3daafe3b4186f6b6457e060405160405180910390a360008060006101000a81548173ffffffffffffffffffffffffffffffffffffffff021916908373ffffffffffffffffffffffffffffffffffffffff160217905550565b60008060009054906101000a900473ffffffffffffffffffffffffffffffffffffffff16905090565b60006002600083815260200190815260200160002090508060020160009054906101000a900473ffffffffffffffffffffffffffffffffffffffff1673ffffffffffffffffffffffffffffffffffffffff1661098f610db0565b73ffffffffffffffffffffffffffffffffffffffff16146109af57600080fd5b60006002600084815260200190815260200160002060000160006101000a81548160ff0219169083151502179055505050565b6000806002600085815260200190815260200160002090508060020160009054906101000a900473ffffffffffffffffffffffffffffffffffffffff1673ffffffffffffffffffffffffffffffffffffffff16610a3d610db0565b73ffffffffffffffffffffffffffffffffffffffff1614610a5d57600080fd5b60026000858152602001908152602001600020600080820160006101000a81549060ff021916905560018201600090556002820160006101000a81549073ffffffffffffffffffffffffffffffffffffffff0219169055600382016000905560048201600090555050610acf83610db8565b91505092915050565b610ae0610f79565b600260008381526020019081526020016000206040518060a00160405290816000820160009054906101000a900460ff16151515158152602001600182015481526020016002820160009054906101000a900473ffffffffffffffffffffffffffffffffffffffff1673ffffffffffffffffffffffffffffffffffffffff1673ffffffffffffffffffffffffffffffffffffffff168152602001600382015481526020016004820154815250509050919050565b6005811115610bd8576040517f08c379a0000000000000000000000000000000000000000000000000000000008152600401610bcf90611452565b60405180910390fd5b8060048190555050565b610bea610db0565b73ffffffffffffffffffffffffffffffffffffffff16610c0861090c565b73ffffffffffffffffffffffffffffffffffffffff1614610c5e576040517f08c379a0000000000000000000000000000000000000000000000000000000008152600401610c5590611432565b60405180910390fd5b600073ffffffffffffffffffffffffffffffffffffffff168173ffffffffffffffffffffffffffffffffffffffff161415610cce576040517f08c379a0000000000000000000000000000000000000000000000000000000008152600401610cc5906113f2565b60405180910390fd5b8073ffffffffffffffffffffffffffffffffffffffff1660008054906101000a900473ffffffffffffffffffffffffffffffffffffffff1673ffffffffffffffffffffffffffffffffffffffff167f8be0079c531659141344cd1fd0a4f28419497f9722a3daafe3b4186f6b6457e060405160405180910390a3806000806101000a81548173ffffffffffffffffffffffffffffffffffffffff021916908373ffffffffffffffffffffffffffffffffffffffff16021790555050565b6000610d9682610db8565b9050919050565b600080823b905060008111915050919050565b600033905090565b6000808211610dfc576040517f08c379a0000000000000000000000000000000000000000000000000000000008152600401610df390611412565b60405180910390fd5b6000610e0783610f36565b90506000610e13610db0565b84604051602001610e25929190611359565b6040516020818303038152906040528051906020012090506040518060a00160405280600115158152602001828152602001610e5f610db0565b73ffffffffffffffffffffffffffffffffffffffff1681526020018386610e8691906114d4565b81526020016004548152506002600083815260200190815260200160002060008201518160000160006101000a81548160ff0219169083151502179055506020820151816001015560408201518160020160006101000a81548173ffffffffffffffffffffffffffffffffffffffff021916908373ffffffffffffffffffffffffffffffffffffffff16021790555060608201518160030155608082015181600401559050508092505050919050565b6000606460045483610f48919061155b565b610f52919061152a565b9050919050565b6040518060400160405280610f6c610f79565b8152602001600081525090565b6040518060a0016040528060001515815260200160008019168152602001600073ffffffffffffffffffffffffffffffffffffffff16815260200160008152602001600081525090565b600081359050610fd2816117a3565b92915050565b600081519050610fe7816117ba565b92915050565b600081359050610ffc816117d1565b92915050565b600081359050611011816117e8565b92915050565b60006020828403121561102d5761102c6116c7565b5b600061103b84828501610fc3565b91505092915050565b60006020828403121561105a576110596116c7565b5b600061106884828501610fd8565b91505092915050565b600060208284031215611087576110866116c7565b5b600061109584828501610fed565b91505092915050565b600080604083850312156110b5576110b46116c7565b5b60006110c385828601610fed565b92505060206110d485828601611002565b9150509250929050565b6000602082840312156110f4576110f36116c7565b5b600061110284828501611002565b91505092915050565b611114816115e9565b82525050565b611123816115e9565b82525050565b61113a611135826115e9565b61163b565b82525050565b611149816115fb565b82525050565b61115881611607565b82525050565b61116781611607565b82525050565b600061117a6026836114c3565b9150611185826116d9565b604082019050919050565b600061119d600d836114c3565b91506111a882611728565b602082019050919050565b60006111c06020836114c3565b91506111cb82611751565b602082019050919050565b60006111e3601f836114c3565b91506111ee8261177a565b602082019050919050565b60c08201600082015161120f6000850182611228565b50602082015161122260a08501826112f8565b50505050565b60a08201600082015161123e6000850182611140565b506020820151611251602085018261114f565b506040820151611264604085018261110b565b50606082015161127760608501826112f8565b50608082015161128a60808501826112f8565b50505050565b60a0820160008201516112a66000850182611140565b5060208201516112b9602085018261114f565b5060408201516112cc604085018261110b565b5060608201516112df60608501826112f8565b5060808201516112f260808501826112f8565b50505050565b61130181611631565b82525050565b61131081611631565b82525050565b61132761132282611631565b61165f565b82525050565b60006113398285611129565b6014820191506113498284611129565b6014820191508190509392505050565b60006113658285611129565b6014820191506113758284611316565b6020820191508190509392505050565b600060208201905061139a600083018461111a565b92915050565b60006060820190506113b5600083018661111a565b6113c2602083018561111a565b6113cf6040830184611307565b949350505050565b60006020820190506113ec600083018461115e565b92915050565b6000602082019050818103600083015261140b8161116d565b9050919050565b6000602082019050818103600083015261142b81611190565b9050919050565b6000602082019050818103600083015261144b816111b3565b9050919050565b6000602082019050818103600083015261146b816111d6565b9050919050565b600060c08201905061148760008301846111f9565b92915050565b600060a0820190506114a26000830184611290565b92915050565b60006020820190506114bd6000830184611307565b92915050565b600082825260208201905092915050565b60006114df82611631565b91506114ea83611631565b9250827fffffffffffffffffffffffffffffffffffffffffffffffffffffffffffffffff0382111561151f5761151e611669565b5b828201905092915050565b600061153582611631565b915061154083611631565b9250826115505761154f611698565b5b828204905092915050565b600061156682611631565b915061157183611631565b9250817fffffffffffffffffffffffffffffffffffffffffffffffffffffffffffffffff04831182151516156115aa576115a9611669565b5b828202905092915050565b60006115c082611631565b91506115cb83611631565b9250828210156115de576115dd611669565b5b828203905092915050565b60006115f482611611565b9050919050565b60008115159050919050565b6000819050919050565b600073ffffffffffffffffffffffffffffffffffffffff82169050919050565b6000819050919050565b60006116468261164d565b9050919050565b6000611658826116cc565b9050919050565b6000819050919050565b7f4e487b7100000000000000000000000000000000000000000000000000000000600052601160045260246000fd5b7f4e487b7100000000000000000000000000000000000000000000000000000000600052601260045260246000fd5b600080fd5b60008160601b9050919050565b7f4f776e61626c653a206e6577206f776e657220697320746865207a65726f206160008201527f6464726573730000000000000000000000000000000000000000000000000000602082015250565b7f707269636520746f6f206c6f7700000000000000000000000000000000000000600082015250565b7f4f776e61626c653a2063616c6c6572206973206e6f7420746865206f776e6572600082015250565b7f666565206d757374206265206c657373207468616e20352070657263656e7400600082015250565b6117ac816115e9565b81146117b757600080fd5b50565b6117c3816115fb565b81146117ce57600080fd5b50565b6117da81611607565b81146117e557600080fd5b50565b6117f181611631565b81146117fc57600080fd5b5056fea2646970667358221220d21a36231c061cfdd2eff2314e2bb8d5a9696b7c0e93cd709db0c64d3d2832ad64736f6c63430008070033454950373132446f6d61696e28737472696e67206e616d652c737472696e672076657273696f6e2c6164647265737320766572696679696e67436f6e74726163742c75696e7432353620636861696e494429",
  "immutableReferences": {
    "573": [
      {
        "length": 32,
        "start": 1346
      },
      {
        "length": 32,
        "start": 1565
      }
    ]
  },
  "source": "pragma solidity ^0.8.0;\n\nimport \"./Ownable.sol\";\nimport \"./EIP712Base.sol\";\nimport \"@openzeppelin/contracts/utils/Address.sol\";\n\ninterface ERC20Interface {\n  function transferFrom(address from, address to, uint tokens) external returns (bool success);\n}\n\ncontract Subscriptions is Ownable, EIP712Base{\n  using Address for address;\n\n  struct Tier {\n    bool valid;\n    bytes32 tierId;\n    address creator;\n    uint256 price;\n    uint256 motoCommission;\n  }\n\n  struct Subscription{\n    Tier tier;\n    uint256 expirationDate;\n  }\n\n  //keccak(creator, price);\n  mapping(bytes32 => Tier) private _tiers;\n  //keccak(creator,subscriber)\n  mapping(bytes32 => Subscription) private _subscriptions;\n\n  uint256 private _commission = 2;//in percent\n  ERC20Interface immutable _acceptedToken;\n  constructor(address acceptedToken_){\n    require(acceptedToken_.isContract(), \"not valid Token\");\n    _initializeEIP712(\"MotoSubscriptions\",\"1\");\n    _acceptedToken = ERC20Interface(acceptedToken_);\n  }\n\n  function createTier(uint256 price) public returns (bytes32){\n    return _updateTier(price);\n  }\n\n  function changePrice(bytes32 tierId, uint256 price) public returns (bytes32){\n    Tier storage tier = _tiers[tierId];\n    require(_msgSender() == tier.creator);\n    delete(_tiers[tierId]);\n    return _updateTier(price);\n  }\n\n  function _updateTier(uint256 price) private returns (bytes32){\n    require(price > 0,\"price too low\");\n    uint256 motoFee = _calculateFee(price);\n    bytes32 tierId = keccak256(abi.encodePacked(_msgSender(),price));\n    _tiers[tierId] = Tier(true, tierId, _msgSender(),price+motoFee, _commission);\n    return tierId;\n  }\n\n  function cancelTier(bytes32 tierId) external{\n    Tier storage tier = _tiers[tierId];\n    require(_msgSender() == tier.creator);\n    _tiers[tierId].valid = false;\n  }\n  function subscribe(bytes32 tierId, uint256 amount) public{\n    Tier storage tier = _tiers[tierId];\n    require(tier.creator != address(0));\n    require(amount >= tier.price);\n    uint256 den = (100 + tier.motoCommission)/100;\n    uint256 creatorAmount = amount / den;\n    uint256 motoAmount = amount - creatorAmount;\n    uint256 monthsBought = creatorAmount/tier.price;\n    uint256 addedTime = block.timestamp + monthsBought * 30 days ;\n    bytes32 subscriptionId = keccak256(abi.encodePacked(tier.creator,_msgSender()));\n    Subscription memory subscription = getSubscription(subscriptionId);\n    if(subscription.expirationDate > block.timestamp){\n      subscription.expirationDate = subscription.expirationDate + addedTime;\n    }\n    else{\n      _subscriptions[subscriptionId] = Subscription(tier, block.timestamp + addedTime);\n\n    }\n    _acceptedToken.transferFrom(_msgSender(),tier.creator,creatorAmount);\n    _acceptedToken.transferFrom(_msgSender(),owner(), motoAmount);\n  } \n\n  function getSubscription(bytes32 subscriptionId) public view returns (Subscription memory){\n    return _subscriptions[subscriptionId];\n  }\n\n  function getTier(bytes32 tierId) public view returns (Tier memory){\n    return _tiers[tierId];\n  }\n\n  function _calculateFee(uint256 amount) private view returns (uint256){\n    return (amount * _commission) / 100;\n  }\n\n  function changeCommission(uint256 amount) external {\n    require(amount <= 5, \"fee must be less than 5 percent\");\n    _commission = amount;\n  }\n}",
  "sourcePath": "/Users/yvan/Dropbox/projects/moto/contracts/marketplace-contracts/contracts/Subscriptions.sol",
  "compiler": {
    "name": "solc",
    "version": "0.8.7+commit.e28d00a7.Emscripten.clang"
  },
  "schemaVersion": "3.4.2",
  "updatedAt": "2021-09-02T01:50:30.805Z",
  "networkType": "ethereum",
  "devdoc": {
    "kind": "dev",
    "methods": {
      "owner()": {
        "details": "Returns the address of the current owner."
      },
      "renounceOwnership()": {
        "details": "Leaves the contract without owner. It will not be possible to call `onlyOwner` functions anymore. Can only be called by the current owner. NOTE: Renouncing ownership will leave the contract without an owner, thereby removing any functionality that is only available to the owner."
      },
      "transferOwnership(address)": {
        "details": "Transfers ownership of the contract to a new account (`newOwner`). Can only be called by the current owner."
      }
    },
    "version": 1
  },
  "userdoc": {
    "kind": "user",
    "methods": {},
    "version": 1
  }
}