{
  "contractName": "BEPMotoNFT",
  "abi": [
    {
      "inputs": [
        {
          "internalType": "string",
          "name": "_name",
          "type": "string"
        },
        {
          "internalType": "string",
          "name": "_symbol",
          "type": "string"
        }
      ],
      "stateMutability": "nonpayable",
      "type": "constructor"
    },
    {
      "anonymous": false,
      "inputs": [
        {
          "indexed": true,
          "internalType": "address",
          "name": "newAdmin",
          "type": "address"
        }
      ],
      "name": "AdminAdded",
      "type": "event"
    },
    {
      "anonymous": false,
      "inputs": [
        {
          "indexed": true,
          "internalType": "address",
          "name": "oldAdmin",
          "type": "address"
        }
      ],
      "name": "AdminRemoved",
      "type": "event"
    },
    {
      "anonymous": false,
      "inputs": [
        {
          "indexed": true,
          "internalType": "address",
          "name": "owner",
          "type": "address"
        },
        {
          "indexed": true,
          "internalType": "address",
          "name": "approved",
          "type": "address"
        },
        {
          "indexed": true,
          "internalType": "uint256",
          "name": "tokenId",
          "type": "uint256"
        }
      ],
      "name": "Approval",
      "type": "event"
    },
    {
      "anonymous": false,
      "inputs": [
        {
          "indexed": true,
          "internalType": "address",
          "name": "owner",
          "type": "address"
        },
        {
          "indexed": true,
          "internalType": "address",
          "name": "operator",
          "type": "address"
        },
        {
          "indexed": false,
          "internalType": "bool",
          "name": "approved",
          "type": "bool"
        }
      ],
      "name": "ApprovalForAll",
      "type": "event"
    },
    {
      "anonymous": false,
      "inputs": [
        {
          "indexed": false,
          "internalType": "address",
          "name": "userAddress",
          "type": "address"
        },
        {
          "indexed": false,
          "internalType": "address",
          "name": "relayerAddress",
          "type": "address"
        },
        {
          "indexed": false,
          "internalType": "bytes",
          "name": "functionSignature",
          "type": "bytes"
        }
      ],
      "name": "MetaTransactionExecuted",
      "type": "event"
    },
    {
      "anonymous": false,
      "inputs": [
        {
          "indexed": true,
          "internalType": "address",
          "name": "newMinter",
          "type": "address"
        }
      ],
      "name": "MinterAdded",
      "type": "event"
    },
    {
      "anonymous": false,
      "inputs": [
        {
          "indexed": true,
          "internalType": "address",
          "name": "oldMinter",
          "type": "address"
        }
      ],
      "name": "MinterRemoved",
      "type": "event"
    },
    {
      "anonymous": false,
      "inputs": [
        {
          "indexed": true,
          "internalType": "address",
          "name": "burner",
          "type": "address"
        },
        {
          "indexed": true,
          "internalType": "uint256",
          "name": "tokenID",
          "type": "uint256"
        }
      ],
      "name": "NFTBurned",
      "type": "event"
    },
    {
      "anonymous": false,
      "inputs": [
        {
          "indexed": true,
          "internalType": "address",
          "name": "owner",
          "type": "address"
        },
        {
          "indexed": true,
          "internalType": "uint256",
          "name": "tokenID",
          "type": "uint256"
        }
      ],
      "name": "NFTMinted",
      "type": "event"
    },
    {
      "anonymous": false,
      "inputs": [
        {
          "indexed": true,
          "internalType": "uint256",
          "name": "feeAmount",
          "type": "uint256"
        },
        {
          "indexed": false,
          "internalType": "address",
          "name": "adjuster",
          "type": "address"
        }
      ],
      "name": "NewFeeSet",
      "type": "event"
    },
    {
      "anonymous": false,
      "inputs": [
        {
          "indexed": true,
          "internalType": "address",
          "name": "previousOwner",
          "type": "address"
        },
        {
          "indexed": true,
          "internalType": "address",
          "name": "newOwner",
          "type": "address"
        }
      ],
      "name": "OwnershipTransferred",
      "type": "event"
    },
    {
      "anonymous": false,
      "inputs": [
        {
          "indexed": true,
          "internalType": "address",
          "name": "from",
          "type": "address"
        },
        {
          "indexed": true,
          "internalType": "address",
          "name": "to",
          "type": "address"
        },
        {
          "indexed": true,
          "internalType": "uint256",
          "name": "tokenId",
          "type": "uint256"
        }
      ],
      "name": "Transfer",
      "type": "event"
    },
    {
      "inputs": [],
      "name": "DOMAIN_SEPERATOR",
      "outputs": [
        {
          "internalType": "bytes32",
          "name": "",
          "type": "bytes32"
        }
      ],
      "stateMutability": "view",
      "type": "function",
      "constant": true
    },
    {
      "inputs": [
        {
          "internalType": "address",
          "name": "to",
          "type": "address"
        },
        {
          "internalType": "uint256",
          "name": "tokenId",
          "type": "uint256"
        }
      ],
      "name": "approve",
      "outputs": [],
      "stateMutability": "nonpayable",
      "type": "function"
    },
    {
      "inputs": [
        {
          "internalType": "address",
          "name": "owner",
          "type": "address"
        }
      ],
      "name": "balanceOf",
      "outputs": [
        {
          "internalType": "uint256",
          "name": "",
          "type": "uint256"
        }
      ],
      "stateMutability": "view",
      "type": "function",
      "constant": true
    },
    {
      "inputs": [
        {
          "internalType": "address",
          "name": "userAddress",
          "type": "address"
        },
        {
          "internalType": "bytes",
          "name": "functionSignature",
          "type": "bytes"
        },
        {
          "internalType": "bytes32",
          "name": "sigR",
          "type": "bytes32"
        },
        {
          "internalType": "bytes32",
          "name": "sigS",
          "type": "bytes32"
        },
        {
          "internalType": "uint8",
          "name": "sigV",
          "type": "uint8"
        }
      ],
      "name": "executeMetaTransaction",
      "outputs": [
        {
          "internalType": "bytes",
          "name": "",
          "type": "bytes"
        }
      ],
      "stateMutability": "payable",
      "type": "function",
      "payable": true
    },
    {
      "inputs": [
        {
          "internalType": "uint256",
          "name": "tokenId",
          "type": "uint256"
        }
      ],
      "name": "getApproved",
      "outputs": [
        {
          "internalType": "address",
          "name": "",
          "type": "address"
        }
      ],
      "stateMutability": "view",
      "type": "function",
      "constant": true
    },
    {
      "inputs": [],
      "name": "getnetwork",
      "outputs": [
        {
          "internalType": "uint256",
          "name": "",
          "type": "uint256"
        }
      ],
      "stateMutability": "view",
      "type": "function",
      "constant": true
    },
    {
      "inputs": [
        {
          "internalType": "address",
          "name": "user",
          "type": "address"
        }
      ],
      "name": "getNonce",
      "outputs": [
        {
          "internalType": "uint256",
          "name": "nonce",
          "type": "uint256"
        }
      ],
      "stateMutability": "view",
      "type": "function",
      "constant": true
    },
    {
      "inputs": [
        {
          "internalType": "address",
          "name": "owner",
          "type": "address"
        },
        {
          "internalType": "address",
          "name": "operator",
          "type": "address"
        }
      ],
      "name": "isApprovedForAll",
      "outputs": [
        {
          "internalType": "bool",
          "name": "",
          "type": "bool"
        }
      ],
      "stateMutability": "view",
      "type": "function",
      "constant": true
    },
    {
      "inputs": [],
      "name": "name",
      "outputs": [
        {
          "internalType": "string",
          "name": "",
          "type": "string"
        }
      ],
      "stateMutability": "view",
      "type": "function",
      "constant": true
    },
    {
      "inputs": [],
      "name": "owner",
      "outputs": [
        {
          "internalType": "address",
          "name": "",
          "type": "address"
        }
      ],
      "stateMutability": "view",
      "type": "function",
      "constant": true
    },
    {
      "inputs": [
        {
          "internalType": "uint256",
          "name": "tokenId",
          "type": "uint256"
        }
      ],
      "name": "ownerOf",
      "outputs": [
        {
          "internalType": "address",
          "name": "",
          "type": "address"
        }
      ],
      "stateMutability": "view",
      "type": "function",
      "constant": true
    },
    {
      "inputs": [],
      "name": "renounceOwnership",
      "outputs": [],
      "stateMutability": "nonpayable",
      "type": "function"
    },
    {
      "inputs": [
        {
          "internalType": "address",
          "name": "from",
          "type": "address"
        },
        {
          "internalType": "address",
          "name": "to",
          "type": "address"
        },
        {
          "internalType": "uint256",
          "name": "tokenId",
          "type": "uint256"
        }
      ],
      "name": "safeTransferFrom",
      "outputs": [],
      "stateMutability": "nonpayable",
      "type": "function"
    },
    {
      "inputs": [
        {
          "internalType": "address",
          "name": "from",
          "type": "address"
        },
        {
          "internalType": "address",
          "name": "to",
          "type": "address"
        },
        {
          "internalType": "uint256",
          "name": "tokenId",
          "type": "uint256"
        },
        {
          "internalType": "bytes",
          "name": "_data",
          "type": "bytes"
        }
      ],
      "name": "safeTransferFrom",
      "outputs": [],
      "stateMutability": "nonpayable",
      "type": "function"
    },
    {
      "inputs": [
        {
          "internalType": "address",
          "name": "operator",
          "type": "address"
        },
        {
          "internalType": "bool",
          "name": "approved",
          "type": "bool"
        }
      ],
      "name": "setApprovalForAll",
      "outputs": [],
      "stateMutability": "nonpayable",
      "type": "function"
    },
    {
      "inputs": [
        {
          "internalType": "bytes4",
          "name": "interfaceId",
          "type": "bytes4"
        }
      ],
      "name": "supportsInterface",
      "outputs": [
        {
          "internalType": "bool",
          "name": "",
          "type": "bool"
        }
      ],
      "stateMutability": "view",
      "type": "function",
      "constant": true
    },
    {
      "inputs": [],
      "name": "symbol",
      "outputs": [
        {
          "internalType": "string",
          "name": "",
          "type": "string"
        }
      ],
      "stateMutability": "view",
      "type": "function",
      "constant": true
    },
    {
      "inputs": [
        {
          "internalType": "uint256",
          "name": "tokenId",
          "type": "uint256"
        }
      ],
      "name": "tokenURI",
      "outputs": [
        {
          "internalType": "string",
          "name": "",
          "type": "string"
        }
      ],
      "stateMutability": "view",
      "type": "function",
      "constant": true
    },
    {
      "inputs": [
        {
          "internalType": "address",
          "name": "from",
          "type": "address"
        },
        {
          "internalType": "address",
          "name": "to",
          "type": "address"
        },
        {
          "internalType": "uint256",
          "name": "tokenId",
          "type": "uint256"
        }
      ],
      "name": "transferFrom",
      "outputs": [],
      "stateMutability": "nonpayable",
      "type": "function"
    },
    {
      "inputs": [
        {
          "internalType": "address",
          "name": "newOwner",
          "type": "address"
        }
      ],
      "name": "transferOwnership",
      "outputs": [],
      "stateMutability": "nonpayable",
      "type": "function"
    },
    {
      "inputs": [
        {
          "internalType": "string",
          "name": "name",
          "type": "string"
        },
        {
          "internalType": "uint256",
          "name": "network",
          "type": "uint256"
        },
        {
          "internalType": "address",
          "name": "beneficiary",
          "type": "address"
        },
        {
          "internalType": "bytes32",
          "name": "contentHash",
          "type": "bytes32"
        },
        {
          "internalType": "uint256",
          "name": "tokenId",
          "type": "uint256"
        }
      ],
      "name": "adminMint",
      "outputs": [],
      "stateMutability": "nonpayable",
      "type": "function"
    },
    {
      "inputs": [
        {
          "internalType": "string",
          "name": "name",
          "type": "string"
        },
        {
          "internalType": "uint256",
          "name": "network",
          "type": "uint256"
        },
        {
          "internalType": "address",
          "name": "beneficiary",
          "type": "address"
        },
        {
          "internalType": "bytes32",
          "name": "contentHash",
          "type": "bytes32"
        },
        {
          "internalType": "uint256",
          "name": "tokenId",
          "type": "uint256"
        },
        {
          "internalType": "bytes32",
          "name": "r",
          "type": "bytes32"
        },
        {
          "internalType": "bytes32",
          "name": "s",
          "type": "bytes32"
        },
        {
          "internalType": "uint8",
          "name": "v",
          "type": "uint8"
        }
      ],
      "name": "userMint",
      "outputs": [],
      "stateMutability": "payable",
      "type": "function",
      "payable": true
    },
    {
      "inputs": [
        {
          "internalType": "uint256",
          "name": "_tokenId",
          "type": "uint256"
        }
      ],
      "name": "burn",
      "outputs": [],
      "stateMutability": "nonpayable",
      "type": "function"
    },
    {
      "inputs": [
        {
          "internalType": "uint256",
          "name": "_tokenId",
          "type": "uint256"
        },
        {
          "internalType": "string",
          "name": "_uri",
          "type": "string"
        }
      ],
      "name": "setTokenURI",
      "outputs": [],
      "stateMutability": "nonpayable",
      "type": "function"
    },
    {
      "inputs": [
        {
          "internalType": "uint256",
          "name": "tokenID",
          "type": "uint256"
        }
      ],
      "name": "getNFTinfo",
      "outputs": [
        {
          "components": [
            {
              "internalType": "string",
              "name": "name",
              "type": "string"
            },
            {
              "internalType": "uint256",
              "name": "network",
              "type": "uint256"
            },
            {
              "internalType": "address",
              "name": "beneficiary",
              "type": "address"
            },
            {
              "internalType": "bytes32",
              "name": "contentHash",
              "type": "bytes32"
            },
            {
              "internalType": "uint256",
              "name": "tokenId",
              "type": "uint256"
            }
          ],
          "internalType": "struct BEPMotoNFT.NFT",
          "name": "",
          "type": "tuple"
        }
      ],
      "stateMutability": "view",
      "type": "function",
      "constant": true
    },
    {
      "inputs": [
        {
          "internalType": "uint256",
          "name": "fee_",
          "type": "uint256"
        }
      ],
      "name": "setFee",
      "outputs": [],
      "stateMutability": "nonpayable",
      "type": "function"
    },
    {
      "inputs": [],
      "name": "getFee",
      "outputs": [
        {
          "internalType": "uint256",
          "name": "",
          "type": "uint256"
        }
      ],
      "stateMutability": "nonpayable",
      "type": "function"
    },
    {
      "inputs": [
        {
          "internalType": "address",
          "name": "newMinter",
          "type": "address"
        }
      ],
      "name": "addMinter",
      "outputs": [],
      "stateMutability": "nonpayable",
      "type": "function"
    },
    {
      "inputs": [
        {
          "internalType": "address",
          "name": "oldMinter",
          "type": "address"
        }
      ],
      "name": "removeMinter",
      "outputs": [],
      "stateMutability": "nonpayable",
      "type": "function"
    },
    {
      "inputs": [
        {
          "internalType": "address",
          "name": "newAdmin",
          "type": "address"
        }
      ],
      "name": "addAdmin",
      "outputs": [],
      "stateMutability": "nonpayable",
      "type": "function"
    },
    {
      "inputs": [
        {
          "internalType": "address",
          "name": "oldAdmin",
          "type": "address"
        }
      ],
      "name": "removeAdmin",
      "outputs": [],
      "stateMutability": "nonpayable",
      "type": "function"
    },
    {
      "inputs": [
        {
          "internalType": "uint256",
          "name": "amount",
          "type": "uint256"
        }
      ],
      "name": "withdraw",
      "outputs": [],
      "stateMutability": "nonpayable",
      "type": "function"
    }
  ],
  "bytecode": "0x60806040523480156200001157600080fd5b5060405162006280380380620062808339818101604052810190620000379190620006ed565b818160006200004b620001e260201b60201c565b905080600260006101000a81548173ffffffffffffffffffffffffffffffffffffffff021916908373ffffffffffffffffffffffffffffffffffffffff1602179055508073ffffffffffffffffffffffffffffffffffffffff16600073ffffffffffffffffffffffffffffffffffffffff167f8be0079c531659141344cd1fd0a4f28419497f9722a3daafe3b4186f6b6457e060405160405180910390a350816003908051906020019062000102929190620005cb565b5080600490805190602001906200011b929190620005cb565b5050506200019a6040518060400160405280601081526020017f4d6f746f204e6574776f726b204e4654000000000000000000000000000000008152506040518060400160405280600181526020017f3100000000000000000000000000000000000000000000000000000000000000815250620001ea60201b60201c565b620001ba620001ae6200025460201b60201c565b6200027e60201b60201c565b620001da620001ce6200025460201b60201c565b6200041e60201b60201c565b505062000b69565b600033905090565b6040518060800160405280605281526020016200622e60529139805190602001208282306200021e620005be60201b60201c565b6040516020016200023495949392919062000849565b604051602081830303815290604052805190602001206000819055505050565b6000600260009054906101000a900473ffffffffffffffffffffffffffffffffffffffff16905090565b6200028e620001e260201b60201c565b73ffffffffffffffffffffffffffffffffffffffff16620002b46200025460201b60201c565b73ffffffffffffffffffffffffffffffffffffffff16146200030d576040517f08c379a00000000000000000000000000000000000000000000000000000000081526004016200030490620008d6565b60405180910390fd5b600073ffffffffffffffffffffffffffffffffffffffff168173ffffffffffffffffffffffffffffffffffffffff16141562000380576040517f08c379a00000000000000000000000000000000000000000000000000000000081526004016200037790620008f8565b60405180910390fd5b6001600b60008373ffffffffffffffffffffffffffffffffffffffff1673ffffffffffffffffffffffffffffffffffffffff16815260200190815260200160002060006101000a81548160ff0219169083151502179055508073ffffffffffffffffffffffffffffffffffffffff167f6ae172837ea30b801fbfcdd4108aa1d5bf8ff775444fd70256b44e6bf3dfc3f660405160405180910390a250565b6200042e620001e260201b60201c565b73ffffffffffffffffffffffffffffffffffffffff16620004546200025460201b60201c565b73ffffffffffffffffffffffffffffffffffffffff1614620004ad576040517f08c379a0000000000000000000000000000000000000000000000000000000008152600401620004a490620008d6565b60405180910390fd5b600073ffffffffffffffffffffffffffffffffffffffff168173ffffffffffffffffffffffffffffffffffffffff16141562000520576040517f08c379a00000000000000000000000000000000000000000000000000000000081526004016200051790620008b4565b60405180910390fd5b6001600a60008373ffffffffffffffffffffffffffffffffffffffff1673ffffffffffffffffffffffffffffffffffffffff16815260200190815260200160002060006101000a81548160ff0219169083151502179055508073ffffffffffffffffffffffffffffffffffffffff167f44d6d25963f097ad14f29f06854a01f575648a1ef82f30e562ccd3889717e33960405160405180910390a250565b6000804690508091505090565b828054620005d99062000a13565b90600052602060002090601f016020900481019282620005fd576000855562000649565b82601f106200061857805160ff191683800117855562000649565b8280016001018555821562000649579182015b82811115620006485782518255916020019190600101906200062b565b5b5090506200065891906200065c565b5090565b5b80821115620006775760008160009055506001016200065d565b5090565b6000620006926200068c8462000943565b6200091a565b905082815260208101848484011115620006ab57600080fd5b620006b8848285620009dd565b509392505050565b600082601f830112620006d257600080fd5b8151620006e48482602086016200067b565b91505092915050565b600080604083850312156200070157600080fd5b600083015167ffffffffffffffff8111156200071c57600080fd5b6200072a85828601620006c0565b925050602083015167ffffffffffffffff8111156200074857600080fd5b6200075685828601620006c0565b9150509250929050565b6200076b8162000995565b82525050565b6200077c81620009a9565b82525050565b60006200078f8262000979565b6200079b818562000984565b9350620007ad818560208601620009dd565b620007b88162000add565b840191505092915050565b6000620007d260148362000984565b9150620007df8262000aee565b602082019050919050565b6000620007f960208362000984565b9150620008068262000b17565b602082019050919050565b600062000820601f8362000984565b91506200082d8262000b40565b602082019050919050565b6200084381620009d3565b82525050565b600060a08201905062000860600083018862000771565b818103602083015262000874818762000782565b905081810360408301526200088a818662000782565b90506200089b606083018562000760565b620008aa608083018462000838565b9695505050505050565b60006020820190508181036000830152620008cf81620007c3565b9050919050565b60006020820190508181036000830152620008f181620007ea565b9050919050565b60006020820190508181036000830152620009138162000811565b9050919050565b60006200092662000939565b905062000934828262000a49565b919050565b6000604051905090565b600067ffffffffffffffff82111562000961576200096062000aae565b5b6200096c8262000add565b9050602081019050919050565b600081519050919050565b600082825260208201905092915050565b6000620009a282620009b3565b9050919050565b6000819050919050565b600073ffffffffffffffffffffffffffffffffffffffff82169050919050565b6000819050919050565b60005b83811015620009fd578082015181840152602081019050620009e0565b8381111562000a0d576000848401525b50505050565b6000600282049050600182168062000a2c57607f821691505b6020821081141562000a435762000a4262000a7f565b5b50919050565b62000a548262000add565b810181811067ffffffffffffffff8211171562000a765762000a7562000aae565b5b80604052505050565b7f4e487b7100000000000000000000000000000000000000000000000000000000600052602260045260246000fd5b7f4e487b7100000000000000000000000000000000000000000000000000000000600052604160045260246000fd5b6000601f19601f8301169050919050565b7f63616e74206265207a65726f2061646472657373000000000000000000000000600082015250565b7f4f776e61626c653a2063616c6c6572206973206e6f7420746865206f776e6572600082015250565b7f4d696e7465722063616e206e6f74206265207a65726f20616464726573732e00600082015250565b6156b58062000b796000396000f3fe6080604052600436106101e35760003560e01c806342966c6811610102578063983b2d5611610095578063ced72f8711610064578063ced72f87146106e2578063e4cef27f1461070d578063e985e9c514610736578063f2fde38b14610773576101e3565b8063983b2d561461062a578063a22cb46514610653578063b88d4fde1461067c578063c87b56dd146106a5576101e3565b806370a08231116100d157806370a0823114610580578063715018a6146105bd5780638da5cb5b146105d457806395d89b41146105ff576101e3565b806342966c68146104c85780636352211e146104f157806369fe0e2d1461052e5780637048027514610557576101e3565b8063227b74a61161017a5780633092afd5116101495780633092afd51461042f5780633408e470146104585780634239e7121461048357806342842e0e1461049f576101e3565b8063227b74a61461036357806323b872dd146103a05780632d0335ab146103c95780632e1a7d4d14610406576101e3565b80630c53c51c116101b65780630c53c51c146102b65780630df63210146102e6578063162094c4146103115780631785f53c1461033a576101e3565b806301ffc9a7146101e857806306fdde0314610225578063081812fc14610250578063095ea7b31461028d575b600080fd5b3480156101f457600080fd5b5061020f600480360381019061020a91906139f0565b61079c565b60405161021c919061440e565b60405180910390f35b34801561023157600080fd5b5061023a61087e565b60405161024791906144f0565b60405180910390f35b34801561025c57600080fd5b5061027760048036038101906102729190613ba2565b610910565b6040516102849190614369565b60405180910390f35b34801561029957600080fd5b506102b460048036038101906102af91906139b4565b610995565b005b6102d060048036038101906102cb9190613925565b610aad565b6040516102dd91906144ce565b60405180910390f35b3480156102f257600080fd5b506102fb610d17565b6040516103089190614429565b60405180910390f35b34801561031d57600080fd5b5061033860048036038101906103339190613bcb565b610d1d565b005b34801561034657600080fd5b50610361600480360381019061035c91906137ba565b610e0a565b005b34801561036f57600080fd5b5061038a60048036038101906103859190613ba2565b610f9a565b6040516103979190614912565b60405180910390f35b3480156103ac57600080fd5b506103c760048036038101906103c2919061381f565b6110cd565b005b3480156103d557600080fd5b506103f060048036038101906103eb91906137ba565b61112d565b6040516103fd9190614934565b60405180910390f35b34801561041257600080fd5b5061042d60048036038101906104289190613ba2565b611176565b005b34801561043b57600080fd5b50610456600480360381019061045191906137ba565b611249565b005b34801561046457600080fd5b5061046d6113d9565b60405161047a9190614934565b60405180910390f35b61049d60048036038101906104989190613ad4565b6113e6565b005b3480156104ab57600080fd5b506104c660048036038101906104c1919061381f565b611512565b005b3480156104d457600080fd5b506104ef60048036038101906104ea9190613ba2565b611532565b005b3480156104fd57600080fd5b5061051860048036038101906105139190613ba2565b6116b3565b6040516105259190614369565b60405180910390f35b34801561053a57600080fd5b5061055560048036038101906105509190613ba2565b611765565b005b34801561056357600080fd5b5061057e600480360381019061057991906137ba565b611848565b005b34801561058c57600080fd5b506105a760048036038101906105a291906137ba565b6119d2565b6040516105b49190614934565b60405180910390f35b3480156105c957600080fd5b506105d2611a8a565b005b3480156105e057600080fd5b506105e9611bc7565b6040516105f69190614369565b60405180910390f35b34801561060b57600080fd5b50610614611bf1565b60405161062191906144f0565b60405180910390f35b34801561063657600080fd5b50610651600480360381019061064c91906137ba565b611c83565b005b34801561065f57600080fd5b5061067a600480360381019061067591906138e9565b611e0d565b005b34801561068857600080fd5b506106a3600480360381019061069e919061386e565b611f8e565b005b3480156106b157600080fd5b506106cc60048036038101906106c79190613ba2565b611ff0565b6040516106d991906144f0565b60405180910390f35b3480156106ee57600080fd5b506106f7612142565b6040516107049190614934565b60405180910390f35b34801561071957600080fd5b50610734600480360381019061072f9190613a42565b61214c565b005b34801561074257600080fd5b5061075d600480360381019061075891906137e3565b61227d565b60405161076a919061440e565b60405180910390f35b34801561077f57600080fd5b5061079a600480360381019061079591906137ba565b612311565b005b60007f80ac58cd000000000000000000000000000000000000000000000000000000007bffffffffffffffffffffffffffffffffffffffffffffffffffffffff1916827bffffffffffffffffffffffffffffffffffffffffffffffffffffffff1916148061086757507f5b5e139f000000000000000000000000000000000000000000000000000000007bffffffffffffffffffffffffffffffffffffffffffffffffffffffff1916827bffffffffffffffffffffffffffffffffffffffffffffffffffffffff1916145b806108775750610876826124bd565b5b9050919050565b60606003805461088d90614b8c565b80601f01602080910402602001604051908101604052809291908181526020018280546108b990614b8c565b80156109065780601f106108db57610100808354040283529160200191610906565b820191906000526020600020905b8154815290600101906020018083116108e957829003601f168201915b5050505050905090565b600061091b82612527565b61095a576040517f08c379a0000000000000000000000000000000000000000000000000000000008152600401610951906147b2565b60405180910390fd5b6007600083815260200190815260200160002060009054906101000a900473ffffffffffffffffffffffffffffffffffffffff169050919050565b60006109a0826116b3565b90508073ffffffffffffffffffffffffffffffffffffffff168373ffffffffffffffffffffffffffffffffffffffff161415610a11576040517f08c379a0000000000000000000000000000000000000000000000000000000008152600401610a0890614892565b60405180910390fd5b8073ffffffffffffffffffffffffffffffffffffffff16610a30612593565b73ffffffffffffffffffffffffffffffffffffffff161480610a5f5750610a5e81610a59612593565b61227d565b5b610a9e576040517f08c379a0000000000000000000000000000000000000000000000000000000008152600401610a9590614692565b60405180910390fd5b610aa8838361259b565b505050565b606060006040518060600160405280600160008a73ffffffffffffffffffffffffffffffffffffffff1673ffffffffffffffffffffffffffffffffffffffff1681526020019081526020016000205481526020018873ffffffffffffffffffffffffffffffffffffffff168152602001878152509050610b308782878787612654565b610b6f576040517f08c379a0000000000000000000000000000000000000000000000000000000008152600401610b6690614652565b60405180910390fd5b60018060008973ffffffffffffffffffffffffffffffffffffffff1673ffffffffffffffffffffffffffffffffffffffff16815260200190815260200160002054610bba9190614a04565b600160008973ffffffffffffffffffffffffffffffffffffffff1673ffffffffffffffffffffffffffffffffffffffff168152602001908152602001600020819055507f5845892132946850460bff5a0083f71031bc5bf9aadcd40f1de79423eac9b10b873388604051610c3093929190614384565b60405180910390a16000803073ffffffffffffffffffffffffffffffffffffffff16888a604051602001610c659291906142e6565b604051602081830303815290604052604051610c8191906142cf565b6000604051808303816000865af19150503d8060008114610cbe576040519150601f19603f3d011682016040523d82523d6000602084013e610cc3565b606091505b509150915081610d08576040517f08c379a0000000000000000000000000000000000000000000000000000000008152600401610cff90614792565b60405180910390fd5b80935050505095945050505050565b60005481565b60011515600a6000610d2d612593565b73ffffffffffffffffffffffffffffffffffffffff1673ffffffffffffffffffffffffffffffffffffffff16815260200190815260200160002060009054906101000a900460ff16151514610db7576040517f08c379a0000000000000000000000000000000000000000000000000000000008152600401610dae90614592565b60405180910390fd5b610e058383838080601f016020809104026020016040519081016040528093929190818152602001838380828437600081840152601f19601f8201169050808301925050505050505061275d565b505050565b610e12612593565b73ffffffffffffffffffffffffffffffffffffffff16610e30611bc7565b73ffffffffffffffffffffffffffffffffffffffff1614610e86576040517f08c379a0000000000000000000000000000000000000000000000000000000008152600401610e7d906147f2565b60405180910390fd5b610e8e611bc7565b73ffffffffffffffffffffffffffffffffffffffff168173ffffffffffffffffffffffffffffffffffffffff161415610efc576040517f08c379a0000000000000000000000000000000000000000000000000000000008152600401610ef390614732565b60405180910390fd5b6000600a60008373ffffffffffffffffffffffffffffffffffffffff1673ffffffffffffffffffffffffffffffffffffffff16815260200190815260200160002060006101000a81548160ff0219169083151502179055508073ffffffffffffffffffffffffffffffffffffffff167fa3b62bc36326052d97ea62d63c3d60308ed4c3ea8ac079dd8499f1e9c4f80c0f60405160405180910390a250565b610fa261354a565b600c60008381526020019081526020016000206040518060a0016040529081600082018054610fd090614b8c565b80601f0160208091040260200160405190810160405280929190818152602001828054610ffc90614b8c565b80156110495780601f1061101e57610100808354040283529160200191611049565b820191906000526020600020905b81548152906001019060200180831161102c57829003601f168201915b50505050508152602001600182015481526020016002820160009054906101000a900473ffffffffffffffffffffffffffffffffffffffff1673ffffffffffffffffffffffffffffffffffffffff1673ffffffffffffffffffffffffffffffffffffffff168152602001600382015481526020016004820154815250509050919050565b6110de6110d8612593565b826127d1565b61111d576040517f08c379a0000000000000000000000000000000000000000000000000000000008152600401611114906148d2565b60405180910390fd5b6111288383836128af565b505050565b6000600160008373ffffffffffffffffffffffffffffffffffffffff1673ffffffffffffffffffffffffffffffffffffffff168152602001908152602001600020549050919050565b61117e612593565b73ffffffffffffffffffffffffffffffffffffffff1661119c611bc7565b73ffffffffffffffffffffffffffffffffffffffff16146111f2576040517f08c379a00000000000000000000000000000000000000000000000000000000081526004016111e9906147f2565b60405180910390fd5b60006111fc611bc7565b90508073ffffffffffffffffffffffffffffffffffffffff166108fc839081150290604051600060405180830381858888f19350505050158015611244573d6000803e3d6000fd5b505050565b611251612593565b73ffffffffffffffffffffffffffffffffffffffff1661126f611bc7565b73ffffffffffffffffffffffffffffffffffffffff16146112c5576040517f08c379a00000000000000000000000000000000000000000000000000000000081526004016112bc906147f2565b60405180910390fd5b6112cd611bc7565b73ffffffffffffffffffffffffffffffffffffffff168173ffffffffffffffffffffffffffffffffffffffff16141561133b576040517f08c379a000000000000000000000000000000000000000000000000000000000815260040161133290614512565b60405180910390fd5b6000600b60008373ffffffffffffffffffffffffffffffffffffffff1673ffffffffffffffffffffffffffffffffffffffff16815260200190815260200160002060006101000a81548160ff0219169083151502179055508073ffffffffffffffffffffffffffffffffffffffff167fe94479a9f7e1952cc78f2d6baab678adc1b772d936c6583def489e524cb6669260405160405180910390a250565b6000804690508091505090565b600e5434101561142b576040517f08c379a0000000000000000000000000000000000000000000000000000000008152600401611422906146d2565b60405180910390fd5b60006040518060a001604052808b8b8080601f016020809104026020016040519081016040528093929190818152602001838380828437600081840152601f19601f8201169050808301925050505050505081526020018981526020018873ffffffffffffffffffffffffffffffffffffffff16815260200187815260200186815250905060006001905080156114ca576114c582612b0b565b611505565b6040517f08c379a00000000000000000000000000000000000000000000000000000000081526004016114fc90614672565b60405180910390fd5b5050505050505050505050565b61152d83838360405180602001604052806000815250611f8e565b505050565b61153a612593565b73ffffffffffffffffffffffffffffffffffffffff16611559826116b3565b73ffffffffffffffffffffffffffffffffffffffff16146115af576040517f08c379a00000000000000000000000000000000000000000000000000000000081526004016115a6906147d2565b60405180910390fd5b6115b881612c43565b6000600c600083815260200190815260200160002090506000600d60008360030154815260200190815260200160002060006101000a81548160ff021916908315150217905550600c6000838152602001908152602001600020600080820160006116239190613592565b60018201600090556002820160006101000a81549073ffffffffffffffffffffffffffffffffffffffff02191690556003820160009055600482016000905550508161166d612593565b73ffffffffffffffffffffffffffffffffffffffff167fd6a6bcd88cdc4656d5f4e14e7dfbc9bc3f2f9811f8d6b508f3bee7d999d4d41c60405160405180910390a35050565b6000806005600084815260200190815260200160002060009054906101000a900473ffffffffffffffffffffffffffffffffffffffff169050600073ffffffffffffffffffffffffffffffffffffffff168173ffffffffffffffffffffffffffffffffffffffff16141561175c576040517f08c379a0000000000000000000000000000000000000000000000000000000008152600401611753906146f2565b60405180910390fd5b80915050919050565b60011515600a6000611775612593565b73ffffffffffffffffffffffffffffffffffffffff1673ffffffffffffffffffffffffffffffffffffffff16815260200190815260200160002060009054906101000a900460ff161515146117ff576040517f08c379a00000000000000000000000000000000000000000000000000000000081526004016117f690614592565b60405180910390fd5b80600e81905550807f43c32a6ff81bf70686b4b03e34b95cf0f597234de5531704b9f02db0d3bb11e1611830612593565b60405161183d9190614369565b60405180910390a250565b611850612593565b73ffffffffffffffffffffffffffffffffffffffff1661186e611bc7565b73ffffffffffffffffffffffffffffffffffffffff16146118c4576040517f08c379a00000000000000000000000000000000000000000000000000000000081526004016118bb906147f2565b60405180910390fd5b600073ffffffffffffffffffffffffffffffffffffffff168173ffffffffffffffffffffffffffffffffffffffff161415611934576040517f08c379a000000000000000000000000000000000000000000000000000000000815260040161192b90614612565b60405180910390fd5b6001600a60008373ffffffffffffffffffffffffffffffffffffffff1673ffffffffffffffffffffffffffffffffffffffff16815260200190815260200160002060006101000a81548160ff0219169083151502179055508073ffffffffffffffffffffffffffffffffffffffff167f44d6d25963f097ad14f29f06854a01f575648a1ef82f30e562ccd3889717e33960405160405180910390a250565b60008073ffffffffffffffffffffffffffffffffffffffff168273ffffffffffffffffffffffffffffffffffffffff161415611a43576040517f08c379a0000000000000000000000000000000000000000000000000000000008152600401611a3a906146b2565b60405180910390fd5b600660008373ffffffffffffffffffffffffffffffffffffffff1673ffffffffffffffffffffffffffffffffffffffff168152602001908152602001600020549050919050565b611a92612593565b73ffffffffffffffffffffffffffffffffffffffff16611ab0611bc7565b73ffffffffffffffffffffffffffffffffffffffff1614611b06576040517f08c379a0000000000000000000000000000000000000000000000000000000008152600401611afd906147f2565b60405180910390fd5b600073ffffffffffffffffffffffffffffffffffffffff16600260009054906101000a900473ffffffffffffffffffffffffffffffffffffffff1673ffffffffffffffffffffffffffffffffffffffff167f8be0079c531659141344cd1fd0a4f28419497f9722a3daafe3b4186f6b6457e060405160405180910390a36000600260006101000a81548173ffffffffffffffffffffffffffffffffffffffff021916908373ffffffffffffffffffffffffffffffffffffffff160217905550565b6000600260009054906101000a900473ffffffffffffffffffffffffffffffffffffffff16905090565b606060048054611c0090614b8c565b80601f0160208091040260200160405190810160405280929190818152602001828054611c2c90614b8c565b8015611c795780601f10611c4e57610100808354040283529160200191611c79565b820191906000526020600020905b815481529060010190602001808311611c5c57829003601f168201915b5050505050905090565b611c8b612593565b73ffffffffffffffffffffffffffffffffffffffff16611ca9611bc7565b73ffffffffffffffffffffffffffffffffffffffff1614611cff576040517f08c379a0000000000000000000000000000000000000000000000000000000008152600401611cf6906147f2565b60405180910390fd5b600073ffffffffffffffffffffffffffffffffffffffff168173ffffffffffffffffffffffffffffffffffffffff161415611d6f576040517f08c379a0000000000000000000000000000000000000000000000000000000008152600401611d66906148f2565b60405180910390fd5b6001600b60008373ffffffffffffffffffffffffffffffffffffffff1673ffffffffffffffffffffffffffffffffffffffff16815260200190815260200160002060006101000a81548160ff0219169083151502179055508073ffffffffffffffffffffffffffffffffffffffff167f6ae172837ea30b801fbfcdd4108aa1d5bf8ff775444fd70256b44e6bf3dfc3f660405160405180910390a250565b611e15612593565b73ffffffffffffffffffffffffffffffffffffffff168273ffffffffffffffffffffffffffffffffffffffff161415611e83576040517f08c379a0000000000000000000000000000000000000000000000000000000008152600401611e7a906145d2565b60405180910390fd5b8060086000611e90612593565b73ffffffffffffffffffffffffffffffffffffffff1673ffffffffffffffffffffffffffffffffffffffff16815260200190815260200160002060008473ffffffffffffffffffffffffffffffffffffffff1673ffffffffffffffffffffffffffffffffffffffff16815260200190815260200160002060006101000a81548160ff0219169083151502179055508173ffffffffffffffffffffffffffffffffffffffff16611f3d612593565b73ffffffffffffffffffffffffffffffffffffffff167f17307eab39ab6107e8899845ad3d59bd9653f200f220920489ca2b5937696c3183604051611f82919061440e565b60405180910390a35050565b611f9f611f99612593565b836127d1565b611fde576040517f08c379a0000000000000000000000000000000000000000000000000000000008152600401611fd5906148d2565b60405180910390fd5b611fea84848484612c96565b50505050565b6060611ffb82612527565b61203a576040517f08c379a000000000000000000000000000000000000000000000000000000000815260040161203190614772565b60405180910390fd5b600060096000848152602001908152602001600020805461205a90614b8c565b80601f016020809104026020016040519081016040528092919081815260200182805461208690614b8c565b80156120d35780601f106120a8576101008083540402835291602001916120d3565b820191906000526020600020905b8154815290600101906020018083116120b657829003601f168201915b5050505050905060006120e4612cf2565b90506000815114156120fa57819250505061213d565b60008251111561212f57808260405160200161211792919061430e565b6040516020818303038152906040529250505061213d565b61213884612d09565b925050505b919050565b6000600e54905090565b60011515600b600061215c612593565b73ffffffffffffffffffffffffffffffffffffffff1673ffffffffffffffffffffffffffffffffffffffff16815260200190815260200160002060009054906101000a900460ff161515146121e6576040517f08c379a00000000000000000000000000000000000000000000000000000000081526004016121dd90614852565b60405180910390fd5b60006040518060a0016040528088888080601f016020809104026020016040519081016040528093929190818152602001838380828437600081840152601f19601f8201169050808301925050505050505081526020018681526020018573ffffffffffffffffffffffffffffffffffffffff16815260200184815260200183815250905061227481612b0b565b50505050505050565b6000600860008473ffffffffffffffffffffffffffffffffffffffff1673ffffffffffffffffffffffffffffffffffffffff16815260200190815260200160002060008373ffffffffffffffffffffffffffffffffffffffff1673ffffffffffffffffffffffffffffffffffffffff16815260200190815260200160002060009054906101000a900460ff16905092915050565b612319612593565b73ffffffffffffffffffffffffffffffffffffffff16612337611bc7565b73ffffffffffffffffffffffffffffffffffffffff161461238d576040517f08c379a0000000000000000000000000000000000000000000000000000000008152600401612384906147f2565b60405180910390fd5b600073ffffffffffffffffffffffffffffffffffffffff168173ffffffffffffffffffffffffffffffffffffffff1614156123fd576040517f08c379a00000000000000000000000000000000000000000000000000000000081526004016123f490614552565b60405180910390fd5b8073ffffffffffffffffffffffffffffffffffffffff16600260009054906101000a900473ffffffffffffffffffffffffffffffffffffffff1673ffffffffffffffffffffffffffffffffffffffff167f8be0079c531659141344cd1fd0a4f28419497f9722a3daafe3b4186f6b6457e060405160405180910390a380600260006101000a81548173ffffffffffffffffffffffffffffffffffffffff021916908373ffffffffffffffffffffffffffffffffffffffff16021790555050565b60007f01ffc9a7000000000000000000000000000000000000000000000000000000007bffffffffffffffffffffffffffffffffffffffffffffffffffffffff1916827bffffffffffffffffffffffffffffffffffffffffffffffffffffffff1916149050919050565b60008073ffffffffffffffffffffffffffffffffffffffff166005600084815260200190815260200160002060009054906101000a900473ffffffffffffffffffffffffffffffffffffffff1673ffffffffffffffffffffffffffffffffffffffff1614159050919050565b600033905090565b816007600083815260200190815260200160002060006101000a81548173ffffffffffffffffffffffffffffffffffffffff021916908373ffffffffffffffffffffffffffffffffffffffff160217905550808273ffffffffffffffffffffffffffffffffffffffff1661260e836116b3565b73ffffffffffffffffffffffffffffffffffffffff167f8c5be1e5ebec7d5bd14f71427d1e84f3dd0314c0f7b2291e5b200ac8c7c3b92560405160405180910390a45050565b60008073ffffffffffffffffffffffffffffffffffffffff168673ffffffffffffffffffffffffffffffffffffffff1614156126c5576040517f08c379a00000000000000000000000000000000000000000000000000000000081526004016126bc906148b2565b60405180910390fd5b60016126d86126d387612db0565b612e18565b838686604051600081526020016040526040516126f89493929190614489565b6020604051602081039080840390855afa15801561271a573d6000803e3d6000fd5b5050506020604051035173ffffffffffffffffffffffffffffffffffffffff168673ffffffffffffffffffffffffffffffffffffffff1614905095945050505050565b61276682612527565b6127a5576040517f08c379a000000000000000000000000000000000000000000000000000000000815260040161279c90614712565b60405180910390fd5b806009600084815260200190815260200160002090805190602001906127cc9291906135d2565b505050565b60006127dc82612527565b61281b576040517f08c379a000000000000000000000000000000000000000000000000000000000815260040161281290614632565b60405180910390fd5b6000612826836116b3565b90508073ffffffffffffffffffffffffffffffffffffffff168473ffffffffffffffffffffffffffffffffffffffff16148061289557508373ffffffffffffffffffffffffffffffffffffffff1661287d84610910565b73ffffffffffffffffffffffffffffffffffffffff16145b806128a657506128a5818561227d565b5b91505092915050565b8273ffffffffffffffffffffffffffffffffffffffff166128cf826116b3565b73ffffffffffffffffffffffffffffffffffffffff1614612925576040517f08c379a000000000000000000000000000000000000000000000000000000000815260040161291c90614812565b60405180910390fd5b600073ffffffffffffffffffffffffffffffffffffffff168273ffffffffffffffffffffffffffffffffffffffff161415612995576040517f08c379a000000000000000000000000000000000000000000000000000000000815260040161298c906145b2565b60405180910390fd5b6129a0838383612e4b565b6129ab60008261259b565b6001600660008573ffffffffffffffffffffffffffffffffffffffff1673ffffffffffffffffffffffffffffffffffffffff16815260200190815260200160002060008282546129fb9190614a8b565b925050819055506001600660008473ffffffffffffffffffffffffffffffffffffffff1673ffffffffffffffffffffffffffffffffffffffff1681526020019081526020016000206000828254612a529190614a04565b92505081905550816005600083815260200190815260200160002060006101000a81548173ffffffffffffffffffffffffffffffffffffffff021916908373ffffffffffffffffffffffffffffffffffffffff160217905550808273ffffffffffffffffffffffffffffffffffffffff168473ffffffffffffffffffffffffffffffffffffffff167fddf252ad1be2c89b69c2b068fc378daa952ba7f163c4a11628f55a4df523b3ef60405160405180910390a4505050565b612b1481612e50565b50612b2781604001518260800151612f14565b80600c6000836080015181526020019081526020016000206000820151816000019080519060200190612b5b9291906135d2565b506020820151816001015560408201518160020160006101000a81548173ffffffffffffffffffffffffffffffffffffffff021916908373ffffffffffffffffffffffffffffffffffffffff16021790555060608201518160030155608082015181600401559050506001600d60008360600151815260200190815260200160002060006101000a81548160ff0219169083151502179055508060800151816040015173ffffffffffffffffffffffffffffffffffffffff167f4cc0a9c4a99ddc700de1af2c9f916a7cbfdb71f14801ccff94061ad1ef8a804060405160405180910390a350565b612c4c816130e2565b6000600960008381526020019081526020016000208054612c6c90614b8c565b905014612c9357600960008281526020019081526020016000206000612c929190613592565b5b50565b612ca18484846128af565b612cad848484846131f3565b612cec576040517f08c379a0000000000000000000000000000000000000000000000000000000008152600401612ce390614532565b60405180910390fd5b50505050565b606060405180602001604052806000815250905090565b6060612d1482612527565b612d53576040517f08c379a0000000000000000000000000000000000000000000000000000000008152600401612d4a90614832565b60405180910390fd5b6000612d5d612cf2565b90506000815111612d7d5760405180602001604052806000815250612da8565b80612d878461338a565b604051602001612d9892919061430e565b6040516020818303038152906040525b915050919050565b600060405180608001604052806043815260200161563d604391398051906020012082600001518360200151846040015180519060200120604051602001612dfb9493929190614444565b604051602081830303815290604052805190602001209050919050565b6000805482604051602001612e2e929190614332565b604051602081830303815290604052805190602001209050919050565b505050565b6000801515600d60008460600151815260200190815260200160002060009054906101000a900460ff16151514612ebc576040517f08c379a0000000000000000000000000000000000000000000000000000000008152600401612eb390614872565b60405180910390fd5b60001515612ecd8360800151612527565b151514612f0f576040517f08c379a0000000000000000000000000000000000000000000000000000000008152600401612f06906145f2565b60405180910390fd5b919050565b600073ffffffffffffffffffffffffffffffffffffffff168273ffffffffffffffffffffffffffffffffffffffff161415612f84576040517f08c379a0000000000000000000000000000000000000000000000000000000008152600401612f7b90614752565b60405180910390fd5b612f8d81612527565b15612fcd576040517f08c379a0000000000000000000000000000000000000000000000000000000008152600401612fc490614572565b60405180910390fd5b612fd960008383612e4b565b6001600660008473ffffffffffffffffffffffffffffffffffffffff1673ffffffffffffffffffffffffffffffffffffffff16815260200190815260200160002060008282546130299190614a04565b92505081905550816005600083815260200190815260200160002060006101000a81548173ffffffffffffffffffffffffffffffffffffffff021916908373ffffffffffffffffffffffffffffffffffffffff160217905550808273ffffffffffffffffffffffffffffffffffffffff16600073ffffffffffffffffffffffffffffffffffffffff167fddf252ad1be2c89b69c2b068fc378daa952ba7f163c4a11628f55a4df523b3ef60405160405180910390a45050565b60006130ed826116b3565b90506130fb81600084612e4b565b61310660008361259b565b6001600660008373ffffffffffffffffffffffffffffffffffffffff1673ffffffffffffffffffffffffffffffffffffffff16815260200190815260200160002060008282546131569190614a8b565b925050819055506005600083815260200190815260200160002060006101000a81549073ffffffffffffffffffffffffffffffffffffffff021916905581600073ffffffffffffffffffffffffffffffffffffffff168273ffffffffffffffffffffffffffffffffffffffff167fddf252ad1be2c89b69c2b068fc378daa952ba7f163c4a11628f55a4df523b3ef60405160405180910390a45050565b60006132148473ffffffffffffffffffffffffffffffffffffffff16613537565b1561337d578373ffffffffffffffffffffffffffffffffffffffff1663150b7a0261323d612593565b8786866040518563ffffffff1660e01b815260040161325f94939291906143c2565b602060405180830381600087803b15801561327957600080fd5b505af19250505080156132aa57506040513d601f19601f820116820180604052508101906132a79190613a19565b60015b61332d573d80600081146132da576040519150601f19603f3d011682016040523d82523d6000602084013e6132df565b606091505b50600081511415613325576040517f08c379a000000000000000000000000000000000000000000000000000000000815260040161331c90614532565b60405180910390fd5b805181602001fd5b63150b7a0260e01b7bffffffffffffffffffffffffffffffffffffffffffffffffffffffff1916817bffffffffffffffffffffffffffffffffffffffffffffffffffffffff191614915050613382565b600190505b949350505050565b606060008214156133d2576040518060400160405280600181526020017f30000000000000000000000000000000000000000000000000000000000000008152509050613532565b600082905060005b600082146134045780806133ed90614bef565b915050600a826133fd9190614a5a565b91506133da565b60008167ffffffffffffffff811115613446577f4e487b7100000000000000000000000000000000000000000000000000000000600052604160045260246000fd5b6040519080825280601f01601f1916602001820160405280156134785781602001600182028036833780820191505090505b5090505b6000851461352b576001826134919190614a8b565b9150600a856134a09190614c66565b60306134ac9190614a04565b60f81b8183815181106134e8577f4e487b7100000000000000000000000000000000000000000000000000000000600052603260045260246000fd5b60200101907effffffffffffffffffffffffffffffffffffffffffffffffffffffffffffff1916908160001a905350600a856135249190614a5a565b945061347c565b8093505050505b919050565b600080823b905060008111915050919050565b6040518060a001604052806060815260200160008152602001600073ffffffffffffffffffffffffffffffffffffffff16815260200160008019168152602001600081525090565b50805461359e90614b8c565b6000825580601f106135b057506135cf565b601f0160209004906000526020600020908101906135ce9190613658565b5b50565b8280546135de90614b8c565b90600052602060002090601f0160209004810192826136005760008555613647565b82601f1061361957805160ff1916838001178555613647565b82800160010185558215613647579182015b8281111561364657825182559160200191906001019061362b565b5b5090506136549190613658565b5090565b5b80821115613671576000816000905550600101613659565b5090565b600061368861368384614974565b61494f565b9050828152602081018484840111156136a057600080fd5b6136ab848285614b4a565b509392505050565b6000813590506136c2816155b2565b92915050565b6000813590506136d7816155c9565b92915050565b6000813590506136ec816155e0565b92915050565b600081359050613701816155f7565b92915050565b600081519050613716816155f7565b92915050565b600082601f83011261372d57600080fd5b813561373d848260208601613675565b91505092915050565b60008083601f84011261375857600080fd5b8235905067ffffffffffffffff81111561377157600080fd5b60208301915083600182028301111561378957600080fd5b9250929050565b60008135905061379f8161560e565b92915050565b6000813590506137b481615625565b92915050565b6000602082840312156137cc57600080fd5b60006137da848285016136b3565b91505092915050565b600080604083850312156137f657600080fd5b6000613804858286016136b3565b9250506020613815858286016136b3565b9150509250929050565b60008060006060848603121561383457600080fd5b6000613842868287016136b3565b9350506020613853868287016136b3565b925050604061386486828701613790565b9150509250925092565b6000806000806080858703121561388457600080fd5b6000613892878288016136b3565b94505060206138a3878288016136b3565b93505060406138b487828801613790565b925050606085013567ffffffffffffffff8111156138d157600080fd5b6138dd8782880161371c565b91505092959194509250565b600080604083850312156138fc57600080fd5b600061390a858286016136b3565b925050602061391b858286016136c8565b9150509250929050565b600080600080600060a0868803121561393d57600080fd5b600061394b888289016136b3565b955050602086013567ffffffffffffffff81111561396857600080fd5b6139748882890161371c565b9450506040613985888289016136dd565b9350506060613996888289016136dd565b92505060806139a7888289016137a5565b9150509295509295909350565b600080604083850312156139c757600080fd5b60006139d5858286016136b3565b92505060206139e685828601613790565b9150509250929050565b600060208284031215613a0257600080fd5b6000613a10848285016136f2565b91505092915050565b600060208284031215613a2b57600080fd5b6000613a3984828501613707565b91505092915050565b60008060008060008060a08789031215613a5b57600080fd5b600087013567ffffffffffffffff811115613a7557600080fd5b613a8189828a01613746565b96509650506020613a9489828a01613790565b9450506040613aa589828a016136b3565b9350506060613ab689828a016136dd565b9250506080613ac789828a01613790565b9150509295509295509295565b60008060008060008060008060006101008a8c031215613af357600080fd5b60008a013567ffffffffffffffff811115613b0d57600080fd5b613b198c828d01613746565b99509950506020613b2c8c828d01613790565b9750506040613b3d8c828d016136b3565b9650506060613b4e8c828d016136dd565b9550506080613b5f8c828d01613790565b94505060a0613b708c828d016136dd565b93505060c0613b818c828d016136dd565b92505060e0613b928c828d016137a5565b9150509295985092959850929598565b600060208284031215613bb457600080fd5b6000613bc284828501613790565b91505092915050565b600080600060408486031215613be057600080fd5b6000613bee86828701613790565b935050602084013567ffffffffffffffff811115613c0b57600080fd5b613c1786828701613746565b92509250509250925092565b613c2c81614abf565b82525050565b613c3b81614abf565b82525050565b613c52613c4d82614abf565b614c38565b82525050565b613c6181614ad1565b82525050565b613c7081614add565b82525050565b613c7f81614add565b82525050565b613c96613c9182614add565b614c4a565b82525050565b6000613ca7826149a5565b613cb181856149bb565b9350613cc1818560208601614b59565b613cca81614d53565b840191505092915050565b6000613ce0826149a5565b613cea81856149cc565b9350613cfa818560208601614b59565b80840191505092915050565b6000613d11826149b0565b613d1b81856149d7565b9350613d2b818560208601614b59565b613d3481614d53565b840191505092915050565b6000613d4a826149b0565b613d5481856149e8565b9350613d64818560208601614b59565b613d6d81614d53565b840191505092915050565b6000613d83826149b0565b613d8d81856149f9565b9350613d9d818560208601614b59565b80840191505092915050565b6000613db66014836149e8565b9150613dc182614d71565b602082019050919050565b6000613dd96032836149e8565b9150613de482614d9a565b604082019050919050565b6000613dfc6026836149e8565b9150613e0782614de9565b604082019050919050565b6000613e1f601c836149e8565b9150613e2a82614e38565b602082019050919050565b6000613e426028836149e8565b9150613e4d82614e61565b604082019050919050565b6000613e656002836149f9565b9150613e7082614eb0565b600282019050919050565b6000613e886024836149e8565b9150613e9382614ed9565b604082019050919050565b6000613eab6019836149e8565b9150613eb682614f28565b602082019050919050565b6000613ece601d836149e8565b9150613ed982614f51565b602082019050919050565b6000613ef16014836149e8565b9150613efc82614f7a565b602082019050919050565b6000613f14602c836149e8565b9150613f1f82614fa3565b604082019050919050565b6000613f37603d836149e8565b9150613f4282614ff2565b604082019050919050565b6000613f5a601d836149e8565b9150613f6582615041565b602082019050919050565b6000613f7d6038836149e8565b9150613f888261506a565b604082019050919050565b6000613fa0602a836149e8565b9150613fab826150b9565b604082019050919050565b6000613fc3601d836149e8565b9150613fce82615108565b602082019050919050565b6000613fe66029836149e8565b9150613ff182615131565b604082019050919050565b6000614009602e836149e8565b915061401482615180565b604082019050919050565b600061402c6014836149e8565b9150614037826151cf565b602082019050919050565b600061404f6020836149e8565b915061405a826151f8565b602082019050919050565b60006140726031836149e8565b915061407d82615221565b604082019050919050565b60006140956027836149e8565b91506140a082615270565b604082019050919050565b60006140b8602c836149e8565b91506140c3826152bf565b604082019050919050565b60006140db6032836149e8565b91506140e68261530e565b604082019050919050565b60006140fe6020836149e8565b91506141098261535d565b602082019050919050565b60006141216029836149e8565b915061412c82615386565b604082019050919050565b6000614144602f836149e8565b915061414f826153d5565b604082019050919050565b60006141676028836149e8565b915061417282615424565b604082019050919050565b600061418a6023836149e8565b915061419582615473565b604082019050919050565b60006141ad6021836149e8565b91506141b8826154c2565b604082019050919050565b60006141d0601a836149e8565b91506141db82615511565b602082019050919050565b60006141f36031836149e8565b91506141fe8261553a565b604082019050919050565b6000614216601f836149e8565b915061422182615589565b602082019050919050565b600060a08301600083015184820360008601526142498282613d06565b915050602083015161425e60208601826142a2565b5060408301516142716040860182613c23565b5060608301516142846060860182613c67565b50608083015161429760808601826142a2565b508091505092915050565b6142ab81614b33565b82525050565b6142ba81614b33565b82525050565b6142c981614b3d565b82525050565b60006142db8284613cd5565b915081905092915050565b60006142f28285613cd5565b91506142fe8284613c41565b6014820191508190509392505050565b600061431a8285613d78565b91506143268284613d78565b91508190509392505050565b600061433d82613e58565b91506143498285613c85565b6020820191506143598284613c85565b6020820191508190509392505050565b600060208201905061437e6000830184613c32565b92915050565b60006060820190506143996000830186613c32565b6143a66020830185613c32565b81810360408301526143b88184613c9c565b9050949350505050565b60006080820190506143d76000830187613c32565b6143e46020830186613c32565b6143f160408301856142b1565b81810360608301526144038184613c9c565b905095945050505050565b60006020820190506144236000830184613c58565b92915050565b600060208201905061443e6000830184613c76565b92915050565b60006080820190506144596000830187613c76565b61446660208301866142b1565b6144736040830185613c32565b6144806060830184613c76565b95945050505050565b600060808201905061449e6000830187613c76565b6144ab60208301866142c0565b6144b86040830185613c76565b6144c56060830184613c76565b95945050505050565b600060208201905081810360008301526144e88184613c9c565b905092915050565b6000602082019050818103600083015261450a8184613d3f565b905092915050565b6000602082019050818103600083015261452b81613da9565b9050919050565b6000602082019050818103600083015261454b81613dcc565b9050919050565b6000602082019050818103600083015261456b81613def565b9050919050565b6000602082019050818103600083015261458b81613e12565b9050919050565b600060208201905081810360008301526145ab81613e35565b9050919050565b600060208201905081810360008301526145cb81613e7b565b9050919050565b600060208201905081810360008301526145eb81613e9e565b9050919050565b6000602082019050818103600083015261460b81613ec1565b9050919050565b6000602082019050818103600083015261462b81613ee4565b9050919050565b6000602082019050818103600083015261464b81613f07565b9050919050565b6000602082019050818103600083015261466b81613f2a565b9050919050565b6000602082019050818103600083015261468b81613f4d565b9050919050565b600060208201905081810360008301526146ab81613f70565b9050919050565b600060208201905081810360008301526146cb81613f93565b9050919050565b600060208201905081810360008301526146eb81613fb6565b9050919050565b6000602082019050818103600083015261470b81613fd9565b9050919050565b6000602082019050818103600083015261472b81613ffc565b9050919050565b6000602082019050818103600083015261474b8161401f565b9050919050565b6000602082019050818103600083015261476b81614042565b9050919050565b6000602082019050818103600083015261478b81614065565b9050919050565b600060208201905081810360008301526147ab81614088565b9050919050565b600060208201905081810360008301526147cb816140ab565b9050919050565b600060208201905081810360008301526147eb816140ce565b9050919050565b6000602082019050818103600083015261480b816140f1565b9050919050565b6000602082019050818103600083015261482b81614114565b9050919050565b6000602082019050818103600083015261484b81614137565b9050919050565b6000602082019050818103600083015261486b8161415a565b9050919050565b6000602082019050818103600083015261488b8161417d565b9050919050565b600060208201905081810360008301526148ab816141a0565b9050919050565b600060208201905081810360008301526148cb816141c3565b9050919050565b600060208201905081810360008301526148eb816141e6565b9050919050565b6000602082019050818103600083015261490b81614209565b9050919050565b6000602082019050818103600083015261492c818461422c565b905092915050565b600060208201905061494960008301846142b1565b92915050565b600061495961496a565b90506149658282614bbe565b919050565b6000604051905090565b600067ffffffffffffffff82111561498f5761498e614d24565b5b61499882614d53565b9050602081019050919050565b600081519050919050565b600081519050919050565b600082825260208201905092915050565b600081905092915050565b600082825260208201905092915050565b600082825260208201905092915050565b600081905092915050565b6000614a0f82614b33565b9150614a1a83614b33565b9250827fffffffffffffffffffffffffffffffffffffffffffffffffffffffffffffffff03821115614a4f57614a4e614c97565b5b828201905092915050565b6000614a6582614b33565b9150614a7083614b33565b925082614a8057614a7f614cc6565b5b828204905092915050565b6000614a9682614b33565b9150614aa183614b33565b925082821015614ab457614ab3614c97565b5b828203905092915050565b6000614aca82614b13565b9050919050565b60008115159050919050565b6000819050919050565b60007fffffffff0000000000000000000000000000000000000000000000000000000082169050919050565b600073ffffffffffffffffffffffffffffffffffffffff82169050919050565b6000819050919050565b600060ff82169050919050565b82818337600083830152505050565b60005b83811015614b77578082015181840152602081019050614b5c565b83811115614b86576000848401525b50505050565b60006002820490506001821680614ba457607f821691505b60208210811415614bb857614bb7614cf5565b5b50919050565b614bc782614d53565b810181811067ffffffffffffffff82111715614be657614be5614d24565b5b80604052505050565b6000614bfa82614b33565b91507fffffffffffffffffffffffffffffffffffffffffffffffffffffffffffffffff821415614c2d57614c2c614c97565b5b600182019050919050565b6000614c4382614c54565b9050919050565b6000819050919050565b6000614c5f82614d64565b9050919050565b6000614c7182614b33565b9150614c7c83614b33565b925082614c8c57614c8b614cc6565b5b828206905092915050565b7f4e487b7100000000000000000000000000000000000000000000000000000000600052601160045260246000fd5b7f4e487b7100000000000000000000000000000000000000000000000000000000600052601260045260246000fd5b7f4e487b7100000000000000000000000000000000000000000000000000000000600052602260045260246000fd5b7f4e487b7100000000000000000000000000000000000000000000000000000000600052604160045260246000fd5b6000601f19601f8301169050919050565b60008160601b9050919050565b7f43616e206e6f742072656d6f7665204f776e6572000000000000000000000000600082015250565b7f4552433732313a207472616e7366657220746f206e6f6e20455243373231526560008201527f63656976657220696d706c656d656e7465720000000000000000000000000000602082015250565b7f4f776e61626c653a206e6577206f776e657220697320746865207a65726f206160008201527f6464726573730000000000000000000000000000000000000000000000000000602082015250565b7f4552433732313a20746f6b656e20616c7265616479206d696e74656400000000600082015250565b7f63616e206e6f7420706572666f726d20616374696f6e2062656361757365206e60008201527f6f742061646d696e000000000000000000000000000000000000000000000000602082015250565b7f1901000000000000000000000000000000000000000000000000000000000000600082015250565b7f4552433732313a207472616e7366657220746f20746865207a65726f2061646460008201527f7265737300000000000000000000000000000000000000000000000000000000602082015250565b7f4552433732313a20617070726f766520746f2063616c6c657200000000000000600082015250565b7f736f6d656f6e6520616c7265616479206f776e732074686973204e4654000000600082015250565b7f63616e74206265207a65726f2061646472657373000000000000000000000000600082015250565b7f4552433732313a206f70657261746f7220717565727920666f72206e6f6e657860008201527f697374656e7420746f6b656e0000000000000000000000000000000000000000602082015250565b7f4e4d5423657865637574654d6574615472616e73616374696f6e3a205349474e60008201527f45525f414e445f5349474e41545552455f444f5f4e4f545f4d41544348000000602082015250565b7f5369676e617475726520566572696669636174696f6e204661696c6564000000600082015250565b7f4552433732313a20617070726f76652063616c6c6572206973206e6f74206f7760008201527f6e6572206e6f7220617070726f76656420666f7220616c6c0000000000000000602082015250565b7f4552433732313a2062616c616e636520717565727920666f7220746865207a6560008201527f726f206164647265737300000000000000000000000000000000000000000000602082015250565b7f7265717569726564206d696e696d756d20666565206e6f742070616964000000600082015250565b7f4552433732313a206f776e657220717565727920666f72206e6f6e657869737460008201527f656e7420746f6b656e0000000000000000000000000000000000000000000000602082015250565b7f45524337323155524953746f726167653a2055524920736574206f66206e6f6e60008201527f6578697374656e7420746f6b656e000000000000000000000000000000000000602082015250565b7f63616e206e6f742072656d6f7665206f776e6572000000000000000000000000600082015250565b7f4552433732313a206d696e7420746f20746865207a65726f2061646472657373600082015250565b7f45524337323155524953746f726167653a2055524920717565727920666f722060008201527f6e6f6e6578697374656e7420746f6b656e000000000000000000000000000000602082015250565b7f4e4d5423657865637574654d6574615472616e73616374696f6e3a2043414c4c60008201527f5f4641494c454400000000000000000000000000000000000000000000000000602082015250565b7f4552433732313a20617070726f76656420717565727920666f72206e6f6e657860008201527f697374656e7420746f6b656e0000000000000000000000000000000000000000602082015250565b7f4e4654732063616e206f6e6c79206265206275726e656420627920746865697260008201527f2072657370656374697665206f776e6572730000000000000000000000000000602082015250565b7f4f776e61626c653a2063616c6c6572206973206e6f7420746865206f776e6572600082015250565b7f4552433732313a207472616e73666572206f6620746f6b656e2074686174206960008201527f73206e6f74206f776e0000000000000000000000000000000000000000000000602082015250565b7f4552433732314d657461646174613a2055524920717565727920666f72206e6f60008201527f6e6578697374656e7420746f6b656e0000000000000000000000000000000000602082015250565b7f63616e206e6f74206d696e742062656361757365206e6f7420617070726f766560008201527f64206d696e746572000000000000000000000000000000000000000000000000602082015250565b7f616e204e465420616c726561647920726570726573656e74732074686973206660008201527f696c650000000000000000000000000000000000000000000000000000000000602082015250565b7f4552433732313a20617070726f76616c20746f2063757272656e74206f776e6560008201527f7200000000000000000000000000000000000000000000000000000000000000602082015250565b7f4e4d54237665726966793a20494e56414c49445f5349474e4552000000000000600082015250565b7f4552433732313a207472616e736665722063616c6c6572206973206e6f74206f60008201527f776e6572206e6f7220617070726f766564000000000000000000000000000000602082015250565b7f4d696e7465722063616e206e6f74206265207a65726f20616464726573732e00600082015250565b6155bb81614abf565b81146155c657600080fd5b50565b6155d281614ad1565b81146155dd57600080fd5b50565b6155e981614add565b81146155f457600080fd5b50565b61560081614ae7565b811461560b57600080fd5b50565b61561781614b33565b811461562257600080fd5b50565b61562e81614b3d565b811461563957600080fd5b5056fe4d6574615472616e73616374696f6e2875696e74323536206e6f6e63652c616464726573732066726f6d2c62797465732066756e6374696f6e5369676e617475726529a2646970667358221220c85c1a4031766f81d4f4cc9ac4e258491c591418a0c6fba09f20698ae375ba1d64736f6c63430008040033454950373132446f6d61696e28737472696e67206e616d652c737472696e672076657273696f6e2c6164647265737320766572696679696e67436f6e74726163742c75696e7432353620636861696e494429",
  "immutableReferences": {},
  "source": "// SPDX-License-Identifier: MIT\npragma solidity^0.8.0;\n\nimport \"@openzeppelin/contracts/token/ERC721/ERC721.sol\";\nimport \"@openzeppelin/contracts/token/ERC721/extensions/ERC721URIStorage.sol\";\nimport \"./NativeMetaTransaction.sol\";\nimport \"./Ownable.sol\";\n\n\ncontract BEPMotoNFT is NativeMetaTransaction, Ownable, ERC721URIStorage{\n\n  constructor(string memory _name, string memory _symbol) ERC721(_name, _symbol) {\n    _initializeEIP712('Moto Network NFT', '1');\n    addMinter(owner());\n    addAdmin(owner());\n  }\n\n  event MinterAdded(address indexed newMinter);\n  event MinterRemoved(address indexed oldMinter);\n  event AdminAdded(address indexed newAdmin);\n  event AdminRemoved(address indexed oldAdmin);\n  event NFTMinted(address indexed owner, uint256 indexed tokenID);\n  event NFTBurned(address indexed burner, uint256 indexed tokenID);\n  event NewFeeSet(uint256 indexed feeAmount,address adjuster);\n\n  //test events\n  /*\n  event SignatureVerification(bytes32 indexed r, bytes32 indexed s, uint8 indexed v);\n  event NFTEntered(NFT indexed nft);\n  event TypesHashed(bytes32 indexed DomainSeperator,bytes32 indexed NFTTypeHash );\n  event \n*/\n  modifier onlyMinters{\n    require(minters[_msgSender()]==true,\"can not mint because not approved minter\");\n    _;\n  }\n\n  modifier onlyAdmins{\n    require(admins[_msgSender()]==true,\"can not perform action because not admin\");\n    _;\n  }\n\n  struct NFT{\n    string name;\n    uint256 network;\n    address beneficiary;\n    bytes32 contentHash;\n    uint256 tokenId;\n  }\n  bytes32 constant NFT_TYPEHASH = keccak256(\"NFT(string name,uint256 network,address beneficiary,bytes32 contentHash,uint256 tokenId)\");\n\n  mapping(address => bool) private admins;\n  mapping(address => bool) private minters;\n  mapping( uint256 => NFT) private NFTmetaData;\n  mapping(bytes32 => bool) private existingHash;\n\n  uint256 private _fee;\n\n\n  function adminMint(string calldata name, uint256 network, address beneficiary, bytes32 contentHash, uint256 tokenId) public onlyMinters{\n    NFT memory nft = NFT(name,network, beneficiary, contentHash, tokenId);\n    createNFT(nft);\n  }\n\n\n  function userMint(string calldata name, uint256 network, address beneficiary, bytes32 contentHash, uint256 tokenId, bytes32 r, bytes32 s, uint8 v) payable public{\n    require(msg.value >= _fee, \"required minimum fee not paid\");\n    NFT memory nft = NFT(name,network, beneficiary, contentHash, tokenId);\n    bool valid = true; //verifySignature(nft,r,s,v);\n    if(valid){\n      createNFT(nft);\n    }\n    else{\n      revert(\"Signature Verification Failed\");\n    }\n  }\n\n\n  function createNFT(NFT memory nft) private {\n    verifyUnique(nft);\n    super._mint(nft.beneficiary, nft.tokenId);\n    NFTmetaData[nft.tokenId] = nft;\n    existingHash[nft.contentHash] = true;\n    emit NFTMinted(nft.beneficiary, nft.tokenId);\n  }\n\n\n  function verifyUnique(NFT memory nft)internal view returns (bool){\n    require(existingHash[nft.contentHash]==false,\"an NFT already represents this file\");\n    require(_exists(nft.tokenId)==false,\"someone already owns this NFT\");\n  }\n\n\n  function burn(uint256 _tokenId) public {\n    require(ownerOf(_tokenId)==_msgSender(),\"NFTs can only be burned by their respective owners\");\n    super._burn(_tokenId);\n    NFT storage nft = NFTmetaData[_tokenId];\n    existingHash[nft.contentHash]=false;\n    delete NFTmetaData[_tokenId];\n    emit NFTBurned(_msgSender(),_tokenId);\n  }\n\n\n  function setTokenURI(uint256 _tokenId, string calldata _uri) public onlyAdmins{\n    super._setTokenURI(_tokenId, _uri);\n  }\n\n\n \n  function getNFTinfo(uint256 tokenID) public view returns(NFT memory){\n    return NFTmetaData[tokenID];\n  }\n\n  function setFee(uint256 fee_) public onlyAdmins{\n    _fee = fee_;\n    emit NewFeeSet(fee_,_msgSender());\n  }\n\n\n  function getFee() public returns(uint256){\n    return _fee;\n  }\n\n\n  function addMinter(address newMinter) public onlyOwner{\n    require(newMinter != address(0), \"Minter can not be zero address.\");\n    minters[newMinter] = true;\n    emit MinterAdded(newMinter);\n  }\n\n\n  function removeMinter(address oldMinter) public onlyOwner{\n    require(oldMinter!=owner(), \"Can not remove Owner\");\n    minters[oldMinter] = false;\n    emit MinterRemoved(oldMinter);\n  }\n\n\n  function addAdmin(address newAdmin) public onlyOwner{\n    require(newAdmin!=address(0),\"cant be zero address\");\n    admins[newAdmin] = true;\n    emit AdminAdded(newAdmin);\n  }\n\n\n  function removeAdmin(address oldAdmin) public onlyOwner{\n    require(oldAdmin!=owner(),\"can not remove owner\");\n    admins[oldAdmin] = false;\n    emit AdminRemoved(oldAdmin);\n  }\n\n\n  function hashVerfiedNFT(NFT memory nft) private returns(bytes32){\n    return keccak256(abi.encodePacked(\n      NFT_TYPEHASH,\n      nft.name,//keccak256(bytes(nft.name)),\n      nft.network,\n      nft.beneficiary,\n      nft.contentHash,\n      nft.tokenId\n    ));\n  }\n\n  \n\n  function verifySignature(NFT memory nft, bytes32 r,bytes32 s,uint8 v) private returns (bool){\n    bytes32 digest = keccak256(abi.encodePacked(\n      \"\\x19\\x01\",\n      DOMAIN_SEPERATOR,\n      hashVerfiedNFT(nft)\n    ));\n    \n    return ecrecover(digest,v,r,s) == _msgSender();\n  }\n\n\n  function withdraw(uint256 amount) external onlyOwner{\n    address payable payee = payable(owner());\n    payee.transfer(amount);\n  }\n\n\n\n}\n",
  "sourcePath": "/Users/yvan/Dropbox/projects/moto/contracts/marketplace-contracts/contracts/BEPMotoNFT.sol",
  "compiler": {
    "name": "solc",
    "version": "0.8.4+commit.c7e474f2.Emscripten.clang"
  },
  "schemaVersion": "3.3.4",
  "updatedAt": "2021-06-02T22:37:36.861Z",
  "networkType": "ethereum",
  "devdoc": {
    "kind": "dev",
    "methods": {
      "approve(address,uint256)": {
        "details": "See {IERC721-approve}."
      },
      "balanceOf(address)": {
        "details": "See {IERC721-balanceOf}."
      },
      "getApproved(uint256)": {
        "details": "See {IERC721-getApproved}."
      },
      "isApprovedForAll(address,address)": {
        "details": "See {IERC721-isApprovedForAll}."
      },
      "name()": {
        "details": "See {IERC721Metadata-name}."
      },
      "owner()": {
        "details": "Returns the address of the current owner."
      },
      "ownerOf(uint256)": {
        "details": "See {IERC721-ownerOf}."
      },
      "renounceOwnership()": {
        "details": "Leaves the contract without owner. It will not be possible to call `onlyOwner` functions anymore. Can only be called by the current owner. NOTE: Renouncing ownership will leave the contract without an owner, thereby removing any functionality that is only available to the owner."
      },
      "safeTransferFrom(address,address,uint256)": {
        "details": "See {IERC721-safeTransferFrom}."
      },
      "safeTransferFrom(address,address,uint256,bytes)": {
        "details": "See {IERC721-safeTransferFrom}."
      },
      "setApprovalForAll(address,bool)": {
        "details": "See {IERC721-setApprovalForAll}."
      },
      "supportsInterface(bytes4)": {
        "details": "See {IERC165-supportsInterface}."
      },
      "symbol()": {
        "details": "See {IERC721Metadata-symbol}."
      },
      "tokenURI(uint256)": {
        "details": "See {IERC721Metadata-tokenURI}."
      },
      "transferFrom(address,address,uint256)": {
        "details": "See {IERC721-transferFrom}."
      },
      "transferOwnership(address)": {
        "details": "Transfers ownership of the contract to a new account (`newOwner`). Can only be called by the current owner."
      }
    },
    "version": 1
  },
  "userdoc": {
    "kind": "user",
    "methods": {},
    "version": 1
  }
}