{
  "contractName": "StorageManagementV1",
  "abi": [
    {
      "inputs": [
        {
          "internalType": "uint256",
          "name": "_baseFee",
          "type": "uint256"
        }
      ],
      "stateMutability": "nonpayable",
      "type": "constructor"
    },
    {
      "anonymous": false,
      "inputs": [
        {
          "indexed": true,
          "internalType": "address",
          "name": "newAdmin",
          "type": "address"
        }
      ],
      "name": "AdminAdded",
      "type": "event"
    },
    {
      "anonymous": false,
      "inputs": [
        {
          "indexed": true,
          "internalType": "address",
          "name": "oldAdmin",
          "type": "address"
        }
      ],
      "name": "AdminRemoved",
      "type": "event"
    },
    {
      "anonymous": false,
      "inputs": [
        {
          "indexed": true,
          "internalType": "uint256",
          "name": "newAmount",
          "type": "uint256"
        }
      ],
      "name": "AlternateCurrencyRateAdjusted",
      "type": "event"
    },
    {
      "anonymous": false,
      "inputs": [
        {
          "indexed": true,
          "internalType": "uint256",
          "name": "newAmount",
          "type": "uint256"
        }
      ],
      "name": "BaseCurrencyRateAdjusted",
      "type": "event"
    },
    {
      "anonymous": false,
      "inputs": [
        {
          "indexed": true,
          "internalType": "address",
          "name": "previousOwner",
          "type": "address"
        },
        {
          "indexed": true,
          "internalType": "address",
          "name": "newOwner",
          "type": "address"
        }
      ],
      "name": "OwnershipTransferred",
      "type": "event"
    },
    {
      "anonymous": false,
      "inputs": [
        {
          "indexed": false,
          "internalType": "bytes32",
          "name": "fileHash",
          "type": "bytes32"
        },
        {
          "indexed": false,
          "internalType": "uint256",
          "name": "addedTime",
          "type": "uint256"
        }
      ],
      "name": "TimeAdded",
      "type": "event"
    },
    {
      "inputs": [],
      "name": "owner",
      "outputs": [
        {
          "internalType": "address",
          "name": "",
          "type": "address"
        }
      ],
      "stateMutability": "view",
      "type": "function",
      "constant": true
    },
    {
      "inputs": [],
      "name": "payingToken",
      "outputs": [
        {
          "internalType": "contract ERC20Interface",
          "name": "",
          "type": "address"
        }
      ],
      "stateMutability": "view",
      "type": "function",
      "constant": true
    },
    {
      "inputs": [],
      "name": "renounceOwnership",
      "outputs": [],
      "stateMutability": "nonpayable",
      "type": "function"
    },
    {
      "inputs": [
        {
          "internalType": "address",
          "name": "newOwner",
          "type": "address"
        }
      ],
      "name": "transferOwnership",
      "outputs": [],
      "stateMutability": "nonpayable",
      "type": "function"
    },
    {
      "inputs": [
        {
          "internalType": "bytes32",
          "name": "fileHash",
          "type": "bytes32"
        }
      ],
      "name": "addTime",
      "outputs": [
        {
          "internalType": "uint256",
          "name": "",
          "type": "uint256"
        }
      ],
      "stateMutability": "payable",
      "type": "function",
      "payable": true
    },
    {
      "inputs": [
        {
          "internalType": "bytes32",
          "name": "fileHash",
          "type": "bytes32"
        },
        {
          "internalType": "address",
          "name": "currency",
          "type": "address"
        },
        {
          "internalType": "uint256",
          "name": "amount",
          "type": "uint256"
        }
      ],
      "name": "addTime",
      "outputs": [
        {
          "internalType": "uint256",
          "name": "",
          "type": "uint256"
        }
      ],
      "stateMutability": "nonpayable",
      "type": "function"
    },
    {
      "inputs": [
        {
          "internalType": "bytes32",
          "name": "fileHash",
          "type": "bytes32"
        }
      ],
      "name": "timeLeft",
      "outputs": [
        {
          "internalType": "uint256",
          "name": "",
          "type": "uint256"
        }
      ],
      "stateMutability": "view",
      "type": "function",
      "constant": true
    },
    {
      "inputs": [
        {
          "internalType": "address",
          "name": "currency",
          "type": "address"
        }
      ],
      "name": "getRate",
      "outputs": [
        {
          "internalType": "uint256",
          "name": "",
          "type": "uint256"
        }
      ],
      "stateMutability": "view",
      "type": "function",
      "constant": true
    },
    {
      "inputs": [],
      "name": "getRate",
      "outputs": [
        {
          "internalType": "uint256",
          "name": "",
          "type": "uint256"
        }
      ],
      "stateMutability": "view",
      "type": "function",
      "constant": true
    },
    {
      "inputs": [
        {
          "internalType": "bytes32",
          "name": "fileHash",
          "type": "bytes32"
        },
        {
          "internalType": "uint256",
          "name": "durationInDays",
          "type": "uint256"
        }
      ],
      "name": "adminAddTime",
      "outputs": [
        {
          "internalType": "uint256",
          "name": "",
          "type": "uint256"
        }
      ],
      "stateMutability": "nonpayable",
      "type": "function"
    },
    {
      "inputs": [
        {
          "internalType": "uint256",
          "name": "amount",
          "type": "uint256"
        }
      ],
      "name": "adjustRate",
      "outputs": [],
      "stateMutability": "nonpayable",
      "type": "function"
    },
    {
      "inputs": [
        {
          "internalType": "address",
          "name": "currency",
          "type": "address"
        },
        {
          "internalType": "uint256",
          "name": "amount",
          "type": "uint256"
        }
      ],
      "name": "adjustRate",
      "outputs": [],
      "stateMutability": "nonpayable",
      "type": "function"
    },
    {
      "inputs": [
        {
          "internalType": "address",
          "name": "newAdmin",
          "type": "address"
        }
      ],
      "name": "addAdmin",
      "outputs": [],
      "stateMutability": "nonpayable",
      "type": "function"
    },
    {
      "inputs": [
        {
          "internalType": "address",
          "name": "oldAdmin",
          "type": "address"
        }
      ],
      "name": "removeAdmin",
      "outputs": [],
      "stateMutability": "nonpayable",
      "type": "function"
    },
    {
      "inputs": [
        {
          "internalType": "address",
          "name": "tokenContract",
          "type": "address"
        },
        {
          "internalType": "uint256",
          "name": "perDiam",
          "type": "uint256"
        }
      ],
      "name": "addAcceptedToken",
      "outputs": [],
      "stateMutability": "nonpayable",
      "type": "function"
    },
    {
      "inputs": [
        {
          "internalType": "address",
          "name": "tokenContract",
          "type": "address"
        }
      ],
      "name": "removeAcceptedToken",
      "outputs": [],
      "stateMutability": "nonpayable",
      "type": "function"
    }
  ],
  "bytecode": "0x60806040523480156200001157600080fd5b506040516200214338038062002143833981810160405281019062000037919062000114565b600062000049620000f560201b60201c565b9050806000806101000a81548173ffffffffffffffffffffffffffffffffffffffff021916908373ffffffffffffffffffffffffffffffffffffffff1602179055508073ffffffffffffffffffffffffffffffffffffffff16600073ffffffffffffffffffffffffffffffffffffffff167f8be0079c531659141344cd1fd0a4f28419497f9722a3daafe3b4186f6b6457e060405160405180910390a35080600681905550506200016f565b600033905090565b6000815190506200010e8162000155565b92915050565b6000602082840312156200012d576200012c62000150565b5b60006200013d84828501620000fd565b91505092915050565b6000819050919050565b600080fd5b620001608162000146565b81146200016c57600080fd5b50565b611fc4806200017f6000396000f3fe6080604052600436106100f35760003560e01c8063704802751161008a578063b1edf1b311610059578063b1edf1b31461031b578063b78a7d0e14610344578063d8134a2314610381578063f2fde38b146103aa576100f3565b80637048027514610280578063715018a6146102a95780638da5cb5b146102c057806398094ad5146102eb576100f3565b8063555d6331116100c6578063555d6331146101d857806355b726bc14610203578063679aefce1461022c5780636bd3e1f314610257576100f3565b80631785f53c146100f85780631968348c1461012157806337cef7911461015e578063380328621461019b575b600080fd5b34801561010457600080fd5b5061011f600480360381019061011a91906115e9565b6103d3565b005b34801561012d57600080fd5b5061014860048036038101906101439190611703565b610563565b6040516101559190611ae0565b60405180910390f35b34801561016a57600080fd5b50610185600480360381019061018091906115e9565b610611565b6040516101929190611ae0565b60405180910390f35b3480156101a757600080fd5b506101c260048036038101906101bd9190611683565b61065a565b6040516101cf9190611ae0565b60405180910390f35b3480156101e457600080fd5b506101ed610714565b6040516101fa9190611985565b60405180910390f35b34801561020f57600080fd5b5061022a60048036038101906102259190611743565b61073a565b005b34801561023857600080fd5b5061024161080d565b60405161024e9190611ae0565b60405180910390f35b34801561026357600080fd5b5061027e60048036038101906102799190611616565b610817565b005b34801561028c57600080fd5b506102a760048036038101906102a291906115e9565b6109a4565b005b3480156102b557600080fd5b506102be610b2e565b005b3480156102cc57600080fd5b506102d5610c68565b6040516102e2919061190a565b60405180910390f35b61030560048036038101906103009190611683565b610c91565b6040516103129190611ae0565b60405180910390f35b34801561032757600080fd5b50610342600480360381019061033d9190611616565b610cfc565b005b34801561035057600080fd5b5061036b600480360381019061036691906116b0565b610e0b565b6040516103789190611ae0565b60405180910390f35b34801561038d57600080fd5b506103a860048036038101906103a391906115e9565b61102b565b005b3480156103b657600080fd5b506103d160048036038101906103cc91906115e9565b611116565b005b6103db6112bf565b73ffffffffffffffffffffffffffffffffffffffff166103f9610c68565b73ffffffffffffffffffffffffffffffffffffffff161461044f576040517f08c379a000000000000000000000000000000000000000000000000000000000815260040161044690611a40565b60405180910390fd5b610457610c68565b73ffffffffffffffffffffffffffffffffffffffff168173ffffffffffffffffffffffffffffffffffffffff1614156104c5576040517f08c379a00000000000000000000000000000000000000000000000000000000081526004016104bc906119e0565b60405180910390fd5b6000600260008373ffffffffffffffffffffffffffffffffffffffff1673ffffffffffffffffffffffffffffffffffffffff16815260200190815260200160002060006101000a81548160ff0219169083151502179055508073ffffffffffffffffffffffffffffffffffffffff167fa3b62bc36326052d97ea62d63c3d60308ed4c3ea8ac079dd8499f1e9c4f80c0f60405160405180910390a250565b600060011515600260006105756112bf565b73ffffffffffffffffffffffffffffffffffffffff1673ffffffffffffffffffffffffffffffffffffffff16815260200190815260200160002060009054906101000a900460ff161515146105ff576040517f08c379a00000000000000000000000000000000000000000000000000000000081526004016105f690611ac0565b60405180910390fd5b61060983836112c7565b905092915050565b6000600460008373ffffffffffffffffffffffffffffffffffffffff1673ffffffffffffffffffffffffffffffffffffffff168152602001908152602001600020549050919050565b600080600360008481526020019081526020016000206001015414156106b5576040517f08c379a00000000000000000000000000000000000000000000000000000000081526004016106ac906119a0565b60405180910390fd5b426003600084815260200190815260200160002060010154111561070a57620151804260036000858152602001908152602001600020600101546106f99190611bed565b6107039190611b62565b905061070f565b600090505b919050565b600160009054906101000a900473ffffffffffffffffffffffffffffffffffffffff1681565b600115156002600061074a6112bf565b73ffffffffffffffffffffffffffffffffffffffff1673ffffffffffffffffffffffffffffffffffffffff16815260200190815260200160002060009054906101000a900460ff161515146107d4576040517f08c379a00000000000000000000000000000000000000000000000000000000081526004016107cb90611ac0565b60405180910390fd5b806006819055506006547fffa89750c0a56b0e39fb1575856cfc36c826b77c16f41470cca551cb6b2550fa60405160405180910390a250565b6000600654905090565b60011515600260006108276112bf565b73ffffffffffffffffffffffffffffffffffffffff1673ffffffffffffffffffffffffffffffffffffffff16815260200190815260200160002060009054906101000a900460ff161515146108b1576040517f08c379a00000000000000000000000000000000000000000000000000000000081526004016108a890611ac0565b60405180910390fd5b6108ba826113ea565b6108f9576040517f08c379a00000000000000000000000000000000000000000000000000000000081526004016108f090611a20565b60405180910390fd5b80600460008473ffffffffffffffffffffffffffffffffffffffff1673ffffffffffffffffffffffffffffffffffffffff168152602001908152602001600020819055506005829080600181540180825580915050600190039060005260206000200160009091909190916101000a81548173ffffffffffffffffffffffffffffffffffffffff021916908373ffffffffffffffffffffffffffffffffffffffff1602179055505050565b6109ac6112bf565b73ffffffffffffffffffffffffffffffffffffffff166109ca610c68565b73ffffffffffffffffffffffffffffffffffffffff1614610a20576040517f08c379a0000000000000000000000000000000000000000000000000000000008152600401610a1790611a40565b60405180910390fd5b600073ffffffffffffffffffffffffffffffffffffffff168173ffffffffffffffffffffffffffffffffffffffff161415610a90576040517f08c379a0000000000000000000000000000000000000000000000000000000008152600401610a8790611a60565b60405180910390fd5b6001600260008373ffffffffffffffffffffffffffffffffffffffff1673ffffffffffffffffffffffffffffffffffffffff16815260200190815260200160002060006101000a81548160ff0219169083151502179055508073ffffffffffffffffffffffffffffffffffffffff167f44d6d25963f097ad14f29f06854a01f575648a1ef82f30e562ccd3889717e33960405160405180910390a250565b610b366112bf565b73ffffffffffffffffffffffffffffffffffffffff16610b54610c68565b73ffffffffffffffffffffffffffffffffffffffff1614610baa576040517f08c379a0000000000000000000000000000000000000000000000000000000008152600401610ba190611a40565b60405180910390fd5b600073ffffffffffffffffffffffffffffffffffffffff1660008054906101000a900473ffffffffffffffffffffffffffffffffffffffff1673ffffffffffffffffffffffffffffffffffffffff167f8be0079c531659141344cd1fd0a4f28419497f9722a3daafe3b4186f6b6457e060405160405180910390a360008060006101000a81548173ffffffffffffffffffffffffffffffffffffffff021916908373ffffffffffffffffffffffffffffffffffffffff160217905550565b60008060009054906101000a900473ffffffffffffffffffffffffffffffffffffffff16905090565b6000600654341015610cd8576040517f08c379a0000000000000000000000000000000000000000000000000000000008152600401610ccf90611a00565b60405180910390fd5b600060065434610ce89190611b62565b9050610cf483826112c7565b915050919050565b6001151560026000610d0c6112bf565b73ffffffffffffffffffffffffffffffffffffffff1673ffffffffffffffffffffffffffffffffffffffff16815260200190815260200160002060009054906101000a900460ff16151514610d96576040517f08c379a0000000000000000000000000000000000000000000000000000000008152600401610d8d90611ac0565b60405180910390fd5b80600460008473ffffffffffffffffffffffffffffffffffffffff1673ffffffffffffffffffffffffffffffffffffffff16815260200190815260200160002081905550807f872ce0ea2bfd46d0f461a15c63e21028b305318455420b5d0f107a71c00e946660405160405180910390a25050565b600080600460008573ffffffffffffffffffffffffffffffffffffffff1673ffffffffffffffffffffffffffffffffffffffff1681526020019081526020016000205411610e8e576040517f08c379a0000000000000000000000000000000000000000000000000000000008152600401610e8590611aa0565b60405180910390fd5b600460008473ffffffffffffffffffffffffffffffffffffffff1673ffffffffffffffffffffffffffffffffffffffff168152602001908152602001600020548211610f0f576040517f08c379a0000000000000000000000000000000000000000000000000000000008152600401610f0690611a80565b60405180910390fd5b600160009054906101000a900473ffffffffffffffffffffffffffffffffffffffff1673ffffffffffffffffffffffffffffffffffffffff166323b872dd33610f56610c68565b856040518463ffffffff1660e01b8152600401610f7593929190611925565b602060405180830381600087803b158015610f8f57600080fd5b505af1158015610fa3573d6000803e3d6000fd5b505050506040513d601f19601f82011682018060405250810190610fc79190611656565b506000600460008573ffffffffffffffffffffffffffffffffffffffff1673ffffffffffffffffffffffffffffffffffffffff16815260200190815260200160002054836110159190611b62565b905061102185826112c7565b9150509392505050565b600115156002600061103b6112bf565b73ffffffffffffffffffffffffffffffffffffffff1673ffffffffffffffffffffffffffffffffffffffff16815260200190815260200160002060009054906101000a900460ff161515146110c5576040517f08c379a00000000000000000000000000000000000000000000000000000000081526004016110bc90611ac0565b60405180910390fd5b6000600460008373ffffffffffffffffffffffffffffffffffffffff1673ffffffffffffffffffffffffffffffffffffffff16815260200190815260200160002081905550611113816113fd565b50565b61111e6112bf565b73ffffffffffffffffffffffffffffffffffffffff1661113c610c68565b73ffffffffffffffffffffffffffffffffffffffff1614611192576040517f08c379a000000000000000000000000000000000000000000000000000000000815260040161118990611a40565b60405180910390fd5b600073ffffffffffffffffffffffffffffffffffffffff168173ffffffffffffffffffffffffffffffffffffffff161415611202576040517f08c379a00000000000000000000000000000000000000000000000000000000081526004016111f9906119c0565b60405180910390fd5b8073ffffffffffffffffffffffffffffffffffffffff1660008054906101000a900473ffffffffffffffffffffffffffffffffffffffff1673ffffffffffffffffffffffffffffffffffffffff167f8be0079c531659141344cd1fd0a4f28419497f9722a3daafe3b4186f6b6457e060405160405180910390a3806000806101000a81548173ffffffffffffffffffffffffffffffffffffffff021916908373ffffffffffffffffffffffffffffffffffffffff16021790555050565b600033905090565b60008062015180836112d99190611b93565b9050426003600086815260200190815260200160002060010154111561135c577f513c4989cbd5b1f32c82c2e359fbeba32173251af39252b76480d4421502c529848460405161132a92919061195c565b60405180910390a18060036000868152602001908152602001600020600101546113549190611b0c565b9150506113e4565b80426113689190611b0c565b60036000868152602001908152602001600020600101819055507f513c4989cbd5b1f32c82c2e359fbeba32173251af39252b76480d4421502c52984846040516113b392919061195c565b60405180910390a16201518060036000868152602001908152602001600020600101546113e09190611b93565b9150505b92915050565b600080823b905060008111915050919050565b60005b600580549050811015611591578173ffffffffffffffffffffffffffffffffffffffff166005828154811061143857611437611d3e565b5b9060005260206000200160009054906101000a900473ffffffffffffffffffffffffffffffffffffffff1673ffffffffffffffffffffffffffffffffffffffff16141561157e57600560016005805490506114939190611bed565b815481106114a4576114a3611d3e565b5b9060005260206000200160009054906101000a900473ffffffffffffffffffffffffffffffffffffffff16600582815481106114e3576114e2611d3e565b5b9060005260206000200160006101000a81548173ffffffffffffffffffffffffffffffffffffffff021916908373ffffffffffffffffffffffffffffffffffffffff1602179055506005600160058054905061153f9190611bed565b815481106115505761154f611d3e565b5b9060005260206000200160006101000a81549073ffffffffffffffffffffffffffffffffffffffff02191690555b808061158990611c97565b915050611400565b5050565b6000813590506115a481611f32565b92915050565b6000815190506115b981611f49565b92915050565b6000813590506115ce81611f60565b92915050565b6000813590506115e381611f77565b92915050565b6000602082840312156115ff576115fe611d6d565b5b600061160d84828501611595565b91505092915050565b6000806040838503121561162d5761162c611d6d565b5b600061163b85828601611595565b925050602061164c858286016115d4565b9150509250929050565b60006020828403121561166c5761166b611d6d565b5b600061167a848285016115aa565b91505092915050565b60006020828403121561169957611698611d6d565b5b60006116a7848285016115bf565b91505092915050565b6000806000606084860312156116c9576116c8611d6d565b5b60006116d7868287016115bf565b93505060206116e886828701611595565b92505060406116f9868287016115d4565b9150509250925092565b6000806040838503121561171a57611719611d6d565b5b6000611728858286016115bf565b9250506020611739858286016115d4565b9150509250929050565b60006020828403121561175957611758611d6d565b5b6000611767848285016115d4565b91505092915050565b61177981611c21565b82525050565b61178881611c3f565b82525050565b61179781611c73565b82525050565b60006117aa601283611afb565b91506117b582611d72565b602082019050919050565b60006117cd602683611afb565b91506117d882611d9b565b604082019050919050565b60006117f0600b83611afb565b91506117fb82611dea565b602082019050919050565b6000611813600d83611afb565b915061181e82611e13565b602082019050919050565b6000611836600983611afb565b915061184182611e3c565b602082019050919050565b6000611859602083611afb565b915061186482611e65565b602082019050919050565b600061187c600d83611afb565b915061188782611e8e565b602082019050919050565b600061189f601783611afb565b91506118aa82611eb7565b602082019050919050565b60006118c2601483611afb565b91506118cd82611ee0565b602082019050919050565b60006118e5600983611afb565b91506118f082611f09565b602082019050919050565b61190481611c69565b82525050565b600060208201905061191f6000830184611770565b92915050565b600060608201905061193a6000830186611770565b6119476020830185611770565b61195460408301846118fb565b949350505050565b6000604082019050611971600083018561177f565b61197e60208301846118fb565b9392505050565b600060208201905061199a600083018461178e565b92915050565b600060208201905081810360008301526119b98161179d565b9050919050565b600060208201905081810360008301526119d9816117c0565b9050919050565b600060208201905081810360008301526119f9816117e3565b9050919050565b60006020820190508181036000830152611a1981611806565b9050919050565b60006020820190508181036000830152611a3981611829565b9050919050565b60006020820190508181036000830152611a598161184c565b9050919050565b60006020820190508181036000830152611a798161186f565b9050919050565b60006020820190508181036000830152611a9981611892565b9050919050565b60006020820190508181036000830152611ab9816118b5565b9050919050565b60006020820190508181036000830152611ad9816118d8565b9050919050565b6000602082019050611af560008301846118fb565b92915050565b600082825260208201905092915050565b6000611b1782611c69565b9150611b2283611c69565b9250827fffffffffffffffffffffffffffffffffffffffffffffffffffffffffffffffff03821115611b5757611b56611ce0565b5b828201905092915050565b6000611b6d82611c69565b9150611b7883611c69565b925082611b8857611b87611d0f565b5b828204905092915050565b6000611b9e82611c69565b9150611ba983611c69565b9250817fffffffffffffffffffffffffffffffffffffffffffffffffffffffffffffffff0483118215151615611be257611be1611ce0565b5b828202905092915050565b6000611bf882611c69565b9150611c0383611c69565b925082821015611c1657611c15611ce0565b5b828203905092915050565b6000611c2c82611c49565b9050919050565b60008115159050919050565b6000819050919050565b600073ffffffffffffffffffffffffffffffffffffffff82169050919050565b6000819050919050565b6000611c7e82611c85565b9050919050565b6000611c9082611c49565b9050919050565b6000611ca282611c69565b91507fffffffffffffffffffffffffffffffffffffffffffffffffffffffffffffffff821415611cd557611cd4611ce0565b5b600182019050919050565b7f4e487b7100000000000000000000000000000000000000000000000000000000600052601160045260246000fd5b7f4e487b7100000000000000000000000000000000000000000000000000000000600052601260045260246000fd5b7f4e487b7100000000000000000000000000000000000000000000000000000000600052603260045260246000fd5b600080fd5b7f636f6e7472616374206e6f7420666f756e640000000000000000000000000000600082015250565b7f4f776e61626c653a206e6577206f776e657220697320746865207a65726f206160008201527f6464726573730000000000000000000000000000000000000000000000000000602082015250565b7f6f776e6572207374617973000000000000000000000000000000000000000000600082015250565b7f3120646179206d696e696d756d00000000000000000000000000000000000000600082015250565b7f6e6f742076616c69640000000000000000000000000000000000000000000000600082015250565b7f4f776e61626c653a2063616c6c6572206973206e6f7420746865206f776e6572600082015250565b7f61646472657373283029206e6f00000000000000000000000000000000000000600082015250565b7f6d75737420627579206174206c65617374203120646179000000000000000000600082015250565b7f756e737570706f727465642063757272656e6379000000000000000000000000600082015250565b7f6e6f742061646d696e0000000000000000000000000000000000000000000000600082015250565b611f3b81611c21565b8114611f4657600080fd5b50565b611f5281611c33565b8114611f5d57600080fd5b50565b611f6981611c3f565b8114611f7457600080fd5b50565b611f8081611c69565b8114611f8b57600080fd5b5056fea264697066735822122019d14c867679e24527f56fbc361a15621b5f09e8234c56a8454d445bfcf2059f64736f6c63430008060033",
  "immutableReferences": {},
  "source": "// SPDX-License-Identifier: MIT\npragma solidity ^0.8.0;\nimport \"./Ownable.sol\";\n\ninterface ERC20Interface {\n  function transferFrom(address from, address to, uint tokens) external returns (bool success);\n}\n\n\ncontract StorageManagementV1 is Ownable{\n  constructor(uint256 _baseFee){\n    baseCurrencyPerDiam = _baseFee;\n  }\n  \n  ERC20Interface public payingToken;\n\n  mapping(address => bool) private admins;\n\n  modifier onlyAdmins{  \n    require(admins[_msgSender()]==true,\"not admin\");\n    _;\n  }\n\n  event BaseCurrencyRateAdjusted(uint256 indexed newAmount);\n  event AlternateCurrencyRateAdjusted(uint256 indexed newAmount);\n  event TimeAdded(bytes32 fileHash, uint256 addedTime);\n  event AdminAdded(address indexed newAdmin);\n  event AdminRemoved(address indexed oldAdmin);\n\n  struct FileStorageContract{\n    bytes32 fileHash;\n    uint256 expireTime;  \n  }\n  //deal with the admin part\n  mapping (bytes32 => FileStorageContract) private activeContracts;\n  mapping (address => uint256) private alternateCurrencyPerDiam;\n  address[] acceptedTokens;\n  uint256 private baseCurrencyPerDiam;\n\n\n  function addTime(bytes32 fileHash) \n  public payable returns(uint256){\n    require(msg.value >= baseCurrencyPerDiam,\"1 day minimum\");\n    uint256 durationInDays = (msg.value/baseCurrencyPerDiam);\n    return _addTime(fileHash, durationInDays);\n  }\n\n\n  function addTime (bytes32 fileHash,  address currency , uint256 amount) \n  public returns(uint256) {\n    require(alternateCurrencyPerDiam[currency]>0,\"unsupported currency\");\n    require(amount > alternateCurrencyPerDiam[currency],\"must buy at least 1 day\");\n    payingToken.transferFrom(msg.sender, owner(), amount);\n    uint256 durationInDays = (amount / alternateCurrencyPerDiam[currency]);\n    return _addTime(fileHash, durationInDays);\n  } \n\n  \n  function _addTime(bytes32 fileHash, uint256 timeInDays) private returns(uint256){\n    uint256 time = timeInDays * 1 days;\n    if(activeContracts[fileHash].expireTime > block.timestamp){\n      emit TimeAdded(fileHash, timeInDays);\n      return activeContracts[fileHash].expireTime + time;\n    }\n    else{\n      activeContracts[fileHash].expireTime = block.timestamp + time;\n      emit TimeAdded(fileHash, timeInDays);\n      return activeContracts[fileHash].expireTime * 1 days;\n    } \n  }\n\n\n  function timeLeft(bytes32 fileHash) public view returns (uint256){\n    require(activeContracts[fileHash].expireTime != 0,\"contract not found\");\n    if(activeContracts[fileHash].expireTime > block.timestamp){\n      return (activeContracts[fileHash].expireTime - block.timestamp) / 1 days;\n    }\n    else{\n      return 0;\n    }\n  }\n\n  \n  function getRate() public view returns (uint256){\n    return baseCurrencyPerDiam;\n  }\n\n\n  function getRate(address currency) public view returns(uint256){\n    return alternateCurrencyPerDiam[currency];\n  }\n\n\n  function adminAddTime(bytes32 fileHash,uint256 durationInDays) \n  public onlyAdmins returns(uint256) {\n      return _addTime(fileHash, durationInDays);\n  }\n\n\n  function adjustRate(uint256 amount) public onlyAdmins{\n    baseCurrencyPerDiam = amount;\n    emit BaseCurrencyRateAdjusted(baseCurrencyPerDiam);\n  }\n\n\n  function adjustRate(address currency, uint256 amount) public onlyAdmins{\n    alternateCurrencyPerDiam[currency] = amount;\n    emit AlternateCurrencyRateAdjusted(amount);\n  }\n\n\n  function addAdmin(address newAdmin) public onlyOwner{\n    require(newAdmin!=address(0),\"address(0) no\");\n    admins[newAdmin] = true;\n    emit AdminAdded(newAdmin);\n  }\n\n\n  function removeAdmin(address oldAdmin) public onlyOwner{\n    require(oldAdmin!=owner(),\"owner stays\");\n    admins[oldAdmin] = false;\n    emit AdminRemoved(oldAdmin);\n  }\n\n\n  function addAcceptedToken(address tokenContract, uint256 perDiam) public onlyAdmins{\n    require(isContract(tokenContract), \"not valid\");\n    alternateCurrencyPerDiam[tokenContract] = perDiam;\n    acceptedTokens.push(tokenContract);\n  }\n\n\n  function removeAcceptedToken(address tokenContract) public onlyAdmins{\n    alternateCurrencyPerDiam[tokenContract] = 0;\n    _removeToken(tokenContract);\n  }\n\n\n  function _removeToken(address token) private {\n    for(uint i=0; i < acceptedTokens.length;i++){\n      if(acceptedTokens[i]==token){\n        acceptedTokens[i] = acceptedTokens[acceptedTokens.length - 1];\n        delete acceptedTokens[acceptedTokens.length - 1];\n      }\n    }\n  }\n\n\n  function isContract(address account) internal view returns (bool) {\n        // This method relies on extcodesize, which returns 0 for contracts in\n        // construction, since the code is only stored at the end of the\n        // constructor execution.\n\n        uint256 size;\n        assembly {\n            size := extcodesize(account)\n        }\n        return size > 0;\n    }\n}",
  "sourcePath": "/Users/yvan/Dropbox/projects/moto/contracts/marketplace-contracts/contracts/StorageManagementV1.sol",
  "compiler": {
    "name": "solc",
    "version": "0.8.6+commit.11564f7e.Emscripten.clang"
  },
  "schemaVersion": "3.3.4",
  "updatedAt": "2021-06-26T07:25:56.575Z",
  "networkType": "ethereum",
  "devdoc": {
    "kind": "dev",
    "methods": {
      "owner()": {
        "details": "Returns the address of the current owner."
      },
      "renounceOwnership()": {
        "details": "Leaves the contract without owner. It will not be possible to call `onlyOwner` functions anymore. Can only be called by the current owner. NOTE: Renouncing ownership will leave the contract without an owner, thereby removing any functionality that is only available to the owner."
      },
      "transferOwnership(address)": {
        "details": "Transfers ownership of the contract to a new account (`newOwner`). Can only be called by the current owner."
      }
    },
    "version": 1
  },
  "userdoc": {
    "kind": "user",
    "methods": {},
    "version": 1
  }
}