{
  "contractName": "BEPMotoNFT",
  "abi": [
    {
      "inputs": [
        {
          "internalType": "string",
          "name": "_name",
          "type": "string"
        },
        {
          "internalType": "string",
          "name": "_symbol",
          "type": "string"
        }
      ],
      "stateMutability": "nonpayable",
      "type": "constructor"
    },
    {
      "anonymous": false,
      "inputs": [
        {
          "indexed": true,
          "internalType": "address",
          "name": "newAdmin",
          "type": "address"
        }
      ],
      "name": "AdminAdded",
      "type": "event"
    },
    {
      "anonymous": false,
      "inputs": [
        {
          "indexed": true,
          "internalType": "address",
          "name": "oldAdmin",
          "type": "address"
        }
      ],
      "name": "AdminRemoved",
      "type": "event"
    },
    {
      "anonymous": false,
      "inputs": [
        {
          "indexed": true,
          "internalType": "address",
          "name": "owner",
          "type": "address"
        },
        {
          "indexed": true,
          "internalType": "address",
          "name": "approved",
          "type": "address"
        },
        {
          "indexed": true,
          "internalType": "uint256",
          "name": "tokenId",
          "type": "uint256"
        }
      ],
      "name": "Approval",
      "type": "event"
    },
    {
      "anonymous": false,
      "inputs": [
        {
          "indexed": true,
          "internalType": "address",
          "name": "owner",
          "type": "address"
        },
        {
          "indexed": true,
          "internalType": "address",
          "name": "operator",
          "type": "address"
        },
        {
          "indexed": false,
          "internalType": "bool",
          "name": "approved",
          "type": "bool"
        }
      ],
      "name": "ApprovalForAll",
      "type": "event"
    },
    {
      "anonymous": false,
      "inputs": [
        {
          "indexed": true,
          "internalType": "uint256",
          "name": "tokeID",
          "type": "uint256"
        }
      ],
      "name": "IPFSAddressUpdated",
      "type": "event"
    },
    {
      "anonymous": false,
      "inputs": [
        {
          "indexed": true,
          "internalType": "address",
          "name": "owner",
          "type": "address"
        },
        {
          "indexed": true,
          "internalType": "uint256",
          "name": "tokenID",
          "type": "uint256"
        }
      ],
      "name": "MOTONFTMinted",
      "type": "event"
    },
    {
      "anonymous": false,
      "inputs": [
        {
          "indexed": false,
          "internalType": "address",
          "name": "userAddress",
          "type": "address"
        },
        {
          "indexed": false,
          "internalType": "address",
          "name": "relayerAddress",
          "type": "address"
        },
        {
          "indexed": false,
          "internalType": "bytes",
          "name": "functionSignature",
          "type": "bytes"
        }
      ],
      "name": "MetaTransactionExecuted",
      "type": "event"
    },
    {
      "anonymous": false,
      "inputs": [
        {
          "indexed": true,
          "internalType": "address",
          "name": "oldMinter",
          "type": "address"
        }
      ],
      "name": "MinterRemoved",
      "type": "event"
    },
    {
      "anonymous": false,
      "inputs": [
        {
          "indexed": true,
          "internalType": "address",
          "name": "newMinter",
          "type": "address"
        }
      ],
      "name": "NewMOTONFTMinter",
      "type": "event"
    },
    {
      "anonymous": false,
      "inputs": [
        {
          "indexed": true,
          "internalType": "address",
          "name": "previousOwner",
          "type": "address"
        },
        {
          "indexed": true,
          "internalType": "address",
          "name": "newOwner",
          "type": "address"
        }
      ],
      "name": "OwnershipTransferred",
      "type": "event"
    },
    {
      "anonymous": false,
      "inputs": [
        {
          "indexed": true,
          "internalType": "address",
          "name": "from",
          "type": "address"
        },
        {
          "indexed": true,
          "internalType": "address",
          "name": "to",
          "type": "address"
        },
        {
          "indexed": true,
          "internalType": "uint256",
          "name": "tokenId",
          "type": "uint256"
        }
      ],
      "name": "Transfer",
      "type": "event"
    },
    {
      "inputs": [
        {
          "internalType": "address",
          "name": "to",
          "type": "address"
        },
        {
          "internalType": "uint256",
          "name": "tokenId",
          "type": "uint256"
        }
      ],
      "name": "approve",
      "outputs": [],
      "stateMutability": "nonpayable",
      "type": "function"
    },
    {
      "inputs": [
        {
          "internalType": "address",
          "name": "owner",
          "type": "address"
        }
      ],
      "name": "balanceOf",
      "outputs": [
        {
          "internalType": "uint256",
          "name": "",
          "type": "uint256"
        }
      ],
      "stateMutability": "view",
      "type": "function",
      "constant": true
    },
    {
      "inputs": [],
      "name": "domainSeparator",
      "outputs": [
        {
          "internalType": "bytes32",
          "name": "",
          "type": "bytes32"
        }
      ],
      "stateMutability": "view",
      "type": "function",
      "constant": true
    },
    {
      "inputs": [
        {
          "internalType": "address",
          "name": "userAddress",
          "type": "address"
        },
        {
          "internalType": "bytes",
          "name": "functionSignature",
          "type": "bytes"
        },
        {
          "internalType": "bytes32",
          "name": "sigR",
          "type": "bytes32"
        },
        {
          "internalType": "bytes32",
          "name": "sigS",
          "type": "bytes32"
        },
        {
          "internalType": "uint8",
          "name": "sigV",
          "type": "uint8"
        }
      ],
      "name": "executeMetaTransaction",
      "outputs": [
        {
          "internalType": "bytes",
          "name": "",
          "type": "bytes"
        }
      ],
      "stateMutability": "payable",
      "type": "function",
      "payable": true
    },
    {
      "inputs": [
        {
          "internalType": "uint256",
          "name": "tokenId",
          "type": "uint256"
        }
      ],
      "name": "getApproved",
      "outputs": [
        {
          "internalType": "address",
          "name": "",
          "type": "address"
        }
      ],
      "stateMutability": "view",
      "type": "function",
      "constant": true
    },
    {
      "inputs": [],
      "name": "getChainId",
      "outputs": [
        {
          "internalType": "uint256",
          "name": "",
          "type": "uint256"
        }
      ],
      "stateMutability": "view",
      "type": "function",
      "constant": true
    },
    {
      "inputs": [
        {
          "internalType": "address",
          "name": "user",
          "type": "address"
        }
      ],
      "name": "getNonce",
      "outputs": [
        {
          "internalType": "uint256",
          "name": "nonce",
          "type": "uint256"
        }
      ],
      "stateMutability": "view",
      "type": "function",
      "constant": true
    },
    {
      "inputs": [
        {
          "internalType": "address",
          "name": "owner",
          "type": "address"
        },
        {
          "internalType": "address",
          "name": "operator",
          "type": "address"
        }
      ],
      "name": "isApprovedForAll",
      "outputs": [
        {
          "internalType": "bool",
          "name": "",
          "type": "bool"
        }
      ],
      "stateMutability": "view",
      "type": "function",
      "constant": true
    },
    {
      "inputs": [],
      "name": "name",
      "outputs": [
        {
          "internalType": "string",
          "name": "",
          "type": "string"
        }
      ],
      "stateMutability": "view",
      "type": "function",
      "constant": true
    },
    {
      "inputs": [],
      "name": "owner",
      "outputs": [
        {
          "internalType": "address",
          "name": "",
          "type": "address"
        }
      ],
      "stateMutability": "view",
      "type": "function",
      "constant": true
    },
    {
      "inputs": [
        {
          "internalType": "uint256",
          "name": "tokenId",
          "type": "uint256"
        }
      ],
      "name": "ownerOf",
      "outputs": [
        {
          "internalType": "address",
          "name": "",
          "type": "address"
        }
      ],
      "stateMutability": "view",
      "type": "function",
      "constant": true
    },
    {
      "inputs": [],
      "name": "renounceOwnership",
      "outputs": [],
      "stateMutability": "nonpayable",
      "type": "function"
    },
    {
      "inputs": [
        {
          "internalType": "address",
          "name": "from",
          "type": "address"
        },
        {
          "internalType": "address",
          "name": "to",
          "type": "address"
        },
        {
          "internalType": "uint256",
          "name": "tokenId",
          "type": "uint256"
        }
      ],
      "name": "safeTransferFrom",
      "outputs": [],
      "stateMutability": "nonpayable",
      "type": "function"
    },
    {
      "inputs": [
        {
          "internalType": "address",
          "name": "from",
          "type": "address"
        },
        {
          "internalType": "address",
          "name": "to",
          "type": "address"
        },
        {
          "internalType": "uint256",
          "name": "tokenId",
          "type": "uint256"
        },
        {
          "internalType": "bytes",
          "name": "_data",
          "type": "bytes"
        }
      ],
      "name": "safeTransferFrom",
      "outputs": [],
      "stateMutability": "nonpayable",
      "type": "function"
    },
    {
      "inputs": [
        {
          "internalType": "address",
          "name": "operator",
          "type": "address"
        },
        {
          "internalType": "bool",
          "name": "approved",
          "type": "bool"
        }
      ],
      "name": "setApprovalForAll",
      "outputs": [],
      "stateMutability": "nonpayable",
      "type": "function"
    },
    {
      "inputs": [
        {
          "internalType": "bytes4",
          "name": "interfaceId",
          "type": "bytes4"
        }
      ],
      "name": "supportsInterface",
      "outputs": [
        {
          "internalType": "bool",
          "name": "",
          "type": "bool"
        }
      ],
      "stateMutability": "view",
      "type": "function",
      "constant": true
    },
    {
      "inputs": [],
      "name": "symbol",
      "outputs": [
        {
          "internalType": "string",
          "name": "",
          "type": "string"
        }
      ],
      "stateMutability": "view",
      "type": "function",
      "constant": true
    },
    {
      "inputs": [
        {
          "internalType": "uint256",
          "name": "tokenId",
          "type": "uint256"
        }
      ],
      "name": "tokenURI",
      "outputs": [
        {
          "internalType": "string",
          "name": "",
          "type": "string"
        }
      ],
      "stateMutability": "view",
      "type": "function",
      "constant": true
    },
    {
      "inputs": [
        {
          "internalType": "address",
          "name": "from",
          "type": "address"
        },
        {
          "internalType": "address",
          "name": "to",
          "type": "address"
        },
        {
          "internalType": "uint256",
          "name": "tokenId",
          "type": "uint256"
        }
      ],
      "name": "transferFrom",
      "outputs": [],
      "stateMutability": "nonpayable",
      "type": "function"
    },
    {
      "inputs": [
        {
          "internalType": "address",
          "name": "newOwner",
          "type": "address"
        }
      ],
      "name": "transferOwnership",
      "outputs": [],
      "stateMutability": "nonpayable",
      "type": "function"
    },
    {
      "inputs": [
        {
          "internalType": "address",
          "name": "_to",
          "type": "address"
        },
        {
          "internalType": "uint256",
          "name": "_tokenId",
          "type": "uint256"
        },
        {
          "internalType": "string",
          "name": "name",
          "type": "string"
        },
        {
          "internalType": "string",
          "name": "contentHash",
          "type": "string"
        },
        {
          "internalType": "string",
          "name": "ipfsAddress",
          "type": "string"
        }
      ],
      "name": "mint",
      "outputs": [],
      "stateMutability": "nonpayable",
      "type": "function"
    },
    {
      "inputs": [
        {
          "internalType": "uint256",
          "name": "_tokenId",
          "type": "uint256"
        }
      ],
      "name": "burn",
      "outputs": [],
      "stateMutability": "nonpayable",
      "type": "function"
    },
    {
      "inputs": [
        {
          "internalType": "uint256",
          "name": "_tokenId",
          "type": "uint256"
        },
        {
          "internalType": "string",
          "name": "_uri",
          "type": "string"
        }
      ],
      "name": "setTokenURI",
      "outputs": [],
      "stateMutability": "nonpayable",
      "type": "function"
    },
    {
      "inputs": [
        {
          "internalType": "uint256",
          "name": "_tokenID",
          "type": "uint256"
        },
        {
          "internalType": "string",
          "name": "newIpfs",
          "type": "string"
        }
      ],
      "name": "setIPFSaddress",
      "outputs": [],
      "stateMutability": "nonpayable",
      "type": "function"
    },
    {
      "inputs": [
        {
          "internalType": "uint256",
          "name": "tokenID",
          "type": "uint256"
        }
      ],
      "name": "getNFTinfo",
      "outputs": [
        {
          "components": [
            {
              "internalType": "string",
              "name": "name",
              "type": "string"
            },
            {
              "internalType": "string",
              "name": "sha3hash",
              "type": "string"
            },
            {
              "internalType": "string",
              "name": "ipfs",
              "type": "string"
            }
          ],
          "internalType": "struct BEPMotoNFT.NFTParameters",
          "name": "nftParam",
          "type": "tuple"
        }
      ],
      "stateMutability": "view",
      "type": "function",
      "constant": true
    },
    {
      "inputs": [
        {
          "internalType": "address",
          "name": "newMinter",
          "type": "address"
        }
      ],
      "name": "addMinter",
      "outputs": [],
      "stateMutability": "nonpayable",
      "type": "function"
    },
    {
      "inputs": [
        {
          "internalType": "address",
          "name": "oldMinter",
          "type": "address"
        }
      ],
      "name": "removeMinter",
      "outputs": [],
      "stateMutability": "nonpayable",
      "type": "function"
    },
    {
      "inputs": [
        {
          "internalType": "address",
          "name": "newAdmin",
          "type": "address"
        }
      ],
      "name": "addAdmin",
      "outputs": [],
      "stateMutability": "nonpayable",
      "type": "function"
    },
    {
      "inputs": [
        {
          "internalType": "address",
          "name": "oldAdmin",
          "type": "address"
        }
      ],
      "name": "removeAdmin",
      "outputs": [],
      "stateMutability": "nonpayable",
      "type": "function"
    }
  ],
  "bytecode": "0x60806040523480156200001157600080fd5b5060405162005b3c38038062005b3c8339818101604052810190620000379190620006fe565b818160006200004b620001e260201b60201c565b905080600260006101000a81548173ffffffffffffffffffffffffffffffffffffffff021916908373ffffffffffffffffffffffffffffffffffffffff1602179055508073ffffffffffffffffffffffffffffffffffffffff16600073ffffffffffffffffffffffffffffffffffffffff167f8be0079c531659141344cd1fd0a4f28419497f9722a3daafe3b4186f6b6457e060405160405180910390a350816003908051906020019062000102929190620005dc565b5080600490805190602001906200011b929190620005dc565b5050506200019a6040518060400160405280601081526020017f4d6f746f204e6574776f726b204e4654000000000000000000000000000000008152506040518060400160405280600181526020017f3100000000000000000000000000000000000000000000000000000000000000815250620001ea60201b60201c565b620001ba620001ae6200026560201b60201c565b6200028f60201b60201c565b620001da620001ce6200026560201b60201c565b6200042f60201b60201c565b505062000b05565b600033905090565b6040518060800160405280604f815260200162005aed604f91398051906020012082805190602001208280519060200120306200022c620005cf60201b60201c565b60001b6040516020016200024595949392919062000808565b604051602081830303815290604052805190602001206000819055505050565b6000600260009054906101000a900473ffffffffffffffffffffffffffffffffffffffff16905090565b6200029f620001e260201b60201c565b73ffffffffffffffffffffffffffffffffffffffff16620002c56200026560201b60201c565b73ffffffffffffffffffffffffffffffffffffffff16146200031e576040517f08c379a0000000000000000000000000000000000000000000000000000000008152600401620003159062000887565b60405180910390fd5b600073ffffffffffffffffffffffffffffffffffffffff168173ffffffffffffffffffffffffffffffffffffffff16141562000391576040517f08c379a00000000000000000000000000000000000000000000000000000000081526004016200038890620008a9565b60405180910390fd5b6001600b60008373ffffffffffffffffffffffffffffffffffffffff1673ffffffffffffffffffffffffffffffffffffffff16815260200190815260200160002060006101000a81548160ff0219169083151502179055508073ffffffffffffffffffffffffffffffffffffffff167fe8ef423da4d665248a7ce1f0e0a839c6905bbbf9d5e7691912584b8a3b8b0e8060405160405180910390a250565b6200043f620001e260201b60201c565b73ffffffffffffffffffffffffffffffffffffffff16620004656200026560201b60201c565b73ffffffffffffffffffffffffffffffffffffffff1614620004be576040517f08c379a0000000000000000000000000000000000000000000000000000000008152600401620004b59062000887565b60405180910390fd5b600073ffffffffffffffffffffffffffffffffffffffff168173ffffffffffffffffffffffffffffffffffffffff16141562000531576040517f08c379a0000000000000000000000000000000000000000000000000000000008152600401620005289062000865565b60405180910390fd5b6001600a60008373ffffffffffffffffffffffffffffffffffffffff1673ffffffffffffffffffffffffffffffffffffffff16815260200190815260200160002060006101000a81548160ff0219169083151502179055508073ffffffffffffffffffffffffffffffffffffffff167f44d6d25963f097ad14f29f06854a01f575648a1ef82f30e562ccd3889717e33960405160405180910390a250565b6000804690508091505090565b828054620005ea90620009af565b90600052602060002090601f0160209004810192826200060e57600085556200065a565b82601f106200062957805160ff19168380011785556200065a565b828001600101855582156200065a579182015b82811115620006595782518255916020019190600101906200063c565b5b5090506200066991906200066d565b5090565b5b80821115620006885760008160009055506001016200066e565b5090565b6000620006a36200069d84620008f4565b620008cb565b905082815260208101848484011115620006bc57600080fd5b620006c984828562000979565b509392505050565b600082601f830112620006e357600080fd5b8151620006f58482602086016200068c565b91505092915050565b600080604083850312156200071257600080fd5b600083015167ffffffffffffffff8111156200072d57600080fd5b6200073b85828601620006d1565b925050602083015167ffffffffffffffff8111156200075957600080fd5b6200076785828601620006d1565b9150509250929050565b6200077c816200093b565b82525050565b6200078d816200094f565b82525050565b6000620007a26014836200092a565b9150620007af8262000a8a565b602082019050919050565b6000620007c96020836200092a565b9150620007d68262000ab3565b602082019050919050565b6000620007f0601f836200092a565b9150620007fd8262000adc565b602082019050919050565b600060a0820190506200081f600083018862000782565b6200082e602083018762000782565b6200083d604083018662000782565b6200084c606083018562000771565b6200085b608083018462000782565b9695505050505050565b60006020820190508181036000830152620008808162000793565b9050919050565b60006020820190508181036000830152620008a281620007ba565b9050919050565b60006020820190508181036000830152620008c481620007e1565b9050919050565b6000620008d7620008ea565b9050620008e58282620009e5565b919050565b6000604051905090565b600067ffffffffffffffff82111562000912576200091162000a4a565b5b6200091d8262000a79565b9050602081019050919050565b600082825260208201905092915050565b6000620009488262000959565b9050919050565b6000819050919050565b600073ffffffffffffffffffffffffffffffffffffffff82169050919050565b60005b83811015620009995780820151818401526020810190506200097c565b83811115620009a9576000848401525b50505050565b60006002820490506001821680620009c857607f821691505b60208210811415620009df57620009de62000a1b565b5b50919050565b620009f08262000a79565b810181811067ffffffffffffffff8211171562000a125762000a1162000a4a565b5b80604052505050565b7f4e487b7100000000000000000000000000000000000000000000000000000000600052602260045260246000fd5b7f4e487b7100000000000000000000000000000000000000000000000000000000600052604160045260246000fd5b6000601f19601f8301169050919050565b7f63616e74206265207a65726f2061646472657373000000000000000000000000600082015250565b7f4f776e61626c653a2063616c6c6572206973206e6f7420746865206f776e6572600082015250565b7f4d696e7465722063616e206e6f74206265207a65726f20616464726573732e00600082015250565b614fd88062000b156000396000f3fe6080604052600436106101c25760003560e01c80636352211e116100f7578063a22cb46511610095578063e985e9c511610064578063e985e9c514610651578063f2fde38b1461068e578063f698da25146106b7578063f9e89bd5146106e2576101c2565b8063a22cb46514610599578063b35cc186146105c2578063b88d4fde146105eb578063c87b56dd14610614576101c2565b8063715018a6116100d1578063715018a6146105035780638da5cb5b1461051a57806395d89b4114610545578063983b2d5614610570576101c2565b80636352211e14610460578063704802751461049d57806370a08231146104c6576101c2565b8063227b74a6116101645780633092afd51161013e5780633092afd5146103ba5780633408e470146103e357806342842e0e1461040e57806342966c6814610437576101c2565b8063227b74a61461031757806323b872dd146103545780632d0335ab1461037d576101c2565b8063095ea7b3116101a0578063095ea7b31461026c5780630c53c51c14610295578063162094c4146102c55780631785f53c146102ee576101c2565b806301ffc9a7146101c757806306fdde0314610204578063081812fc1461022f575b600080fd5b3480156101d357600080fd5b506101ee60048036038101906101e99190613707565b61070b565b6040516101fb9190613f02565b60405180910390f35b34801561021057600080fd5b506102196107ed565b6040516102269190613fe4565b60405180910390f35b34801561023b57600080fd5b5061025660048036038101906102519190613759565b61087f565b6040516102639190613e5d565b60405180910390f35b34801561027857600080fd5b50610293600480360381019061028e91906135ff565b610904565b005b6102af60048036038101906102aa9190613570565b610a1c565b6040516102bc9190613fc2565b60405180910390f35b3480156102d157600080fd5b506102ec60048036038101906102e791906137da565b610c86565b005b3480156102fa57600080fd5b5061031560048036038101906103109190613405565b610d2e565b005b34801561032357600080fd5b5061033e60048036038101906103399190613759565b610ebe565b60405161034b9190614346565b60405180910390f35b34801561036057600080fd5b5061037b6004803603810190610376919061346a565b6110a1565b005b34801561038957600080fd5b506103a4600480360381019061039f9190613405565b611101565b6040516103b19190614368565b60405180910390f35b3480156103c657600080fd5b506103e160048036038101906103dc9190613405565b61114a565b005b3480156103ef57600080fd5b506103f86112da565b6040516104059190614368565b60405180910390f35b34801561041a57600080fd5b506104356004803603810190610430919061346a565b6112e7565b005b34801561044357600080fd5b5061045e60048036038101906104599190613759565b611307565b005b34801561046c57600080fd5b5061048760048036038101906104829190613759565b611313565b6040516104949190613e5d565b60405180910390f35b3480156104a957600080fd5b506104c460048036038101906104bf9190613405565b6113c5565b005b3480156104d257600080fd5b506104ed60048036038101906104e89190613405565b61154f565b6040516104fa9190614368565b60405180910390f35b34801561050f57600080fd5b50610518611607565b005b34801561052657600080fd5b5061052f611744565b60405161053c9190613e5d565b60405180910390f35b34801561055157600080fd5b5061055a61176e565b6040516105679190613fe4565b60405180910390f35b34801561057c57600080fd5b5061059760048036038101906105929190613405565b611800565b005b3480156105a557600080fd5b506105c060048036038101906105bb9190613534565b61198a565b005b3480156105ce57600080fd5b506105e960048036038101906105e4919061363b565b611b0b565b005b3480156105f757600080fd5b50610612600480360381019061060d91906134b9565b611d51565b005b34801561062057600080fd5b5061063b60048036038101906106369190613759565b611db3565b6040516106489190613fe4565b60405180910390f35b34801561065d57600080fd5b506106786004803603810190610673919061342e565b611f05565b6040516106859190613f02565b60405180910390f35b34801561069a57600080fd5b506106b560048036038101906106b09190613405565b611f99565b005b3480156106c357600080fd5b506106cc612145565b6040516106d99190613f1d565b60405180910390f35b3480156106ee57600080fd5b5061070960048036038101906107049190613782565b61214b565b005b60007f80ac58cd000000000000000000000000000000000000000000000000000000007bffffffffffffffffffffffffffffffffffffffffffffffffffffffff1916827bffffffffffffffffffffffffffffffffffffffffffffffffffffffff191614806107d657507f5b5e139f000000000000000000000000000000000000000000000000000000007bffffffffffffffffffffffffffffffffffffffffffffffffffffffff1916827bffffffffffffffffffffffffffffffffffffffffffffffffffffffff1916145b806107e657506107e58261223d565b5b9050919050565b6060600380546107fc906145f1565b80601f0160208091040260200160405190810160405280929190818152602001828054610828906145f1565b80156108755780601f1061084a57610100808354040283529160200191610875565b820191906000526020600020905b81548152906001019060200180831161085857829003601f168201915b5050505050905090565b600061088a826122a7565b6108c9576040517f08c379a00000000000000000000000000000000000000000000000000000000081526004016108c090614226565b60405180910390fd5b6007600083815260200190815260200160002060009054906101000a900473ffffffffffffffffffffffffffffffffffffffff169050919050565b600061090f82611313565b90508073ffffffffffffffffffffffffffffffffffffffff168373ffffffffffffffffffffffffffffffffffffffff161415610980576040517f08c379a0000000000000000000000000000000000000000000000000000000008152600401610977906142c6565b60405180910390fd5b8073ffffffffffffffffffffffffffffffffffffffff1661099f612313565b73ffffffffffffffffffffffffffffffffffffffff1614806109ce57506109cd816109c8612313565b611f05565b5b610a0d576040517f08c379a0000000000000000000000000000000000000000000000000000000008152600401610a0490614126565b60405180910390fd5b610a17838361231b565b505050565b606060006040518060600160405280600160008a73ffffffffffffffffffffffffffffffffffffffff1673ffffffffffffffffffffffffffffffffffffffff1681526020019081526020016000205481526020018873ffffffffffffffffffffffffffffffffffffffff168152602001878152509050610a9f87828787876123d4565b610ade576040517f08c379a0000000000000000000000000000000000000000000000000000000008152600401610ad590614106565b60405180910390fd5b60018060008973ffffffffffffffffffffffffffffffffffffffff1673ffffffffffffffffffffffffffffffffffffffff16815260200190815260200160002054610b299190614469565b600160008973ffffffffffffffffffffffffffffffffffffffff1673ffffffffffffffffffffffffffffffffffffffff168152602001908152602001600020819055507f5845892132946850460bff5a0083f71031bc5bf9aadcd40f1de79423eac9b10b873388604051610b9f93929190613e78565b60405180910390a16000803073ffffffffffffffffffffffffffffffffffffffff16888a604051602001610bd4929190613dda565b604051602081830303815290604052604051610bf09190613dc3565b6000604051808303816000865af19150503d8060008114610c2d576040519150601f19603f3d011682016040523d82523d6000602084013e610c32565b606091505b509150915081610c77576040517f08c379a0000000000000000000000000000000000000000000000000000000008152600401610c6e90614206565b60405180910390fd5b80935050505095945050505050565b60011515600a6000610c96612313565b73ffffffffffffffffffffffffffffffffffffffff1673ffffffffffffffffffffffffffffffffffffffff16815260200190815260200160002060009054906101000a900460ff16151514610d20576040517f08c379a0000000000000000000000000000000000000000000000000000000008152600401610d1790614066565b60405180910390fd5b610d2a82826124dd565b5050565b610d36612313565b73ffffffffffffffffffffffffffffffffffffffff16610d54611744565b73ffffffffffffffffffffffffffffffffffffffff1614610daa576040517f08c379a0000000000000000000000000000000000000000000000000000000008152600401610da190614246565b60405180910390fd5b610db2611744565b73ffffffffffffffffffffffffffffffffffffffff168173ffffffffffffffffffffffffffffffffffffffff161415610e20576040517f08c379a0000000000000000000000000000000000000000000000000000000008152600401610e17906141a6565b60405180910390fd5b6000600a60008373ffffffffffffffffffffffffffffffffffffffff1673ffffffffffffffffffffffffffffffffffffffff16815260200190815260200160002060006101000a81548160ff0219169083151502179055508073ffffffffffffffffffffffffffffffffffffffff167fa3b62bc36326052d97ea62d63c3d60308ed4c3ea8ac079dd8499f1e9c4f80c0f60405160405180910390a250565b610ec66130ce565b600c6000838152602001908152602001600020604051806060016040529081600082018054610ef4906145f1565b80601f0160208091040260200160405190810160405280929190818152602001828054610f20906145f1565b8015610f6d5780601f10610f4257610100808354040283529160200191610f6d565b820191906000526020600020905b815481529060010190602001808311610f5057829003601f168201915b50505050508152602001600182018054610f86906145f1565b80601f0160208091040260200160405190810160405280929190818152602001828054610fb2906145f1565b8015610fff5780601f10610fd457610100808354040283529160200191610fff565b820191906000526020600020905b815481529060010190602001808311610fe257829003601f168201915b50505050508152602001600282018054611018906145f1565b80601f0160208091040260200160405190810160405280929190818152602001828054611044906145f1565b80156110915780601f1061106657610100808354040283529160200191611091565b820191906000526020600020905b81548152906001019060200180831161107457829003601f168201915b5050505050815250509050919050565b6110b26110ac612313565b82612551565b6110f1576040517f08c379a00000000000000000000000000000000000000000000000000000000081526004016110e890614306565b60405180910390fd5b6110fc83838361262f565b505050565b6000600160008373ffffffffffffffffffffffffffffffffffffffff1673ffffffffffffffffffffffffffffffffffffffff168152602001908152602001600020549050919050565b611152612313565b73ffffffffffffffffffffffffffffffffffffffff16611170611744565b73ffffffffffffffffffffffffffffffffffffffff16146111c6576040517f08c379a00000000000000000000000000000000000000000000000000000000081526004016111bd90614246565b60405180910390fd5b6111ce611744565b73ffffffffffffffffffffffffffffffffffffffff168173ffffffffffffffffffffffffffffffffffffffff16141561123c576040517f08c379a0000000000000000000000000000000000000000000000000000000008152600401611233906141a6565b60405180910390fd5b6000600b60008373ffffffffffffffffffffffffffffffffffffffff1673ffffffffffffffffffffffffffffffffffffffff16815260200190815260200160002060006101000a81548160ff0219169083151502179055508073ffffffffffffffffffffffffffffffffffffffff167fe94479a9f7e1952cc78f2d6baab678adc1b772d936c6583def489e524cb6669260405160405180910390a250565b6000804690508091505090565b61130283838360405180602001604052806000815250611d51565b505050565b6113108161288b565b50565b6000806005600084815260200190815260200160002060009054906101000a900473ffffffffffffffffffffffffffffffffffffffff169050600073ffffffffffffffffffffffffffffffffffffffff168173ffffffffffffffffffffffffffffffffffffffff1614156113bc576040517f08c379a00000000000000000000000000000000000000000000000000000000081526004016113b390614166565b60405180910390fd5b80915050919050565b6113cd612313565b73ffffffffffffffffffffffffffffffffffffffff166113eb611744565b73ffffffffffffffffffffffffffffffffffffffff1614611441576040517f08c379a000000000000000000000000000000000000000000000000000000000815260040161143890614246565b60405180910390fd5b600073ffffffffffffffffffffffffffffffffffffffff168173ffffffffffffffffffffffffffffffffffffffff1614156114b1576040517f08c379a00000000000000000000000000000000000000000000000000000000081526004016114a8906140c6565b60405180910390fd5b6001600a60008373ffffffffffffffffffffffffffffffffffffffff1673ffffffffffffffffffffffffffffffffffffffff16815260200190815260200160002060006101000a81548160ff0219169083151502179055508073ffffffffffffffffffffffffffffffffffffffff167f44d6d25963f097ad14f29f06854a01f575648a1ef82f30e562ccd3889717e33960405160405180910390a250565b60008073ffffffffffffffffffffffffffffffffffffffff168273ffffffffffffffffffffffffffffffffffffffff1614156115c0576040517f08c379a00000000000000000000000000000000000000000000000000000000081526004016115b790614146565b60405180910390fd5b600660008373ffffffffffffffffffffffffffffffffffffffff1673ffffffffffffffffffffffffffffffffffffffff168152602001908152602001600020549050919050565b61160f612313565b73ffffffffffffffffffffffffffffffffffffffff1661162d611744565b73ffffffffffffffffffffffffffffffffffffffff1614611683576040517f08c379a000000000000000000000000000000000000000000000000000000000815260040161167a90614246565b60405180910390fd5b600073ffffffffffffffffffffffffffffffffffffffff16600260009054906101000a900473ffffffffffffffffffffffffffffffffffffffff1673ffffffffffffffffffffffffffffffffffffffff167f8be0079c531659141344cd1fd0a4f28419497f9722a3daafe3b4186f6b6457e060405160405180910390a36000600260006101000a81548173ffffffffffffffffffffffffffffffffffffffff021916908373ffffffffffffffffffffffffffffffffffffffff160217905550565b6000600260009054906101000a900473ffffffffffffffffffffffffffffffffffffffff16905090565b60606004805461177d906145f1565b80601f01602080910402602001604051908101604052809291908181526020018280546117a9906145f1565b80156117f65780601f106117cb576101008083540402835291602001916117f6565b820191906000526020600020905b8154815290600101906020018083116117d957829003601f168201915b5050505050905090565b611808612313565b73ffffffffffffffffffffffffffffffffffffffff16611826611744565b73ffffffffffffffffffffffffffffffffffffffff161461187c576040517f08c379a000000000000000000000000000000000000000000000000000000000815260040161187390614246565b60405180910390fd5b600073ffffffffffffffffffffffffffffffffffffffff168173ffffffffffffffffffffffffffffffffffffffff1614156118ec576040517f08c379a00000000000000000000000000000000000000000000000000000000081526004016118e390614326565b60405180910390fd5b6001600b60008373ffffffffffffffffffffffffffffffffffffffff1673ffffffffffffffffffffffffffffffffffffffff16815260200190815260200160002060006101000a81548160ff0219169083151502179055508073ffffffffffffffffffffffffffffffffffffffff167fe8ef423da4d665248a7ce1f0e0a839c6905bbbf9d5e7691912584b8a3b8b0e8060405160405180910390a250565b611992612313565b73ffffffffffffffffffffffffffffffffffffffff168273ffffffffffffffffffffffffffffffffffffffff161415611a00576040517f08c379a00000000000000000000000000000000000000000000000000000000081526004016119f7906140a6565b60405180910390fd5b8060086000611a0d612313565b73ffffffffffffffffffffffffffffffffffffffff1673ffffffffffffffffffffffffffffffffffffffff16815260200190815260200160002060008473ffffffffffffffffffffffffffffffffffffffff1673ffffffffffffffffffffffffffffffffffffffff16815260200190815260200160002060006101000a81548160ff0219169083151502179055508173ffffffffffffffffffffffffffffffffffffffff16611aba612313565b73ffffffffffffffffffffffffffffffffffffffff167f17307eab39ab6107e8899845ad3d59bd9653f200f220920489ca2b5937696c3183604051611aff9190613f02565b60405180910390a35050565b60011515600b6000611b1b612313565b73ffffffffffffffffffffffffffffffffffffffff1673ffffffffffffffffffffffffffffffffffffffff16815260200190815260200160002060009054906101000a900460ff16151514611ba5576040517f08c379a0000000000000000000000000000000000000000000000000000000008152600401611b9c906142a6565b60405180910390fd5b611baf88886128de565b604051806060016040528087878080601f016020809104026020016040519081016040528093929190818152602001838380828437600081840152601f19601f82011690508083019250505050505050815260200185858080601f016020809104026020016040519081016040528093929190818152602001838380828437600081840152601f19601f82011690508083019250505050505050815260200183838080601f016020809104026020016040519081016040528093929190818152602001838380828437600081840152601f19601f82011690508083019250505050505050815250600c60008981526020019081526020016000206000820151816000019080519060200190611cc59291906130ef565b506020820151816001019080519060200190611ce29291906130ef565b506040820151816002019080519060200190611cff9291906130ef565b50905050868873ffffffffffffffffffffffffffffffffffffffff167fbb6e2a8d0127c0244cfb4d05401b210d6ed5a05423833026447341327b9ecb4060405160405180910390a35050505050505050565b611d62611d5c612313565b83612551565b611da1576040517f08c379a0000000000000000000000000000000000000000000000000000000008152600401611d9890614306565b60405180910390fd5b611dad84848484612aac565b50505050565b6060611dbe826122a7565b611dfd576040517f08c379a0000000000000000000000000000000000000000000000000000000008152600401611df4906141e6565b60405180910390fd5b6000600960008481526020019081526020016000208054611e1d906145f1565b80601f0160208091040260200160405190810160405280929190818152602001828054611e49906145f1565b8015611e965780601f10611e6b57610100808354040283529160200191611e96565b820191906000526020600020905b815481529060010190602001808311611e7957829003601f168201915b505050505090506000611ea7612b08565b9050600081511415611ebd578192505050611f00565b600082511115611ef2578082604051602001611eda929190613e02565b60405160208183030381529060405292505050611f00565b611efb84612b1f565b925050505b919050565b6000600860008473ffffffffffffffffffffffffffffffffffffffff1673ffffffffffffffffffffffffffffffffffffffff16815260200190815260200160002060008373ffffffffffffffffffffffffffffffffffffffff1673ffffffffffffffffffffffffffffffffffffffff16815260200190815260200160002060009054906101000a900460ff16905092915050565b611fa1612313565b73ffffffffffffffffffffffffffffffffffffffff16611fbf611744565b73ffffffffffffffffffffffffffffffffffffffff1614612015576040517f08c379a000000000000000000000000000000000000000000000000000000000815260040161200c90614246565b60405180910390fd5b600073ffffffffffffffffffffffffffffffffffffffff168173ffffffffffffffffffffffffffffffffffffffff161415612085576040517f08c379a000000000000000000000000000000000000000000000000000000000815260040161207c90614026565b60405180910390fd5b8073ffffffffffffffffffffffffffffffffffffffff16600260009054906101000a900473ffffffffffffffffffffffffffffffffffffffff1673ffffffffffffffffffffffffffffffffffffffff167f8be0079c531659141344cd1fd0a4f28419497f9722a3daafe3b4186f6b6457e060405160405180910390a380600260006101000a81548173ffffffffffffffffffffffffffffffffffffffff021916908373ffffffffffffffffffffffffffffffffffffffff16021790555050565b60005481565b60011515600b600061215b612313565b73ffffffffffffffffffffffffffffffffffffffff1673ffffffffffffffffffffffffffffffffffffffff16815260200190815260200160002060009054906101000a900460ff161515146121e5576040517f08c379a00000000000000000000000000000000000000000000000000000000081526004016121dc906142a6565b60405180910390fd5b8181600c6000868152602001908152602001600020600201919061220a929190613175565b50827fb5dd55c48e06cac877f72affcf989357b4e1b121d79a7aad340e78bbf04b289a60405160405180910390a2505050565b60007f01ffc9a7000000000000000000000000000000000000000000000000000000007bffffffffffffffffffffffffffffffffffffffffffffffffffffffff1916827bffffffffffffffffffffffffffffffffffffffffffffffffffffffff1916149050919050565b60008073ffffffffffffffffffffffffffffffffffffffff166005600084815260200190815260200160002060009054906101000a900473ffffffffffffffffffffffffffffffffffffffff1673ffffffffffffffffffffffffffffffffffffffff1614159050919050565b600033905090565b816007600083815260200190815260200160002060006101000a81548173ffffffffffffffffffffffffffffffffffffffff021916908373ffffffffffffffffffffffffffffffffffffffff160217905550808273ffffffffffffffffffffffffffffffffffffffff1661238e83611313565b73ffffffffffffffffffffffffffffffffffffffff167f8c5be1e5ebec7d5bd14f71427d1e84f3dd0314c0f7b2291e5b200ac8c7c3b92560405160405180910390a45050565b60008073ffffffffffffffffffffffffffffffffffffffff168673ffffffffffffffffffffffffffffffffffffffff161415612445576040517f08c379a000000000000000000000000000000000000000000000000000000000815260040161243c906142e6565b60405180910390fd5b600161245861245387612bc6565b612c2e565b838686604051600081526020016040526040516124789493929190613f7d565b6020604051602081039080840390855afa15801561249a573d6000803e3d6000fd5b5050506020604051035173ffffffffffffffffffffffffffffffffffffffff168673ffffffffffffffffffffffffffffffffffffffff1614905095945050505050565b6124e6826122a7565b612525576040517f08c379a000000000000000000000000000000000000000000000000000000000815260040161251c90614186565b60405180910390fd5b8060096000848152602001908152602001600020908051906020019061254c9291906130ef565b505050565b600061255c826122a7565b61259b576040517f08c379a0000000000000000000000000000000000000000000000000000000008152600401612592906140e6565b60405180910390fd5b60006125a683611313565b90508073ffffffffffffffffffffffffffffffffffffffff168473ffffffffffffffffffffffffffffffffffffffff16148061261557508373ffffffffffffffffffffffffffffffffffffffff166125fd8461087f565b73ffffffffffffffffffffffffffffffffffffffff16145b8061262657506126258185611f05565b5b91505092915050565b8273ffffffffffffffffffffffffffffffffffffffff1661264f82611313565b73ffffffffffffffffffffffffffffffffffffffff16146126a5576040517f08c379a000000000000000000000000000000000000000000000000000000000815260040161269c90614266565b60405180910390fd5b600073ffffffffffffffffffffffffffffffffffffffff168273ffffffffffffffffffffffffffffffffffffffff161415612715576040517f08c379a000000000000000000000000000000000000000000000000000000000815260040161270c90614086565b60405180910390fd5b612720838383612c61565b61272b60008261231b565b6001600660008573ffffffffffffffffffffffffffffffffffffffff1673ffffffffffffffffffffffffffffffffffffffff168152602001908152602001600020600082825461277b91906144f0565b925050819055506001600660008473ffffffffffffffffffffffffffffffffffffffff1673ffffffffffffffffffffffffffffffffffffffff16815260200190815260200160002060008282546127d29190614469565b92505081905550816005600083815260200190815260200160002060006101000a81548173ffffffffffffffffffffffffffffffffffffffff021916908373ffffffffffffffffffffffffffffffffffffffff160217905550808273ffffffffffffffffffffffffffffffffffffffff168473ffffffffffffffffffffffffffffffffffffffff167fddf252ad1be2c89b69c2b068fc378daa952ba7f163c4a11628f55a4df523b3ef60405160405180910390a4505050565b61289481612c66565b60006009600083815260200190815260200160002080546128b4906145f1565b9050146128db576009600082815260200190815260200160002060006128da91906131fb565b5b50565b600073ffffffffffffffffffffffffffffffffffffffff168273ffffffffffffffffffffffffffffffffffffffff16141561294e576040517f08c379a0000000000000000000000000000000000000000000000000000000008152600401612945906141c6565b60405180910390fd5b612957816122a7565b15612997576040517f08c379a000000000000000000000000000000000000000000000000000000000815260040161298e90614046565b60405180910390fd5b6129a360008383612c61565b6001600660008473ffffffffffffffffffffffffffffffffffffffff1673ffffffffffffffffffffffffffffffffffffffff16815260200190815260200160002060008282546129f39190614469565b92505081905550816005600083815260200190815260200160002060006101000a81548173ffffffffffffffffffffffffffffffffffffffff021916908373ffffffffffffffffffffffffffffffffffffffff160217905550808273ffffffffffffffffffffffffffffffffffffffff16600073ffffffffffffffffffffffffffffffffffffffff167fddf252ad1be2c89b69c2b068fc378daa952ba7f163c4a11628f55a4df523b3ef60405160405180910390a45050565b612ab784848461262f565b612ac384848484612d77565b612b02576040517f08c379a0000000000000000000000000000000000000000000000000000000008152600401612af990614006565b60405180910390fd5b50505050565b606060405180602001604052806000815250905090565b6060612b2a826122a7565b612b69576040517f08c379a0000000000000000000000000000000000000000000000000000000008152600401612b6090614286565b60405180910390fd5b6000612b73612b08565b90506000815111612b935760405180602001604052806000815250612bbe565b80612b9d84612f0e565b604051602001612bae929190613e02565b6040516020818303038152906040525b915050919050565b6000604051806080016040528060438152602001614f60604391398051906020012082600001518360200151846040015180519060200120604051602001612c119493929190613f38565b604051602081830303815290604052805190602001209050919050565b6000805482604051602001612c44929190613e26565b604051602081830303815290604052805190602001209050919050565b505050565b6000612c7182611313565b9050612c7f81600084612c61565b612c8a60008361231b565b6001600660008373ffffffffffffffffffffffffffffffffffffffff1673ffffffffffffffffffffffffffffffffffffffff1681526020019081526020016000206000828254612cda91906144f0565b925050819055506005600083815260200190815260200160002060006101000a81549073ffffffffffffffffffffffffffffffffffffffff021916905581600073ffffffffffffffffffffffffffffffffffffffff168273ffffffffffffffffffffffffffffffffffffffff167fddf252ad1be2c89b69c2b068fc378daa952ba7f163c4a11628f55a4df523b3ef60405160405180910390a45050565b6000612d988473ffffffffffffffffffffffffffffffffffffffff166130bb565b15612f01578373ffffffffffffffffffffffffffffffffffffffff1663150b7a02612dc1612313565b8786866040518563ffffffff1660e01b8152600401612de39493929190613eb6565b602060405180830381600087803b158015612dfd57600080fd5b505af1925050508015612e2e57506040513d601f19601f82011682018060405250810190612e2b9190613730565b60015b612eb1573d8060008114612e5e576040519150601f19603f3d011682016040523d82523d6000602084013e612e63565b606091505b50600081511415612ea9576040517f08c379a0000000000000000000000000000000000000000000000000000000008152600401612ea090614006565b60405180910390fd5b805181602001fd5b63150b7a0260e01b7bffffffffffffffffffffffffffffffffffffffffffffffffffffffff1916817bffffffffffffffffffffffffffffffffffffffffffffffffffffffff191614915050612f06565b600190505b949350505050565b60606000821415612f56576040518060400160405280600181526020017f300000000000000000000000000000000000000000000000000000000000000081525090506130b6565b600082905060005b60008214612f88578080612f7190614654565b915050600a82612f8191906144bf565b9150612f5e565b60008167ffffffffffffffff811115612fca577f4e487b7100000000000000000000000000000000000000000000000000000000600052604160045260246000fd5b6040519080825280601f01601f191660200182016040528015612ffc5781602001600182028036833780820191505090505b5090505b600085146130af5760018261301591906144f0565b9150600a8561302491906146cb565b60306130309190614469565b60f81b81838151811061306c577f4e487b7100000000000000000000000000000000000000000000000000000000600052603260045260246000fd5b60200101907effffffffffffffffffffffffffffffffffffffffffffffffffffffffffffff1916908160001a905350600a856130a891906144bf565b9450613000565b8093505050505b919050565b600080823b905060008111915050919050565b60405180606001604052806060815260200160608152602001606081525090565b8280546130fb906145f1565b90600052602060002090601f01602090048101928261311d5760008555613164565b82601f1061313657805160ff1916838001178555613164565b82800160010185558215613164579182015b82811115613163578251825591602001919060010190613148565b5b509050613171919061323b565b5090565b828054613181906145f1565b90600052602060002090601f0160209004810192826131a357600085556131ea565b82601f106131bc57803560ff19168380011785556131ea565b828001600101855582156131ea579182015b828111156131e95782358255916020019190600101906131ce565b5b5090506131f7919061323b565b5090565b508054613207906145f1565b6000825580601f106132195750613238565b601f016020900490600052602060002090810190613237919061323b565b5b50565b5b8082111561325457600081600090555060010161323c565b5090565b600061326b613266846143a8565b614383565b90508281526020810184848401111561328357600080fd5b61328e8482856145af565b509392505050565b60006132a96132a4846143d9565b614383565b9050828152602081018484840111156132c157600080fd5b6132cc8482856145af565b509392505050565b6000813590506132e381614ed5565b92915050565b6000813590506132f881614eec565b92915050565b60008135905061330d81614f03565b92915050565b60008135905061332281614f1a565b92915050565b60008151905061333781614f1a565b92915050565b600082601f83011261334e57600080fd5b813561335e848260208601613258565b91505092915050565b60008083601f84011261337957600080fd5b8235905067ffffffffffffffff81111561339257600080fd5b6020830191508360018202830111156133aa57600080fd5b9250929050565b600082601f8301126133c257600080fd5b81356133d2848260208601613296565b91505092915050565b6000813590506133ea81614f31565b92915050565b6000813590506133ff81614f48565b92915050565b60006020828403121561341757600080fd5b6000613425848285016132d4565b91505092915050565b6000806040838503121561344157600080fd5b600061344f858286016132d4565b9250506020613460858286016132d4565b9150509250929050565b60008060006060848603121561347f57600080fd5b600061348d868287016132d4565b935050602061349e868287016132d4565b92505060406134af868287016133db565b9150509250925092565b600080600080608085870312156134cf57600080fd5b60006134dd878288016132d4565b94505060206134ee878288016132d4565b93505060406134ff878288016133db565b925050606085013567ffffffffffffffff81111561351c57600080fd5b6135288782880161333d565b91505092959194509250565b6000806040838503121561354757600080fd5b6000613555858286016132d4565b9250506020613566858286016132e9565b9150509250929050565b600080600080600060a0868803121561358857600080fd5b6000613596888289016132d4565b955050602086013567ffffffffffffffff8111156135b357600080fd5b6135bf8882890161333d565b94505060406135d0888289016132fe565b93505060606135e1888289016132fe565b92505060806135f2888289016133f0565b9150509295509295909350565b6000806040838503121561361257600080fd5b6000613620858286016132d4565b9250506020613631858286016133db565b9150509250929050565b60008060008060008060008060a0898b03121561365757600080fd5b60006136658b828c016132d4565b98505060206136768b828c016133db565b975050604089013567ffffffffffffffff81111561369357600080fd5b61369f8b828c01613367565b9650965050606089013567ffffffffffffffff8111156136be57600080fd5b6136ca8b828c01613367565b9450945050608089013567ffffffffffffffff8111156136e957600080fd5b6136f58b828c01613367565b92509250509295985092959890939650565b60006020828403121561371957600080fd5b600061372784828501613313565b91505092915050565b60006020828403121561374257600080fd5b600061375084828501613328565b91505092915050565b60006020828403121561376b57600080fd5b6000613779848285016133db565b91505092915050565b60008060006040848603121561379757600080fd5b60006137a5868287016133db565b935050602084013567ffffffffffffffff8111156137c257600080fd5b6137ce86828701613367565b92509250509250925092565b600080604083850312156137ed57600080fd5b60006137fb858286016133db565b925050602083013567ffffffffffffffff81111561381857600080fd5b613824858286016133b1565b9150509250929050565b61383781614524565b82525050565b61384e61384982614524565b61469d565b82525050565b61385d81614536565b82525050565b61386c81614542565b82525050565b61388361387e82614542565b6146af565b82525050565b60006138948261440a565b61389e8185614420565b93506138ae8185602086016145be565b6138b7816147b8565b840191505092915050565b60006138cd8261440a565b6138d78185614431565b93506138e78185602086016145be565b80840191505092915050565b60006138fe82614415565b613908818561443c565b93506139188185602086016145be565b613921816147b8565b840191505092915050565b600061393782614415565b613941818561444d565b93506139518185602086016145be565b61395a816147b8565b840191505092915050565b600061397082614415565b61397a818561445e565b935061398a8185602086016145be565b80840191505092915050565b60006139a360328361444d565b91506139ae826147d6565b604082019050919050565b60006139c660268361444d565b91506139d182614825565b604082019050919050565b60006139e9601c8361444d565b91506139f482614874565b602082019050919050565b6000613a0c60288361444d565b9150613a178261489d565b604082019050919050565b6000613a2f60028361445e565b9150613a3a826148ec565b600282019050919050565b6000613a5260248361444d565b9150613a5d82614915565b604082019050919050565b6000613a7560198361444d565b9150613a8082614964565b602082019050919050565b6000613a9860148361444d565b9150613aa38261498d565b602082019050919050565b6000613abb602c8361444d565b9150613ac6826149b6565b604082019050919050565b6000613ade603d8361444d565b9150613ae982614a05565b604082019050919050565b6000613b0160388361444d565b9150613b0c82614a54565b604082019050919050565b6000613b24602a8361444d565b9150613b2f82614aa3565b604082019050919050565b6000613b4760298361444d565b9150613b5282614af2565b604082019050919050565b6000613b6a602e8361444d565b9150613b7582614b41565b604082019050919050565b6000613b8d60148361444d565b9150613b9882614b90565b602082019050919050565b6000613bb060208361444d565b9150613bbb82614bb9565b602082019050919050565b6000613bd360318361444d565b9150613bde82614be2565b604082019050919050565b6000613bf660278361444d565b9150613c0182614c31565b604082019050919050565b6000613c19602c8361444d565b9150613c2482614c80565b604082019050919050565b6000613c3c60208361444d565b9150613c4782614ccf565b602082019050919050565b6000613c5f60298361444d565b9150613c6a82614cf8565b604082019050919050565b6000613c82602f8361444d565b9150613c8d82614d47565b604082019050919050565b6000613ca560288361444d565b9150613cb082614d96565b604082019050919050565b6000613cc860218361444d565b9150613cd382614de5565b604082019050919050565b6000613ceb601a8361444d565b9150613cf682614e34565b602082019050919050565b6000613d0e60318361444d565b9150613d1982614e5d565b604082019050919050565b6000613d31601f8361444d565b9150613d3c82614eac565b602082019050919050565b60006060830160008301518482036000860152613d6482826138f3565b91505060208301518482036020860152613d7e82826138f3565b91505060408301518482036040860152613d9882826138f3565b9150508091505092915050565b613dae81614598565b82525050565b613dbd816145a2565b82525050565b6000613dcf82846138c2565b915081905092915050565b6000613de682856138c2565b9150613df2828461383d565b6014820191508190509392505050565b6000613e0e8285613965565b9150613e1a8284613965565b91508190509392505050565b6000613e3182613a22565b9150613e3d8285613872565b602082019150613e4d8284613872565b6020820191508190509392505050565b6000602082019050613e72600083018461382e565b92915050565b6000606082019050613e8d600083018661382e565b613e9a602083018561382e565b8181036040830152613eac8184613889565b9050949350505050565b6000608082019050613ecb600083018761382e565b613ed8602083018661382e565b613ee56040830185613da5565b8181036060830152613ef78184613889565b905095945050505050565b6000602082019050613f176000830184613854565b92915050565b6000602082019050613f326000830184613863565b92915050565b6000608082019050613f4d6000830187613863565b613f5a6020830186613da5565b613f67604083018561382e565b613f746060830184613863565b95945050505050565b6000608082019050613f926000830187613863565b613f9f6020830186613db4565b613fac6040830185613863565b613fb96060830184613863565b95945050505050565b60006020820190508181036000830152613fdc8184613889565b905092915050565b60006020820190508181036000830152613ffe818461392c565b905092915050565b6000602082019050818103600083015261401f81613996565b9050919050565b6000602082019050818103600083015261403f816139b9565b9050919050565b6000602082019050818103600083015261405f816139dc565b9050919050565b6000602082019050818103600083015261407f816139ff565b9050919050565b6000602082019050818103600083015261409f81613a45565b9050919050565b600060208201905081810360008301526140bf81613a68565b9050919050565b600060208201905081810360008301526140df81613a8b565b9050919050565b600060208201905081810360008301526140ff81613aae565b9050919050565b6000602082019050818103600083015261411f81613ad1565b9050919050565b6000602082019050818103600083015261413f81613af4565b9050919050565b6000602082019050818103600083015261415f81613b17565b9050919050565b6000602082019050818103600083015261417f81613b3a565b9050919050565b6000602082019050818103600083015261419f81613b5d565b9050919050565b600060208201905081810360008301526141bf81613b80565b9050919050565b600060208201905081810360008301526141df81613ba3565b9050919050565b600060208201905081810360008301526141ff81613bc6565b9050919050565b6000602082019050818103600083015261421f81613be9565b9050919050565b6000602082019050818103600083015261423f81613c0c565b9050919050565b6000602082019050818103600083015261425f81613c2f565b9050919050565b6000602082019050818103600083015261427f81613c52565b9050919050565b6000602082019050818103600083015261429f81613c75565b9050919050565b600060208201905081810360008301526142bf81613c98565b9050919050565b600060208201905081810360008301526142df81613cbb565b9050919050565b600060208201905081810360008301526142ff81613cde565b9050919050565b6000602082019050818103600083015261431f81613d01565b9050919050565b6000602082019050818103600083015261433f81613d24565b9050919050565b600060208201905081810360008301526143608184613d47565b905092915050565b600060208201905061437d6000830184613da5565b92915050565b600061438d61439e565b90506143998282614623565b919050565b6000604051905090565b600067ffffffffffffffff8211156143c3576143c2614789565b5b6143cc826147b8565b9050602081019050919050565b600067ffffffffffffffff8211156143f4576143f3614789565b5b6143fd826147b8565b9050602081019050919050565b600081519050919050565b600081519050919050565b600082825260208201905092915050565b600081905092915050565b600082825260208201905092915050565b600082825260208201905092915050565b600081905092915050565b600061447482614598565b915061447f83614598565b9250827fffffffffffffffffffffffffffffffffffffffffffffffffffffffffffffffff038211156144b4576144b36146fc565b5b828201905092915050565b60006144ca82614598565b91506144d583614598565b9250826144e5576144e461472b565b5b828204905092915050565b60006144fb82614598565b915061450683614598565b925082821015614519576145186146fc565b5b828203905092915050565b600061452f82614578565b9050919050565b60008115159050919050565b6000819050919050565b60007fffffffff0000000000000000000000000000000000000000000000000000000082169050919050565b600073ffffffffffffffffffffffffffffffffffffffff82169050919050565b6000819050919050565b600060ff82169050919050565b82818337600083830152505050565b60005b838110156145dc5780820151818401526020810190506145c1565b838111156145eb576000848401525b50505050565b6000600282049050600182168061460957607f821691505b6020821081141561461d5761461c61475a565b5b50919050565b61462c826147b8565b810181811067ffffffffffffffff8211171561464b5761464a614789565b5b80604052505050565b600061465f82614598565b91507fffffffffffffffffffffffffffffffffffffffffffffffffffffffffffffffff821415614692576146916146fc565b5b600182019050919050565b60006146a8826146b9565b9050919050565b6000819050919050565b60006146c4826147c9565b9050919050565b60006146d682614598565b91506146e183614598565b9250826146f1576146f061472b565b5b828206905092915050565b7f4e487b7100000000000000000000000000000000000000000000000000000000600052601160045260246000fd5b7f4e487b7100000000000000000000000000000000000000000000000000000000600052601260045260246000fd5b7f4e487b7100000000000000000000000000000000000000000000000000000000600052602260045260246000fd5b7f4e487b7100000000000000000000000000000000000000000000000000000000600052604160045260246000fd5b6000601f19601f8301169050919050565b60008160601b9050919050565b7f4552433732313a207472616e7366657220746f206e6f6e20455243373231526560008201527f63656976657220696d706c656d656e7465720000000000000000000000000000602082015250565b7f4f776e61626c653a206e6577206f776e657220697320746865207a65726f206160008201527f6464726573730000000000000000000000000000000000000000000000000000602082015250565b7f4552433732313a20746f6b656e20616c7265616479206d696e74656400000000600082015250565b7f63616e206e6f7420706572666f726d20616374696f6e2062656361757365206e60008201527f6f742061646d696e000000000000000000000000000000000000000000000000602082015250565b7f1901000000000000000000000000000000000000000000000000000000000000600082015250565b7f4552433732313a207472616e7366657220746f20746865207a65726f2061646460008201527f7265737300000000000000000000000000000000000000000000000000000000602082015250565b7f4552433732313a20617070726f766520746f2063616c6c657200000000000000600082015250565b7f63616e74206265207a65726f2061646472657373000000000000000000000000600082015250565b7f4552433732313a206f70657261746f7220717565727920666f72206e6f6e657860008201527f697374656e7420746f6b656e0000000000000000000000000000000000000000602082015250565b7f4e4d5423657865637574654d6574615472616e73616374696f6e3a205349474e60008201527f45525f414e445f5349474e41545552455f444f5f4e4f545f4d41544348000000602082015250565b7f4552433732313a20617070726f76652063616c6c6572206973206e6f74206f7760008201527f6e6572206e6f7220617070726f76656420666f7220616c6c0000000000000000602082015250565b7f4552433732313a2062616c616e636520717565727920666f7220746865207a6560008201527f726f206164647265737300000000000000000000000000000000000000000000602082015250565b7f4552433732313a206f776e657220717565727920666f72206e6f6e657869737460008201527f656e7420746f6b656e0000000000000000000000000000000000000000000000602082015250565b7f45524337323155524953746f726167653a2055524920736574206f66206e6f6e60008201527f6578697374656e7420746f6b656e000000000000000000000000000000000000602082015250565b7f63616e206e6f742072656d6f7665206f776e6572000000000000000000000000600082015250565b7f4552433732313a206d696e7420746f20746865207a65726f2061646472657373600082015250565b7f45524337323155524953746f726167653a2055524920717565727920666f722060008201527f6e6f6e6578697374656e7420746f6b656e000000000000000000000000000000602082015250565b7f4e4d5423657865637574654d6574615472616e73616374696f6e3a2043414c4c60008201527f5f4641494c454400000000000000000000000000000000000000000000000000602082015250565b7f4552433732313a20617070726f76656420717565727920666f72206e6f6e657860008201527f697374656e7420746f6b656e0000000000000000000000000000000000000000602082015250565b7f4f776e61626c653a2063616c6c6572206973206e6f7420746865206f776e6572600082015250565b7f4552433732313a207472616e73666572206f6620746f6b656e2074686174206960008201527f73206e6f74206f776e0000000000000000000000000000000000000000000000602082015250565b7f4552433732314d657461646174613a2055524920717565727920666f72206e6f60008201527f6e6578697374656e7420746f6b656e0000000000000000000000000000000000602082015250565b7f63616e206e6f74206d696e742062656361757365206e6f7420617070726f766560008201527f64206d696e746572000000000000000000000000000000000000000000000000602082015250565b7f4552433732313a20617070726f76616c20746f2063757272656e74206f776e6560008201527f7200000000000000000000000000000000000000000000000000000000000000602082015250565b7f4e4d54237665726966793a20494e56414c49445f5349474e4552000000000000600082015250565b7f4552433732313a207472616e736665722063616c6c6572206973206e6f74206f60008201527f776e6572206e6f7220617070726f766564000000000000000000000000000000602082015250565b7f4d696e7465722063616e206e6f74206265207a65726f20616464726573732e00600082015250565b614ede81614524565b8114614ee957600080fd5b50565b614ef581614536565b8114614f0057600080fd5b50565b614f0c81614542565b8114614f1757600080fd5b50565b614f238161454c565b8114614f2e57600080fd5b50565b614f3a81614598565b8114614f4557600080fd5b50565b614f51816145a2565b8114614f5c57600080fd5b5056fe4d6574615472616e73616374696f6e2875696e74323536206e6f6e63652c616464726573732066726f6d2c62797465732066756e6374696f6e5369676e617475726529a26469706673582212206b63661f7bd72e7d0bd9b3c1b1f8cc3dc12abe6b6f56615dcd9e99a881b98dc364736f6c63430008040033454950373132446f6d61696e28737472696e67206e616d652c737472696e672076657273696f6e2c6164647265737320766572696679696e67436f6e74726163742c627974657333322073616c7429",
  "immutableReferences": {},
  "source": "// SPDX-License-Identifier: MIT\npragma solidity^0.8.0;\n\nimport \"@openzeppelin/contracts/token/ERC721/ERC721.sol\";\nimport \"@openzeppelin/contracts/token/ERC721/extensions/ERC721URIStorage.sol\";\nimport \"./NativeMetaTransaction.sol\";\nimport \"./Ownable.sol\";\n\n\ncontract BEPMotoNFT is NativeMetaTransaction, Ownable,ERC721URIStorage{\n\n  constructor(string memory _name, string memory _symbol) ERC721(_name, _symbol) {\n    _initializeEIP712('Moto Network NFT', '1');\n    addMinter(owner());\n    addAdmin(owner());\n  }\n\n  event NewMOTONFTMinter(address indexed newMinter);\n  event MinterRemoved(address indexed oldMinter);\n  event AdminAdded(address indexed newAdmin);\n  event AdminRemoved(address indexed oldAdmin);\n  event IPFSAddressUpdated(uint256 indexed tokeID);\n  event MOTONFTMinted(address indexed owner, uint256 indexed tokenID);\n\n\n  modifier onlyMinters{\n    require(minters[_msgSender()]==true,\"can not mint because not approved minter\");\n    _;\n  }\n\n  modifier onlyAdmin{\n    require(admins[_msgSender()]==true,\"can not perform action because not admin\");\n    _;\n  }\n\n  struct NFTParameters{\n    string name;\n    string sha3hash;\n    string ipfs;\n  }\n\n  mapping(address => bool) private admins;\n  mapping(address => bool) private minters;\n  mapping( uint256 => NFTParameters) private nftMetaData;\n  \n\n  function mint(address _to, uint256 _tokenId,string calldata name, string calldata contentHash,string calldata ipfsAddress) public onlyMinters{\n    super._mint(_to, _tokenId);\n    nftMetaData[_tokenId] = NFTParameters(name,contentHash,ipfsAddress);\n    emit MOTONFTMinted(_to, _tokenId);\n  }\n\n\n  function burn(uint256 _tokenId) public {\n   super._burn(_tokenId);\n  }\n\n\n  function setTokenURI(uint256 _tokenId, string memory _uri) public onlyAdmin{\n    super._setTokenURI(_tokenId, _uri);\n  }\n\n\n  function setIPFSaddress(uint256 _tokenID, string calldata newIpfs) public onlyMinters{\n    nftMetaData[_tokenID].ipfs = newIpfs;\n    emit IPFSAddressUpdated(_tokenID);\n  }\n\n\n  function getNFTinfo(uint256 tokenID) public view returns(NFTParameters memory nftParam){\n    return nftMetaData[tokenID];\n  }\n\n\n  function addMinter(address newMinter) public onlyOwner{\n    require(newMinter != address(0), \"Minter can not be zero address.\");\n    minters[newMinter] = true;\n    emit NewMOTONFTMinter(newMinter);\n  }\n\n\n  function removeMinter(address oldMinter) public onlyOwner{\n    require(oldMinter!=owner(), \"can not remove owner\");\n    minters[oldMinter] = false;\n    emit MinterRemoved(oldMinter);\n  }\n\n\n  function addAdmin(address newAdmin) public onlyOwner{\n    require(newAdmin!=address(0),\"cant be zero address\");\n    admins[newAdmin] = true;\n    emit AdminAdded(newAdmin);\n  }\n\n\n  function removeAdmin(address oldAdmin) public onlyOwner{\n    require(oldAdmin!=owner(),\"can not remove owner\");\n    admins[oldAdmin] = false;\n    emit AdminRemoved(oldAdmin);\n  }\n}\n",
  "sourcePath": "/Users/yvan/Dropbox/projects/moto/contracts/marketplace-contracts/contracts/BEPMotoNFT.sol",
  "compiler": {
    "name": "solc",
    "version": "0.8.4+commit.c7e474f2.Emscripten.clang"
  },
  "schemaVersion": "3.3.4",
  "updatedAt": "2021-05-29T00:40:35.689Z",
  "networkType": "ethereum",
  "devdoc": {
    "kind": "dev",
    "methods": {
      "approve(address,uint256)": {
        "details": "See {IERC721-approve}."
      },
      "balanceOf(address)": {
        "details": "See {IERC721-balanceOf}."
      },
      "getApproved(uint256)": {
        "details": "See {IERC721-getApproved}."
      },
      "isApprovedForAll(address,address)": {
        "details": "See {IERC721-isApprovedForAll}."
      },
      "name()": {
        "details": "See {IERC721Metadata-name}."
      },
      "owner()": {
        "details": "Returns the address of the current owner."
      },
      "ownerOf(uint256)": {
        "details": "See {IERC721-ownerOf}."
      },
      "renounceOwnership()": {
        "details": "Leaves the contract without owner. It will not be possible to call `onlyOwner` functions anymore. Can only be called by the current owner. NOTE: Renouncing ownership will leave the contract without an owner, thereby removing any functionality that is only available to the owner."
      },
      "safeTransferFrom(address,address,uint256)": {
        "details": "See {IERC721-safeTransferFrom}."
      },
      "safeTransferFrom(address,address,uint256,bytes)": {
        "details": "See {IERC721-safeTransferFrom}."
      },
      "setApprovalForAll(address,bool)": {
        "details": "See {IERC721-setApprovalForAll}."
      },
      "supportsInterface(bytes4)": {
        "details": "See {IERC165-supportsInterface}."
      },
      "symbol()": {
        "details": "See {IERC721Metadata-symbol}."
      },
      "tokenURI(uint256)": {
        "details": "See {IERC721Metadata-tokenURI}."
      },
      "transferFrom(address,address,uint256)": {
        "details": "See {IERC721-transferFrom}."
      },
      "transferOwnership(address)": {
        "details": "Transfers ownership of the contract to a new account (`newOwner`). Can only be called by the current owner."
      }
    },
    "version": 1
  },
  "userdoc": {
    "kind": "user",
    "methods": {},
    "version": 1
  }
}